{
	"SampleTokenSale.sol": {
		"SampleTokenSale": {
			"abi": [
				{
					"inputs": [
						{
							"internalType": "contract SampleToken",
							"name": "_tokenContract",
							"type": "address"
						},
						{
							"internalType": "uint256",
							"name": "_tokenPrice",
							"type": "uint256"
						}
					],
					"stateMutability": "nonpayable",
					"type": "constructor"
				},
				{
					"anonymous": false,
					"inputs": [
						{
							"indexed": true,
							"internalType": "address",
							"name": "_buyer",
							"type": "address"
						},
						{
							"indexed": true,
							"internalType": "uint256",
							"name": "_amount",
							"type": "uint256"
						}
					],
					"name": "Sell",
					"type": "event"
				},
				{
					"inputs": [
						{
							"internalType": "uint256",
							"name": "_numberOfTokens",
							"type": "uint256"
						}
					],
					"name": "buyTokens",
					"outputs": [],
					"stateMutability": "payable",
					"type": "function"
				},
				{
					"inputs": [],
					"name": "endSale",
					"outputs": [],
					"stateMutability": "nonpayable",
					"type": "function"
				},
				{
					"inputs": [
						{
							"internalType": "uint256",
							"name": "_tokenPrice",
							"type": "uint256"
						}
					],
					"name": "modifyTokenPrice",
					"outputs": [],
					"stateMutability": "nonpayable",
					"type": "function"
				},
				{
					"inputs": [],
					"name": "tokenContract",
					"outputs": [
						{
							"internalType": "contract SampleToken",
							"name": "",
							"type": "address"
						}
					],
					"stateMutability": "view",
					"type": "function"
				},
				{
					"inputs": [],
					"name": "tokenPrice",
					"outputs": [
						{
							"internalType": "uint256",
							"name": "",
							"type": "uint256"
						}
					],
					"stateMutability": "view",
					"type": "function"
				},
				{
					"inputs": [],
					"name": "tokensSold",
					"outputs": [
						{
							"internalType": "uint256",
							"name": "",
							"type": "uint256"
						}
					],
					"stateMutability": "view",
					"type": "function"
				}
			],
			"devdoc": {
				"kind": "dev",
				"methods": {},
				"version": 1
			},
			"evm": {
				"assembly": "    /* \"SampleTokenSale.sol\":87:1484  contract SampleTokenSale {... */\n  mstore(0x40, 0x80)\n    /* \"SampleTokenSale.sol\":310:480  constructor(SampleToken _tokenContract, uint256 _tokenPrice) {... */\n  callvalue\n  dup1\n  iszero\n  tag_1\n  jumpi\n  0x00\n  dup1\n  revert\ntag_1:\n  pop\n  mload(0x40)\n  sub(codesize, bytecodeSize)\n  dup1\n  bytecodeSize\n  dup4\n  codecopy\n  dup2\n  dup2\n  add\n  0x40\n  mstore\n  dup2\n  add\n  swap1\n  tag_2\n  swap2\n  swap1\n  tag_3\n  jump\t// in\ntag_2:\n    /* \"SampleTokenSale.sol\":389:399  msg.sender */\n  caller\n    /* \"SampleTokenSale.sol\":381:386  owner */\n  0x02\n  0x00\n    /* \"SampleTokenSale.sol\":381:399  owner = msg.sender */\n  0x0100\n  exp\n  dup2\n  sload\n  dup2\n  0xffffffffffffffffffffffffffffffffffffffff\n  mul\n  not\n  and\n  swap1\n  dup4\n  0xffffffffffffffffffffffffffffffffffffffff\n  and\n  mul\n  or\n  swap1\n  sstore\n  pop\n    /* \"SampleTokenSale.sol\":425:439  _tokenContract */\n  dup2\n    /* \"SampleTokenSale.sol\":409:422  tokenContract */\n  0x00\n  dup1\n    /* \"SampleTokenSale.sol\":409:439  tokenContract = _tokenContract */\n  0x0100\n  exp\n  dup2\n  sload\n  dup2\n  0xffffffffffffffffffffffffffffffffffffffff\n  mul\n  not\n  and\n  swap1\n  dup4\n  0xffffffffffffffffffffffffffffffffffffffff\n  and\n  mul\n  or\n  swap1\n  sstore\n  pop\n    /* \"SampleTokenSale.sol\":462:473  _tokenPrice */\n  dup1\n    /* \"SampleTokenSale.sol\":449:459  tokenPrice */\n  0x01\n    /* \"SampleTokenSale.sol\":449:473  tokenPrice = _tokenPrice */\n  dup2\n  swap1\n  sstore\n  pop\n    /* \"SampleTokenSale.sol\":310:480  constructor(SampleToken _tokenContract, uint256 _tokenPrice) {... */\n  pop\n  pop\n    /* \"SampleTokenSale.sol\":87:1484  contract SampleTokenSale {... */\n  jump(tag_6)\n    /* \"#utility.yul\":88:205   */\ntag_8:\n    /* \"#utility.yul\":197:198   */\n  0x00\n    /* \"#utility.yul\":194:195   */\n  dup1\n    /* \"#utility.yul\":187:199   */\n  revert\n    /* \"#utility.yul\":334:460   */\ntag_10:\n    /* \"#utility.yul\":371:378   */\n  0x00\n    /* \"#utility.yul\":411:453   */\n  0xffffffffffffffffffffffffffffffffffffffff\n    /* \"#utility.yul\":404:409   */\n  dup3\n    /* \"#utility.yul\":400:454   */\n  and\n    /* \"#utility.yul\":389:454   */\n  swap1\n  pop\n    /* \"#utility.yul\":334:460   */\n  swap2\n  swap1\n  pop\n  jump\t// out\n    /* \"#utility.yul\":466:562   */\ntag_11:\n    /* \"#utility.yul\":503:510   */\n  0x00\n    /* \"#utility.yul\":532:556   */\n  tag_24\n    /* \"#utility.yul\":550:555   */\n  dup3\n    /* \"#utility.yul\":532:556   */\n  tag_10\n  jump\t// in\ntag_24:\n    /* \"#utility.yul\":521:556   */\n  swap1\n  pop\n    /* \"#utility.yul\":466:562   */\n  swap2\n  swap1\n  pop\n  jump\t// out\n    /* \"#utility.yul\":568:683   */\ntag_12:\n    /* \"#utility.yul\":624:631   */\n  0x00\n    /* \"#utility.yul\":653:677   */\n  tag_26\n    /* \"#utility.yul\":671:676   */\n  dup3\n    /* \"#utility.yul\":653:677   */\n  tag_11\n  jump\t// in\ntag_26:\n    /* \"#utility.yul\":642:677   */\n  swap1\n  pop\n    /* \"#utility.yul\":568:683   */\n  swap2\n  swap1\n  pop\n  jump\t// out\n    /* \"#utility.yul\":689:849   */\ntag_13:\n    /* \"#utility.yul\":781:824   */\n  tag_28\n    /* \"#utility.yul\":818:823   */\n  dup2\n    /* \"#utility.yul\":781:824   */\n  tag_12\n  jump\t// in\ntag_28:\n    /* \"#utility.yul\":774:779   */\n  dup2\n    /* \"#utility.yul\":771:825   */\n  eq\n    /* \"#utility.yul\":761:843   */\n  tag_29\n  jumpi\n    /* \"#utility.yul\":839:840   */\n  0x00\n    /* \"#utility.yul\":836:837   */\n  dup1\n    /* \"#utility.yul\":829:841   */\n  revert\n    /* \"#utility.yul\":761:843   */\ntag_29:\n    /* \"#utility.yul\":689:849   */\n  pop\n  jump\t// out\n    /* \"#utility.yul\":855:1036   */\ntag_14:\n    /* \"#utility.yul\":931:936   */\n  0x00\n    /* \"#utility.yul\":962:968   */\n  dup2\n    /* \"#utility.yul\":956:969   */\n  mload\n    /* \"#utility.yul\":947:969   */\n  swap1\n  pop\n    /* \"#utility.yul\":978:1030   */\n  tag_31\n    /* \"#utility.yul\":1024:1029   */\n  dup2\n    /* \"#utility.yul\":978:1030   */\n  tag_13\n  jump\t// in\ntag_31:\n    /* \"#utility.yul\":855:1036   */\n  swap3\n  swap2\n  pop\n  pop\n  jump\t// out\n    /* \"#utility.yul\":1042:1119   */\ntag_15:\n    /* \"#utility.yul\":1079:1086   */\n  0x00\n    /* \"#utility.yul\":1108:1113   */\n  dup2\n    /* \"#utility.yul\":1097:1113   */\n  swap1\n  pop\n    /* \"#utility.yul\":1042:1119   */\n  swap2\n  swap1\n  pop\n  jump\t// out\n    /* \"#utility.yul\":1125:1247   */\ntag_16:\n    /* \"#utility.yul\":1198:1222   */\n  tag_34\n    /* \"#utility.yul\":1216:1221   */\n  dup2\n    /* \"#utility.yul\":1198:1222   */\n  tag_15\n  jump\t// in\ntag_34:\n    /* \"#utility.yul\":1191:1196   */\n  dup2\n    /* \"#utility.yul\":1188:1223   */\n  eq\n    /* \"#utility.yul\":1178:1241   */\n  tag_35\n  jumpi\n    /* \"#utility.yul\":1237:1238   */\n  0x00\n    /* \"#utility.yul\":1234:1235   */\n  dup1\n    /* \"#utility.yul\":1227:1239   */\n  revert\n    /* \"#utility.yul\":1178:1241   */\ntag_35:\n    /* \"#utility.yul\":1125:1247   */\n  pop\n  jump\t// out\n    /* \"#utility.yul\":1253:1396   */\ntag_17:\n    /* \"#utility.yul\":1310:1315   */\n  0x00\n    /* \"#utility.yul\":1341:1347   */\n  dup2\n    /* \"#utility.yul\":1335:1348   */\n  mload\n    /* \"#utility.yul\":1326:1348   */\n  swap1\n  pop\n    /* \"#utility.yul\":1357:1390   */\n  tag_37\n    /* \"#utility.yul\":1384:1389   */\n  dup2\n    /* \"#utility.yul\":1357:1390   */\n  tag_16\n  jump\t// in\ntag_37:\n    /* \"#utility.yul\":1253:1396   */\n  swap3\n  swap2\n  pop\n  pop\n  jump\t// out\n    /* \"#utility.yul\":1402:1947   */\ntag_3:\n    /* \"#utility.yul\":1500:1506   */\n  0x00\n    /* \"#utility.yul\":1508:1514   */\n  dup1\n    /* \"#utility.yul\":1557:1559   */\n  0x40\n    /* \"#utility.yul\":1545:1554   */\n  dup4\n    /* \"#utility.yul\":1536:1543   */\n  dup6\n    /* \"#utility.yul\":1532:1555   */\n  sub\n    /* \"#utility.yul\":1528:1560   */\n  slt\n    /* \"#utility.yul\":1525:1644   */\n  iszero\n  tag_39\n  jumpi\n    /* \"#utility.yul\":1563:1642   */\n  tag_40\n  tag_8\n  jump\t// in\ntag_40:\n    /* \"#utility.yul\":1525:1644   */\ntag_39:\n    /* \"#utility.yul\":1683:1684   */\n  0x00\n    /* \"#utility.yul\":1708:1791   */\n  tag_41\n    /* \"#utility.yul\":1783:1790   */\n  dup6\n    /* \"#utility.yul\":1774:1780   */\n  dup3\n    /* \"#utility.yul\":1763:1772   */\n  dup7\n    /* \"#utility.yul\":1759:1781   */\n  add\n    /* \"#utility.yul\":1708:1791   */\n  tag_14\n  jump\t// in\ntag_41:\n    /* \"#utility.yul\":1698:1791   */\n  swap3\n  pop\n    /* \"#utility.yul\":1654:1801   */\n  pop\n    /* \"#utility.yul\":1840:1842   */\n  0x20\n    /* \"#utility.yul\":1866:1930   */\n  tag_42\n    /* \"#utility.yul\":1922:1929   */\n  dup6\n    /* \"#utility.yul\":1913:1919   */\n  dup3\n    /* \"#utility.yul\":1902:1911   */\n  dup7\n    /* \"#utility.yul\":1898:1920   */\n  add\n    /* \"#utility.yul\":1866:1930   */\n  tag_17\n  jump\t// in\ntag_42:\n    /* \"#utility.yul\":1856:1930   */\n  swap2\n  pop\n    /* \"#utility.yul\":1811:1940   */\n  pop\n    /* \"#utility.yul\":1402:1947   */\n  swap3\n  pop\n  swap3\n  swap1\n  pop\n  jump\t// out\n    /* \"SampleTokenSale.sol\":87:1484  contract SampleTokenSale {... */\ntag_6:\n  dataSize(sub_0)\n  dup1\n  dataOffset(sub_0)\n  0x00\n  codecopy\n  0x00\n  return\nstop\n\nsub_0: assembly {\n        /* \"SampleTokenSale.sol\":87:1484  contract SampleTokenSale {... */\n      mstore(0x40, 0x80)\n      jumpi(tag_1, lt(calldatasize, 0x04))\n      shr(0xe0, calldataload(0x00))\n      dup1\n      0x3610724e\n      eq\n      tag_2\n      jumpi\n      dup1\n      0x380d831b\n      eq\n      tag_3\n      jumpi\n      dup1\n      0x518ab2a8\n      eq\n      tag_4\n      jumpi\n      dup1\n      0x55a373d6\n      eq\n      tag_5\n      jumpi\n      dup1\n      0x7ff9b596\n      eq\n      tag_6\n      jumpi\n      dup1\n      0xcdc57fd3\n      eq\n      tag_7\n      jumpi\n    tag_1:\n      0x00\n      dup1\n      revert\n        /* \"SampleTokenSale.sol\":723:1282  function buyTokens(uint256 _numberOfTokens) external payable {... */\n    tag_2:\n      tag_8\n      0x04\n      dup1\n      calldatasize\n      sub\n      dup2\n      add\n      swap1\n      tag_9\n      swap2\n      swap1\n      tag_10\n      jump\t// in\n    tag_9:\n      tag_11\n      jump\t// in\n    tag_8:\n      stop\n        /* \"SampleTokenSale.sol\":1288:1482  function endSale() external onlyOwner {... */\n    tag_3:\n      callvalue\n      dup1\n      iszero\n      tag_12\n      jumpi\n      0x00\n      dup1\n      revert\n    tag_12:\n      pop\n      tag_13\n      tag_14\n      jump\t// in\n    tag_13:\n      stop\n        /* \"SampleTokenSale.sol\":212:237  uint256 public tokensSold */\n    tag_4:\n      callvalue\n      dup1\n      iszero\n      tag_15\n      jumpi\n      0x00\n      dup1\n      revert\n    tag_15:\n      pop\n      tag_16\n      tag_17\n      jump\t// in\n    tag_16:\n      mload(0x40)\n      tag_18\n      swap2\n      swap1\n      tag_19\n      jump\t// in\n    tag_18:\n      mload(0x40)\n      dup1\n      swap2\n      sub\n      swap1\n      return\n        /* \"SampleTokenSale.sol\":123:155  SampleToken public tokenContract */\n    tag_5:\n      callvalue\n      dup1\n      iszero\n      tag_20\n      jumpi\n      0x00\n      dup1\n      revert\n    tag_20:\n      pop\n      tag_21\n      tag_22\n      jump\t// in\n    tag_21:\n      mload(0x40)\n      tag_23\n      swap2\n      swap1\n      tag_24\n      jump\t// in\n    tag_23:\n      mload(0x40)\n      dup1\n      swap2\n      sub\n      swap1\n      return\n        /* \"SampleTokenSale.sol\":161:186  uint256 public tokenPrice */\n    tag_6:\n      callvalue\n      dup1\n      iszero\n      tag_25\n      jumpi\n      0x00\n      dup1\n      revert\n    tag_25:\n      pop\n      tag_26\n      tag_27\n      jump\t// in\n    tag_26:\n      mload(0x40)\n      tag_28\n      swap2\n      swap1\n      tag_19\n      jump\t// in\n    tag_28:\n      mload(0x40)\n      dup1\n      swap2\n      sub\n      swap1\n      return\n        /* \"SampleTokenSale.sol\":610:717  function modifyTokenPrice(uint256 _tokenPrice) external onlyOwner {... */\n    tag_7:\n      callvalue\n      dup1\n      iszero\n      tag_29\n      jumpi\n      0x00\n      dup1\n      revert\n    tag_29:\n      pop\n      tag_30\n      0x04\n      dup1\n      calldatasize\n      sub\n      dup2\n      add\n      swap1\n      tag_31\n      swap2\n      swap1\n      tag_10\n      jump\t// in\n    tag_31:\n      tag_32\n      jump\t// in\n    tag_30:\n      stop\n        /* \"SampleTokenSale.sol\":723:1282  function buyTokens(uint256 _numberOfTokens) external payable {... */\n    tag_11:\n        /* \"SampleTokenSale.sol\":833:843  tokenPrice */\n      sload(0x01)\n        /* \"SampleTokenSale.sol\":815:830  _numberOfTokens */\n      dup2\n        /* \"SampleTokenSale.sol\":815:843  _numberOfTokens * tokenPrice */\n      tag_34\n      swap2\n      swap1\n      tag_35\n      jump\t// in\n    tag_34:\n        /* \"SampleTokenSale.sol\":802:811  msg.value */\n      callvalue\n        /* \"SampleTokenSale.sol\":802:843  msg.value >= _numberOfTokens * tokenPrice */\n      lt\n      iszero\n        /* \"SampleTokenSale.sol\":794:844  require(msg.value >= _numberOfTokens * tokenPrice) */\n      tag_36\n      jumpi\n      0x00\n      dup1\n      revert\n    tag_36:\n        /* \"SampleTokenSale.sol\":862:875  tokenContract */\n      0x00\n      dup1\n      sload\n      swap1\n      0x0100\n      exp\n      swap1\n      div\n      0xffffffffffffffffffffffffffffffffffffffff\n      and\n        /* \"SampleTokenSale.sol\":862:888  tokenContract.transferFrom */\n      0xffffffffffffffffffffffffffffffffffffffff\n      and\n      0x23b872dd\n        /* \"SampleTokenSale.sol\":889:894  owner */\n      0x02\n      0x00\n      swap1\n      sload\n      swap1\n      0x0100\n      exp\n      swap1\n      div\n      0xffffffffffffffffffffffffffffffffffffffff\n      and\n        /* \"SampleTokenSale.sol\":896:906  msg.sender */\n      caller\n        /* \"SampleTokenSale.sol\":908:923  _numberOfTokens */\n      dup5\n        /* \"SampleTokenSale.sol\":862:924  tokenContract.transferFrom(owner, msg.sender, _numberOfTokens) */\n      mload(0x40)\n      dup5\n      0xffffffff\n      and\n      0xe0\n      shl\n      dup2\n      mstore\n      0x04\n      add\n      tag_37\n      swap4\n      swap3\n      swap2\n      swap1\n      tag_38\n      jump\t// in\n    tag_37:\n      0x20\n      mload(0x40)\n      dup1\n      dup4\n      sub\n      dup2\n      0x00\n      dup8\n      gas\n      call\n      iszero\n      dup1\n      iszero\n      tag_40\n      jumpi\n      returndatasize\n      0x00\n      dup1\n      returndatacopy\n      revert(0x00, returndatasize)\n    tag_40:\n      pop\n      pop\n      pop\n      pop\n      mload(0x40)\n      returndatasize\n      not(0x1f)\n      0x1f\n      dup3\n      add\n      and\n      dup3\n      add\n      dup1\n      0x40\n      mstore\n      pop\n      dup2\n      add\n      swap1\n      tag_41\n      swap2\n      swap1\n      tag_42\n      jump\t// in\n    tag_41:\n        /* \"SampleTokenSale.sol\":854:925  require(tokenContract.transferFrom(owner, msg.sender, _numberOfTokens)) */\n      tag_43\n      jumpi\n      0x00\n      dup1\n      revert\n    tag_43:\n        /* \"SampleTokenSale.sol\":957:972  _numberOfTokens */\n      dup1\n        /* \"SampleTokenSale.sol\":945:955  msg.sender */\n      caller\n        /* \"SampleTokenSale.sol\":940:973  Sell(msg.sender, _numberOfTokens) */\n      0xffffffffffffffffffffffffffffffffffffffff\n      and\n      0x5e5e995ce3133561afceaa51a9a154d5db228cd7525d34df5185582c18d3df09\n      mload(0x40)\n      mload(0x40)\n      dup1\n      swap2\n      sub\n      swap1\n      log3\n        /* \"SampleTokenSale.sol\":997:1012  _numberOfTokens */\n      dup1\n        /* \"SampleTokenSale.sol\":983:993  tokensSold */\n      0x03\n      0x00\n        /* \"SampleTokenSale.sol\":983:1012  tokensSold += _numberOfTokens */\n      dup3\n      dup3\n      sload\n      tag_44\n      swap2\n      swap1\n      tag_45\n      jump\t// in\n    tag_44:\n      swap3\n      pop\n      pop\n      dup2\n      swap1\n      sstore\n      pop\n        /* \"SampleTokenSale.sol\":1057:1067  tokenPrice */\n      sload(0x01)\n        /* \"SampleTokenSale.sol\":1039:1054  _numberOfTokens */\n      dup2\n        /* \"SampleTokenSale.sol\":1039:1067  _numberOfTokens * tokenPrice */\n      tag_46\n      swap2\n      swap1\n      tag_35\n      jump\t// in\n    tag_46:\n        /* \"SampleTokenSale.sol\":1026:1035  msg.value */\n      callvalue\n        /* \"SampleTokenSale.sol\":1026:1067  msg.value == _numberOfTokens * tokenPrice */\n      eq\n        /* \"SampleTokenSale.sol\":1023:1100  if(msg.value == _numberOfTokens * tokenPrice) {... */\n      iszero\n      tag_47\n      jumpi\n        /* \"SampleTokenSale.sol\":1083:1090  return; */\n      jump(tag_33)\n        /* \"SampleTokenSale.sol\":1023:1100  if(msg.value == _numberOfTokens * tokenPrice) {... */\n    tag_47:\n        /* \"SampleTokenSale.sol\":1111:1122  bool change */\n      0x00\n        /* \"SampleTokenSale.sol\":1135:1145  msg.sender */\n      caller\n        /* \"SampleTokenSale.sol\":1127:1151  payable(msg.sender).call */\n      0xffffffffffffffffffffffffffffffffffffffff\n      and\n        /* \"SampleTokenSale.sol\":1189:1199  tokenPrice */\n      sload(0x01)\n        /* \"SampleTokenSale.sol\":1171:1186  _numberOfTokens */\n      dup4\n        /* \"SampleTokenSale.sol\":1171:1199  _numberOfTokens * tokenPrice */\n      tag_48\n      swap2\n      swap1\n      tag_35\n      jump\t// in\n    tag_48:\n        /* \"SampleTokenSale.sol\":1159:1168  msg.value */\n      callvalue\n        /* \"SampleTokenSale.sol\":1159:1199  msg.value - _numberOfTokens * tokenPrice */\n      tag_49\n      swap2\n      swap1\n      tag_50\n      jump\t// in\n    tag_49:\n        /* \"SampleTokenSale.sol\":1127:1204  payable(msg.sender).call{value: msg.value - _numberOfTokens * tokenPrice}(\"\") */\n      mload(0x40)\n      tag_51\n      swap1\n      tag_52\n      jump\t// in\n    tag_51:\n      0x00\n      mload(0x40)\n      dup1\n      dup4\n      sub\n      dup2\n      dup6\n      dup8\n      gas\n      call\n      swap3\n      pop\n      pop\n      pop\n      returndatasize\n      dup1\n      0x00\n      dup2\n      eq\n      tag_55\n      jumpi\n      mload(0x40)\n      swap2\n      pop\n      and(add(returndatasize, 0x3f), not(0x1f))\n      dup3\n      add\n      0x40\n      mstore\n      returndatasize\n      dup3\n      mstore\n      returndatasize\n      0x00\n      0x20\n      dup5\n      add\n      returndatacopy\n      jump(tag_54)\n    tag_55:\n      0x60\n      swap2\n      pop\n    tag_54:\n      pop\n        /* \"SampleTokenSale.sol\":1110:1204  (bool change,) = payable(msg.sender).call{value: msg.value - _numberOfTokens * tokenPrice}(\"\") */\n      pop\n      swap1\n      pop\n        /* \"SampleTokenSale.sol\":1222:1228  change */\n      dup1\n        /* \"SampleTokenSale.sol\":1214:1275  require(change, \"Couldn't send the change back to the buyer\") */\n      tag_56\n      jumpi\n      mload(0x40)\n      0x08c379a000000000000000000000000000000000000000000000000000000000\n      dup2\n      mstore\n      0x04\n      add\n      tag_57\n      swap1\n      tag_58\n      jump\t// in\n    tag_57:\n      mload(0x40)\n      dup1\n      swap2\n      sub\n      swap1\n      revert\n    tag_56:\n        /* \"SampleTokenSale.sol\":784:1282  {... */\n      pop\n        /* \"SampleTokenSale.sol\":723:1282  function buyTokens(uint256 _numberOfTokens) external payable {... */\n    tag_33:\n      pop\n      jump\t// out\n        /* \"SampleTokenSale.sol\":1288:1482  function endSale() external onlyOwner {... */\n    tag_14:\n        /* \"SampleTokenSale.sol\":539:544  owner */\n      0x02\n      0x00\n      swap1\n      sload\n      swap1\n      0x0100\n      exp\n      swap1\n      div\n      0xffffffffffffffffffffffffffffffffffffffff\n      and\n        /* \"SampleTokenSale.sol\":525:544  msg.sender == owner */\n      0xffffffffffffffffffffffffffffffffffffffff\n      and\n        /* \"SampleTokenSale.sol\":525:535  msg.sender */\n      caller\n        /* \"SampleTokenSale.sol\":525:544  msg.sender == owner */\n      0xffffffffffffffffffffffffffffffffffffffff\n      and\n      eq\n        /* \"SampleTokenSale.sol\":517:586  require(msg.sender == owner, \"Only the owner can call this function\") */\n      tag_60\n      jumpi\n      mload(0x40)\n      0x08c379a000000000000000000000000000000000000000000000000000000000\n      dup2\n      mstore\n      0x04\n      add\n      tag_61\n      swap1\n      tag_62\n      jump\t// in\n    tag_61:\n      mload(0x40)\n      dup1\n      swap2\n      sub\n      swap1\n      revert\n    tag_60:\n        /* \"SampleTokenSale.sol\":1344:1357  tokenContract */\n      0x00\n      dup1\n      sload\n      swap1\n      0x0100\n      exp\n      swap1\n      div\n      0xffffffffffffffffffffffffffffffffffffffff\n      and\n        /* \"SampleTokenSale.sol\":1344:1366  tokenContract.transfer */\n      0xffffffffffffffffffffffffffffffffffffffff\n      and\n      0xa9059cbb\n        /* \"SampleTokenSale.sol\":1367:1372  owner */\n      0x02\n      0x00\n      swap1\n      sload\n      swap1\n      0x0100\n      exp\n      swap1\n      div\n      0xffffffffffffffffffffffffffffffffffffffff\n      and\n        /* \"SampleTokenSale.sol\":1374:1387  tokenContract */\n      0x00\n      dup1\n      sload\n      swap1\n      0x0100\n      exp\n      swap1\n      div\n      0xffffffffffffffffffffffffffffffffffffffff\n      and\n        /* \"SampleTokenSale.sol\":1374:1397  tokenContract.balanceOf */\n      0xffffffffffffffffffffffffffffffffffffffff\n      and\n      0x70a08231\n        /* \"SampleTokenSale.sol\":1406:1410  this */\n      address\n        /* \"SampleTokenSale.sol\":1374:1412  tokenContract.balanceOf(address(this)) */\n      mload(0x40)\n      dup3\n      0xffffffff\n      and\n      0xe0\n      shl\n      dup2\n      mstore\n      0x04\n      add\n      tag_64\n      swap2\n      swap1\n      tag_65\n      jump\t// in\n    tag_64:\n      0x20\n      mload(0x40)\n      dup1\n      dup4\n      sub\n      dup2\n      dup7\n      gas\n      staticcall\n      iszero\n      dup1\n      iszero\n      tag_67\n      jumpi\n      returndatasize\n      0x00\n      dup1\n      returndatacopy\n      revert(0x00, returndatasize)\n    tag_67:\n      pop\n      pop\n      pop\n      pop\n      mload(0x40)\n      returndatasize\n      not(0x1f)\n      0x1f\n      dup3\n      add\n      and\n      dup3\n      add\n      dup1\n      0x40\n      mstore\n      pop\n      dup2\n      add\n      swap1\n      tag_68\n      swap2\n      swap1\n      tag_69\n      jump\t// in\n    tag_68:\n        /* \"SampleTokenSale.sol\":1344:1413  tokenContract.transfer(owner, tokenContract.balanceOf(address(this))) */\n      mload(0x40)\n      dup4\n      0xffffffff\n      and\n      0xe0\n      shl\n      dup2\n      mstore\n      0x04\n      add\n      tag_70\n      swap3\n      swap2\n      swap1\n      tag_71\n      jump\t// in\n    tag_70:\n      0x20\n      mload(0x40)\n      dup1\n      dup4\n      sub\n      dup2\n      0x00\n      dup8\n      gas\n      call\n      iszero\n      dup1\n      iszero\n      tag_73\n      jumpi\n      returndatasize\n      0x00\n      dup1\n      returndatacopy\n      revert(0x00, returndatasize)\n    tag_73:\n      pop\n      pop\n      pop\n      pop\n      mload(0x40)\n      returndatasize\n      not(0x1f)\n      0x1f\n      dup3\n      add\n      and\n      dup3\n      add\n      dup1\n      0x40\n      mstore\n      pop\n      dup2\n      add\n      swap1\n      tag_74\n      swap2\n      swap1\n      tag_42\n      jump\t// in\n    tag_74:\n        /* \"SampleTokenSale.sol\":1336:1414  require(tokenContract.transfer(owner, tokenContract.balanceOf(address(this)))) */\n      tag_75\n      jumpi\n      0x00\n      dup1\n      revert\n    tag_75:\n        /* \"SampleTokenSale.sol\":1432:1442  msg.sender */\n      caller\n        /* \"SampleTokenSale.sol\":1424:1452  payable(msg.sender).transfer */\n      0xffffffffffffffffffffffffffffffffffffffff\n      and\n        /* \"SampleTokenSale.sol\":1424:1475  payable(msg.sender).transfer(address(this).balance) */\n      0x08fc\n        /* \"SampleTokenSale.sol\":1453:1474  address(this).balance */\n      selfbalance\n        /* \"SampleTokenSale.sol\":1424:1475  payable(msg.sender).transfer(address(this).balance) */\n      swap1\n      dup2\n      iszero\n      mul\n      swap1\n      mload(0x40)\n      0x00\n      mload(0x40)\n      dup1\n      dup4\n      sub\n      dup2\n      dup6\n      dup9\n      dup9\n      call\n      swap4\n      pop\n      pop\n      pop\n      pop\n      iszero\n      dup1\n      iszero\n      tag_77\n      jumpi\n      returndatasize\n      0x00\n      dup1\n      returndatacopy\n      revert(0x00, returndatasize)\n    tag_77:\n      pop\n        /* \"SampleTokenSale.sol\":1288:1482  function endSale() external onlyOwner {... */\n      jump\t// out\n        /* \"SampleTokenSale.sol\":212:237  uint256 public tokensSold */\n    tag_17:\n      sload(0x03)\n      dup2\n      jump\t// out\n        /* \"SampleTokenSale.sol\":123:155  SampleToken public tokenContract */\n    tag_22:\n      0x00\n      dup1\n      sload\n      swap1\n      0x0100\n      exp\n      swap1\n      div\n      0xffffffffffffffffffffffffffffffffffffffff\n      and\n      dup2\n      jump\t// out\n        /* \"SampleTokenSale.sol\":161:186  uint256 public tokenPrice */\n    tag_27:\n      sload(0x01)\n      dup2\n      jump\t// out\n        /* \"SampleTokenSale.sol\":610:717  function modifyTokenPrice(uint256 _tokenPrice) external onlyOwner {... */\n    tag_32:\n        /* \"SampleTokenSale.sol\":539:544  owner */\n      0x02\n      0x00\n      swap1\n      sload\n      swap1\n      0x0100\n      exp\n      swap1\n      div\n      0xffffffffffffffffffffffffffffffffffffffff\n      and\n        /* \"SampleTokenSale.sol\":525:544  msg.sender == owner */\n      0xffffffffffffffffffffffffffffffffffffffff\n      and\n        /* \"SampleTokenSale.sol\":525:535  msg.sender */\n      caller\n        /* \"SampleTokenSale.sol\":525:544  msg.sender == owner */\n      0xffffffffffffffffffffffffffffffffffffffff\n      and\n      eq\n        /* \"SampleTokenSale.sol\":517:586  require(msg.sender == owner, \"Only the owner can call this function\") */\n      tag_79\n      jumpi\n      mload(0x40)\n      0x08c379a000000000000000000000000000000000000000000000000000000000\n      dup2\n      mstore\n      0x04\n      add\n      tag_80\n      swap1\n      tag_62\n      jump\t// in\n    tag_80:\n      mload(0x40)\n      dup1\n      swap2\n      sub\n      swap1\n      revert\n    tag_79:\n        /* \"SampleTokenSale.sol\":699:710  _tokenPrice */\n      dup1\n        /* \"SampleTokenSale.sol\":686:696  tokenPrice */\n      0x01\n        /* \"SampleTokenSale.sol\":686:710  tokenPrice = _tokenPrice */\n      dup2\n      swap1\n      sstore\n      pop\n        /* \"SampleTokenSale.sol\":610:717  function modifyTokenPrice(uint256 _tokenPrice) external onlyOwner {... */\n      pop\n      jump\t// out\n        /* \"#utility.yul\":88:205   */\n    tag_83:\n        /* \"#utility.yul\":197:198   */\n      0x00\n        /* \"#utility.yul\":194:195   */\n      dup1\n        /* \"#utility.yul\":187:199   */\n      revert\n        /* \"#utility.yul\":334:411   */\n    tag_85:\n        /* \"#utility.yul\":371:378   */\n      0x00\n        /* \"#utility.yul\":400:405   */\n      dup2\n        /* \"#utility.yul\":389:405   */\n      swap1\n      pop\n        /* \"#utility.yul\":334:411   */\n      swap2\n      swap1\n      pop\n      jump\t// out\n        /* \"#utility.yul\":417:539   */\n    tag_86:\n        /* \"#utility.yul\":490:514   */\n      tag_116\n        /* \"#utility.yul\":508:513   */\n      dup2\n        /* \"#utility.yul\":490:514   */\n      tag_85\n      jump\t// in\n    tag_116:\n        /* \"#utility.yul\":483:488   */\n      dup2\n        /* \"#utility.yul\":480:515   */\n      eq\n        /* \"#utility.yul\":470:533   */\n      tag_117\n      jumpi\n        /* \"#utility.yul\":529:530   */\n      0x00\n        /* \"#utility.yul\":526:527   */\n      dup1\n        /* \"#utility.yul\":519:531   */\n      revert\n        /* \"#utility.yul\":470:533   */\n    tag_117:\n        /* \"#utility.yul\":417:539   */\n      pop\n      jump\t// out\n        /* \"#utility.yul\":545:684   */\n    tag_87:\n        /* \"#utility.yul\":591:596   */\n      0x00\n        /* \"#utility.yul\":629:635   */\n      dup2\n        /* \"#utility.yul\":616:636   */\n      calldataload\n        /* \"#utility.yul\":607:636   */\n      swap1\n      pop\n        /* \"#utility.yul\":645:678   */\n      tag_119\n        /* \"#utility.yul\":672:677   */\n      dup2\n        /* \"#utility.yul\":645:678   */\n      tag_86\n      jump\t// in\n    tag_119:\n        /* \"#utility.yul\":545:684   */\n      swap3\n      swap2\n      pop\n      pop\n      jump\t// out\n        /* \"#utility.yul\":690:1019   */\n    tag_10:\n        /* \"#utility.yul\":749:755   */\n      0x00\n        /* \"#utility.yul\":798:800   */\n      0x20\n        /* \"#utility.yul\":786:795   */\n      dup3\n        /* \"#utility.yul\":777:784   */\n      dup5\n        /* \"#utility.yul\":773:796   */\n      sub\n        /* \"#utility.yul\":769:801   */\n      slt\n        /* \"#utility.yul\":766:885   */\n      iszero\n      tag_121\n      jumpi\n        /* \"#utility.yul\":804:883   */\n      tag_122\n      tag_83\n      jump\t// in\n    tag_122:\n        /* \"#utility.yul\":766:885   */\n    tag_121:\n        /* \"#utility.yul\":924:925   */\n      0x00\n        /* \"#utility.yul\":949:1002   */\n      tag_123\n        /* \"#utility.yul\":994:1001   */\n      dup5\n        /* \"#utility.yul\":985:991   */\n      dup3\n        /* \"#utility.yul\":974:983   */\n      dup6\n        /* \"#utility.yul\":970:992   */\n      add\n        /* \"#utility.yul\":949:1002   */\n      tag_87\n      jump\t// in\n    tag_123:\n        /* \"#utility.yul\":939:1002   */\n      swap2\n      pop\n        /* \"#utility.yul\":895:1012   */\n      pop\n        /* \"#utility.yul\":690:1019   */\n      swap3\n      swap2\n      pop\n      pop\n      jump\t// out\n        /* \"#utility.yul\":1025:1143   */\n    tag_88:\n        /* \"#utility.yul\":1112:1136   */\n      tag_125\n        /* \"#utility.yul\":1130:1135   */\n      dup2\n        /* \"#utility.yul\":1112:1136   */\n      tag_85\n      jump\t// in\n    tag_125:\n        /* \"#utility.yul\":1107:1110   */\n      dup3\n        /* \"#utility.yul\":1100:1137   */\n      mstore\n        /* \"#utility.yul\":1025:1143   */\n      pop\n      pop\n      jump\t// out\n        /* \"#utility.yul\":1149:1371   */\n    tag_19:\n        /* \"#utility.yul\":1242:1246   */\n      0x00\n        /* \"#utility.yul\":1280:1282   */\n      0x20\n        /* \"#utility.yul\":1269:1278   */\n      dup3\n        /* \"#utility.yul\":1265:1283   */\n      add\n        /* \"#utility.yul\":1257:1283   */\n      swap1\n      pop\n        /* \"#utility.yul\":1293:1364   */\n      tag_127\n        /* \"#utility.yul\":1361:1362   */\n      0x00\n        /* \"#utility.yul\":1350:1359   */\n      dup4\n        /* \"#utility.yul\":1346:1363   */\n      add\n        /* \"#utility.yul\":1337:1343   */\n      dup5\n        /* \"#utility.yul\":1293:1364   */\n      tag_88\n      jump\t// in\n    tag_127:\n        /* \"#utility.yul\":1149:1371   */\n      swap3\n      swap2\n      pop\n      pop\n      jump\t// out\n        /* \"#utility.yul\":1377:1503   */\n    tag_89:\n        /* \"#utility.yul\":1414:1421   */\n      0x00\n        /* \"#utility.yul\":1454:1496   */\n      0xffffffffffffffffffffffffffffffffffffffff\n        /* \"#utility.yul\":1447:1452   */\n      dup3\n        /* \"#utility.yul\":1443:1497   */\n      and\n        /* \"#utility.yul\":1432:1497   */\n      swap1\n      pop\n        /* \"#utility.yul\":1377:1503   */\n      swap2\n      swap1\n      pop\n      jump\t// out\n        /* \"#utility.yul\":1509:1569   */\n    tag_90:\n        /* \"#utility.yul\":1537:1540   */\n      0x00\n        /* \"#utility.yul\":1558:1563   */\n      dup2\n        /* \"#utility.yul\":1551:1563   */\n      swap1\n      pop\n        /* \"#utility.yul\":1509:1569   */\n      swap2\n      swap1\n      pop\n      jump\t// out\n        /* \"#utility.yul\":1575:1717   */\n    tag_91:\n        /* \"#utility.yul\":1625:1634   */\n      0x00\n        /* \"#utility.yul\":1658:1711   */\n      tag_131\n        /* \"#utility.yul\":1676:1710   */\n      tag_132\n        /* \"#utility.yul\":1685:1709   */\n      tag_133\n        /* \"#utility.yul\":1703:1708   */\n      dup5\n        /* \"#utility.yul\":1685:1709   */\n      tag_89\n      jump\t// in\n    tag_133:\n        /* \"#utility.yul\":1676:1710   */\n      tag_90\n      jump\t// in\n    tag_132:\n        /* \"#utility.yul\":1658:1711   */\n      tag_89\n      jump\t// in\n    tag_131:\n        /* \"#utility.yul\":1645:1711   */\n      swap1\n      pop\n        /* \"#utility.yul\":1575:1717   */\n      swap2\n      swap1\n      pop\n      jump\t// out\n        /* \"#utility.yul\":1723:1849   */\n    tag_92:\n        /* \"#utility.yul\":1773:1782   */\n      0x00\n        /* \"#utility.yul\":1806:1843   */\n      tag_135\n        /* \"#utility.yul\":1837:1842   */\n      dup3\n        /* \"#utility.yul\":1806:1843   */\n      tag_91\n      jump\t// in\n    tag_135:\n        /* \"#utility.yul\":1793:1843   */\n      swap1\n      pop\n        /* \"#utility.yul\":1723:1849   */\n      swap2\n      swap1\n      pop\n      jump\t// out\n        /* \"#utility.yul\":1855:2000   */\n    tag_93:\n        /* \"#utility.yul\":1924:1933   */\n      0x00\n        /* \"#utility.yul\":1957:1994   */\n      tag_137\n        /* \"#utility.yul\":1988:1993   */\n      dup3\n        /* \"#utility.yul\":1957:1994   */\n      tag_92\n      jump\t// in\n    tag_137:\n        /* \"#utility.yul\":1944:1994   */\n      swap1\n      pop\n        /* \"#utility.yul\":1855:2000   */\n      swap2\n      swap1\n      pop\n      jump\t// out\n        /* \"#utility.yul\":2006:2175   */\n    tag_94:\n        /* \"#utility.yul\":2112:2168   */\n      tag_139\n        /* \"#utility.yul\":2162:2167   */\n      dup2\n        /* \"#utility.yul\":2112:2168   */\n      tag_93\n      jump\t// in\n    tag_139:\n        /* \"#utility.yul\":2107:2110   */\n      dup3\n        /* \"#utility.yul\":2100:2169   */\n      mstore\n        /* \"#utility.yul\":2006:2175   */\n      pop\n      pop\n      jump\t// out\n        /* \"#utility.yul\":2181:2441   */\n    tag_24:\n        /* \"#utility.yul\":2293:2297   */\n      0x00\n        /* \"#utility.yul\":2331:2333   */\n      0x20\n        /* \"#utility.yul\":2320:2329   */\n      dup3\n        /* \"#utility.yul\":2316:2334   */\n      add\n        /* \"#utility.yul\":2308:2334   */\n      swap1\n      pop\n        /* \"#utility.yul\":2344:2434   */\n      tag_141\n        /* \"#utility.yul\":2431:2432   */\n      0x00\n        /* \"#utility.yul\":2420:2429   */\n      dup4\n        /* \"#utility.yul\":2416:2433   */\n      add\n        /* \"#utility.yul\":2407:2413   */\n      dup5\n        /* \"#utility.yul\":2344:2434   */\n      tag_94\n      jump\t// in\n    tag_141:\n        /* \"#utility.yul\":2181:2441   */\n      swap3\n      swap2\n      pop\n      pop\n      jump\t// out\n        /* \"#utility.yul\":2447:2627   */\n    tag_95:\n        /* \"#utility.yul\":2495:2572   */\n      0x4e487b7100000000000000000000000000000000000000000000000000000000\n        /* \"#utility.yul\":2492:2493   */\n      0x00\n        /* \"#utility.yul\":2485:2573   */\n      mstore\n        /* \"#utility.yul\":2592:2596   */\n      0x11\n        /* \"#utility.yul\":2589:2590   */\n      0x04\n        /* \"#utility.yul\":2582:2597   */\n      mstore\n        /* \"#utility.yul\":2616:2620   */\n      0x24\n        /* \"#utility.yul\":2613:2614   */\n      0x00\n        /* \"#utility.yul\":2606:2621   */\n      revert\n        /* \"#utility.yul\":2633:2981   */\n    tag_35:\n        /* \"#utility.yul\":2673:2680   */\n      0x00\n        /* \"#utility.yul\":2696:2716   */\n      tag_144\n        /* \"#utility.yul\":2714:2715   */\n      dup3\n        /* \"#utility.yul\":2696:2716   */\n      tag_85\n      jump\t// in\n    tag_144:\n        /* \"#utility.yul\":2691:2716   */\n      swap2\n      pop\n        /* \"#utility.yul\":2730:2750   */\n      tag_145\n        /* \"#utility.yul\":2748:2749   */\n      dup4\n        /* \"#utility.yul\":2730:2750   */\n      tag_85\n      jump\t// in\n    tag_145:\n        /* \"#utility.yul\":2725:2750   */\n      swap3\n      pop\n        /* \"#utility.yul\":2918:2919   */\n      dup2\n        /* \"#utility.yul\":2850:2916   */\n      0xffffffffffffffffffffffffffffffffffffffffffffffffffffffffffffffff\n        /* \"#utility.yul\":2846:2920   */\n      div\n        /* \"#utility.yul\":2843:2844   */\n      dup4\n        /* \"#utility.yul\":2840:2921   */\n      gt\n        /* \"#utility.yul\":2835:2836   */\n      dup3\n        /* \"#utility.yul\":2828:2837   */\n      iszero\n        /* \"#utility.yul\":2821:2838   */\n      iszero\n        /* \"#utility.yul\":2817:2922   */\n      and\n        /* \"#utility.yul\":2814:2945   */\n      iszero\n      tag_146\n      jumpi\n        /* \"#utility.yul\":2925:2943   */\n      tag_147\n      tag_95\n      jump\t// in\n    tag_147:\n        /* \"#utility.yul\":2814:2945   */\n    tag_146:\n        /* \"#utility.yul\":2973:2974   */\n      dup3\n        /* \"#utility.yul\":2970:2971   */\n      dup3\n        /* \"#utility.yul\":2966:2975   */\n      mul\n        /* \"#utility.yul\":2955:2975   */\n      swap1\n      pop\n        /* \"#utility.yul\":2633:2981   */\n      swap3\n      swap2\n      pop\n      pop\n      jump\t// out\n        /* \"#utility.yul\":2987:3083   */\n    tag_96:\n        /* \"#utility.yul\":3024:3031   */\n      0x00\n        /* \"#utility.yul\":3053:3077   */\n      tag_149\n        /* \"#utility.yul\":3071:3076   */\n      dup3\n        /* \"#utility.yul\":3053:3077   */\n      tag_89\n      jump\t// in\n    tag_149:\n        /* \"#utility.yul\":3042:3077   */\n      swap1\n      pop\n        /* \"#utility.yul\":2987:3083   */\n      swap2\n      swap1\n      pop\n      jump\t// out\n        /* \"#utility.yul\":3089:3207   */\n    tag_97:\n        /* \"#utility.yul\":3176:3200   */\n      tag_151\n        /* \"#utility.yul\":3194:3199   */\n      dup2\n        /* \"#utility.yul\":3176:3200   */\n      tag_96\n      jump\t// in\n    tag_151:\n        /* \"#utility.yul\":3171:3174   */\n      dup3\n        /* \"#utility.yul\":3164:3201   */\n      mstore\n        /* \"#utility.yul\":3089:3207   */\n      pop\n      pop\n      jump\t// out\n        /* \"#utility.yul\":3213:3655   */\n    tag_38:\n        /* \"#utility.yul\":3362:3366   */\n      0x00\n        /* \"#utility.yul\":3400:3402   */\n      0x60\n        /* \"#utility.yul\":3389:3398   */\n      dup3\n        /* \"#utility.yul\":3385:3403   */\n      add\n        /* \"#utility.yul\":3377:3403   */\n      swap1\n      pop\n        /* \"#utility.yul\":3413:3484   */\n      tag_153\n        /* \"#utility.yul\":3481:3482   */\n      0x00\n        /* \"#utility.yul\":3470:3479   */\n      dup4\n        /* \"#utility.yul\":3466:3483   */\n      add\n        /* \"#utility.yul\":3457:3463   */\n      dup7\n        /* \"#utility.yul\":3413:3484   */\n      tag_97\n      jump\t// in\n    tag_153:\n        /* \"#utility.yul\":3494:3566   */\n      tag_154\n        /* \"#utility.yul\":3562:3564   */\n      0x20\n        /* \"#utility.yul\":3551:3560   */\n      dup4\n        /* \"#utility.yul\":3547:3565   */\n      add\n        /* \"#utility.yul\":3538:3544   */\n      dup6\n        /* \"#utility.yul\":3494:3566   */\n      tag_97\n      jump\t// in\n    tag_154:\n        /* \"#utility.yul\":3576:3648   */\n      tag_155\n        /* \"#utility.yul\":3644:3646   */\n      0x40\n        /* \"#utility.yul\":3633:3642   */\n      dup4\n        /* \"#utility.yul\":3629:3647   */\n      add\n        /* \"#utility.yul\":3620:3626   */\n      dup5\n        /* \"#utility.yul\":3576:3648   */\n      tag_88\n      jump\t// in\n    tag_155:\n        /* \"#utility.yul\":3213:3655   */\n      swap5\n      swap4\n      pop\n      pop\n      pop\n      pop\n      jump\t// out\n        /* \"#utility.yul\":3661:3751   */\n    tag_98:\n        /* \"#utility.yul\":3695:3702   */\n      0x00\n        /* \"#utility.yul\":3738:3743   */\n      dup2\n        /* \"#utility.yul\":3731:3744   */\n      iszero\n        /* \"#utility.yul\":3724:3745   */\n      iszero\n        /* \"#utility.yul\":3713:3745   */\n      swap1\n      pop\n        /* \"#utility.yul\":3661:3751   */\n      swap2\n      swap1\n      pop\n      jump\t// out\n        /* \"#utility.yul\":3757:3873   */\n    tag_99:\n        /* \"#utility.yul\":3827:3848   */\n      tag_158\n        /* \"#utility.yul\":3842:3847   */\n      dup2\n        /* \"#utility.yul\":3827:3848   */\n      tag_98\n      jump\t// in\n    tag_158:\n        /* \"#utility.yul\":3820:3825   */\n      dup2\n        /* \"#utility.yul\":3817:3849   */\n      eq\n        /* \"#utility.yul\":3807:3867   */\n      tag_159\n      jumpi\n        /* \"#utility.yul\":3863:3864   */\n      0x00\n        /* \"#utility.yul\":3860:3861   */\n      dup1\n        /* \"#utility.yul\":3853:3865   */\n      revert\n        /* \"#utility.yul\":3807:3867   */\n    tag_159:\n        /* \"#utility.yul\":3757:3873   */\n      pop\n      jump\t// out\n        /* \"#utility.yul\":3879:4016   */\n    tag_100:\n        /* \"#utility.yul\":3933:3938   */\n      0x00\n        /* \"#utility.yul\":3964:3970   */\n      dup2\n        /* \"#utility.yul\":3958:3971   */\n      mload\n        /* \"#utility.yul\":3949:3971   */\n      swap1\n      pop\n        /* \"#utility.yul\":3980:4010   */\n      tag_161\n        /* \"#utility.yul\":4004:4009   */\n      dup2\n        /* \"#utility.yul\":3980:4010   */\n      tag_99\n      jump\t// in\n    tag_161:\n        /* \"#utility.yul\":3879:4016   */\n      swap3\n      swap2\n      pop\n      pop\n      jump\t// out\n        /* \"#utility.yul\":4022:4367   */\n    tag_42:\n        /* \"#utility.yul\":4089:4095   */\n      0x00\n        /* \"#utility.yul\":4138:4140   */\n      0x20\n        /* \"#utility.yul\":4126:4135   */\n      dup3\n        /* \"#utility.yul\":4117:4124   */\n      dup5\n        /* \"#utility.yul\":4113:4136   */\n      sub\n        /* \"#utility.yul\":4109:4141   */\n      slt\n        /* \"#utility.yul\":4106:4225   */\n      iszero\n      tag_163\n      jumpi\n        /* \"#utility.yul\":4144:4223   */\n      tag_164\n      tag_83\n      jump\t// in\n    tag_164:\n        /* \"#utility.yul\":4106:4225   */\n    tag_163:\n        /* \"#utility.yul\":4264:4265   */\n      0x00\n        /* \"#utility.yul\":4289:4350   */\n      tag_165\n        /* \"#utility.yul\":4342:4349   */\n      dup5\n        /* \"#utility.yul\":4333:4339   */\n      dup3\n        /* \"#utility.yul\":4322:4331   */\n      dup6\n        /* \"#utility.yul\":4318:4340   */\n      add\n        /* \"#utility.yul\":4289:4350   */\n      tag_100\n      jump\t// in\n    tag_165:\n        /* \"#utility.yul\":4279:4350   */\n      swap2\n      pop\n        /* \"#utility.yul\":4235:4360   */\n      pop\n        /* \"#utility.yul\":4022:4367   */\n      swap3\n      swap2\n      pop\n      pop\n      jump\t// out\n        /* \"#utility.yul\":4373:4678   */\n    tag_45:\n        /* \"#utility.yul\":4413:4416   */\n      0x00\n        /* \"#utility.yul\":4432:4452   */\n      tag_167\n        /* \"#utility.yul\":4450:4451   */\n      dup3\n        /* \"#utility.yul\":4432:4452   */\n      tag_85\n      jump\t// in\n    tag_167:\n        /* \"#utility.yul\":4427:4452   */\n      swap2\n      pop\n        /* \"#utility.yul\":4466:4486   */\n      tag_168\n        /* \"#utility.yul\":4484:4485   */\n      dup4\n        /* \"#utility.yul\":4466:4486   */\n      tag_85\n      jump\t// in\n    tag_168:\n        /* \"#utility.yul\":4461:4486   */\n      swap3\n      pop\n        /* \"#utility.yul\":4620:4621   */\n      dup3\n        /* \"#utility.yul\":4552:4618   */\n      0xffffffffffffffffffffffffffffffffffffffffffffffffffffffffffffffff\n        /* \"#utility.yul\":4548:4622   */\n      sub\n        /* \"#utility.yul\":4545:4546   */\n      dup3\n        /* \"#utility.yul\":4542:4623   */\n      gt\n        /* \"#utility.yul\":4539:4646   */\n      iszero\n      tag_169\n      jumpi\n        /* \"#utility.yul\":4626:4644   */\n      tag_170\n      tag_95\n      jump\t// in\n    tag_170:\n        /* \"#utility.yul\":4539:4646   */\n    tag_169:\n        /* \"#utility.yul\":4670:4671   */\n      dup3\n        /* \"#utility.yul\":4667:4668   */\n      dup3\n        /* \"#utility.yul\":4663:4672   */\n      add\n        /* \"#utility.yul\":4656:4672   */\n      swap1\n      pop\n        /* \"#utility.yul\":4373:4678   */\n      swap3\n      swap2\n      pop\n      pop\n      jump\t// out\n        /* \"#utility.yul\":4684:4875   */\n    tag_50:\n        /* \"#utility.yul\":4724:4728   */\n      0x00\n        /* \"#utility.yul\":4744:4764   */\n      tag_172\n        /* \"#utility.yul\":4762:4763   */\n      dup3\n        /* \"#utility.yul\":4744:4764   */\n      tag_85\n      jump\t// in\n    tag_172:\n        /* \"#utility.yul\":4739:4764   */\n      swap2\n      pop\n        /* \"#utility.yul\":4778:4798   */\n      tag_173\n        /* \"#utility.yul\":4796:4797   */\n      dup4\n        /* \"#utility.yul\":4778:4798   */\n      tag_85\n      jump\t// in\n    tag_173:\n        /* \"#utility.yul\":4773:4798   */\n      swap3\n      pop\n        /* \"#utility.yul\":4817:4818   */\n      dup3\n        /* \"#utility.yul\":4814:4815   */\n      dup3\n        /* \"#utility.yul\":4811:4819   */\n      lt\n        /* \"#utility.yul\":4808:4842   */\n      iszero\n      tag_174\n      jumpi\n        /* \"#utility.yul\":4822:4840   */\n      tag_175\n      tag_95\n      jump\t// in\n    tag_175:\n        /* \"#utility.yul\":4808:4842   */\n    tag_174:\n        /* \"#utility.yul\":4867:4868   */\n      dup3\n        /* \"#utility.yul\":4864:4865   */\n      dup3\n        /* \"#utility.yul\":4860:4869   */\n      sub\n        /* \"#utility.yul\":4852:4869   */\n      swap1\n      pop\n        /* \"#utility.yul\":4684:4875   */\n      swap3\n      swap2\n      pop\n      pop\n      jump\t// out\n        /* \"#utility.yul\":4881:5028   */\n    tag_101:\n        /* \"#utility.yul\":4982:4993   */\n      0x00\n        /* \"#utility.yul\":5019:5022   */\n      dup2\n        /* \"#utility.yul\":5004:5022   */\n      swap1\n      pop\n        /* \"#utility.yul\":4881:5028   */\n      swap3\n      swap2\n      pop\n      pop\n      jump\t// out\n        /* \"#utility.yul\":5034:5148   */\n    tag_102:\n      pop\n      jump\t// out\n        /* \"#utility.yul\":5154:5552   */\n    tag_103:\n        /* \"#utility.yul\":5313:5316   */\n      0x00\n        /* \"#utility.yul\":5334:5417   */\n      tag_179\n        /* \"#utility.yul\":5415:5416   */\n      0x00\n        /* \"#utility.yul\":5410:5413   */\n      dup4\n        /* \"#utility.yul\":5334:5417   */\n      tag_101\n      jump\t// in\n    tag_179:\n        /* \"#utility.yul\":5327:5417   */\n      swap2\n      pop\n        /* \"#utility.yul\":5426:5519   */\n      tag_180\n        /* \"#utility.yul\":5515:5518   */\n      dup3\n        /* \"#utility.yul\":5426:5519   */\n      tag_102\n      jump\t// in\n    tag_180:\n        /* \"#utility.yul\":5544:5545   */\n      0x00\n        /* \"#utility.yul\":5539:5542   */\n      dup3\n        /* \"#utility.yul\":5535:5546   */\n      add\n        /* \"#utility.yul\":5528:5546   */\n      swap1\n      pop\n        /* \"#utility.yul\":5154:5552   */\n      swap2\n      swap1\n      pop\n      jump\t// out\n        /* \"#utility.yul\":5558:5937   */\n    tag_52:\n        /* \"#utility.yul\":5742:5745   */\n      0x00\n        /* \"#utility.yul\":5764:5911   */\n      tag_182\n        /* \"#utility.yul\":5907:5910   */\n      dup3\n        /* \"#utility.yul\":5764:5911   */\n      tag_103\n      jump\t// in\n    tag_182:\n        /* \"#utility.yul\":5757:5911   */\n      swap2\n      pop\n        /* \"#utility.yul\":5928:5931   */\n      dup2\n        /* \"#utility.yul\":5921:5931   */\n      swap1\n      pop\n        /* \"#utility.yul\":5558:5937   */\n      swap2\n      swap1\n      pop\n      jump\t// out\n        /* \"#utility.yul\":5943:6112   */\n    tag_104:\n        /* \"#utility.yul\":6027:6038   */\n      0x00\n        /* \"#utility.yul\":6061:6067   */\n      dup3\n        /* \"#utility.yul\":6056:6059   */\n      dup3\n        /* \"#utility.yul\":6049:6068   */\n      mstore\n        /* \"#utility.yul\":6101:6105   */\n      0x20\n        /* \"#utility.yul\":6096:6099   */\n      dup3\n        /* \"#utility.yul\":6092:6106   */\n      add\n        /* \"#utility.yul\":6077:6106   */\n      swap1\n      pop\n        /* \"#utility.yul\":5943:6112   */\n      swap3\n      swap2\n      pop\n      pop\n      jump\t// out\n        /* \"#utility.yul\":6118:6347   */\n    tag_105:\n        /* \"#utility.yul\":6258:6292   */\n      0x436f756c646e27742073656e6420746865206368616e6765206261636b20746f\n        /* \"#utility.yul\":6254:6255   */\n      0x00\n        /* \"#utility.yul\":6246:6252   */\n      dup3\n        /* \"#utility.yul\":6242:6256   */\n      add\n        /* \"#utility.yul\":6235:6293   */\n      mstore\n        /* \"#utility.yul\":6327:6339   */\n      0x2074686520627579657200000000000000000000000000000000000000000000\n        /* \"#utility.yul\":6322:6324   */\n      0x20\n        /* \"#utility.yul\":6314:6320   */\n      dup3\n        /* \"#utility.yul\":6310:6325   */\n      add\n        /* \"#utility.yul\":6303:6340   */\n      mstore\n        /* \"#utility.yul\":6118:6347   */\n      pop\n      jump\t// out\n        /* \"#utility.yul\":6353:6719   */\n    tag_106:\n        /* \"#utility.yul\":6495:6498   */\n      0x00\n        /* \"#utility.yul\":6516:6583   */\n      tag_186\n        /* \"#utility.yul\":6580:6582   */\n      0x2a\n        /* \"#utility.yul\":6575:6578   */\n      dup4\n        /* \"#utility.yul\":6516:6583   */\n      tag_104\n      jump\t// in\n    tag_186:\n        /* \"#utility.yul\":6509:6583   */\n      swap2\n      pop\n        /* \"#utility.yul\":6592:6685   */\n      tag_187\n        /* \"#utility.yul\":6681:6684   */\n      dup3\n        /* \"#utility.yul\":6592:6685   */\n      tag_105\n      jump\t// in\n    tag_187:\n        /* \"#utility.yul\":6710:6712   */\n      0x40\n        /* \"#utility.yul\":6705:6708   */\n      dup3\n        /* \"#utility.yul\":6701:6713   */\n      add\n        /* \"#utility.yul\":6694:6713   */\n      swap1\n      pop\n        /* \"#utility.yul\":6353:6719   */\n      swap2\n      swap1\n      pop\n      jump\t// out\n        /* \"#utility.yul\":6725:7144   */\n    tag_58:\n        /* \"#utility.yul\":6891:6895   */\n      0x00\n        /* \"#utility.yul\":6929:6931   */\n      0x20\n        /* \"#utility.yul\":6918:6927   */\n      dup3\n        /* \"#utility.yul\":6914:6932   */\n      add\n        /* \"#utility.yul\":6906:6932   */\n      swap1\n      pop\n        /* \"#utility.yul\":6978:6987   */\n      dup2\n        /* \"#utility.yul\":6972:6976   */\n      dup2\n        /* \"#utility.yul\":6968:6988   */\n      sub\n        /* \"#utility.yul\":6964:6965   */\n      0x00\n        /* \"#utility.yul\":6953:6962   */\n      dup4\n        /* \"#utility.yul\":6949:6966   */\n      add\n        /* \"#utility.yul\":6942:6989   */\n      mstore\n        /* \"#utility.yul\":7006:7137   */\n      tag_189\n        /* \"#utility.yul\":7132:7136   */\n      dup2\n        /* \"#utility.yul\":7006:7137   */\n      tag_106\n      jump\t// in\n    tag_189:\n        /* \"#utility.yul\":6998:7137   */\n      swap1\n      pop\n        /* \"#utility.yul\":6725:7144   */\n      swap2\n      swap1\n      pop\n      jump\t// out\n        /* \"#utility.yul\":7150:7374   */\n    tag_107:\n        /* \"#utility.yul\":7290:7324   */\n      0x4f6e6c7920746865206f776e65722063616e2063616c6c20746869732066756e\n        /* \"#utility.yul\":7286:7287   */\n      0x00\n        /* \"#utility.yul\":7278:7284   */\n      dup3\n        /* \"#utility.yul\":7274:7288   */\n      add\n        /* \"#utility.yul\":7267:7325   */\n      mstore\n        /* \"#utility.yul\":7359:7366   */\n      0x6374696f6e000000000000000000000000000000000000000000000000000000\n        /* \"#utility.yul\":7354:7356   */\n      0x20\n        /* \"#utility.yul\":7346:7352   */\n      dup3\n        /* \"#utility.yul\":7342:7357   */\n      add\n        /* \"#utility.yul\":7335:7367   */\n      mstore\n        /* \"#utility.yul\":7150:7374   */\n      pop\n      jump\t// out\n        /* \"#utility.yul\":7380:7746   */\n    tag_108:\n        /* \"#utility.yul\":7522:7525   */\n      0x00\n        /* \"#utility.yul\":7543:7610   */\n      tag_192\n        /* \"#utility.yul\":7607:7609   */\n      0x25\n        /* \"#utility.yul\":7602:7605   */\n      dup4\n        /* \"#utility.yul\":7543:7610   */\n      tag_104\n      jump\t// in\n    tag_192:\n        /* \"#utility.yul\":7536:7610   */\n      swap2\n      pop\n        /* \"#utility.yul\":7619:7712   */\n      tag_193\n        /* \"#utility.yul\":7708:7711   */\n      dup3\n        /* \"#utility.yul\":7619:7712   */\n      tag_107\n      jump\t// in\n    tag_193:\n        /* \"#utility.yul\":7737:7739   */\n      0x40\n        /* \"#utility.yul\":7732:7735   */\n      dup3\n        /* \"#utility.yul\":7728:7740   */\n      add\n        /* \"#utility.yul\":7721:7740   */\n      swap1\n      pop\n        /* \"#utility.yul\":7380:7746   */\n      swap2\n      swap1\n      pop\n      jump\t// out\n        /* \"#utility.yul\":7752:8171   */\n    tag_62:\n        /* \"#utility.yul\":7918:7922   */\n      0x00\n        /* \"#utility.yul\":7956:7958   */\n      0x20\n        /* \"#utility.yul\":7945:7954   */\n      dup3\n        /* \"#utility.yul\":7941:7959   */\n      add\n        /* \"#utility.yul\":7933:7959   */\n      swap1\n      pop\n        /* \"#utility.yul\":8005:8014   */\n      dup2\n        /* \"#utility.yul\":7999:8003   */\n      dup2\n        /* \"#utility.yul\":7995:8015   */\n      sub\n        /* \"#utility.yul\":7991:7992   */\n      0x00\n        /* \"#utility.yul\":7980:7989   */\n      dup4\n        /* \"#utility.yul\":7976:7993   */\n      add\n        /* \"#utility.yul\":7969:8016   */\n      mstore\n        /* \"#utility.yul\":8033:8164   */\n      tag_195\n        /* \"#utility.yul\":8159:8163   */\n      dup2\n        /* \"#utility.yul\":8033:8164   */\n      tag_108\n      jump\t// in\n    tag_195:\n        /* \"#utility.yul\":8025:8164   */\n      swap1\n      pop\n        /* \"#utility.yul\":7752:8171   */\n      swap2\n      swap1\n      pop\n      jump\t// out\n        /* \"#utility.yul\":8177:8399   */\n    tag_65:\n        /* \"#utility.yul\":8270:8274   */\n      0x00\n        /* \"#utility.yul\":8308:8310   */\n      0x20\n        /* \"#utility.yul\":8297:8306   */\n      dup3\n        /* \"#utility.yul\":8293:8311   */\n      add\n        /* \"#utility.yul\":8285:8311   */\n      swap1\n      pop\n        /* \"#utility.yul\":8321:8392   */\n      tag_197\n        /* \"#utility.yul\":8389:8390   */\n      0x00\n        /* \"#utility.yul\":8378:8387   */\n      dup4\n        /* \"#utility.yul\":8374:8391   */\n      add\n        /* \"#utility.yul\":8365:8371   */\n      dup5\n        /* \"#utility.yul\":8321:8392   */\n      tag_97\n      jump\t// in\n    tag_197:\n        /* \"#utility.yul\":8177:8399   */\n      swap3\n      swap2\n      pop\n      pop\n      jump\t// out\n        /* \"#utility.yul\":8405:8548   */\n    tag_109:\n        /* \"#utility.yul\":8462:8467   */\n      0x00\n        /* \"#utility.yul\":8493:8499   */\n      dup2\n        /* \"#utility.yul\":8487:8500   */\n      mload\n        /* \"#utility.yul\":8478:8500   */\n      swap1\n      pop\n        /* \"#utility.yul\":8509:8542   */\n      tag_199\n        /* \"#utility.yul\":8536:8541   */\n      dup2\n        /* \"#utility.yul\":8509:8542   */\n      tag_86\n      jump\t// in\n    tag_199:\n        /* \"#utility.yul\":8405:8548   */\n      swap3\n      swap2\n      pop\n      pop\n      jump\t// out\n        /* \"#utility.yul\":8554:8905   */\n    tag_69:\n        /* \"#utility.yul\":8624:8630   */\n      0x00\n        /* \"#utility.yul\":8673:8675   */\n      0x20\n        /* \"#utility.yul\":8661:8670   */\n      dup3\n        /* \"#utility.yul\":8652:8659   */\n      dup5\n        /* \"#utility.yul\":8648:8671   */\n      sub\n        /* \"#utility.yul\":8644:8676   */\n      slt\n        /* \"#utility.yul\":8641:8760   */\n      iszero\n      tag_201\n      jumpi\n        /* \"#utility.yul\":8679:8758   */\n      tag_202\n      tag_83\n      jump\t// in\n    tag_202:\n        /* \"#utility.yul\":8641:8760   */\n    tag_201:\n        /* \"#utility.yul\":8799:8800   */\n      0x00\n        /* \"#utility.yul\":8824:8888   */\n      tag_203\n        /* \"#utility.yul\":8880:8887   */\n      dup5\n        /* \"#utility.yul\":8871:8877   */\n      dup3\n        /* \"#utility.yul\":8860:8869   */\n      dup6\n        /* \"#utility.yul\":8856:8878   */\n      add\n        /* \"#utility.yul\":8824:8888   */\n      tag_109\n      jump\t// in\n    tag_203:\n        /* \"#utility.yul\":8814:8888   */\n      swap2\n      pop\n        /* \"#utility.yul\":8770:8898   */\n      pop\n        /* \"#utility.yul\":8554:8905   */\n      swap3\n      swap2\n      pop\n      pop\n      jump\t// out\n        /* \"#utility.yul\":8911:9243   */\n    tag_71:\n        /* \"#utility.yul\":9032:9036   */\n      0x00\n        /* \"#utility.yul\":9070:9072   */\n      0x40\n        /* \"#utility.yul\":9059:9068   */\n      dup3\n        /* \"#utility.yul\":9055:9073   */\n      add\n        /* \"#utility.yul\":9047:9073   */\n      swap1\n      pop\n        /* \"#utility.yul\":9083:9154   */\n      tag_205\n        /* \"#utility.yul\":9151:9152   */\n      0x00\n        /* \"#utility.yul\":9140:9149   */\n      dup4\n        /* \"#utility.yul\":9136:9153   */\n      add\n        /* \"#utility.yul\":9127:9133   */\n      dup6\n        /* \"#utility.yul\":9083:9154   */\n      tag_97\n      jump\t// in\n    tag_205:\n        /* \"#utility.yul\":9164:9236   */\n      tag_206\n        /* \"#utility.yul\":9232:9234   */\n      0x20\n        /* \"#utility.yul\":9221:9230   */\n      dup4\n        /* \"#utility.yul\":9217:9235   */\n      add\n        /* \"#utility.yul\":9208:9214   */\n      dup5\n        /* \"#utility.yul\":9164:9236   */\n      tag_88\n      jump\t// in\n    tag_206:\n        /* \"#utility.yul\":8911:9243   */\n      swap4\n      swap3\n      pop\n      pop\n      pop\n      jump\t// out\n\n    auxdata: 0xa2646970667358221220dd18c5dab9913ba137649d6908ef94faf37bb90b15f814539a807cd5ed19c01264736f6c634300080a0033\n}\n",
				"bytecode": {
					"linkReferences": {},
					"object": "60806040523480156200001157600080fd5b5060405162000d6b38038062000d6b833981810160405281019062000037919062000180565b33600260006101000a81548173ffffffffffffffffffffffffffffffffffffffff021916908373ffffffffffffffffffffffffffffffffffffffff160217905550816000806101000a81548173ffffffffffffffffffffffffffffffffffffffff021916908373ffffffffffffffffffffffffffffffffffffffff160217905550806001819055505050620001c7565b600080fd5b600073ffffffffffffffffffffffffffffffffffffffff82169050919050565b6000620000f982620000cc565b9050919050565b60006200010d82620000ec565b9050919050565b6200011f8162000100565b81146200012b57600080fd5b50565b6000815190506200013f8162000114565b92915050565b6000819050919050565b6200015a8162000145565b81146200016657600080fd5b50565b6000815190506200017a816200014f565b92915050565b600080604083850312156200019a5762000199620000c7565b5b6000620001aa858286016200012e565b9250506020620001bd8582860162000169565b9150509250929050565b610b9480620001d76000396000f3fe6080604052600436106100555760003560e01c80633610724e1461005a578063380d831b14610076578063518ab2a81461008d57806355a373d6146100b85780637ff9b596146100e3578063cdc57fd31461010e575b600080fd5b610074600480360381019061006f919061069c565b610137565b005b34801561008257600080fd5b5061008b61035c565b005b34801561009957600080fd5b506100a2610597565b6040516100af91906106d8565b60405180910390f35b3480156100c457600080fd5b506100cd61059d565b6040516100da9190610772565b60405180910390f35b3480156100ef57600080fd5b506100f86105c1565b60405161010591906106d8565b60405180910390f35b34801561011a57600080fd5b506101356004803603810190610130919061069c565b6105c7565b005b6001548161014591906107bc565b34101561015157600080fd5b60008054906101000a900473ffffffffffffffffffffffffffffffffffffffff1673ffffffffffffffffffffffffffffffffffffffff166323b872dd600260009054906101000a900473ffffffffffffffffffffffffffffffffffffffff1633846040518463ffffffff1660e01b81526004016101d093929190610837565b6020604051808303816000875af11580156101ef573d6000803e3d6000fd5b505050506040513d601f19601f8201168201806040525081019061021391906108a6565b61021c57600080fd5b803373ffffffffffffffffffffffffffffffffffffffff167f5e5e995ce3133561afceaa51a9a154d5db228cd7525d34df5185582c18d3df0960405160405180910390a3806003600082825461027291906108d3565b925050819055506001548161028791906107bc565b34141561029357610359565b60003373ffffffffffffffffffffffffffffffffffffffff16600154836102ba91906107bc565b346102c59190610929565b6040516102d19061098e565b60006040518083038185875af1925050503d806000811461030e576040519150601f19603f3d011682016040523d82523d6000602084013e610313565b606091505b5050905080610357576040517f08c379a000000000000000000000000000000000000000000000000000000000815260040161034e90610a26565b60405180910390fd5b505b50565b600260009054906101000a900473ffffffffffffffffffffffffffffffffffffffff1673ffffffffffffffffffffffffffffffffffffffff163373ffffffffffffffffffffffffffffffffffffffff16146103ec576040517f08c379a00000000000000000000000000000000000000000000000000000000081526004016103e390610ab8565b60405180910390fd5b60008054906101000a900473ffffffffffffffffffffffffffffffffffffffff1673ffffffffffffffffffffffffffffffffffffffff1663a9059cbb600260009054906101000a900473ffffffffffffffffffffffffffffffffffffffff1660008054906101000a900473ffffffffffffffffffffffffffffffffffffffff1673ffffffffffffffffffffffffffffffffffffffff166370a08231306040518263ffffffff1660e01b81526004016104a49190610ad8565b602060405180830381865afa1580156104c1573d6000803e3d6000fd5b505050506040513d601f19601f820116820180604052508101906104e59190610b08565b6040518363ffffffff1660e01b8152600401610502929190610b35565b6020604051808303816000875af1158015610521573d6000803e3d6000fd5b505050506040513d601f19601f8201168201806040525081019061054591906108a6565b61054e57600080fd5b3373ffffffffffffffffffffffffffffffffffffffff166108fc479081150290604051600060405180830381858888f19350505050158015610594573d6000803e3d6000fd5b50565b60035481565b60008054906101000a900473ffffffffffffffffffffffffffffffffffffffff1681565b60015481565b600260009054906101000a900473ffffffffffffffffffffffffffffffffffffffff1673ffffffffffffffffffffffffffffffffffffffff163373ffffffffffffffffffffffffffffffffffffffff1614610657576040517f08c379a000000000000000000000000000000000000000000000000000000000815260040161064e90610ab8565b60405180910390fd5b8060018190555050565b600080fd5b6000819050919050565b61067981610666565b811461068457600080fd5b50565b60008135905061069681610670565b92915050565b6000602082840312156106b2576106b1610661565b5b60006106c084828501610687565b91505092915050565b6106d281610666565b82525050565b60006020820190506106ed60008301846106c9565b92915050565b600073ffffffffffffffffffffffffffffffffffffffff82169050919050565b6000819050919050565b600061073861073361072e846106f3565b610713565b6106f3565b9050919050565b600061074a8261071d565b9050919050565b600061075c8261073f565b9050919050565b61076c81610751565b82525050565b60006020820190506107876000830184610763565b92915050565b7f4e487b7100000000000000000000000000000000000000000000000000000000600052601160045260246000fd5b60006107c782610666565b91506107d283610666565b9250817fffffffffffffffffffffffffffffffffffffffffffffffffffffffffffffffff048311821515161561080b5761080a61078d565b5b828202905092915050565b6000610821826106f3565b9050919050565b61083181610816565b82525050565b600060608201905061084c6000830186610828565b6108596020830185610828565b61086660408301846106c9565b949350505050565b60008115159050919050565b6108838161086e565b811461088e57600080fd5b50565b6000815190506108a08161087a565b92915050565b6000602082840312156108bc576108bb610661565b5b60006108ca84828501610891565b91505092915050565b60006108de82610666565b91506108e983610666565b9250827fffffffffffffffffffffffffffffffffffffffffffffffffffffffffffffffff0382111561091e5761091d61078d565b5b828201905092915050565b600061093482610666565b915061093f83610666565b9250828210156109525761095161078d565b5b828203905092915050565b600081905092915050565b50565b600061097860008361095d565b915061098382610968565b600082019050919050565b60006109998261096b565b9150819050919050565b600082825260208201905092915050565b7f436f756c646e27742073656e6420746865206368616e6765206261636b20746f60008201527f2074686520627579657200000000000000000000000000000000000000000000602082015250565b6000610a10602a836109a3565b9150610a1b826109b4565b604082019050919050565b60006020820190508181036000830152610a3f81610a03565b9050919050565b7f4f6e6c7920746865206f776e65722063616e2063616c6c20746869732066756e60008201527f6374696f6e000000000000000000000000000000000000000000000000000000602082015250565b6000610aa26025836109a3565b9150610aad82610a46565b604082019050919050565b60006020820190508181036000830152610ad181610a95565b9050919050565b6000602082019050610aed6000830184610828565b92915050565b600081519050610b0281610670565b92915050565b600060208284031215610b1e57610b1d610661565b5b6000610b2c84828501610af3565b91505092915050565b6000604082019050610b4a6000830185610828565b610b5760208301846106c9565b939250505056fea2646970667358221220dd18c5dab9913ba137649d6908ef94faf37bb90b15f814539a807cd5ed19c01264736f6c634300080a0033",
					"opcodes": "PUSH1 0x80 PUSH1 0x40 MSTORE CALLVALUE DUP1 ISZERO PUSH3 0x11 JUMPI PUSH1 0x0 DUP1 REVERT JUMPDEST POP PUSH1 0x40 MLOAD PUSH3 0xD6B CODESIZE SUB DUP1 PUSH3 0xD6B DUP4 CODECOPY DUP2 DUP2 ADD PUSH1 0x40 MSTORE DUP2 ADD SWAP1 PUSH3 0x37 SWAP2 SWAP1 PUSH3 0x180 JUMP JUMPDEST CALLER PUSH1 0x2 PUSH1 0x0 PUSH2 0x100 EXP DUP2 SLOAD DUP2 PUSH20 0xFFFFFFFFFFFFFFFFFFFFFFFFFFFFFFFFFFFFFFFF MUL NOT AND SWAP1 DUP4 PUSH20 0xFFFFFFFFFFFFFFFFFFFFFFFFFFFFFFFFFFFFFFFF AND MUL OR SWAP1 SSTORE POP DUP2 PUSH1 0x0 DUP1 PUSH2 0x100 EXP DUP2 SLOAD DUP2 PUSH20 0xFFFFFFFFFFFFFFFFFFFFFFFFFFFFFFFFFFFFFFFF MUL NOT AND SWAP1 DUP4 PUSH20 0xFFFFFFFFFFFFFFFFFFFFFFFFFFFFFFFFFFFFFFFF AND MUL OR SWAP1 SSTORE POP DUP1 PUSH1 0x1 DUP2 SWAP1 SSTORE POP POP POP PUSH3 0x1C7 JUMP JUMPDEST PUSH1 0x0 DUP1 REVERT JUMPDEST PUSH1 0x0 PUSH20 0xFFFFFFFFFFFFFFFFFFFFFFFFFFFFFFFFFFFFFFFF DUP3 AND SWAP1 POP SWAP2 SWAP1 POP JUMP JUMPDEST PUSH1 0x0 PUSH3 0xF9 DUP3 PUSH3 0xCC JUMP JUMPDEST SWAP1 POP SWAP2 SWAP1 POP JUMP JUMPDEST PUSH1 0x0 PUSH3 0x10D DUP3 PUSH3 0xEC JUMP JUMPDEST SWAP1 POP SWAP2 SWAP1 POP JUMP JUMPDEST PUSH3 0x11F DUP2 PUSH3 0x100 JUMP JUMPDEST DUP2 EQ PUSH3 0x12B JUMPI PUSH1 0x0 DUP1 REVERT JUMPDEST POP JUMP JUMPDEST PUSH1 0x0 DUP2 MLOAD SWAP1 POP PUSH3 0x13F DUP2 PUSH3 0x114 JUMP JUMPDEST SWAP3 SWAP2 POP POP JUMP JUMPDEST PUSH1 0x0 DUP2 SWAP1 POP SWAP2 SWAP1 POP JUMP JUMPDEST PUSH3 0x15A DUP2 PUSH3 0x145 JUMP JUMPDEST DUP2 EQ PUSH3 0x166 JUMPI PUSH1 0x0 DUP1 REVERT JUMPDEST POP JUMP JUMPDEST PUSH1 0x0 DUP2 MLOAD SWAP1 POP PUSH3 0x17A DUP2 PUSH3 0x14F JUMP JUMPDEST SWAP3 SWAP2 POP POP JUMP JUMPDEST PUSH1 0x0 DUP1 PUSH1 0x40 DUP4 DUP6 SUB SLT ISZERO PUSH3 0x19A JUMPI PUSH3 0x199 PUSH3 0xC7 JUMP JUMPDEST JUMPDEST PUSH1 0x0 PUSH3 0x1AA DUP6 DUP3 DUP7 ADD PUSH3 0x12E JUMP JUMPDEST SWAP3 POP POP PUSH1 0x20 PUSH3 0x1BD DUP6 DUP3 DUP7 ADD PUSH3 0x169 JUMP JUMPDEST SWAP2 POP POP SWAP3 POP SWAP3 SWAP1 POP JUMP JUMPDEST PUSH2 0xB94 DUP1 PUSH3 0x1D7 PUSH1 0x0 CODECOPY PUSH1 0x0 RETURN INVALID PUSH1 0x80 PUSH1 0x40 MSTORE PUSH1 0x4 CALLDATASIZE LT PUSH2 0x55 JUMPI PUSH1 0x0 CALLDATALOAD PUSH1 0xE0 SHR DUP1 PUSH4 0x3610724E EQ PUSH2 0x5A JUMPI DUP1 PUSH4 0x380D831B EQ PUSH2 0x76 JUMPI DUP1 PUSH4 0x518AB2A8 EQ PUSH2 0x8D JUMPI DUP1 PUSH4 0x55A373D6 EQ PUSH2 0xB8 JUMPI DUP1 PUSH4 0x7FF9B596 EQ PUSH2 0xE3 JUMPI DUP1 PUSH4 0xCDC57FD3 EQ PUSH2 0x10E JUMPI JUMPDEST PUSH1 0x0 DUP1 REVERT JUMPDEST PUSH2 0x74 PUSH1 0x4 DUP1 CALLDATASIZE SUB DUP2 ADD SWAP1 PUSH2 0x6F SWAP2 SWAP1 PUSH2 0x69C JUMP JUMPDEST PUSH2 0x137 JUMP JUMPDEST STOP JUMPDEST CALLVALUE DUP1 ISZERO PUSH2 0x82 JUMPI PUSH1 0x0 DUP1 REVERT JUMPDEST POP PUSH2 0x8B PUSH2 0x35C JUMP JUMPDEST STOP JUMPDEST CALLVALUE DUP1 ISZERO PUSH2 0x99 JUMPI PUSH1 0x0 DUP1 REVERT JUMPDEST POP PUSH2 0xA2 PUSH2 0x597 JUMP JUMPDEST PUSH1 0x40 MLOAD PUSH2 0xAF SWAP2 SWAP1 PUSH2 0x6D8 JUMP JUMPDEST PUSH1 0x40 MLOAD DUP1 SWAP2 SUB SWAP1 RETURN JUMPDEST CALLVALUE DUP1 ISZERO PUSH2 0xC4 JUMPI PUSH1 0x0 DUP1 REVERT JUMPDEST POP PUSH2 0xCD PUSH2 0x59D JUMP JUMPDEST PUSH1 0x40 MLOAD PUSH2 0xDA SWAP2 SWAP1 PUSH2 0x772 JUMP JUMPDEST PUSH1 0x40 MLOAD DUP1 SWAP2 SUB SWAP1 RETURN JUMPDEST CALLVALUE DUP1 ISZERO PUSH2 0xEF JUMPI PUSH1 0x0 DUP1 REVERT JUMPDEST POP PUSH2 0xF8 PUSH2 0x5C1 JUMP JUMPDEST PUSH1 0x40 MLOAD PUSH2 0x105 SWAP2 SWAP1 PUSH2 0x6D8 JUMP JUMPDEST PUSH1 0x40 MLOAD DUP1 SWAP2 SUB SWAP1 RETURN JUMPDEST CALLVALUE DUP1 ISZERO PUSH2 0x11A JUMPI PUSH1 0x0 DUP1 REVERT JUMPDEST POP PUSH2 0x135 PUSH1 0x4 DUP1 CALLDATASIZE SUB DUP2 ADD SWAP1 PUSH2 0x130 SWAP2 SWAP1 PUSH2 0x69C JUMP JUMPDEST PUSH2 0x5C7 JUMP JUMPDEST STOP JUMPDEST PUSH1 0x1 SLOAD DUP2 PUSH2 0x145 SWAP2 SWAP1 PUSH2 0x7BC JUMP JUMPDEST CALLVALUE LT ISZERO PUSH2 0x151 JUMPI PUSH1 0x0 DUP1 REVERT JUMPDEST PUSH1 0x0 DUP1 SLOAD SWAP1 PUSH2 0x100 EXP SWAP1 DIV PUSH20 0xFFFFFFFFFFFFFFFFFFFFFFFFFFFFFFFFFFFFFFFF AND PUSH20 0xFFFFFFFFFFFFFFFFFFFFFFFFFFFFFFFFFFFFFFFF AND PUSH4 0x23B872DD PUSH1 0x2 PUSH1 0x0 SWAP1 SLOAD SWAP1 PUSH2 0x100 EXP SWAP1 DIV PUSH20 0xFFFFFFFFFFFFFFFFFFFFFFFFFFFFFFFFFFFFFFFF AND CALLER DUP5 PUSH1 0x40 MLOAD DUP5 PUSH4 0xFFFFFFFF AND PUSH1 0xE0 SHL DUP2 MSTORE PUSH1 0x4 ADD PUSH2 0x1D0 SWAP4 SWAP3 SWAP2 SWAP1 PUSH2 0x837 JUMP JUMPDEST PUSH1 0x20 PUSH1 0x40 MLOAD DUP1 DUP4 SUB DUP2 PUSH1 0x0 DUP8 GAS CALL ISZERO DUP1 ISZERO PUSH2 0x1EF JUMPI RETURNDATASIZE PUSH1 0x0 DUP1 RETURNDATACOPY RETURNDATASIZE PUSH1 0x0 REVERT JUMPDEST POP POP POP POP PUSH1 0x40 MLOAD RETURNDATASIZE PUSH1 0x1F NOT PUSH1 0x1F DUP3 ADD AND DUP3 ADD DUP1 PUSH1 0x40 MSTORE POP DUP2 ADD SWAP1 PUSH2 0x213 SWAP2 SWAP1 PUSH2 0x8A6 JUMP JUMPDEST PUSH2 0x21C JUMPI PUSH1 0x0 DUP1 REVERT JUMPDEST DUP1 CALLER PUSH20 0xFFFFFFFFFFFFFFFFFFFFFFFFFFFFFFFFFFFFFFFF AND PUSH32 0x5E5E995CE3133561AFCEAA51A9A154D5DB228CD7525D34DF5185582C18D3DF09 PUSH1 0x40 MLOAD PUSH1 0x40 MLOAD DUP1 SWAP2 SUB SWAP1 LOG3 DUP1 PUSH1 0x3 PUSH1 0x0 DUP3 DUP3 SLOAD PUSH2 0x272 SWAP2 SWAP1 PUSH2 0x8D3 JUMP JUMPDEST SWAP3 POP POP DUP2 SWAP1 SSTORE POP PUSH1 0x1 SLOAD DUP2 PUSH2 0x287 SWAP2 SWAP1 PUSH2 0x7BC JUMP JUMPDEST CALLVALUE EQ ISZERO PUSH2 0x293 JUMPI PUSH2 0x359 JUMP JUMPDEST PUSH1 0x0 CALLER PUSH20 0xFFFFFFFFFFFFFFFFFFFFFFFFFFFFFFFFFFFFFFFF AND PUSH1 0x1 SLOAD DUP4 PUSH2 0x2BA SWAP2 SWAP1 PUSH2 0x7BC JUMP JUMPDEST CALLVALUE PUSH2 0x2C5 SWAP2 SWAP1 PUSH2 0x929 JUMP JUMPDEST PUSH1 0x40 MLOAD PUSH2 0x2D1 SWAP1 PUSH2 0x98E JUMP JUMPDEST PUSH1 0x0 PUSH1 0x40 MLOAD DUP1 DUP4 SUB DUP2 DUP6 DUP8 GAS CALL SWAP3 POP POP POP RETURNDATASIZE DUP1 PUSH1 0x0 DUP2 EQ PUSH2 0x30E JUMPI PUSH1 0x40 MLOAD SWAP2 POP PUSH1 0x1F NOT PUSH1 0x3F RETURNDATASIZE ADD AND DUP3 ADD PUSH1 0x40 MSTORE RETURNDATASIZE DUP3 MSTORE RETURNDATASIZE PUSH1 0x0 PUSH1 0x20 DUP5 ADD RETURNDATACOPY PUSH2 0x313 JUMP JUMPDEST PUSH1 0x60 SWAP2 POP JUMPDEST POP POP SWAP1 POP DUP1 PUSH2 0x357 JUMPI PUSH1 0x40 MLOAD PUSH32 0x8C379A000000000000000000000000000000000000000000000000000000000 DUP2 MSTORE PUSH1 0x4 ADD PUSH2 0x34E SWAP1 PUSH2 0xA26 JUMP JUMPDEST PUSH1 0x40 MLOAD DUP1 SWAP2 SUB SWAP1 REVERT JUMPDEST POP JUMPDEST POP JUMP JUMPDEST PUSH1 0x2 PUSH1 0x0 SWAP1 SLOAD SWAP1 PUSH2 0x100 EXP SWAP1 DIV PUSH20 0xFFFFFFFFFFFFFFFFFFFFFFFFFFFFFFFFFFFFFFFF AND PUSH20 0xFFFFFFFFFFFFFFFFFFFFFFFFFFFFFFFFFFFFFFFF AND CALLER PUSH20 0xFFFFFFFFFFFFFFFFFFFFFFFFFFFFFFFFFFFFFFFF AND EQ PUSH2 0x3EC JUMPI PUSH1 0x40 MLOAD PUSH32 0x8C379A000000000000000000000000000000000000000000000000000000000 DUP2 MSTORE PUSH1 0x4 ADD PUSH2 0x3E3 SWAP1 PUSH2 0xAB8 JUMP JUMPDEST PUSH1 0x40 MLOAD DUP1 SWAP2 SUB SWAP1 REVERT JUMPDEST PUSH1 0x0 DUP1 SLOAD SWAP1 PUSH2 0x100 EXP SWAP1 DIV PUSH20 0xFFFFFFFFFFFFFFFFFFFFFFFFFFFFFFFFFFFFFFFF AND PUSH20 0xFFFFFFFFFFFFFFFFFFFFFFFFFFFFFFFFFFFFFFFF AND PUSH4 0xA9059CBB PUSH1 0x2 PUSH1 0x0 SWAP1 SLOAD SWAP1 PUSH2 0x100 EXP SWAP1 DIV PUSH20 0xFFFFFFFFFFFFFFFFFFFFFFFFFFFFFFFFFFFFFFFF AND PUSH1 0x0 DUP1 SLOAD SWAP1 PUSH2 0x100 EXP SWAP1 DIV PUSH20 0xFFFFFFFFFFFFFFFFFFFFFFFFFFFFFFFFFFFFFFFF AND PUSH20 0xFFFFFFFFFFFFFFFFFFFFFFFFFFFFFFFFFFFFFFFF AND PUSH4 0x70A08231 ADDRESS PUSH1 0x40 MLOAD DUP3 PUSH4 0xFFFFFFFF AND PUSH1 0xE0 SHL DUP2 MSTORE PUSH1 0x4 ADD PUSH2 0x4A4 SWAP2 SWAP1 PUSH2 0xAD8 JUMP JUMPDEST PUSH1 0x20 PUSH1 0x40 MLOAD DUP1 DUP4 SUB DUP2 DUP7 GAS STATICCALL ISZERO DUP1 ISZERO PUSH2 0x4C1 JUMPI RETURNDATASIZE PUSH1 0x0 DUP1 RETURNDATACOPY RETURNDATASIZE PUSH1 0x0 REVERT JUMPDEST POP POP POP POP PUSH1 0x40 MLOAD RETURNDATASIZE PUSH1 0x1F NOT PUSH1 0x1F DUP3 ADD AND DUP3 ADD DUP1 PUSH1 0x40 MSTORE POP DUP2 ADD SWAP1 PUSH2 0x4E5 SWAP2 SWAP1 PUSH2 0xB08 JUMP JUMPDEST PUSH1 0x40 MLOAD DUP4 PUSH4 0xFFFFFFFF AND PUSH1 0xE0 SHL DUP2 MSTORE PUSH1 0x4 ADD PUSH2 0x502 SWAP3 SWAP2 SWAP1 PUSH2 0xB35 JUMP JUMPDEST PUSH1 0x20 PUSH1 0x40 MLOAD DUP1 DUP4 SUB DUP2 PUSH1 0x0 DUP8 GAS CALL ISZERO DUP1 ISZERO PUSH2 0x521 JUMPI RETURNDATASIZE PUSH1 0x0 DUP1 RETURNDATACOPY RETURNDATASIZE PUSH1 0x0 REVERT JUMPDEST POP POP POP POP PUSH1 0x40 MLOAD RETURNDATASIZE PUSH1 0x1F NOT PUSH1 0x1F DUP3 ADD AND DUP3 ADD DUP1 PUSH1 0x40 MSTORE POP DUP2 ADD SWAP1 PUSH2 0x545 SWAP2 SWAP1 PUSH2 0x8A6 JUMP JUMPDEST PUSH2 0x54E JUMPI PUSH1 0x0 DUP1 REVERT JUMPDEST CALLER PUSH20 0xFFFFFFFFFFFFFFFFFFFFFFFFFFFFFFFFFFFFFFFF AND PUSH2 0x8FC SELFBALANCE SWAP1 DUP2 ISZERO MUL SWAP1 PUSH1 0x40 MLOAD PUSH1 0x0 PUSH1 0x40 MLOAD DUP1 DUP4 SUB DUP2 DUP6 DUP9 DUP9 CALL SWAP4 POP POP POP POP ISZERO DUP1 ISZERO PUSH2 0x594 JUMPI RETURNDATASIZE PUSH1 0x0 DUP1 RETURNDATACOPY RETURNDATASIZE PUSH1 0x0 REVERT JUMPDEST POP JUMP JUMPDEST PUSH1 0x3 SLOAD DUP2 JUMP JUMPDEST PUSH1 0x0 DUP1 SLOAD SWAP1 PUSH2 0x100 EXP SWAP1 DIV PUSH20 0xFFFFFFFFFFFFFFFFFFFFFFFFFFFFFFFFFFFFFFFF AND DUP2 JUMP JUMPDEST PUSH1 0x1 SLOAD DUP2 JUMP JUMPDEST PUSH1 0x2 PUSH1 0x0 SWAP1 SLOAD SWAP1 PUSH2 0x100 EXP SWAP1 DIV PUSH20 0xFFFFFFFFFFFFFFFFFFFFFFFFFFFFFFFFFFFFFFFF AND PUSH20 0xFFFFFFFFFFFFFFFFFFFFFFFFFFFFFFFFFFFFFFFF AND CALLER PUSH20 0xFFFFFFFFFFFFFFFFFFFFFFFFFFFFFFFFFFFFFFFF AND EQ PUSH2 0x657 JUMPI PUSH1 0x40 MLOAD PUSH32 0x8C379A000000000000000000000000000000000000000000000000000000000 DUP2 MSTORE PUSH1 0x4 ADD PUSH2 0x64E SWAP1 PUSH2 0xAB8 JUMP JUMPDEST PUSH1 0x40 MLOAD DUP1 SWAP2 SUB SWAP1 REVERT JUMPDEST DUP1 PUSH1 0x1 DUP2 SWAP1 SSTORE POP POP JUMP JUMPDEST PUSH1 0x0 DUP1 REVERT JUMPDEST PUSH1 0x0 DUP2 SWAP1 POP SWAP2 SWAP1 POP JUMP JUMPDEST PUSH2 0x679 DUP2 PUSH2 0x666 JUMP JUMPDEST DUP2 EQ PUSH2 0x684 JUMPI PUSH1 0x0 DUP1 REVERT JUMPDEST POP JUMP JUMPDEST PUSH1 0x0 DUP2 CALLDATALOAD SWAP1 POP PUSH2 0x696 DUP2 PUSH2 0x670 JUMP JUMPDEST SWAP3 SWAP2 POP POP JUMP JUMPDEST PUSH1 0x0 PUSH1 0x20 DUP3 DUP5 SUB SLT ISZERO PUSH2 0x6B2 JUMPI PUSH2 0x6B1 PUSH2 0x661 JUMP JUMPDEST JUMPDEST PUSH1 0x0 PUSH2 0x6C0 DUP5 DUP3 DUP6 ADD PUSH2 0x687 JUMP JUMPDEST SWAP2 POP POP SWAP3 SWAP2 POP POP JUMP JUMPDEST PUSH2 0x6D2 DUP2 PUSH2 0x666 JUMP JUMPDEST DUP3 MSTORE POP POP JUMP JUMPDEST PUSH1 0x0 PUSH1 0x20 DUP3 ADD SWAP1 POP PUSH2 0x6ED PUSH1 0x0 DUP4 ADD DUP5 PUSH2 0x6C9 JUMP JUMPDEST SWAP3 SWAP2 POP POP JUMP JUMPDEST PUSH1 0x0 PUSH20 0xFFFFFFFFFFFFFFFFFFFFFFFFFFFFFFFFFFFFFFFF DUP3 AND SWAP1 POP SWAP2 SWAP1 POP JUMP JUMPDEST PUSH1 0x0 DUP2 SWAP1 POP SWAP2 SWAP1 POP JUMP JUMPDEST PUSH1 0x0 PUSH2 0x738 PUSH2 0x733 PUSH2 0x72E DUP5 PUSH2 0x6F3 JUMP JUMPDEST PUSH2 0x713 JUMP JUMPDEST PUSH2 0x6F3 JUMP JUMPDEST SWAP1 POP SWAP2 SWAP1 POP JUMP JUMPDEST PUSH1 0x0 PUSH2 0x74A DUP3 PUSH2 0x71D JUMP JUMPDEST SWAP1 POP SWAP2 SWAP1 POP JUMP JUMPDEST PUSH1 0x0 PUSH2 0x75C DUP3 PUSH2 0x73F JUMP JUMPDEST SWAP1 POP SWAP2 SWAP1 POP JUMP JUMPDEST PUSH2 0x76C DUP2 PUSH2 0x751 JUMP JUMPDEST DUP3 MSTORE POP POP JUMP JUMPDEST PUSH1 0x0 PUSH1 0x20 DUP3 ADD SWAP1 POP PUSH2 0x787 PUSH1 0x0 DUP4 ADD DUP5 PUSH2 0x763 JUMP JUMPDEST SWAP3 SWAP2 POP POP JUMP JUMPDEST PUSH32 0x4E487B7100000000000000000000000000000000000000000000000000000000 PUSH1 0x0 MSTORE PUSH1 0x11 PUSH1 0x4 MSTORE PUSH1 0x24 PUSH1 0x0 REVERT JUMPDEST PUSH1 0x0 PUSH2 0x7C7 DUP3 PUSH2 0x666 JUMP JUMPDEST SWAP2 POP PUSH2 0x7D2 DUP4 PUSH2 0x666 JUMP JUMPDEST SWAP3 POP DUP2 PUSH32 0xFFFFFFFFFFFFFFFFFFFFFFFFFFFFFFFFFFFFFFFFFFFFFFFFFFFFFFFFFFFFFFFF DIV DUP4 GT DUP3 ISZERO ISZERO AND ISZERO PUSH2 0x80B JUMPI PUSH2 0x80A PUSH2 0x78D JUMP JUMPDEST JUMPDEST DUP3 DUP3 MUL SWAP1 POP SWAP3 SWAP2 POP POP JUMP JUMPDEST PUSH1 0x0 PUSH2 0x821 DUP3 PUSH2 0x6F3 JUMP JUMPDEST SWAP1 POP SWAP2 SWAP1 POP JUMP JUMPDEST PUSH2 0x831 DUP2 PUSH2 0x816 JUMP JUMPDEST DUP3 MSTORE POP POP JUMP JUMPDEST PUSH1 0x0 PUSH1 0x60 DUP3 ADD SWAP1 POP PUSH2 0x84C PUSH1 0x0 DUP4 ADD DUP7 PUSH2 0x828 JUMP JUMPDEST PUSH2 0x859 PUSH1 0x20 DUP4 ADD DUP6 PUSH2 0x828 JUMP JUMPDEST PUSH2 0x866 PUSH1 0x40 DUP4 ADD DUP5 PUSH2 0x6C9 JUMP JUMPDEST SWAP5 SWAP4 POP POP POP POP JUMP JUMPDEST PUSH1 0x0 DUP2 ISZERO ISZERO SWAP1 POP SWAP2 SWAP1 POP JUMP JUMPDEST PUSH2 0x883 DUP2 PUSH2 0x86E JUMP JUMPDEST DUP2 EQ PUSH2 0x88E JUMPI PUSH1 0x0 DUP1 REVERT JUMPDEST POP JUMP JUMPDEST PUSH1 0x0 DUP2 MLOAD SWAP1 POP PUSH2 0x8A0 DUP2 PUSH2 0x87A JUMP JUMPDEST SWAP3 SWAP2 POP POP JUMP JUMPDEST PUSH1 0x0 PUSH1 0x20 DUP3 DUP5 SUB SLT ISZERO PUSH2 0x8BC JUMPI PUSH2 0x8BB PUSH2 0x661 JUMP JUMPDEST JUMPDEST PUSH1 0x0 PUSH2 0x8CA DUP5 DUP3 DUP6 ADD PUSH2 0x891 JUMP JUMPDEST SWAP2 POP POP SWAP3 SWAP2 POP POP JUMP JUMPDEST PUSH1 0x0 PUSH2 0x8DE DUP3 PUSH2 0x666 JUMP JUMPDEST SWAP2 POP PUSH2 0x8E9 DUP4 PUSH2 0x666 JUMP JUMPDEST SWAP3 POP DUP3 PUSH32 0xFFFFFFFFFFFFFFFFFFFFFFFFFFFFFFFFFFFFFFFFFFFFFFFFFFFFFFFFFFFFFFFF SUB DUP3 GT ISZERO PUSH2 0x91E JUMPI PUSH2 0x91D PUSH2 0x78D JUMP JUMPDEST JUMPDEST DUP3 DUP3 ADD SWAP1 POP SWAP3 SWAP2 POP POP JUMP JUMPDEST PUSH1 0x0 PUSH2 0x934 DUP3 PUSH2 0x666 JUMP JUMPDEST SWAP2 POP PUSH2 0x93F DUP4 PUSH2 0x666 JUMP JUMPDEST SWAP3 POP DUP3 DUP3 LT ISZERO PUSH2 0x952 JUMPI PUSH2 0x951 PUSH2 0x78D JUMP JUMPDEST JUMPDEST DUP3 DUP3 SUB SWAP1 POP SWAP3 SWAP2 POP POP JUMP JUMPDEST PUSH1 0x0 DUP2 SWAP1 POP SWAP3 SWAP2 POP POP JUMP JUMPDEST POP JUMP JUMPDEST PUSH1 0x0 PUSH2 0x978 PUSH1 0x0 DUP4 PUSH2 0x95D JUMP JUMPDEST SWAP2 POP PUSH2 0x983 DUP3 PUSH2 0x968 JUMP JUMPDEST PUSH1 0x0 DUP3 ADD SWAP1 POP SWAP2 SWAP1 POP JUMP JUMPDEST PUSH1 0x0 PUSH2 0x999 DUP3 PUSH2 0x96B JUMP JUMPDEST SWAP2 POP DUP2 SWAP1 POP SWAP2 SWAP1 POP JUMP JUMPDEST PUSH1 0x0 DUP3 DUP3 MSTORE PUSH1 0x20 DUP3 ADD SWAP1 POP SWAP3 SWAP2 POP POP JUMP JUMPDEST PUSH32 0x436F756C646E27742073656E6420746865206368616E6765206261636B20746F PUSH1 0x0 DUP3 ADD MSTORE PUSH32 0x2074686520627579657200000000000000000000000000000000000000000000 PUSH1 0x20 DUP3 ADD MSTORE POP JUMP JUMPDEST PUSH1 0x0 PUSH2 0xA10 PUSH1 0x2A DUP4 PUSH2 0x9A3 JUMP JUMPDEST SWAP2 POP PUSH2 0xA1B DUP3 PUSH2 0x9B4 JUMP JUMPDEST PUSH1 0x40 DUP3 ADD SWAP1 POP SWAP2 SWAP1 POP JUMP JUMPDEST PUSH1 0x0 PUSH1 0x20 DUP3 ADD SWAP1 POP DUP2 DUP2 SUB PUSH1 0x0 DUP4 ADD MSTORE PUSH2 0xA3F DUP2 PUSH2 0xA03 JUMP JUMPDEST SWAP1 POP SWAP2 SWAP1 POP JUMP JUMPDEST PUSH32 0x4F6E6C7920746865206F776E65722063616E2063616C6C20746869732066756E PUSH1 0x0 DUP3 ADD MSTORE PUSH32 0x6374696F6E000000000000000000000000000000000000000000000000000000 PUSH1 0x20 DUP3 ADD MSTORE POP JUMP JUMPDEST PUSH1 0x0 PUSH2 0xAA2 PUSH1 0x25 DUP4 PUSH2 0x9A3 JUMP JUMPDEST SWAP2 POP PUSH2 0xAAD DUP3 PUSH2 0xA46 JUMP JUMPDEST PUSH1 0x40 DUP3 ADD SWAP1 POP SWAP2 SWAP1 POP JUMP JUMPDEST PUSH1 0x0 PUSH1 0x20 DUP3 ADD SWAP1 POP DUP2 DUP2 SUB PUSH1 0x0 DUP4 ADD MSTORE PUSH2 0xAD1 DUP2 PUSH2 0xA95 JUMP JUMPDEST SWAP1 POP SWAP2 SWAP1 POP JUMP JUMPDEST PUSH1 0x0 PUSH1 0x20 DUP3 ADD SWAP1 POP PUSH2 0xAED PUSH1 0x0 DUP4 ADD DUP5 PUSH2 0x828 JUMP JUMPDEST SWAP3 SWAP2 POP POP JUMP JUMPDEST PUSH1 0x0 DUP2 MLOAD SWAP1 POP PUSH2 0xB02 DUP2 PUSH2 0x670 JUMP JUMPDEST SWAP3 SWAP2 POP POP JUMP JUMPDEST PUSH1 0x0 PUSH1 0x20 DUP3 DUP5 SUB SLT ISZERO PUSH2 0xB1E JUMPI PUSH2 0xB1D PUSH2 0x661 JUMP JUMPDEST JUMPDEST PUSH1 0x0 PUSH2 0xB2C DUP5 DUP3 DUP6 ADD PUSH2 0xAF3 JUMP JUMPDEST SWAP2 POP POP SWAP3 SWAP2 POP POP JUMP JUMPDEST PUSH1 0x0 PUSH1 0x40 DUP3 ADD SWAP1 POP PUSH2 0xB4A PUSH1 0x0 DUP4 ADD DUP6 PUSH2 0x828 JUMP JUMPDEST PUSH2 0xB57 PUSH1 0x20 DUP4 ADD DUP5 PUSH2 0x6C9 JUMP JUMPDEST SWAP4 SWAP3 POP POP POP JUMP INVALID LOG2 PUSH5 0x6970667358 0x22 SLT KECCAK256 0xDD XOR 0xC5 0xDA 0xB9 SWAP2 EXTCODESIZE LOG1 CALLDATACOPY PUSH5 0x9D6908EF94 STATICCALL RETURN PUSH28 0xB90B15F814539A807CD5ED19C01264736F6C634300080A0033000000 "
				},
				"gasEstimates": {
					"creation": {
						"codeDepositCost": "592800",
						"executionCost": "infinite",
						"totalCost": "infinite"
					},
					"external": {
						"buyTokens(uint256)": "infinite",
						"endSale()": "infinite",
						"modifyTokenPrice(uint256)": "24778",
						"tokenContract()": "infinite",
						"tokenPrice()": "2495",
						"tokensSold()": "2451"
					}
				},
				"methodIdentifiers": {
					"buyTokens(uint256)": "3610724e",
					"endSale()": "380d831b",
					"modifyTokenPrice(uint256)": "cdc57fd3",
					"tokenContract()": "55a373d6",
					"tokenPrice()": "7ff9b596",
					"tokensSold()": "518ab2a8"
				}
			},
			"storageLayout": {
				"storage": [
					{
						"astId": 203,
						"contract": "SampleTokenSale.sol:SampleTokenSale",
						"label": "tokenContract",
						"offset": 0,
						"slot": "0",
						"type": "t_contract(SampleToken)197"
					},
					{
						"astId": 205,
						"contract": "SampleTokenSale.sol:SampleTokenSale",
						"label": "tokenPrice",
						"offset": 0,
						"slot": "1",
						"type": "t_uint256"
					},
					{
						"astId": 207,
						"contract": "SampleTokenSale.sol:SampleTokenSale",
						"label": "owner",
						"offset": 0,
						"slot": "2",
						"type": "t_address"
					},
					{
						"astId": 209,
						"contract": "SampleTokenSale.sol:SampleTokenSale",
						"label": "tokensSold",
						"offset": 0,
						"slot": "3",
						"type": "t_uint256"
					}
				],
				"types": {
					"t_address": {
						"encoding": "inplace",
						"label": "address",
						"numberOfBytes": "20"
					},
					"t_contract(SampleToken)197": {
						"encoding": "inplace",
						"label": "contract SampleToken",
						"numberOfBytes": "20"
					},
					"t_uint256": {
						"encoding": "inplace",
						"label": "uint256",
						"numberOfBytes": "32"
					}
				}
			},
			"userdoc": {
				"kind": "user",
				"methods": {},
				"version": 1
			}
		}
	}
}