{
	"ProductIdentification.sol": {
		"ProductIdentification": {
			"abi": [
				{
					"inputs": [
						{
							"internalType": "uint256",
							"name": "_registrationFee",
							"type": "uint256"
						},
						{
							"internalType": "contract SampleToken",
							"name": "_sampleToken",
							"type": "address"
						}
					],
					"stateMutability": "nonpayable",
					"type": "constructor"
				},
				{
					"inputs": [
						{
							"internalType": "string",
							"name": "",
							"type": "string"
						}
					],
					"name": "brandProducts",
					"outputs": [
						{
							"internalType": "uint256",
							"name": "",
							"type": "uint256"
						}
					],
					"stateMutability": "view",
					"type": "function"
				},
				{
					"inputs": [
						{
							"internalType": "string",
							"name": "_name",
							"type": "string"
						}
					],
					"name": "getBrandInfo",
					"outputs": [
						{
							"internalType": "uint256",
							"name": "",
							"type": "uint256"
						}
					],
					"stateMutability": "view",
					"type": "function"
				},
				{
					"inputs": [
						{
							"internalType": "uint256",
							"name": "_productId",
							"type": "uint256"
						}
					],
					"name": "getProductInfo",
					"outputs": [
						{
							"components": [
								{
									"internalType": "address",
									"name": "manufacturer",
									"type": "address"
								},
								{
									"internalType": "string",
									"name": "name",
									"type": "string"
								},
								{
									"internalType": "uint256",
									"name": "volume",
									"type": "uint256"
								}
							],
							"internalType": "struct ProductIdentification.Product",
							"name": "",
							"type": "tuple"
						}
					],
					"stateMutability": "view",
					"type": "function"
				},
				{
					"inputs": [
						{
							"internalType": "address",
							"name": "_producer",
							"type": "address"
						}
					],
					"name": "isProducerRegistered",
					"outputs": [
						{
							"internalType": "bool",
							"name": "",
							"type": "bool"
						}
					],
					"stateMutability": "view",
					"type": "function"
				},
				{
					"inputs": [],
					"name": "owner",
					"outputs": [
						{
							"internalType": "address",
							"name": "",
							"type": "address"
						}
					],
					"stateMutability": "view",
					"type": "function"
				},
				{
					"inputs": [],
					"name": "productCount",
					"outputs": [
						{
							"internalType": "uint256",
							"name": "",
							"type": "uint256"
						}
					],
					"stateMutability": "view",
					"type": "function"
				},
				{
					"inputs": [],
					"name": "registerProducer",
					"outputs": [],
					"stateMutability": "nonpayable",
					"type": "function"
				},
				{
					"inputs": [
						{
							"internalType": "string",
							"name": "_name",
							"type": "string"
						},
						{
							"internalType": "uint256",
							"name": "_volume",
							"type": "uint256"
						}
					],
					"name": "registerProduct",
					"outputs": [],
					"stateMutability": "nonpayable",
					"type": "function"
				},
				{
					"inputs": [
						{
							"internalType": "address",
							"name": "",
							"type": "address"
						}
					],
					"name": "registeredProducers",
					"outputs": [
						{
							"internalType": "bool",
							"name": "",
							"type": "bool"
						}
					],
					"stateMutability": "view",
					"type": "function"
				},
				{
					"inputs": [
						{
							"internalType": "uint256",
							"name": "",
							"type": "uint256"
						}
					],
					"name": "registeredProducts",
					"outputs": [
						{
							"internalType": "address",
							"name": "manufacturer",
							"type": "address"
						},
						{
							"internalType": "string",
							"name": "name",
							"type": "string"
						},
						{
							"internalType": "uint256",
							"name": "volume",
							"type": "uint256"
						}
					],
					"stateMutability": "view",
					"type": "function"
				},
				{
					"inputs": [],
					"name": "registrationFee",
					"outputs": [
						{
							"internalType": "uint256",
							"name": "",
							"type": "uint256"
						}
					],
					"stateMutability": "view",
					"type": "function"
				},
				{
					"inputs": [],
					"name": "sampleToken",
					"outputs": [
						{
							"internalType": "contract SampleToken",
							"name": "",
							"type": "address"
						}
					],
					"stateMutability": "view",
					"type": "function"
				},
				{
					"inputs": [
						{
							"internalType": "uint256",
							"name": "_fee",
							"type": "uint256"
						}
					],
					"name": "setRegistrationFee",
					"outputs": [],
					"stateMutability": "nonpayable",
					"type": "function"
				}
			],
			"devdoc": {
				"kind": "dev",
				"methods": {},
				"version": 1
			},
			"evm": {
				"assembly": "    /* \"ProductIdentification.sol\":95:2107  contract ProductIdentification {... */\n  mstore(0x40, 0x80)\n    /* \"ProductIdentification.sol\":822:1001  constructor(uint256 _registrationFee, SampleToken _sampleToken) {... */\n  callvalue\n  dup1\n  iszero\n  tag_1\n  jumpi\n  0x00\n  dup1\n  revert\ntag_1:\n  pop\n  mload(0x40)\n  sub(codesize, bytecodeSize)\n  dup1\n  bytecodeSize\n  dup4\n  codecopy\n  dup2\n  dup2\n  add\n  0x40\n  mstore\n  dup2\n  add\n  swap1\n  tag_2\n  swap2\n  swap1\n  tag_3\n  jump\t// in\ntag_2:\n    /* \"ProductIdentification.sol\":904:914  msg.sender */\n  caller\n    /* \"ProductIdentification.sol\":896:901  owner */\n  0x00\n  dup1\n    /* \"ProductIdentification.sol\":896:914  owner = msg.sender */\n  0x0100\n  exp\n  dup2\n  sload\n  dup2\n  0xffffffffffffffffffffffffffffffffffffffff\n  mul\n  not\n  and\n  swap1\n  dup4\n  0xffffffffffffffffffffffffffffffffffffffff\n  and\n  mul\n  or\n  swap1\n  sstore\n  pop\n    /* \"ProductIdentification.sol\":942:958  _registrationFee */\n  dup2\n    /* \"ProductIdentification.sol\":924:939  registrationFee */\n  0x01\n    /* \"ProductIdentification.sol\":924:958  registrationFee = _registrationFee */\n  dup2\n  swap1\n  sstore\n  pop\n    /* \"ProductIdentification.sol\":982:994  _sampleToken */\n  dup1\n    /* \"ProductIdentification.sol\":968:979  sampleToken */\n  0x06\n  0x00\n    /* \"ProductIdentification.sol\":968:994  sampleToken = _sampleToken */\n  0x0100\n  exp\n  dup2\n  sload\n  dup2\n  0xffffffffffffffffffffffffffffffffffffffff\n  mul\n  not\n  and\n  swap1\n  dup4\n  0xffffffffffffffffffffffffffffffffffffffff\n  and\n  mul\n  or\n  swap1\n  sstore\n  pop\n    /* \"ProductIdentification.sol\":822:1001  constructor(uint256 _registrationFee, SampleToken _sampleToken) {... */\n  pop\n  pop\n    /* \"ProductIdentification.sol\":95:2107  contract ProductIdentification {... */\n  jump(tag_6)\n    /* \"#utility.yul\":88:205   */\ntag_8:\n    /* \"#utility.yul\":197:198   */\n  0x00\n    /* \"#utility.yul\":194:195   */\n  dup1\n    /* \"#utility.yul\":187:199   */\n  revert\n    /* \"#utility.yul\":334:411   */\ntag_10:\n    /* \"#utility.yul\":371:378   */\n  0x00\n    /* \"#utility.yul\":400:405   */\n  dup2\n    /* \"#utility.yul\":389:405   */\n  swap1\n  pop\n    /* \"#utility.yul\":334:411   */\n  swap2\n  swap1\n  pop\n  jump\t// out\n    /* \"#utility.yul\":417:539   */\ntag_11:\n    /* \"#utility.yul\":490:514   */\n  tag_24\n    /* \"#utility.yul\":508:513   */\n  dup2\n    /* \"#utility.yul\":490:514   */\n  tag_10\n  jump\t// in\ntag_24:\n    /* \"#utility.yul\":483:488   */\n  dup2\n    /* \"#utility.yul\":480:515   */\n  eq\n    /* \"#utility.yul\":470:533   */\n  tag_25\n  jumpi\n    /* \"#utility.yul\":529:530   */\n  0x00\n    /* \"#utility.yul\":526:527   */\n  dup1\n    /* \"#utility.yul\":519:531   */\n  revert\n    /* \"#utility.yul\":470:533   */\ntag_25:\n    /* \"#utility.yul\":417:539   */\n  pop\n  jump\t// out\n    /* \"#utility.yul\":545:688   */\ntag_12:\n    /* \"#utility.yul\":602:607   */\n  0x00\n    /* \"#utility.yul\":633:639   */\n  dup2\n    /* \"#utility.yul\":627:640   */\n  mload\n    /* \"#utility.yul\":618:640   */\n  swap1\n  pop\n    /* \"#utility.yul\":649:682   */\n  tag_27\n    /* \"#utility.yul\":676:681   */\n  dup2\n    /* \"#utility.yul\":649:682   */\n  tag_11\n  jump\t// in\ntag_27:\n    /* \"#utility.yul\":545:688   */\n  swap3\n  swap2\n  pop\n  pop\n  jump\t// out\n    /* \"#utility.yul\":694:820   */\ntag_13:\n    /* \"#utility.yul\":731:738   */\n  0x00\n    /* \"#utility.yul\":771:813   */\n  0xffffffffffffffffffffffffffffffffffffffff\n    /* \"#utility.yul\":764:769   */\n  dup3\n    /* \"#utility.yul\":760:814   */\n  and\n    /* \"#utility.yul\":749:814   */\n  swap1\n  pop\n    /* \"#utility.yul\":694:820   */\n  swap2\n  swap1\n  pop\n  jump\t// out\n    /* \"#utility.yul\":826:922   */\ntag_14:\n    /* \"#utility.yul\":863:870   */\n  0x00\n    /* \"#utility.yul\":892:916   */\n  tag_30\n    /* \"#utility.yul\":910:915   */\n  dup3\n    /* \"#utility.yul\":892:916   */\n  tag_13\n  jump\t// in\ntag_30:\n    /* \"#utility.yul\":881:916   */\n  swap1\n  pop\n    /* \"#utility.yul\":826:922   */\n  swap2\n  swap1\n  pop\n  jump\t// out\n    /* \"#utility.yul\":928:1043   */\ntag_15:\n    /* \"#utility.yul\":984:991   */\n  0x00\n    /* \"#utility.yul\":1013:1037   */\n  tag_32\n    /* \"#utility.yul\":1031:1036   */\n  dup3\n    /* \"#utility.yul\":1013:1037   */\n  tag_14\n  jump\t// in\ntag_32:\n    /* \"#utility.yul\":1002:1037   */\n  swap1\n  pop\n    /* \"#utility.yul\":928:1043   */\n  swap2\n  swap1\n  pop\n  jump\t// out\n    /* \"#utility.yul\":1049:1209   */\ntag_16:\n    /* \"#utility.yul\":1141:1184   */\n  tag_34\n    /* \"#utility.yul\":1178:1183   */\n  dup2\n    /* \"#utility.yul\":1141:1184   */\n  tag_15\n  jump\t// in\ntag_34:\n    /* \"#utility.yul\":1134:1139   */\n  dup2\n    /* \"#utility.yul\":1131:1185   */\n  eq\n    /* \"#utility.yul\":1121:1203   */\n  tag_35\n  jumpi\n    /* \"#utility.yul\":1199:1200   */\n  0x00\n    /* \"#utility.yul\":1196:1197   */\n  dup1\n    /* \"#utility.yul\":1189:1201   */\n  revert\n    /* \"#utility.yul\":1121:1203   */\ntag_35:\n    /* \"#utility.yul\":1049:1209   */\n  pop\n  jump\t// out\n    /* \"#utility.yul\":1215:1396   */\ntag_17:\n    /* \"#utility.yul\":1291:1296   */\n  0x00\n    /* \"#utility.yul\":1322:1328   */\n  dup2\n    /* \"#utility.yul\":1316:1329   */\n  mload\n    /* \"#utility.yul\":1307:1329   */\n  swap1\n  pop\n    /* \"#utility.yul\":1338:1390   */\n  tag_37\n    /* \"#utility.yul\":1384:1389   */\n  dup2\n    /* \"#utility.yul\":1338:1390   */\n  tag_16\n  jump\t// in\ntag_37:\n    /* \"#utility.yul\":1215:1396   */\n  swap3\n  swap2\n  pop\n  pop\n  jump\t// out\n    /* \"#utility.yul\":1402:1947   */\ntag_3:\n    /* \"#utility.yul\":1500:1506   */\n  0x00\n    /* \"#utility.yul\":1508:1514   */\n  dup1\n    /* \"#utility.yul\":1557:1559   */\n  0x40\n    /* \"#utility.yul\":1545:1554   */\n  dup4\n    /* \"#utility.yul\":1536:1543   */\n  dup6\n    /* \"#utility.yul\":1532:1555   */\n  sub\n    /* \"#utility.yul\":1528:1560   */\n  slt\n    /* \"#utility.yul\":1525:1644   */\n  iszero\n  tag_39\n  jumpi\n    /* \"#utility.yul\":1563:1642   */\n  tag_40\n  tag_8\n  jump\t// in\ntag_40:\n    /* \"#utility.yul\":1525:1644   */\ntag_39:\n    /* \"#utility.yul\":1683:1684   */\n  0x00\n    /* \"#utility.yul\":1708:1772   */\n  tag_41\n    /* \"#utility.yul\":1764:1771   */\n  dup6\n    /* \"#utility.yul\":1755:1761   */\n  dup3\n    /* \"#utility.yul\":1744:1753   */\n  dup7\n    /* \"#utility.yul\":1740:1762   */\n  add\n    /* \"#utility.yul\":1708:1772   */\n  tag_12\n  jump\t// in\ntag_41:\n    /* \"#utility.yul\":1698:1772   */\n  swap3\n  pop\n    /* \"#utility.yul\":1654:1782   */\n  pop\n    /* \"#utility.yul\":1821:1823   */\n  0x20\n    /* \"#utility.yul\":1847:1930   */\n  tag_42\n    /* \"#utility.yul\":1922:1929   */\n  dup6\n    /* \"#utility.yul\":1913:1919   */\n  dup3\n    /* \"#utility.yul\":1902:1911   */\n  dup7\n    /* \"#utility.yul\":1898:1920   */\n  add\n    /* \"#utility.yul\":1847:1930   */\n  tag_17\n  jump\t// in\ntag_42:\n    /* \"#utility.yul\":1837:1930   */\n  swap2\n  pop\n    /* \"#utility.yul\":1792:1940   */\n  pop\n    /* \"#utility.yul\":1402:1947   */\n  swap3\n  pop\n  swap3\n  swap1\n  pop\n  jump\t// out\n    /* \"ProductIdentification.sol\":95:2107  contract ProductIdentification {... */\ntag_6:\n  dataSize(sub_0)\n  dup1\n  dataOffset(sub_0)\n  0x00\n  codecopy\n  0x00\n  return\nstop\n\nsub_0: assembly {\n        /* \"ProductIdentification.sol\":95:2107  contract ProductIdentification {... */\n      mstore(0x40, 0x80)\n      callvalue\n      dup1\n      iszero\n      tag_1\n      jumpi\n      0x00\n      dup1\n      revert\n    tag_1:\n      pop\n      jumpi(tag_2, lt(calldatasize, 0x04))\n      shr(0xe0, calldataload(0x00))\n      dup1\n      0x7ccb24e9\n      gt\n      tag_16\n      jumpi\n      dup1\n      0x9ae631d6\n      gt\n      tag_17\n      jumpi\n      dup1\n      0x9ae631d6\n      eq\n      tag_12\n      jumpi\n      dup1\n      0xc320c727\n      eq\n      tag_13\n      jumpi\n      dup1\n      0xdbdf0c21\n      eq\n      tag_14\n      jumpi\n      dup1\n      0xe0f6ef87\n      eq\n      tag_15\n      jumpi\n      jump(tag_2)\n    tag_17:\n      dup1\n      0x7ccb24e9\n      eq\n      tag_9\n      jumpi\n      dup1\n      0x8c96091b\n      eq\n      tag_10\n      jumpi\n      dup1\n      0x8da5cb5b\n      eq\n      tag_11\n      jumpi\n      jump(tag_2)\n    tag_16:\n      dup1\n      0x14c44e09\n      eq\n      tag_3\n      jumpi\n      dup1\n      0x15bcabab\n      eq\n      tag_4\n      jumpi\n      dup1\n      0x605f9998\n      eq\n      tag_5\n      jumpi\n      dup1\n      0x7222e9e3\n      eq\n      tag_6\n      jumpi\n      dup1\n      0x76bc59ec\n      eq\n      tag_7\n      jumpi\n      dup1\n      0x79a85e6c\n      eq\n      tag_8\n      jumpi\n    tag_2:\n      0x00\n      dup1\n      revert\n        /* \"ProductIdentification.sol\":158:188  uint256 public registrationFee */\n    tag_3:\n      tag_18\n      tag_19\n      jump\t// in\n    tag_18:\n      mload(0x40)\n      tag_20\n      swap2\n      swap1\n      tag_21\n      jump\t// in\n    tag_20:\n      mload(0x40)\n      dup1\n      swap2\n      sub\n      swap1\n      return\n        /* \"ProductIdentification.sol\":311:358  mapping(string => uint256) public brandProducts */\n    tag_4:\n      tag_22\n      0x04\n      dup1\n      calldatasize\n      sub\n      dup2\n      add\n      swap1\n      tag_23\n      swap2\n      swap1\n      tag_24\n      jump\t// in\n    tag_23:\n      tag_25\n      jump\t// in\n    tag_22:\n      mload(0x40)\n      tag_26\n      swap2\n      swap1\n      tag_21\n      jump\t// in\n    tag_26:\n      mload(0x40)\n      dup1\n      swap2\n      sub\n      swap1\n      return\n        /* \"ProductIdentification.sol\":1602:1734  function isProducerRegistered(address _producer) external view returns (bool) {... */\n    tag_5:\n      tag_27\n      0x04\n      dup1\n      calldatasize\n      sub\n      dup2\n      add\n      swap1\n      tag_28\n      swap2\n      swap1\n      tag_29\n      jump\t// in\n    tag_28:\n      tag_30\n      jump\t// in\n    tag_27:\n      mload(0x40)\n      tag_31\n      swap2\n      swap1\n      tag_32\n      jump\t// in\n    tag_31:\n      mload(0x40)\n      dup1\n      swap2\n      sub\n      swap1\n      return\n        /* \"ProductIdentification.sol\":398:428  SampleToken public sampleToken */\n    tag_6:\n      tag_33\n      tag_34\n      jump\t// in\n    tag_33:\n      mload(0x40)\n      tag_35\n      swap2\n      swap1\n      tag_36\n      jump\t// in\n    tag_35:\n      mload(0x40)\n      dup1\n      swap2\n      sub\n      swap1\n      return\n        /* \"ProductIdentification.sol\":195:246  mapping(address => bool) public registeredProducers */\n    tag_7:\n      tag_37\n      0x04\n      dup1\n      calldatasize\n      sub\n      dup2\n      add\n      swap1\n      tag_38\n      swap2\n      swap1\n      tag_29\n      jump\t// in\n    tag_38:\n      tag_39\n      jump\t// in\n    tag_37:\n      mload(0x40)\n      tag_40\n      swap2\n      swap1\n      tag_32\n      jump\t// in\n    tag_40:\n      mload(0x40)\n      dup1\n      swap2\n      sub\n      swap1\n      return\n        /* \"ProductIdentification.sol\":1740:1979  function getProductInfo(uint256 _productId) external view returns (Product memory) {... */\n    tag_8:\n      tag_41\n      0x04\n      dup1\n      calldatasize\n      sub\n      dup2\n      add\n      swap1\n      tag_42\n      swap2\n      swap1\n      tag_43\n      jump\t// in\n    tag_42:\n      tag_44\n      jump\t// in\n    tag_41:\n      mload(0x40)\n      tag_45\n      swap2\n      swap1\n      tag_46\n      jump\t// in\n    tag_45:\n      mload(0x40)\n      dup1\n      swap2\n      sub\n      swap1\n      return\n        /* \"ProductIdentification.sol\":252:305  mapping(uint256 => Product) public registeredProducts */\n    tag_9:\n      tag_47\n      0x04\n      dup1\n      calldatasize\n      sub\n      dup2\n      add\n      swap1\n      tag_48\n      swap2\n      swap1\n      tag_43\n      jump\t// in\n    tag_48:\n      tag_49\n      jump\t// in\n    tag_47:\n      mload(0x40)\n      tag_50\n      swap4\n      swap3\n      swap2\n      swap1\n      tag_51\n      jump\t// in\n    tag_50:\n      mload(0x40)\n      dup1\n      swap2\n      sub\n      swap1\n      return\n        /* \"ProductIdentification.sol\":1343:1596  function registerProduct(string calldata _name, uint256 _volume) external onlyRegisteredProducer {... */\n    tag_10:\n      tag_52\n      0x04\n      dup1\n      calldatasize\n      sub\n      dup2\n      add\n      swap1\n      tag_53\n      swap2\n      swap1\n      tag_54\n      jump\t// in\n    tag_53:\n      tag_55\n      jump\t// in\n    tag_52:\n      stop\n        /* \"ProductIdentification.sol\":132:152  address public owner */\n    tag_11:\n      tag_56\n      tag_57\n      jump\t// in\n    tag_56:\n      mload(0x40)\n      tag_58\n      swap2\n      swap1\n      tag_59\n      jump\t// in\n    tag_58:\n      mload(0x40)\n      dup1\n      swap2\n      sub\n      swap1\n      return\n        /* \"ProductIdentification.sol\":1985:2105  function getBrandInfo(string calldata _name) external view returns (uint256){... */\n    tag_12:\n      tag_60\n      0x04\n      dup1\n      calldatasize\n      sub\n      dup2\n      add\n      swap1\n      tag_61\n      swap2\n      swap1\n      tag_62\n      jump\t// in\n    tag_61:\n      tag_63\n      jump\t// in\n    tag_60:\n      mload(0x40)\n      tag_64\n      swap2\n      swap1\n      tag_21\n      jump\t// in\n    tag_64:\n      mload(0x40)\n      dup1\n      swap2\n      sub\n      swap1\n      return\n        /* \"ProductIdentification.sol\":1007:1107  function setRegistrationFee(uint256 _fee) external onlyOwner {... */\n    tag_13:\n      tag_65\n      0x04\n      dup1\n      calldatasize\n      sub\n      dup2\n      add\n      swap1\n      tag_66\n      swap2\n      swap1\n      tag_43\n      jump\t// in\n    tag_66:\n      tag_67\n      jump\t// in\n    tag_65:\n      stop\n        /* \"ProductIdentification.sol\":1113:1337  function registerProducer() external {... */\n    tag_14:\n      tag_68\n      tag_69\n      jump\t// in\n    tag_68:\n      stop\n        /* \"ProductIdentification.sol\":365:392  uint256 public productCount */\n    tag_15:\n      tag_70\n      tag_71\n      jump\t// in\n    tag_70:\n      mload(0x40)\n      tag_72\n      swap2\n      swap1\n      tag_21\n      jump\t// in\n    tag_72:\n      mload(0x40)\n      dup1\n      swap2\n      sub\n      swap1\n      return\n        /* \"ProductIdentification.sol\":158:188  uint256 public registrationFee */\n    tag_19:\n      sload(0x01)\n      dup2\n      jump\t// out\n        /* \"ProductIdentification.sol\":311:358  mapping(string => uint256) public brandProducts */\n    tag_25:\n      0x04\n      dup2\n      dup1\n      mload\n      0x20\n      dup2\n      add\n      dup3\n      add\n      dup1\n      mload\n      dup5\n      dup3\n      mstore\n      0x20\n      dup4\n      add\n      0x20\n      dup6\n      add\n      keccak256\n      dup2\n      dup4\n      mstore\n      dup1\n      swap6\n      pop\n      pop\n      pop\n      pop\n      pop\n      pop\n      0x00\n      swap2\n      pop\n      swap1\n      pop\n      sload\n      dup2\n      jump\t// out\n        /* \"ProductIdentification.sol\":1602:1734  function isProducerRegistered(address _producer) external view returns (bool) {... */\n    tag_30:\n        /* \"ProductIdentification.sol\":1674:1678  bool */\n      0x00\n        /* \"ProductIdentification.sol\":1697:1716  registeredProducers */\n      0x02\n        /* \"ProductIdentification.sol\":1697:1727  registeredProducers[_producer] */\n      0x00\n        /* \"ProductIdentification.sol\":1717:1726  _producer */\n      dup4\n        /* \"ProductIdentification.sol\":1697:1727  registeredProducers[_producer] */\n      0xffffffffffffffffffffffffffffffffffffffff\n      and\n      0xffffffffffffffffffffffffffffffffffffffff\n      and\n      dup2\n      mstore\n      0x20\n      add\n      swap1\n      dup2\n      mstore\n      0x20\n      add\n      0x00\n      keccak256\n      0x00\n      swap1\n      sload\n      swap1\n      0x0100\n      exp\n      swap1\n      div\n      0xff\n      and\n        /* \"ProductIdentification.sol\":1690:1727  return registeredProducers[_producer] */\n      swap1\n      pop\n        /* \"ProductIdentification.sol\":1602:1734  function isProducerRegistered(address _producer) external view returns (bool) {... */\n      swap2\n      swap1\n      pop\n      jump\t// out\n        /* \"ProductIdentification.sol\":398:428  SampleToken public sampleToken */\n    tag_34:\n      0x06\n      0x00\n      swap1\n      sload\n      swap1\n      0x0100\n      exp\n      swap1\n      div\n      0xffffffffffffffffffffffffffffffffffffffff\n      and\n      dup2\n      jump\t// out\n        /* \"ProductIdentification.sol\":195:246  mapping(address => bool) public registeredProducers */\n    tag_39:\n      mstore(0x20, 0x02)\n      dup1\n      0x00\n      mstore\n      keccak256(0x00, 0x40)\n      0x00\n      swap2\n      pop\n      sload\n      swap1\n      0x0100\n      exp\n      swap1\n      div\n      0xff\n      and\n      dup2\n      jump\t// out\n        /* \"ProductIdentification.sol\":1740:1979  function getProductInfo(uint256 _productId) external view returns (Product memory) {... */\n    tag_44:\n        /* \"ProductIdentification.sol\":1807:1821  Product memory */\n      tag_74\n      tag_75\n      jump\t// in\n    tag_74:\n        /* \"ProductIdentification.sol\":1896:1897  0 */\n      0x00\n        /* \"ProductIdentification.sol\":1841:1898  registeredProducts[_productId].manufacturer != address(0) */\n      0xffffffffffffffffffffffffffffffffffffffff\n      and\n        /* \"ProductIdentification.sol\":1841:1859  registeredProducts */\n      0x03\n        /* \"ProductIdentification.sol\":1841:1871  registeredProducts[_productId] */\n      0x00\n        /* \"ProductIdentification.sol\":1860:1870  _productId */\n      dup5\n        /* \"ProductIdentification.sol\":1841:1871  registeredProducts[_productId] */\n      dup2\n      mstore\n      0x20\n      add\n      swap1\n      dup2\n      mstore\n      0x20\n      add\n      0x00\n      keccak256\n        /* \"ProductIdentification.sol\":1841:1884  registeredProducts[_productId].manufacturer */\n      0x00\n      add\n      0x00\n      swap1\n      sload\n      swap1\n      0x0100\n      exp\n      swap1\n      div\n      0xffffffffffffffffffffffffffffffffffffffff\n      and\n        /* \"ProductIdentification.sol\":1841:1898  registeredProducts[_productId].manufacturer != address(0) */\n      0xffffffffffffffffffffffffffffffffffffffff\n      and\n      eq\n      iszero\n        /* \"ProductIdentification.sol\":1833:1925  require(registeredProducts[_productId].manufacturer != address(0), \"Product not registered\") */\n      tag_77\n      jumpi\n      mload(0x40)\n      0x08c379a000000000000000000000000000000000000000000000000000000000\n      dup2\n      mstore\n      0x04\n      add\n      tag_78\n      swap1\n      tag_79\n      jump\t// in\n    tag_78:\n      mload(0x40)\n      dup1\n      swap2\n      sub\n      swap1\n      revert\n    tag_77:\n        /* \"ProductIdentification.sol\":1942:1960  registeredProducts */\n      0x03\n        /* \"ProductIdentification.sol\":1942:1972  registeredProducts[_productId] */\n      0x00\n        /* \"ProductIdentification.sol\":1961:1971  _productId */\n      dup4\n        /* \"ProductIdentification.sol\":1942:1972  registeredProducts[_productId] */\n      dup2\n      mstore\n      0x20\n      add\n      swap1\n      dup2\n      mstore\n      0x20\n      add\n      0x00\n      keccak256\n        /* \"ProductIdentification.sol\":1935:1972  return registeredProducts[_productId] */\n      mload(0x40)\n      dup1\n      0x60\n      add\n      0x40\n      mstore\n      swap1\n      dup2\n      0x00\n      dup3\n      add\n      0x00\n      swap1\n      sload\n      swap1\n      0x0100\n      exp\n      swap1\n      div\n      0xffffffffffffffffffffffffffffffffffffffff\n      and\n      0xffffffffffffffffffffffffffffffffffffffff\n      and\n      0xffffffffffffffffffffffffffffffffffffffff\n      and\n      dup2\n      mstore\n      0x20\n      add\n      0x01\n      dup3\n      add\n      dup1\n      sload\n      tag_80\n      swap1\n      tag_81\n      jump\t// in\n    tag_80:\n      dup1\n      0x1f\n      add\n      0x20\n      dup1\n      swap2\n      div\n      mul\n      0x20\n      add\n      mload(0x40)\n      swap1\n      dup2\n      add\n      0x40\n      mstore\n      dup1\n      swap3\n      swap2\n      swap1\n      dup2\n      dup2\n      mstore\n      0x20\n      add\n      dup3\n      dup1\n      sload\n      tag_82\n      swap1\n      tag_81\n      jump\t// in\n    tag_82:\n      dup1\n      iszero\n      tag_83\n      jumpi\n      dup1\n      0x1f\n      lt\n      tag_84\n      jumpi\n      0x0100\n      dup1\n      dup4\n      sload\n      div\n      mul\n      dup4\n      mstore\n      swap2\n      0x20\n      add\n      swap2\n      jump(tag_83)\n    tag_84:\n      dup3\n      add\n      swap2\n      swap1\n      0x00\n      mstore\n      keccak256(0x00, 0x20)\n      swap1\n    tag_85:\n      dup2\n      sload\n      dup2\n      mstore\n      swap1\n      0x01\n      add\n      swap1\n      0x20\n      add\n      dup1\n      dup4\n      gt\n      tag_85\n      jumpi\n      dup3\n      swap1\n      sub\n      0x1f\n      and\n      dup3\n      add\n      swap2\n    tag_83:\n      pop\n      pop\n      pop\n      pop\n      pop\n      dup2\n      mstore\n      0x20\n      add\n      0x02\n      dup3\n      add\n      sload\n      dup2\n      mstore\n      pop\n      pop\n      swap1\n      pop\n        /* \"ProductIdentification.sol\":1740:1979  function getProductInfo(uint256 _productId) external view returns (Product memory) {... */\n      swap2\n      swap1\n      pop\n      jump\t// out\n        /* \"ProductIdentification.sol\":252:305  mapping(uint256 => Product) public registeredProducts */\n    tag_49:\n      mstore(0x20, 0x03)\n      dup1\n      0x00\n      mstore\n      keccak256(0x00, 0x40)\n      0x00\n      swap2\n      pop\n      swap1\n      pop\n      dup1\n      0x00\n      add\n      0x00\n      swap1\n      sload\n      swap1\n      0x0100\n      exp\n      swap1\n      div\n      0xffffffffffffffffffffffffffffffffffffffff\n      and\n      swap1\n      dup1\n      0x01\n      add\n      dup1\n      sload\n      tag_86\n      swap1\n      tag_81\n      jump\t// in\n    tag_86:\n      dup1\n      0x1f\n      add\n      0x20\n      dup1\n      swap2\n      div\n      mul\n      0x20\n      add\n      mload(0x40)\n      swap1\n      dup2\n      add\n      0x40\n      mstore\n      dup1\n      swap3\n      swap2\n      swap1\n      dup2\n      dup2\n      mstore\n      0x20\n      add\n      dup3\n      dup1\n      sload\n      tag_87\n      swap1\n      tag_81\n      jump\t// in\n    tag_87:\n      dup1\n      iszero\n      tag_88\n      jumpi\n      dup1\n      0x1f\n      lt\n      tag_89\n      jumpi\n      0x0100\n      dup1\n      dup4\n      sload\n      div\n      mul\n      dup4\n      mstore\n      swap2\n      0x20\n      add\n      swap2\n      jump(tag_88)\n    tag_89:\n      dup3\n      add\n      swap2\n      swap1\n      0x00\n      mstore\n      keccak256(0x00, 0x20)\n      swap1\n    tag_90:\n      dup2\n      sload\n      dup2\n      mstore\n      swap1\n      0x01\n      add\n      swap1\n      0x20\n      add\n      dup1\n      dup4\n      gt\n      tag_90\n      jumpi\n      dup3\n      swap1\n      sub\n      0x1f\n      and\n      dup3\n      add\n      swap2\n    tag_88:\n      pop\n      pop\n      pop\n      pop\n      pop\n      swap1\n      dup1\n      0x02\n      add\n      sload\n      swap1\n      pop\n      dup4\n      jump\t// out\n        /* \"ProductIdentification.sol\":1343:1596  function registerProduct(string calldata _name, uint256 _volume) external onlyRegisteredProducer {... */\n    tag_55:\n        /* \"ProductIdentification.sol\":714:733  registeredProducers */\n      0x02\n        /* \"ProductIdentification.sol\":714:745  registeredProducers[msg.sender] */\n      0x00\n        /* \"ProductIdentification.sol\":734:744  msg.sender */\n      caller\n        /* \"ProductIdentification.sol\":714:745  registeredProducers[msg.sender] */\n      0xffffffffffffffffffffffffffffffffffffffff\n      and\n      0xffffffffffffffffffffffffffffffffffffffff\n      and\n      dup2\n      mstore\n      0x20\n      add\n      swap1\n      dup2\n      mstore\n      0x20\n      add\n      0x00\n      keccak256\n      0x00\n      swap1\n      sload\n      swap1\n      0x0100\n      exp\n      swap1\n      div\n      0xff\n      and\n        /* \"ProductIdentification.sol\":706:798  require(registeredProducers[msg.sender], \"Only registered producers can call this function\") */\n      tag_92\n      jumpi\n      mload(0x40)\n      0x08c379a000000000000000000000000000000000000000000000000000000000\n      dup2\n      mstore\n      0x04\n      add\n      tag_93\n      swap1\n      tag_94\n      jump\t// in\n    tag_93:\n      mload(0x40)\n      dup1\n      swap2\n      sub\n      swap1\n      revert\n    tag_92:\n        /* \"ProductIdentification.sol\":1450:1462  productCount */\n      0x05\n      0x00\n        /* \"ProductIdentification.sol\":1450:1464  productCount++ */\n      dup2\n      sload\n      dup1\n      swap3\n      swap2\n      swap1\n      tag_96\n      swap1\n      tag_97\n      jump\t// in\n    tag_96:\n      swap2\n      swap1\n      pop\n      sstore\n      pop\n        /* \"ProductIdentification.sol\":1509:1544  Product(msg.sender, _name, _volume) */\n      mload(0x40)\n      dup1\n      0x60\n      add\n      0x40\n      mstore\n      dup1\n        /* \"ProductIdentification.sol\":1517:1527  msg.sender */\n      caller\n        /* \"ProductIdentification.sol\":1509:1544  Product(msg.sender, _name, _volume) */\n      0xffffffffffffffffffffffffffffffffffffffff\n      and\n      dup2\n      mstore\n      0x20\n      add\n        /* \"ProductIdentification.sol\":1529:1534  _name */\n      dup5\n      dup5\n        /* \"ProductIdentification.sol\":1509:1544  Product(msg.sender, _name, _volume) */\n      dup1\n      dup1\n      0x1f\n      add\n      0x20\n      dup1\n      swap2\n      div\n      mul\n      0x20\n      add\n      mload(0x40)\n      swap1\n      dup2\n      add\n      0x40\n      mstore\n      dup1\n      swap4\n      swap3\n      swap2\n      swap1\n      dup2\n      dup2\n      mstore\n      0x20\n      add\n      dup4\n      dup4\n      dup1\n      dup3\n      dup5\n      calldatacopy\n      0x00\n      dup2\n      dup5\n      add\n      mstore\n      not(0x1f)\n      0x1f\n      dup3\n      add\n      and\n      swap1\n      pop\n      dup1\n      dup4\n      add\n      swap3\n      pop\n      pop\n      pop\n      pop\n      pop\n      pop\n      pop\n      dup2\n      mstore\n      0x20\n      add\n        /* \"ProductIdentification.sol\":1536:1543  _volume */\n      dup3\n        /* \"ProductIdentification.sol\":1509:1544  Product(msg.sender, _name, _volume) */\n      dup2\n      mstore\n      pop\n        /* \"ProductIdentification.sol\":1474:1492  registeredProducts */\n      0x03\n        /* \"ProductIdentification.sol\":1474:1506  registeredProducts[productCount] */\n      0x00\n        /* \"ProductIdentification.sol\":1493:1505  productCount */\n      sload(0x05)\n        /* \"ProductIdentification.sol\":1474:1506  registeredProducts[productCount] */\n      dup2\n      mstore\n      0x20\n      add\n      swap1\n      dup2\n      mstore\n      0x20\n      add\n      0x00\n      keccak256\n        /* \"ProductIdentification.sol\":1474:1544  registeredProducts[productCount] = Product(msg.sender, _name, _volume) */\n      0x00\n      dup3\n      add\n      mload\n      dup2\n      0x00\n      add\n      exp(0x0100, 0x00)\n      dup2\n      sload\n      dup2\n      0xffffffffffffffffffffffffffffffffffffffff\n      mul\n      not\n      and\n      swap1\n      dup4\n      0xffffffffffffffffffffffffffffffffffffffff\n      and\n      mul\n      or\n      swap1\n      sstore\n      pop\n      0x20\n      dup3\n      add\n      mload\n      dup2\n      0x01\n      add\n      swap1\n      dup1\n      mload\n      swap1\n      0x20\n      add\n      swap1\n      tag_98\n      swap3\n      swap2\n      swap1\n      tag_99\n      jump\t// in\n    tag_98:\n      pop\n      0x40\n      dup3\n      add\n      mload\n      dup2\n      0x02\n      add\n      sstore\n      swap1\n      pop\n      pop\n        /* \"ProductIdentification.sol\":1577:1589  productCount */\n      sload(0x05)\n        /* \"ProductIdentification.sol\":1554:1567  brandProducts */\n      0x04\n        /* \"ProductIdentification.sol\":1568:1573  _name */\n      dup5\n      dup5\n        /* \"ProductIdentification.sol\":1554:1574  brandProducts[_name] */\n      mload(0x40)\n      tag_100\n      swap3\n      swap2\n      swap1\n      tag_101\n      jump\t// in\n    tag_100:\n      swap1\n      dup2\n      mstore\n      0x20\n      add\n      mload(0x40)\n      dup1\n      swap2\n      sub\n      swap1\n      keccak256\n        /* \"ProductIdentification.sol\":1554:1589  brandProducts[_name] = productCount */\n      dup2\n      swap1\n      sstore\n      pop\n        /* \"ProductIdentification.sol\":1343:1596  function registerProduct(string calldata _name, uint256 _volume) external onlyRegisteredProducer {... */\n      pop\n      pop\n      pop\n      jump\t// out\n        /* \"ProductIdentification.sol\":132:152  address public owner */\n    tag_57:\n      0x00\n      dup1\n      sload\n      swap1\n      0x0100\n      exp\n      swap1\n      div\n      0xffffffffffffffffffffffffffffffffffffffff\n      and\n      dup2\n      jump\t// out\n        /* \"ProductIdentification.sol\":1985:2105  function getBrandInfo(string calldata _name) external view returns (uint256){... */\n    tag_63:\n        /* \"ProductIdentification.sol\":2053:2060  uint256 */\n      0x00\n        /* \"ProductIdentification.sol\":2078:2091  brandProducts */\n      0x04\n        /* \"ProductIdentification.sol\":2092:2097  _name */\n      dup4\n      dup4\n        /* \"ProductIdentification.sol\":2078:2098  brandProducts[_name] */\n      mload(0x40)\n      tag_103\n      swap3\n      swap2\n      swap1\n      tag_101\n      jump\t// in\n    tag_103:\n      swap1\n      dup2\n      mstore\n      0x20\n      add\n      mload(0x40)\n      dup1\n      swap2\n      sub\n      swap1\n      keccak256\n      sload\n        /* \"ProductIdentification.sol\":2071:2098  return brandProducts[_name] */\n      swap1\n      pop\n        /* \"ProductIdentification.sol\":1985:2105  function getBrandInfo(string calldata _name) external view returns (uint256){... */\n      swap3\n      swap2\n      pop\n      pop\n      jump\t// out\n        /* \"ProductIdentification.sol\":1007:1107  function setRegistrationFee(uint256 _fee) external onlyOwner {... */\n    tag_67:\n        /* \"ProductIdentification.sol\":591:596  owner */\n      0x00\n      dup1\n      sload\n      swap1\n      0x0100\n      exp\n      swap1\n      div\n      0xffffffffffffffffffffffffffffffffffffffff\n      and\n        /* \"ProductIdentification.sol\":577:596  msg.sender == owner */\n      0xffffffffffffffffffffffffffffffffffffffff\n      and\n        /* \"ProductIdentification.sol\":577:587  msg.sender */\n      caller\n        /* \"ProductIdentification.sol\":577:596  msg.sender == owner */\n      0xffffffffffffffffffffffffffffffffffffffff\n      and\n      eq\n        /* \"ProductIdentification.sol\":569:638  require(msg.sender == owner, \"Only the owner can call this function\") */\n      tag_105\n      jumpi\n      mload(0x40)\n      0x08c379a000000000000000000000000000000000000000000000000000000000\n      dup2\n      mstore\n      0x04\n      add\n      tag_106\n      swap1\n      tag_107\n      jump\t// in\n    tag_106:\n      mload(0x40)\n      dup1\n      swap2\n      sub\n      swap1\n      revert\n    tag_105:\n        /* \"ProductIdentification.sol\":1096:1100  _fee */\n      dup1\n        /* \"ProductIdentification.sol\":1078:1093  registrationFee */\n      0x01\n        /* \"ProductIdentification.sol\":1078:1100  registrationFee = _fee */\n      dup2\n      swap1\n      sstore\n      pop\n        /* \"ProductIdentification.sol\":1007:1107  function setRegistrationFee(uint256 _fee) external onlyOwner {... */\n      pop\n      jump\t// out\n        /* \"ProductIdentification.sol\":1113:1337  function registerProducer() external {... */\n    tag_69:\n        /* \"ProductIdentification.sol\":1160:1171  sampleToken */\n      0x06\n      0x00\n      swap1\n      sload\n      swap1\n      0x0100\n      exp\n      swap1\n      div\n      0xffffffffffffffffffffffffffffffffffffffff\n      and\n        /* \"ProductIdentification.sol\":1160:1184  sampleToken.transferFrom */\n      0xffffffffffffffffffffffffffffffffffffffff\n      and\n      0x23b872dd\n        /* \"ProductIdentification.sol\":1185:1195  msg.sender */\n      caller\n        /* \"ProductIdentification.sol\":1205:1209  this */\n      address\n        /* \"ProductIdentification.sol\":1212:1227  registrationFee */\n      sload(0x01)\n        /* \"ProductIdentification.sol\":1160:1228  sampleToken.transferFrom(msg.sender, address(this), registrationFee) */\n      mload(0x40)\n      dup5\n      0xffffffff\n      and\n      0xe0\n      shl\n      dup2\n      mstore\n      0x04\n      add\n      tag_110\n      swap4\n      swap3\n      swap2\n      swap1\n      tag_111\n      jump\t// in\n    tag_110:\n      0x20\n      mload(0x40)\n      dup1\n      dup4\n      sub\n      dup2\n      0x00\n      dup8\n      gas\n      call\n      iszero\n      dup1\n      iszero\n      tag_113\n      jumpi\n      returndatasize\n      0x00\n      dup1\n      returndatacopy\n      revert(0x00, returndatasize)\n    tag_113:\n      pop\n      pop\n      pop\n      pop\n      mload(0x40)\n      returndatasize\n      not(0x1f)\n      0x1f\n      dup3\n      add\n      and\n      dup3\n      add\n      dup1\n      0x40\n      mstore\n      pop\n      dup2\n      add\n      swap1\n      tag_114\n      swap2\n      swap1\n      tag_115\n      jump\t// in\n    tag_114:\n      pop\n        /* \"ProductIdentification.sol\":1238:1249  sampleToken */\n      0x06\n      0x00\n      swap1\n      sload\n      swap1\n      0x0100\n      exp\n      swap1\n      div\n      0xffffffffffffffffffffffffffffffffffffffff\n      and\n        /* \"ProductIdentification.sol\":1238:1258  sampleToken.transfer */\n      0xffffffffffffffffffffffffffffffffffffffff\n      and\n      0xa9059cbb\n        /* \"ProductIdentification.sol\":1259:1264  owner */\n      0x00\n      dup1\n      sload\n      swap1\n      0x0100\n      exp\n      swap1\n      div\n      0xffffffffffffffffffffffffffffffffffffffff\n      and\n        /* \"ProductIdentification.sol\":1266:1281  registrationFee */\n      sload(0x01)\n        /* \"ProductIdentification.sol\":1238:1282  sampleToken.transfer(owner, registrationFee) */\n      mload(0x40)\n      dup4\n      0xffffffff\n      and\n      0xe0\n      shl\n      dup2\n      mstore\n      0x04\n      add\n      tag_116\n      swap3\n      swap2\n      swap1\n      tag_117\n      jump\t// in\n    tag_116:\n      0x20\n      mload(0x40)\n      dup1\n      dup4\n      sub\n      dup2\n      0x00\n      dup8\n      gas\n      call\n      iszero\n      dup1\n      iszero\n      tag_119\n      jumpi\n      returndatasize\n      0x00\n      dup1\n      returndatacopy\n      revert(0x00, returndatasize)\n    tag_119:\n      pop\n      pop\n      pop\n      pop\n      mload(0x40)\n      returndatasize\n      not(0x1f)\n      0x1f\n      dup3\n      add\n      and\n      dup3\n      add\n      dup1\n      0x40\n      mstore\n      pop\n      dup2\n      add\n      swap1\n      tag_120\n      swap2\n      swap1\n      tag_115\n      jump\t// in\n    tag_120:\n      pop\n        /* \"ProductIdentification.sol\":1326:1330  true */\n      0x01\n        /* \"ProductIdentification.sol\":1292:1311  registeredProducers */\n      0x02\n        /* \"ProductIdentification.sol\":1292:1323  registeredProducers[msg.sender] */\n      0x00\n        /* \"ProductIdentification.sol\":1312:1322  msg.sender */\n      caller\n        /* \"ProductIdentification.sol\":1292:1323  registeredProducers[msg.sender] */\n      0xffffffffffffffffffffffffffffffffffffffff\n      and\n      0xffffffffffffffffffffffffffffffffffffffff\n      and\n      dup2\n      mstore\n      0x20\n      add\n      swap1\n      dup2\n      mstore\n      0x20\n      add\n      0x00\n      keccak256\n      0x00\n        /* \"ProductIdentification.sol\":1292:1330  registeredProducers[msg.sender] = true */\n      0x0100\n      exp\n      dup2\n      sload\n      dup2\n      0xff\n      mul\n      not\n      and\n      swap1\n      dup4\n      iszero\n      iszero\n      mul\n      or\n      swap1\n      sstore\n      pop\n        /* \"ProductIdentification.sol\":1113:1337  function registerProducer() external {... */\n      jump\t// out\n        /* \"ProductIdentification.sol\":365:392  uint256 public productCount */\n    tag_71:\n      sload(0x05)\n      dup2\n      jump\t// out\n    tag_75:\n      mload(0x40)\n      dup1\n      0x60\n      add\n      0x40\n      mstore\n      dup1\n      and(0xffffffffffffffffffffffffffffffffffffffff, 0x00)\n      dup2\n      mstore\n      0x20\n      add\n      0x60\n      dup2\n      mstore\n      0x20\n      add\n      0x00\n      dup2\n      mstore\n      pop\n      swap1\n      jump\t// out\n    tag_99:\n      dup3\n      dup1\n      sload\n      tag_121\n      swap1\n      tag_81\n      jump\t// in\n    tag_121:\n      swap1\n      0x00\n      mstore\n      keccak256(0x00, 0x20)\n      swap1\n      0x1f\n      add\n      0x20\n      swap1\n      div\n      dup2\n      add\n      swap3\n      dup3\n      tag_123\n      jumpi\n      0x00\n      dup6\n      sstore\n      jump(tag_122)\n    tag_123:\n      dup3\n      0x1f\n      lt\n      tag_124\n      jumpi\n      dup1\n      mload\n      not(0xff)\n      and\n      dup4\n      dup1\n      add\n      or\n      dup6\n      sstore\n      jump(tag_122)\n    tag_124:\n      dup3\n      dup1\n      add\n      0x01\n      add\n      dup6\n      sstore\n      dup3\n      iszero\n      tag_122\n      jumpi\n      swap2\n      dup3\n      add\n    tag_125:\n      dup3\n      dup2\n      gt\n      iszero\n      tag_126\n      jumpi\n      dup3\n      mload\n      dup3\n      sstore\n      swap2\n      0x20\n      add\n      swap2\n      swap1\n      0x01\n      add\n      swap1\n      jump(tag_125)\n    tag_126:\n    tag_122:\n      pop\n      swap1\n      pop\n      tag_127\n      swap2\n      swap1\n      tag_128\n      jump\t// in\n    tag_127:\n      pop\n      swap1\n      jump\t// out\n    tag_128:\n    tag_129:\n      dup1\n      dup3\n      gt\n      iszero\n      tag_130\n      jumpi\n      0x00\n      dup2\n      0x00\n      swap1\n      sstore\n      pop\n      0x01\n      add\n      jump(tag_129)\n    tag_130:\n      pop\n      swap1\n      jump\t// out\n        /* \"#utility.yul\":7:84   */\n    tag_131:\n        /* \"#utility.yul\":44:51   */\n      0x00\n        /* \"#utility.yul\":73:78   */\n      dup2\n        /* \"#utility.yul\":62:78   */\n      swap1\n      pop\n        /* \"#utility.yul\":7:84   */\n      swap2\n      swap1\n      pop\n      jump\t// out\n        /* \"#utility.yul\":90:208   */\n    tag_132:\n        /* \"#utility.yul\":177:201   */\n      tag_187\n        /* \"#utility.yul\":195:200   */\n      dup2\n        /* \"#utility.yul\":177:201   */\n      tag_131\n      jump\t// in\n    tag_187:\n        /* \"#utility.yul\":172:175   */\n      dup3\n        /* \"#utility.yul\":165:202   */\n      mstore\n        /* \"#utility.yul\":90:208   */\n      pop\n      pop\n      jump\t// out\n        /* \"#utility.yul\":214:436   */\n    tag_21:\n        /* \"#utility.yul\":307:311   */\n      0x00\n        /* \"#utility.yul\":345:347   */\n      0x20\n        /* \"#utility.yul\":334:343   */\n      dup3\n        /* \"#utility.yul\":330:348   */\n      add\n        /* \"#utility.yul\":322:348   */\n      swap1\n      pop\n        /* \"#utility.yul\":358:429   */\n      tag_189\n        /* \"#utility.yul\":426:427   */\n      0x00\n        /* \"#utility.yul\":415:424   */\n      dup4\n        /* \"#utility.yul\":411:428   */\n      add\n        /* \"#utility.yul\":402:408   */\n      dup5\n        /* \"#utility.yul\":358:429   */\n      tag_132\n      jump\t// in\n    tag_189:\n        /* \"#utility.yul\":214:436   */\n      swap3\n      swap2\n      pop\n      pop\n      jump\t// out\n        /* \"#utility.yul\":442:517   */\n    tag_133:\n        /* \"#utility.yul\":475:481   */\n      0x00\n        /* \"#utility.yul\":508:510   */\n      0x40\n        /* \"#utility.yul\":502:511   */\n      mload\n        /* \"#utility.yul\":492:511   */\n      swap1\n      pop\n        /* \"#utility.yul\":442:517   */\n      swap1\n      jump\t// out\n        /* \"#utility.yul\":523:640   */\n    tag_134:\n        /* \"#utility.yul\":632:633   */\n      0x00\n        /* \"#utility.yul\":629:630   */\n      dup1\n        /* \"#utility.yul\":622:634   */\n      revert\n        /* \"#utility.yul\":646:763   */\n    tag_135:\n        /* \"#utility.yul\":755:756   */\n      0x00\n        /* \"#utility.yul\":752:753   */\n      dup1\n        /* \"#utility.yul\":745:757   */\n      revert\n        /* \"#utility.yul\":769:886   */\n    tag_136:\n        /* \"#utility.yul\":878:879   */\n      0x00\n        /* \"#utility.yul\":875:876   */\n      dup1\n        /* \"#utility.yul\":868:880   */\n      revert\n        /* \"#utility.yul\":892:1009   */\n    tag_137:\n        /* \"#utility.yul\":1001:1002   */\n      0x00\n        /* \"#utility.yul\":998:999   */\n      dup1\n        /* \"#utility.yul\":991:1003   */\n      revert\n        /* \"#utility.yul\":1015:1117   */\n    tag_138:\n        /* \"#utility.yul\":1056:1062   */\n      0x00\n        /* \"#utility.yul\":1107:1109   */\n      0x1f\n        /* \"#utility.yul\":1103:1110   */\n      not\n        /* \"#utility.yul\":1098:1100   */\n      0x1f\n        /* \"#utility.yul\":1091:1096   */\n      dup4\n        /* \"#utility.yul\":1087:1101   */\n      add\n        /* \"#utility.yul\":1083:1111   */\n      and\n        /* \"#utility.yul\":1073:1111   */\n      swap1\n      pop\n        /* \"#utility.yul\":1015:1117   */\n      swap2\n      swap1\n      pop\n      jump\t// out\n        /* \"#utility.yul\":1123:1303   */\n    tag_139:\n        /* \"#utility.yul\":1171:1248   */\n      0x4e487b7100000000000000000000000000000000000000000000000000000000\n        /* \"#utility.yul\":1168:1169   */\n      0x00\n        /* \"#utility.yul\":1161:1249   */\n      mstore\n        /* \"#utility.yul\":1268:1272   */\n      0x41\n        /* \"#utility.yul\":1265:1266   */\n      0x04\n        /* \"#utility.yul\":1258:1273   */\n      mstore\n        /* \"#utility.yul\":1292:1296   */\n      0x24\n        /* \"#utility.yul\":1289:1290   */\n      0x00\n        /* \"#utility.yul\":1282:1297   */\n      revert\n        /* \"#utility.yul\":1309:1590   */\n    tag_140:\n        /* \"#utility.yul\":1392:1419   */\n      tag_198\n        /* \"#utility.yul\":1414:1418   */\n      dup3\n        /* \"#utility.yul\":1392:1419   */\n      tag_138\n      jump\t// in\n    tag_198:\n        /* \"#utility.yul\":1384:1390   */\n      dup2\n        /* \"#utility.yul\":1380:1420   */\n      add\n        /* \"#utility.yul\":1522:1528   */\n      dup2\n        /* \"#utility.yul\":1510:1520   */\n      dup2\n        /* \"#utility.yul\":1507:1529   */\n      lt\n        /* \"#utility.yul\":1486:1504   */\n      0xffffffffffffffff\n        /* \"#utility.yul\":1474:1484   */\n      dup3\n        /* \"#utility.yul\":1471:1505   */\n      gt\n        /* \"#utility.yul\":1468:1530   */\n      or\n        /* \"#utility.yul\":1465:1553   */\n      iszero\n      tag_199\n      jumpi\n        /* \"#utility.yul\":1533:1551   */\n      tag_200\n      tag_139\n      jump\t// in\n    tag_200:\n        /* \"#utility.yul\":1465:1553   */\n    tag_199:\n        /* \"#utility.yul\":1573:1583   */\n      dup1\n        /* \"#utility.yul\":1569:1571   */\n      0x40\n        /* \"#utility.yul\":1562:1584   */\n      mstore\n        /* \"#utility.yul\":1352:1590   */\n      pop\n        /* \"#utility.yul\":1309:1590   */\n      pop\n      pop\n      jump\t// out\n        /* \"#utility.yul\":1596:1725   */\n    tag_141:\n        /* \"#utility.yul\":1630:1636   */\n      0x00\n        /* \"#utility.yul\":1657:1677   */\n      tag_202\n      tag_133\n      jump\t// in\n    tag_202:\n        /* \"#utility.yul\":1647:1677   */\n      swap1\n      pop\n        /* \"#utility.yul\":1686:1719   */\n      tag_203\n        /* \"#utility.yul\":1714:1718   */\n      dup3\n        /* \"#utility.yul\":1706:1712   */\n      dup3\n        /* \"#utility.yul\":1686:1719   */\n      tag_140\n      jump\t// in\n    tag_203:\n        /* \"#utility.yul\":1596:1725   */\n      swap2\n      swap1\n      pop\n      jump\t// out\n        /* \"#utility.yul\":1731:2039   */\n    tag_142:\n        /* \"#utility.yul\":1793:1797   */\n      0x00\n        /* \"#utility.yul\":1883:1901   */\n      0xffffffffffffffff\n        /* \"#utility.yul\":1875:1881   */\n      dup3\n        /* \"#utility.yul\":1872:1902   */\n      gt\n        /* \"#utility.yul\":1869:1925   */\n      iszero\n      tag_205\n      jumpi\n        /* \"#utility.yul\":1905:1923   */\n      tag_206\n      tag_139\n      jump\t// in\n    tag_206:\n        /* \"#utility.yul\":1869:1925   */\n    tag_205:\n        /* \"#utility.yul\":1943:1972   */\n      tag_207\n        /* \"#utility.yul\":1965:1971   */\n      dup3\n        /* \"#utility.yul\":1943:1972   */\n      tag_138\n      jump\t// in\n    tag_207:\n        /* \"#utility.yul\":1935:1972   */\n      swap1\n      pop\n        /* \"#utility.yul\":2027:2031   */\n      0x20\n        /* \"#utility.yul\":2021:2025   */\n      dup2\n        /* \"#utility.yul\":2017:2032   */\n      add\n        /* \"#utility.yul\":2009:2032   */\n      swap1\n      pop\n        /* \"#utility.yul\":1731:2039   */\n      swap2\n      swap1\n      pop\n      jump\t// out\n        /* \"#utility.yul\":2045:2199   */\n    tag_143:\n        /* \"#utility.yul\":2129:2135   */\n      dup3\n        /* \"#utility.yul\":2124:2127   */\n      dup2\n        /* \"#utility.yul\":2119:2122   */\n      dup4\n        /* \"#utility.yul\":2106:2136   */\n      calldatacopy\n        /* \"#utility.yul\":2191:2192   */\n      0x00\n        /* \"#utility.yul\":2182:2188   */\n      dup4\n        /* \"#utility.yul\":2177:2180   */\n      dup4\n        /* \"#utility.yul\":2173:2189   */\n      add\n        /* \"#utility.yul\":2166:2193   */\n      mstore\n        /* \"#utility.yul\":2045:2199   */\n      pop\n      pop\n      pop\n      jump\t// out\n        /* \"#utility.yul\":2205:2617   */\n    tag_144:\n        /* \"#utility.yul\":2283:2288   */\n      0x00\n        /* \"#utility.yul\":2308:2374   */\n      tag_210\n        /* \"#utility.yul\":2324:2373   */\n      tag_211\n        /* \"#utility.yul\":2366:2372   */\n      dup5\n        /* \"#utility.yul\":2324:2373   */\n      tag_142\n      jump\t// in\n    tag_211:\n        /* \"#utility.yul\":2308:2374   */\n      tag_141\n      jump\t// in\n    tag_210:\n        /* \"#utility.yul\":2299:2374   */\n      swap1\n      pop\n        /* \"#utility.yul\":2397:2403   */\n      dup3\n        /* \"#utility.yul\":2390:2395   */\n      dup2\n        /* \"#utility.yul\":2383:2404   */\n      mstore\n        /* \"#utility.yul\":2435:2439   */\n      0x20\n        /* \"#utility.yul\":2428:2433   */\n      dup2\n        /* \"#utility.yul\":2424:2440   */\n      add\n        /* \"#utility.yul\":2473:2476   */\n      dup5\n        /* \"#utility.yul\":2464:2470   */\n      dup5\n        /* \"#utility.yul\":2459:2462   */\n      dup5\n        /* \"#utility.yul\":2455:2471   */\n      add\n        /* \"#utility.yul\":2452:2477   */\n      gt\n        /* \"#utility.yul\":2449:2561   */\n      iszero\n      tag_212\n      jumpi\n        /* \"#utility.yul\":2480:2559   */\n      tag_213\n      tag_137\n      jump\t// in\n    tag_213:\n        /* \"#utility.yul\":2449:2561   */\n    tag_212:\n        /* \"#utility.yul\":2570:2611   */\n      tag_214\n        /* \"#utility.yul\":2604:2610   */\n      dup5\n        /* \"#utility.yul\":2599:2602   */\n      dup3\n        /* \"#utility.yul\":2594:2597   */\n      dup6\n        /* \"#utility.yul\":2570:2611   */\n      tag_143\n      jump\t// in\n    tag_214:\n        /* \"#utility.yul\":2289:2617   */\n      pop\n        /* \"#utility.yul\":2205:2617   */\n      swap4\n      swap3\n      pop\n      pop\n      pop\n      jump\t// out\n        /* \"#utility.yul\":2637:2977   */\n    tag_145:\n        /* \"#utility.yul\":2693:2698   */\n      0x00\n        /* \"#utility.yul\":2742:2745   */\n      dup3\n        /* \"#utility.yul\":2735:2739   */\n      0x1f\n        /* \"#utility.yul\":2727:2733   */\n      dup4\n        /* \"#utility.yul\":2723:2740   */\n      add\n        /* \"#utility.yul\":2719:2746   */\n      slt\n        /* \"#utility.yul\":2709:2831   */\n      tag_216\n      jumpi\n        /* \"#utility.yul\":2750:2829   */\n      tag_217\n      tag_136\n      jump\t// in\n    tag_217:\n        /* \"#utility.yul\":2709:2831   */\n    tag_216:\n        /* \"#utility.yul\":2867:2873   */\n      dup2\n        /* \"#utility.yul\":2854:2874   */\n      calldataload\n        /* \"#utility.yul\":2892:2971   */\n      tag_218\n        /* \"#utility.yul\":2967:2970   */\n      dup5\n        /* \"#utility.yul\":2959:2965   */\n      dup3\n        /* \"#utility.yul\":2952:2956   */\n      0x20\n        /* \"#utility.yul\":2944:2950   */\n      dup7\n        /* \"#utility.yul\":2940:2957   */\n      add\n        /* \"#utility.yul\":2892:2971   */\n      tag_144\n      jump\t// in\n    tag_218:\n        /* \"#utility.yul\":2883:2971   */\n      swap2\n      pop\n        /* \"#utility.yul\":2699:2977   */\n      pop\n        /* \"#utility.yul\":2637:2977   */\n      swap3\n      swap2\n      pop\n      pop\n      jump\t// out\n        /* \"#utility.yul\":2983:3492   */\n    tag_24:\n        /* \"#utility.yul\":3052:3058   */\n      0x00\n        /* \"#utility.yul\":3101:3103   */\n      0x20\n        /* \"#utility.yul\":3089:3098   */\n      dup3\n        /* \"#utility.yul\":3080:3087   */\n      dup5\n        /* \"#utility.yul\":3076:3099   */\n      sub\n        /* \"#utility.yul\":3072:3104   */\n      slt\n        /* \"#utility.yul\":3069:3188   */\n      iszero\n      tag_220\n      jumpi\n        /* \"#utility.yul\":3107:3186   */\n      tag_221\n      tag_134\n      jump\t// in\n    tag_221:\n        /* \"#utility.yul\":3069:3188   */\n    tag_220:\n        /* \"#utility.yul\":3255:3256   */\n      0x00\n        /* \"#utility.yul\":3244:3253   */\n      dup3\n        /* \"#utility.yul\":3240:3257   */\n      add\n        /* \"#utility.yul\":3227:3258   */\n      calldataload\n        /* \"#utility.yul\":3285:3303   */\n      0xffffffffffffffff\n        /* \"#utility.yul\":3277:3283   */\n      dup2\n        /* \"#utility.yul\":3274:3304   */\n      gt\n        /* \"#utility.yul\":3271:3388   */\n      iszero\n      tag_222\n      jumpi\n        /* \"#utility.yul\":3307:3386   */\n      tag_223\n      tag_135\n      jump\t// in\n    tag_223:\n        /* \"#utility.yul\":3271:3388   */\n    tag_222:\n        /* \"#utility.yul\":3412:3475   */\n      tag_224\n        /* \"#utility.yul\":3467:3474   */\n      dup5\n        /* \"#utility.yul\":3458:3464   */\n      dup3\n        /* \"#utility.yul\":3447:3456   */\n      dup6\n        /* \"#utility.yul\":3443:3465   */\n      add\n        /* \"#utility.yul\":3412:3475   */\n      tag_145\n      jump\t// in\n    tag_224:\n        /* \"#utility.yul\":3402:3475   */\n      swap2\n      pop\n        /* \"#utility.yul\":3198:3485   */\n      pop\n        /* \"#utility.yul\":2983:3492   */\n      swap3\n      swap2\n      pop\n      pop\n      jump\t// out\n        /* \"#utility.yul\":3498:3624   */\n    tag_146:\n        /* \"#utility.yul\":3535:3542   */\n      0x00\n        /* \"#utility.yul\":3575:3617   */\n      0xffffffffffffffffffffffffffffffffffffffff\n        /* \"#utility.yul\":3568:3573   */\n      dup3\n        /* \"#utility.yul\":3564:3618   */\n      and\n        /* \"#utility.yul\":3553:3618   */\n      swap1\n      pop\n        /* \"#utility.yul\":3498:3624   */\n      swap2\n      swap1\n      pop\n      jump\t// out\n        /* \"#utility.yul\":3630:3726   */\n    tag_147:\n        /* \"#utility.yul\":3667:3674   */\n      0x00\n        /* \"#utility.yul\":3696:3720   */\n      tag_227\n        /* \"#utility.yul\":3714:3719   */\n      dup3\n        /* \"#utility.yul\":3696:3720   */\n      tag_146\n      jump\t// in\n    tag_227:\n        /* \"#utility.yul\":3685:3720   */\n      swap1\n      pop\n        /* \"#utility.yul\":3630:3726   */\n      swap2\n      swap1\n      pop\n      jump\t// out\n        /* \"#utility.yul\":3732:3854   */\n    tag_148:\n        /* \"#utility.yul\":3805:3829   */\n      tag_229\n        /* \"#utility.yul\":3823:3828   */\n      dup2\n        /* \"#utility.yul\":3805:3829   */\n      tag_147\n      jump\t// in\n    tag_229:\n        /* \"#utility.yul\":3798:3803   */\n      dup2\n        /* \"#utility.yul\":3795:3830   */\n      eq\n        /* \"#utility.yul\":3785:3848   */\n      tag_230\n      jumpi\n        /* \"#utility.yul\":3844:3845   */\n      0x00\n        /* \"#utility.yul\":3841:3842   */\n      dup1\n        /* \"#utility.yul\":3834:3846   */\n      revert\n        /* \"#utility.yul\":3785:3848   */\n    tag_230:\n        /* \"#utility.yul\":3732:3854   */\n      pop\n      jump\t// out\n        /* \"#utility.yul\":3860:3999   */\n    tag_149:\n        /* \"#utility.yul\":3906:3911   */\n      0x00\n        /* \"#utility.yul\":3944:3950   */\n      dup2\n        /* \"#utility.yul\":3931:3951   */\n      calldataload\n        /* \"#utility.yul\":3922:3951   */\n      swap1\n      pop\n        /* \"#utility.yul\":3960:3993   */\n      tag_232\n        /* \"#utility.yul\":3987:3992   */\n      dup2\n        /* \"#utility.yul\":3960:3993   */\n      tag_148\n      jump\t// in\n    tag_232:\n        /* \"#utility.yul\":3860:3999   */\n      swap3\n      swap2\n      pop\n      pop\n      jump\t// out\n        /* \"#utility.yul\":4005:4334   */\n    tag_29:\n        /* \"#utility.yul\":4064:4070   */\n      0x00\n        /* \"#utility.yul\":4113:4115   */\n      0x20\n        /* \"#utility.yul\":4101:4110   */\n      dup3\n        /* \"#utility.yul\":4092:4099   */\n      dup5\n        /* \"#utility.yul\":4088:4111   */\n      sub\n        /* \"#utility.yul\":4084:4116   */\n      slt\n        /* \"#utility.yul\":4081:4200   */\n      iszero\n      tag_234\n      jumpi\n        /* \"#utility.yul\":4119:4198   */\n      tag_235\n      tag_134\n      jump\t// in\n    tag_235:\n        /* \"#utility.yul\":4081:4200   */\n    tag_234:\n        /* \"#utility.yul\":4239:4240   */\n      0x00\n        /* \"#utility.yul\":4264:4317   */\n      tag_236\n        /* \"#utility.yul\":4309:4316   */\n      dup5\n        /* \"#utility.yul\":4300:4306   */\n      dup3\n        /* \"#utility.yul\":4289:4298   */\n      dup6\n        /* \"#utility.yul\":4285:4307   */\n      add\n        /* \"#utility.yul\":4264:4317   */\n      tag_149\n      jump\t// in\n    tag_236:\n        /* \"#utility.yul\":4254:4317   */\n      swap2\n      pop\n        /* \"#utility.yul\":4210:4327   */\n      pop\n        /* \"#utility.yul\":4005:4334   */\n      swap3\n      swap2\n      pop\n      pop\n      jump\t// out\n        /* \"#utility.yul\":4340:4430   */\n    tag_150:\n        /* \"#utility.yul\":4374:4381   */\n      0x00\n        /* \"#utility.yul\":4417:4422   */\n      dup2\n        /* \"#utility.yul\":4410:4423   */\n      iszero\n        /* \"#utility.yul\":4403:4424   */\n      iszero\n        /* \"#utility.yul\":4392:4424   */\n      swap1\n      pop\n        /* \"#utility.yul\":4340:4430   */\n      swap2\n      swap1\n      pop\n      jump\t// out\n        /* \"#utility.yul\":4436:4545   */\n    tag_151:\n        /* \"#utility.yul\":4517:4538   */\n      tag_239\n        /* \"#utility.yul\":4532:4537   */\n      dup2\n        /* \"#utility.yul\":4517:4538   */\n      tag_150\n      jump\t// in\n    tag_239:\n        /* \"#utility.yul\":4512:4515   */\n      dup3\n        /* \"#utility.yul\":4505:4539   */\n      mstore\n        /* \"#utility.yul\":4436:4545   */\n      pop\n      pop\n      jump\t// out\n        /* \"#utility.yul\":4551:4761   */\n    tag_32:\n        /* \"#utility.yul\":4638:4642   */\n      0x00\n        /* \"#utility.yul\":4676:4678   */\n      0x20\n        /* \"#utility.yul\":4665:4674   */\n      dup3\n        /* \"#utility.yul\":4661:4679   */\n      add\n        /* \"#utility.yul\":4653:4679   */\n      swap1\n      pop\n        /* \"#utility.yul\":4689:4754   */\n      tag_241\n        /* \"#utility.yul\":4751:4752   */\n      0x00\n        /* \"#utility.yul\":4740:4749   */\n      dup4\n        /* \"#utility.yul\":4736:4753   */\n      add\n        /* \"#utility.yul\":4727:4733   */\n      dup5\n        /* \"#utility.yul\":4689:4754   */\n      tag_151\n      jump\t// in\n    tag_241:\n        /* \"#utility.yul\":4551:4761   */\n      swap3\n      swap2\n      pop\n      pop\n      jump\t// out\n        /* \"#utility.yul\":4767:4827   */\n    tag_152:\n        /* \"#utility.yul\":4795:4798   */\n      0x00\n        /* \"#utility.yul\":4816:4821   */\n      dup2\n        /* \"#utility.yul\":4809:4821   */\n      swap1\n      pop\n        /* \"#utility.yul\":4767:4827   */\n      swap2\n      swap1\n      pop\n      jump\t// out\n        /* \"#utility.yul\":4833:4975   */\n    tag_153:\n        /* \"#utility.yul\":4883:4892   */\n      0x00\n        /* \"#utility.yul\":4916:4969   */\n      tag_244\n        /* \"#utility.yul\":4934:4968   */\n      tag_245\n        /* \"#utility.yul\":4943:4967   */\n      tag_246\n        /* \"#utility.yul\":4961:4966   */\n      dup5\n        /* \"#utility.yul\":4943:4967   */\n      tag_146\n      jump\t// in\n    tag_246:\n        /* \"#utility.yul\":4934:4968   */\n      tag_152\n      jump\t// in\n    tag_245:\n        /* \"#utility.yul\":4916:4969   */\n      tag_146\n      jump\t// in\n    tag_244:\n        /* \"#utility.yul\":4903:4969   */\n      swap1\n      pop\n        /* \"#utility.yul\":4833:4975   */\n      swap2\n      swap1\n      pop\n      jump\t// out\n        /* \"#utility.yul\":4981:5107   */\n    tag_154:\n        /* \"#utility.yul\":5031:5040   */\n      0x00\n        /* \"#utility.yul\":5064:5101   */\n      tag_248\n        /* \"#utility.yul\":5095:5100   */\n      dup3\n        /* \"#utility.yul\":5064:5101   */\n      tag_153\n      jump\t// in\n    tag_248:\n        /* \"#utility.yul\":5051:5101   */\n      swap1\n      pop\n        /* \"#utility.yul\":4981:5107   */\n      swap2\n      swap1\n      pop\n      jump\t// out\n        /* \"#utility.yul\":5113:5258   */\n    tag_155:\n        /* \"#utility.yul\":5182:5191   */\n      0x00\n        /* \"#utility.yul\":5215:5252   */\n      tag_250\n        /* \"#utility.yul\":5246:5251   */\n      dup3\n        /* \"#utility.yul\":5215:5252   */\n      tag_154\n      jump\t// in\n    tag_250:\n        /* \"#utility.yul\":5202:5252   */\n      swap1\n      pop\n        /* \"#utility.yul\":5113:5258   */\n      swap2\n      swap1\n      pop\n      jump\t// out\n        /* \"#utility.yul\":5264:5433   */\n    tag_156:\n        /* \"#utility.yul\":5370:5426   */\n      tag_252\n        /* \"#utility.yul\":5420:5425   */\n      dup2\n        /* \"#utility.yul\":5370:5426   */\n      tag_155\n      jump\t// in\n    tag_252:\n        /* \"#utility.yul\":5365:5368   */\n      dup3\n        /* \"#utility.yul\":5358:5427   */\n      mstore\n        /* \"#utility.yul\":5264:5433   */\n      pop\n      pop\n      jump\t// out\n        /* \"#utility.yul\":5439:5699   */\n    tag_36:\n        /* \"#utility.yul\":5551:5555   */\n      0x00\n        /* \"#utility.yul\":5589:5591   */\n      0x20\n        /* \"#utility.yul\":5578:5587   */\n      dup3\n        /* \"#utility.yul\":5574:5592   */\n      add\n        /* \"#utility.yul\":5566:5592   */\n      swap1\n      pop\n        /* \"#utility.yul\":5602:5692   */\n      tag_254\n        /* \"#utility.yul\":5689:5690   */\n      0x00\n        /* \"#utility.yul\":5678:5687   */\n      dup4\n        /* \"#utility.yul\":5674:5691   */\n      add\n        /* \"#utility.yul\":5665:5671   */\n      dup5\n        /* \"#utility.yul\":5602:5692   */\n      tag_156\n      jump\t// in\n    tag_254:\n        /* \"#utility.yul\":5439:5699   */\n      swap3\n      swap2\n      pop\n      pop\n      jump\t// out\n        /* \"#utility.yul\":5705:5827   */\n    tag_157:\n        /* \"#utility.yul\":5778:5802   */\n      tag_256\n        /* \"#utility.yul\":5796:5801   */\n      dup2\n        /* \"#utility.yul\":5778:5802   */\n      tag_131\n      jump\t// in\n    tag_256:\n        /* \"#utility.yul\":5771:5776   */\n      dup2\n        /* \"#utility.yul\":5768:5803   */\n      eq\n        /* \"#utility.yul\":5758:5821   */\n      tag_257\n      jumpi\n        /* \"#utility.yul\":5817:5818   */\n      0x00\n        /* \"#utility.yul\":5814:5815   */\n      dup1\n        /* \"#utility.yul\":5807:5819   */\n      revert\n        /* \"#utility.yul\":5758:5821   */\n    tag_257:\n        /* \"#utility.yul\":5705:5827   */\n      pop\n      jump\t// out\n        /* \"#utility.yul\":5833:5972   */\n    tag_158:\n        /* \"#utility.yul\":5879:5884   */\n      0x00\n        /* \"#utility.yul\":5917:5923   */\n      dup2\n        /* \"#utility.yul\":5904:5924   */\n      calldataload\n        /* \"#utility.yul\":5895:5924   */\n      swap1\n      pop\n        /* \"#utility.yul\":5933:5966   */\n      tag_259\n        /* \"#utility.yul\":5960:5965   */\n      dup2\n        /* \"#utility.yul\":5933:5966   */\n      tag_157\n      jump\t// in\n    tag_259:\n        /* \"#utility.yul\":5833:5972   */\n      swap3\n      swap2\n      pop\n      pop\n      jump\t// out\n        /* \"#utility.yul\":5978:6307   */\n    tag_43:\n        /* \"#utility.yul\":6037:6043   */\n      0x00\n        /* \"#utility.yul\":6086:6088   */\n      0x20\n        /* \"#utility.yul\":6074:6083   */\n      dup3\n        /* \"#utility.yul\":6065:6072   */\n      dup5\n        /* \"#utility.yul\":6061:6084   */\n      sub\n        /* \"#utility.yul\":6057:6089   */\n      slt\n        /* \"#utility.yul\":6054:6173   */\n      iszero\n      tag_261\n      jumpi\n        /* \"#utility.yul\":6092:6171   */\n      tag_262\n      tag_134\n      jump\t// in\n    tag_262:\n        /* \"#utility.yul\":6054:6173   */\n    tag_261:\n        /* \"#utility.yul\":6212:6213   */\n      0x00\n        /* \"#utility.yul\":6237:6290   */\n      tag_263\n        /* \"#utility.yul\":6282:6289   */\n      dup5\n        /* \"#utility.yul\":6273:6279   */\n      dup3\n        /* \"#utility.yul\":6262:6271   */\n      dup6\n        /* \"#utility.yul\":6258:6280   */\n      add\n        /* \"#utility.yul\":6237:6290   */\n      tag_158\n      jump\t// in\n    tag_263:\n        /* \"#utility.yul\":6227:6290   */\n      swap2\n      pop\n        /* \"#utility.yul\":6183:6300   */\n      pop\n        /* \"#utility.yul\":5978:6307   */\n      swap3\n      swap2\n      pop\n      pop\n      jump\t// out\n        /* \"#utility.yul\":6313:6421   */\n    tag_159:\n        /* \"#utility.yul\":6390:6414   */\n      tag_265\n        /* \"#utility.yul\":6408:6413   */\n      dup2\n        /* \"#utility.yul\":6390:6414   */\n      tag_147\n      jump\t// in\n    tag_265:\n        /* \"#utility.yul\":6385:6388   */\n      dup3\n        /* \"#utility.yul\":6378:6415   */\n      mstore\n        /* \"#utility.yul\":6313:6421   */\n      pop\n      pop\n      jump\t// out\n        /* \"#utility.yul\":6427:6526   */\n    tag_160:\n        /* \"#utility.yul\":6479:6485   */\n      0x00\n        /* \"#utility.yul\":6513:6518   */\n      dup2\n        /* \"#utility.yul\":6507:6519   */\n      mload\n        /* \"#utility.yul\":6497:6519   */\n      swap1\n      pop\n        /* \"#utility.yul\":6427:6526   */\n      swap2\n      swap1\n      pop\n      jump\t// out\n        /* \"#utility.yul\":6532:6691   */\n    tag_161:\n        /* \"#utility.yul\":6606:6617   */\n      0x00\n        /* \"#utility.yul\":6640:6646   */\n      dup3\n        /* \"#utility.yul\":6635:6638   */\n      dup3\n        /* \"#utility.yul\":6628:6647   */\n      mstore\n        /* \"#utility.yul\":6680:6684   */\n      0x20\n        /* \"#utility.yul\":6675:6678   */\n      dup3\n        /* \"#utility.yul\":6671:6685   */\n      add\n        /* \"#utility.yul\":6656:6685   */\n      swap1\n      pop\n        /* \"#utility.yul\":6532:6691   */\n      swap3\n      swap2\n      pop\n      pop\n      jump\t// out\n        /* \"#utility.yul\":6697:7004   */\n    tag_162:\n        /* \"#utility.yul\":6765:6766   */\n      0x00\n        /* \"#utility.yul\":6775:6888   */\n    tag_269:\n        /* \"#utility.yul\":6789:6795   */\n      dup4\n        /* \"#utility.yul\":6786:6787   */\n      dup2\n        /* \"#utility.yul\":6783:6796   */\n      lt\n        /* \"#utility.yul\":6775:6888   */\n      iszero\n      tag_271\n      jumpi\n        /* \"#utility.yul\":6874:6875   */\n      dup1\n        /* \"#utility.yul\":6869:6872   */\n      dup3\n        /* \"#utility.yul\":6865:6876   */\n      add\n        /* \"#utility.yul\":6859:6877   */\n      mload\n        /* \"#utility.yul\":6855:6856   */\n      dup2\n        /* \"#utility.yul\":6850:6853   */\n      dup5\n        /* \"#utility.yul\":6846:6857   */\n      add\n        /* \"#utility.yul\":6839:6878   */\n      mstore\n        /* \"#utility.yul\":6811:6813   */\n      0x20\n        /* \"#utility.yul\":6808:6809   */\n      dup2\n        /* \"#utility.yul\":6804:6814   */\n      add\n        /* \"#utility.yul\":6799:6814   */\n      swap1\n      pop\n        /* \"#utility.yul\":6775:6888   */\n      jump(tag_269)\n    tag_271:\n        /* \"#utility.yul\":6906:6912   */\n      dup4\n        /* \"#utility.yul\":6903:6904   */\n      dup2\n        /* \"#utility.yul\":6900:6913   */\n      gt\n        /* \"#utility.yul\":6897:6998   */\n      iszero\n      tag_272\n      jumpi\n        /* \"#utility.yul\":6986:6987   */\n      0x00\n        /* \"#utility.yul\":6977:6983   */\n      dup5\n        /* \"#utility.yul\":6972:6975   */\n      dup5\n        /* \"#utility.yul\":6968:6984   */\n      add\n        /* \"#utility.yul\":6961:6988   */\n      mstore\n        /* \"#utility.yul\":6897:6998   */\n    tag_272:\n        /* \"#utility.yul\":6746:7004   */\n      pop\n        /* \"#utility.yul\":6697:7004   */\n      pop\n      pop\n      pop\n      jump\t// out\n        /* \"#utility.yul\":7010:7354   */\n    tag_163:\n        /* \"#utility.yul\":7088:7091   */\n      0x00\n        /* \"#utility.yul\":7116:7155   */\n      tag_274\n        /* \"#utility.yul\":7149:7154   */\n      dup3\n        /* \"#utility.yul\":7116:7155   */\n      tag_160\n      jump\t// in\n    tag_274:\n        /* \"#utility.yul\":7171:7232   */\n      tag_275\n        /* \"#utility.yul\":7225:7231   */\n      dup2\n        /* \"#utility.yul\":7220:7223   */\n      dup6\n        /* \"#utility.yul\":7171:7232   */\n      tag_161\n      jump\t// in\n    tag_275:\n        /* \"#utility.yul\":7164:7232   */\n      swap4\n      pop\n        /* \"#utility.yul\":7241:7293   */\n      tag_276\n        /* \"#utility.yul\":7286:7292   */\n      dup2\n        /* \"#utility.yul\":7281:7284   */\n      dup6\n        /* \"#utility.yul\":7274:7278   */\n      0x20\n        /* \"#utility.yul\":7267:7272   */\n      dup7\n        /* \"#utility.yul\":7263:7279   */\n      add\n        /* \"#utility.yul\":7241:7293   */\n      tag_162\n      jump\t// in\n    tag_276:\n        /* \"#utility.yul\":7318:7347   */\n      tag_277\n        /* \"#utility.yul\":7340:7346   */\n      dup2\n        /* \"#utility.yul\":7318:7347   */\n      tag_138\n      jump\t// in\n    tag_277:\n        /* \"#utility.yul\":7313:7316   */\n      dup5\n        /* \"#utility.yul\":7309:7348   */\n      add\n        /* \"#utility.yul\":7302:7348   */\n      swap2\n      pop\n        /* \"#utility.yul\":7092:7354   */\n      pop\n        /* \"#utility.yul\":7010:7354   */\n      swap3\n      swap2\n      pop\n      pop\n      jump\t// out\n        /* \"#utility.yul\":7360:7468   */\n    tag_164:\n        /* \"#utility.yul\":7437:7461   */\n      tag_279\n        /* \"#utility.yul\":7455:7460   */\n      dup2\n        /* \"#utility.yul\":7437:7461   */\n      tag_131\n      jump\t// in\n    tag_279:\n        /* \"#utility.yul\":7432:7435   */\n      dup3\n        /* \"#utility.yul\":7425:7462   */\n      mstore\n        /* \"#utility.yul\":7360:7468   */\n      pop\n      pop\n      jump\t// out\n        /* \"#utility.yul\":7558:8344   */\n    tag_165:\n        /* \"#utility.yul\":7673:7676   */\n      0x00\n        /* \"#utility.yul\":7709:7713   */\n      0x60\n        /* \"#utility.yul\":7704:7707   */\n      dup4\n        /* \"#utility.yul\":7700:7714   */\n      add\n        /* \"#utility.yul\":7804:7808   */\n      0x00\n        /* \"#utility.yul\":7797:7802   */\n      dup4\n        /* \"#utility.yul\":7793:7809   */\n      add\n        /* \"#utility.yul\":7787:7810   */\n      mload\n        /* \"#utility.yul\":7823:7886   */\n      tag_281\n        /* \"#utility.yul\":7880:7884   */\n      0x00\n        /* \"#utility.yul\":7875:7878   */\n      dup7\n        /* \"#utility.yul\":7871:7885   */\n      add\n        /* \"#utility.yul\":7857:7869   */\n      dup3\n        /* \"#utility.yul\":7823:7886   */\n      tag_159\n      jump\t// in\n    tag_281:\n        /* \"#utility.yul\":7724:7896   */\n      pop\n        /* \"#utility.yul\":7978:7982   */\n      0x20\n        /* \"#utility.yul\":7971:7976   */\n      dup4\n        /* \"#utility.yul\":7967:7983   */\n      add\n        /* \"#utility.yul\":7961:7984   */\n      mload\n        /* \"#utility.yul\":8031:8034   */\n      dup5\n        /* \"#utility.yul\":8025:8029   */\n      dup3\n        /* \"#utility.yul\":8021:8035   */\n      sub\n        /* \"#utility.yul\":8014:8018   */\n      0x20\n        /* \"#utility.yul\":8009:8012   */\n      dup7\n        /* \"#utility.yul\":8005:8019   */\n      add\n        /* \"#utility.yul\":7998:8036   */\n      mstore\n        /* \"#utility.yul\":8057:8130   */\n      tag_282\n        /* \"#utility.yul\":8125:8129   */\n      dup3\n        /* \"#utility.yul\":8111:8123   */\n      dup3\n        /* \"#utility.yul\":8057:8130   */\n      tag_163\n      jump\t// in\n    tag_282:\n        /* \"#utility.yul\":8049:8130   */\n      swap2\n      pop\n        /* \"#utility.yul\":7906:8141   */\n      pop\n        /* \"#utility.yul\":8225:8229   */\n      0x40\n        /* \"#utility.yul\":8218:8223   */\n      dup4\n        /* \"#utility.yul\":8214:8230   */\n      add\n        /* \"#utility.yul\":8208:8231   */\n      mload\n        /* \"#utility.yul\":8244:8307   */\n      tag_283\n        /* \"#utility.yul\":8301:8305   */\n      0x40\n        /* \"#utility.yul\":8296:8299   */\n      dup7\n        /* \"#utility.yul\":8292:8306   */\n      add\n        /* \"#utility.yul\":8278:8290   */\n      dup3\n        /* \"#utility.yul\":8244:8307   */\n      tag_164\n      jump\t// in\n    tag_283:\n        /* \"#utility.yul\":8151:8317   */\n      pop\n        /* \"#utility.yul\":8334:8338   */\n      dup1\n        /* \"#utility.yul\":8327:8338   */\n      swap2\n      pop\n        /* \"#utility.yul\":7678:8344   */\n      pop\n        /* \"#utility.yul\":7558:8344   */\n      swap3\n      swap2\n      pop\n      pop\n      jump\t// out\n        /* \"#utility.yul\":8350:8715   */\n    tag_46:\n        /* \"#utility.yul\":8489:8493   */\n      0x00\n        /* \"#utility.yul\":8527:8529   */\n      0x20\n        /* \"#utility.yul\":8516:8525   */\n      dup3\n        /* \"#utility.yul\":8512:8530   */\n      add\n        /* \"#utility.yul\":8504:8530   */\n      swap1\n      pop\n        /* \"#utility.yul\":8576:8585   */\n      dup2\n        /* \"#utility.yul\":8570:8574   */\n      dup2\n        /* \"#utility.yul\":8566:8586   */\n      sub\n        /* \"#utility.yul\":8562:8563   */\n      0x00\n        /* \"#utility.yul\":8551:8560   */\n      dup4\n        /* \"#utility.yul\":8547:8564   */\n      add\n        /* \"#utility.yul\":8540:8587   */\n      mstore\n        /* \"#utility.yul\":8604:8708   */\n      tag_285\n        /* \"#utility.yul\":8703:8707   */\n      dup2\n        /* \"#utility.yul\":8694:8700   */\n      dup5\n        /* \"#utility.yul\":8604:8708   */\n      tag_165\n      jump\t// in\n    tag_285:\n        /* \"#utility.yul\":8596:8708   */\n      swap1\n      pop\n        /* \"#utility.yul\":8350:8715   */\n      swap3\n      swap2\n      pop\n      pop\n      jump\t// out\n        /* \"#utility.yul\":8721:8839   */\n    tag_166:\n        /* \"#utility.yul\":8808:8832   */\n      tag_287\n        /* \"#utility.yul\":8826:8831   */\n      dup2\n        /* \"#utility.yul\":8808:8832   */\n      tag_147\n      jump\t// in\n    tag_287:\n        /* \"#utility.yul\":8803:8806   */\n      dup3\n        /* \"#utility.yul\":8796:8833   */\n      mstore\n        /* \"#utility.yul\":8721:8839   */\n      pop\n      pop\n      jump\t// out\n        /* \"#utility.yul\":8845:9014   */\n    tag_167:\n        /* \"#utility.yul\":8929:8940   */\n      0x00\n        /* \"#utility.yul\":8963:8969   */\n      dup3\n        /* \"#utility.yul\":8958:8961   */\n      dup3\n        /* \"#utility.yul\":8951:8970   */\n      mstore\n        /* \"#utility.yul\":9003:9007   */\n      0x20\n        /* \"#utility.yul\":8998:9001   */\n      dup3\n        /* \"#utility.yul\":8994:9008   */\n      add\n        /* \"#utility.yul\":8979:9008   */\n      swap1\n      pop\n        /* \"#utility.yul\":8845:9014   */\n      swap3\n      swap2\n      pop\n      pop\n      jump\t// out\n        /* \"#utility.yul\":9020:9384   */\n    tag_168:\n        /* \"#utility.yul\":9108:9111   */\n      0x00\n        /* \"#utility.yul\":9136:9175   */\n      tag_290\n        /* \"#utility.yul\":9169:9174   */\n      dup3\n        /* \"#utility.yul\":9136:9175   */\n      tag_160\n      jump\t// in\n    tag_290:\n        /* \"#utility.yul\":9191:9262   */\n      tag_291\n        /* \"#utility.yul\":9255:9261   */\n      dup2\n        /* \"#utility.yul\":9250:9253   */\n      dup6\n        /* \"#utility.yul\":9191:9262   */\n      tag_167\n      jump\t// in\n    tag_291:\n        /* \"#utility.yul\":9184:9262   */\n      swap4\n      pop\n        /* \"#utility.yul\":9271:9323   */\n      tag_292\n        /* \"#utility.yul\":9316:9322   */\n      dup2\n        /* \"#utility.yul\":9311:9314   */\n      dup6\n        /* \"#utility.yul\":9304:9308   */\n      0x20\n        /* \"#utility.yul\":9297:9302   */\n      dup7\n        /* \"#utility.yul\":9293:9309   */\n      add\n        /* \"#utility.yul\":9271:9323   */\n      tag_162\n      jump\t// in\n    tag_292:\n        /* \"#utility.yul\":9348:9377   */\n      tag_293\n        /* \"#utility.yul\":9370:9376   */\n      dup2\n        /* \"#utility.yul\":9348:9377   */\n      tag_138\n      jump\t// in\n    tag_293:\n        /* \"#utility.yul\":9343:9346   */\n      dup5\n        /* \"#utility.yul\":9339:9378   */\n      add\n        /* \"#utility.yul\":9332:9378   */\n      swap2\n      pop\n        /* \"#utility.yul\":9112:9384   */\n      pop\n        /* \"#utility.yul\":9020:9384   */\n      swap3\n      swap2\n      pop\n      pop\n      jump\t// out\n        /* \"#utility.yul\":9390:9923   */\n    tag_51:\n        /* \"#utility.yul\":9559:9563   */\n      0x00\n        /* \"#utility.yul\":9597:9599   */\n      0x60\n        /* \"#utility.yul\":9586:9595   */\n      dup3\n        /* \"#utility.yul\":9582:9600   */\n      add\n        /* \"#utility.yul\":9574:9600   */\n      swap1\n      pop\n        /* \"#utility.yul\":9610:9681   */\n      tag_295\n        /* \"#utility.yul\":9678:9679   */\n      0x00\n        /* \"#utility.yul\":9667:9676   */\n      dup4\n        /* \"#utility.yul\":9663:9680   */\n      add\n        /* \"#utility.yul\":9654:9660   */\n      dup7\n        /* \"#utility.yul\":9610:9681   */\n      tag_166\n      jump\t// in\n    tag_295:\n        /* \"#utility.yul\":9728:9737   */\n      dup2\n        /* \"#utility.yul\":9722:9726   */\n      dup2\n        /* \"#utility.yul\":9718:9738   */\n      sub\n        /* \"#utility.yul\":9713:9715   */\n      0x20\n        /* \"#utility.yul\":9702:9711   */\n      dup4\n        /* \"#utility.yul\":9698:9716   */\n      add\n        /* \"#utility.yul\":9691:9739   */\n      mstore\n        /* \"#utility.yul\":9756:9834   */\n      tag_296\n        /* \"#utility.yul\":9829:9833   */\n      dup2\n        /* \"#utility.yul\":9820:9826   */\n      dup6\n        /* \"#utility.yul\":9756:9834   */\n      tag_168\n      jump\t// in\n    tag_296:\n        /* \"#utility.yul\":9748:9834   */\n      swap1\n      pop\n        /* \"#utility.yul\":9844:9916   */\n      tag_297\n        /* \"#utility.yul\":9912:9914   */\n      0x40\n        /* \"#utility.yul\":9901:9910   */\n      dup4\n        /* \"#utility.yul\":9897:9915   */\n      add\n        /* \"#utility.yul\":9888:9894   */\n      dup5\n        /* \"#utility.yul\":9844:9916   */\n      tag_132\n      jump\t// in\n    tag_297:\n        /* \"#utility.yul\":9390:9923   */\n      swap5\n      swap4\n      pop\n      pop\n      pop\n      pop\n      jump\t// out\n        /* \"#utility.yul\":9929:10046   */\n    tag_169:\n        /* \"#utility.yul\":10038:10039   */\n      0x00\n        /* \"#utility.yul\":10035:10036   */\n      dup1\n        /* \"#utility.yul\":10028:10040   */\n      revert\n        /* \"#utility.yul\":10052:10169   */\n    tag_170:\n        /* \"#utility.yul\":10161:10162   */\n      0x00\n        /* \"#utility.yul\":10158:10159   */\n      dup1\n        /* \"#utility.yul\":10151:10163   */\n      revert\n        /* \"#utility.yul\":10189:10742   */\n    tag_171:\n        /* \"#utility.yul\":10247:10255   */\n      0x00\n        /* \"#utility.yul\":10257:10263   */\n      dup1\n        /* \"#utility.yul\":10307:10310   */\n      dup4\n        /* \"#utility.yul\":10300:10304   */\n      0x1f\n        /* \"#utility.yul\":10292:10298   */\n      dup5\n        /* \"#utility.yul\":10288:10305   */\n      add\n        /* \"#utility.yul\":10284:10311   */\n      slt\n        /* \"#utility.yul\":10274:10396   */\n      tag_301\n      jumpi\n        /* \"#utility.yul\":10315:10394   */\n      tag_302\n      tag_136\n      jump\t// in\n    tag_302:\n        /* \"#utility.yul\":10274:10396   */\n    tag_301:\n        /* \"#utility.yul\":10428:10434   */\n      dup3\n        /* \"#utility.yul\":10415:10435   */\n      calldataload\n        /* \"#utility.yul\":10405:10435   */\n      swap1\n      pop\n        /* \"#utility.yul\":10458:10476   */\n      0xffffffffffffffff\n        /* \"#utility.yul\":10450:10456   */\n      dup2\n        /* \"#utility.yul\":10447:10477   */\n      gt\n        /* \"#utility.yul\":10444:10561   */\n      iszero\n      tag_303\n      jumpi\n        /* \"#utility.yul\":10480:10559   */\n      tag_304\n      tag_169\n      jump\t// in\n    tag_304:\n        /* \"#utility.yul\":10444:10561   */\n    tag_303:\n        /* \"#utility.yul\":10594:10598   */\n      0x20\n        /* \"#utility.yul\":10586:10592   */\n      dup4\n        /* \"#utility.yul\":10582:10599   */\n      add\n        /* \"#utility.yul\":10570:10599   */\n      swap2\n      pop\n        /* \"#utility.yul\":10648:10651   */\n      dup4\n        /* \"#utility.yul\":10640:10644   */\n      0x01\n        /* \"#utility.yul\":10632:10638   */\n      dup3\n        /* \"#utility.yul\":10628:10645   */\n      mul\n        /* \"#utility.yul\":10618:10626   */\n      dup4\n        /* \"#utility.yul\":10614:10646   */\n      add\n        /* \"#utility.yul\":10611:10652   */\n      gt\n        /* \"#utility.yul\":10608:10736   */\n      iszero\n      tag_305\n      jumpi\n        /* \"#utility.yul\":10655:10734   */\n      tag_306\n      tag_170\n      jump\t// in\n    tag_306:\n        /* \"#utility.yul\":10608:10736   */\n    tag_305:\n        /* \"#utility.yul\":10189:10742   */\n      swap3\n      pop\n      swap3\n      swap1\n      pop\n      jump\t// out\n        /* \"#utility.yul\":10748:11422   */\n    tag_54:\n        /* \"#utility.yul\":10828:10834   */\n      0x00\n        /* \"#utility.yul\":10836:10842   */\n      dup1\n        /* \"#utility.yul\":10844:10850   */\n      0x00\n        /* \"#utility.yul\":10893:10895   */\n      0x40\n        /* \"#utility.yul\":10881:10890   */\n      dup5\n        /* \"#utility.yul\":10872:10879   */\n      dup7\n        /* \"#utility.yul\":10868:10891   */\n      sub\n        /* \"#utility.yul\":10864:10896   */\n      slt\n        /* \"#utility.yul\":10861:10980   */\n      iszero\n      tag_308\n      jumpi\n        /* \"#utility.yul\":10899:10978   */\n      tag_309\n      tag_134\n      jump\t// in\n    tag_309:\n        /* \"#utility.yul\":10861:10980   */\n    tag_308:\n        /* \"#utility.yul\":11047:11048   */\n      0x00\n        /* \"#utility.yul\":11036:11045   */\n      dup5\n        /* \"#utility.yul\":11032:11049   */\n      add\n        /* \"#utility.yul\":11019:11050   */\n      calldataload\n        /* \"#utility.yul\":11077:11095   */\n      0xffffffffffffffff\n        /* \"#utility.yul\":11069:11075   */\n      dup2\n        /* \"#utility.yul\":11066:11096   */\n      gt\n        /* \"#utility.yul\":11063:11180   */\n      iszero\n      tag_310\n      jumpi\n        /* \"#utility.yul\":11099:11178   */\n      tag_311\n      tag_135\n      jump\t// in\n    tag_311:\n        /* \"#utility.yul\":11063:11180   */\n    tag_310:\n        /* \"#utility.yul\":11212:11277   */\n      tag_312\n        /* \"#utility.yul\":11269:11276   */\n      dup7\n        /* \"#utility.yul\":11260:11266   */\n      dup3\n        /* \"#utility.yul\":11249:11258   */\n      dup8\n        /* \"#utility.yul\":11245:11267   */\n      add\n        /* \"#utility.yul\":11212:11277   */\n      tag_171\n      jump\t// in\n    tag_312:\n        /* \"#utility.yul\":11194:11277   */\n      swap4\n      pop\n      swap4\n      pop\n        /* \"#utility.yul\":10990:11287   */\n      pop\n        /* \"#utility.yul\":11326:11328   */\n      0x20\n        /* \"#utility.yul\":11352:11405   */\n      tag_313\n        /* \"#utility.yul\":11397:11404   */\n      dup7\n        /* \"#utility.yul\":11388:11394   */\n      dup3\n        /* \"#utility.yul\":11377:11386   */\n      dup8\n        /* \"#utility.yul\":11373:11395   */\n      add\n        /* \"#utility.yul\":11352:11405   */\n      tag_158\n      jump\t// in\n    tag_313:\n        /* \"#utility.yul\":11342:11405   */\n      swap2\n      pop\n        /* \"#utility.yul\":11297:11415   */\n      pop\n        /* \"#utility.yul\":10748:11422   */\n      swap3\n      pop\n      swap3\n      pop\n      swap3\n      jump\t// out\n        /* \"#utility.yul\":11428:11650   */\n    tag_59:\n        /* \"#utility.yul\":11521:11525   */\n      0x00\n        /* \"#utility.yul\":11559:11561   */\n      0x20\n        /* \"#utility.yul\":11548:11557   */\n      dup3\n        /* \"#utility.yul\":11544:11562   */\n      add\n        /* \"#utility.yul\":11536:11562   */\n      swap1\n      pop\n        /* \"#utility.yul\":11572:11643   */\n      tag_315\n        /* \"#utility.yul\":11640:11641   */\n      0x00\n        /* \"#utility.yul\":11629:11638   */\n      dup4\n        /* \"#utility.yul\":11625:11642   */\n      add\n        /* \"#utility.yul\":11616:11622   */\n      dup5\n        /* \"#utility.yul\":11572:11643   */\n      tag_166\n      jump\t// in\n    tag_315:\n        /* \"#utility.yul\":11428:11650   */\n      swap3\n      swap2\n      pop\n      pop\n      jump\t// out\n        /* \"#utility.yul\":11656:12185   */\n    tag_62:\n        /* \"#utility.yul\":11727:11733   */\n      0x00\n        /* \"#utility.yul\":11735:11741   */\n      dup1\n        /* \"#utility.yul\":11784:11786   */\n      0x20\n        /* \"#utility.yul\":11772:11781   */\n      dup4\n        /* \"#utility.yul\":11763:11770   */\n      dup6\n        /* \"#utility.yul\":11759:11782   */\n      sub\n        /* \"#utility.yul\":11755:11787   */\n      slt\n        /* \"#utility.yul\":11752:11871   */\n      iszero\n      tag_317\n      jumpi\n        /* \"#utility.yul\":11790:11869   */\n      tag_318\n      tag_134\n      jump\t// in\n    tag_318:\n        /* \"#utility.yul\":11752:11871   */\n    tag_317:\n        /* \"#utility.yul\":11938:11939   */\n      0x00\n        /* \"#utility.yul\":11927:11936   */\n      dup4\n        /* \"#utility.yul\":11923:11940   */\n      add\n        /* \"#utility.yul\":11910:11941   */\n      calldataload\n        /* \"#utility.yul\":11968:11986   */\n      0xffffffffffffffff\n        /* \"#utility.yul\":11960:11966   */\n      dup2\n        /* \"#utility.yul\":11957:11987   */\n      gt\n        /* \"#utility.yul\":11954:12071   */\n      iszero\n      tag_319\n      jumpi\n        /* \"#utility.yul\":11990:12069   */\n      tag_320\n      tag_135\n      jump\t// in\n    tag_320:\n        /* \"#utility.yul\":11954:12071   */\n    tag_319:\n        /* \"#utility.yul\":12103:12168   */\n      tag_321\n        /* \"#utility.yul\":12160:12167   */\n      dup6\n        /* \"#utility.yul\":12151:12157   */\n      dup3\n        /* \"#utility.yul\":12140:12149   */\n      dup7\n        /* \"#utility.yul\":12136:12158   */\n      add\n        /* \"#utility.yul\":12103:12168   */\n      tag_171\n      jump\t// in\n    tag_321:\n        /* \"#utility.yul\":12085:12168   */\n      swap3\n      pop\n      swap3\n      pop\n        /* \"#utility.yul\":11881:12178   */\n      pop\n        /* \"#utility.yul\":11656:12185   */\n      swap3\n      pop\n      swap3\n      swap1\n      pop\n      jump\t// out\n        /* \"#utility.yul\":12191:12363   */\n    tag_172:\n        /* \"#utility.yul\":12331:12355   */\n      0x50726f64756374206e6f74207265676973746572656400000000000000000000\n        /* \"#utility.yul\":12327:12328   */\n      0x00\n        /* \"#utility.yul\":12319:12325   */\n      dup3\n        /* \"#utility.yul\":12315:12329   */\n      add\n        /* \"#utility.yul\":12308:12356   */\n      mstore\n        /* \"#utility.yul\":12191:12363   */\n      pop\n      jump\t// out\n        /* \"#utility.yul\":12369:12735   */\n    tag_173:\n        /* \"#utility.yul\":12511:12514   */\n      0x00\n        /* \"#utility.yul\":12532:12599   */\n      tag_324\n        /* \"#utility.yul\":12596:12598   */\n      0x16\n        /* \"#utility.yul\":12591:12594   */\n      dup4\n        /* \"#utility.yul\":12532:12599   */\n      tag_167\n      jump\t// in\n    tag_324:\n        /* \"#utility.yul\":12525:12599   */\n      swap2\n      pop\n        /* \"#utility.yul\":12608:12701   */\n      tag_325\n        /* \"#utility.yul\":12697:12700   */\n      dup3\n        /* \"#utility.yul\":12608:12701   */\n      tag_172\n      jump\t// in\n    tag_325:\n        /* \"#utility.yul\":12726:12728   */\n      0x20\n        /* \"#utility.yul\":12721:12724   */\n      dup3\n        /* \"#utility.yul\":12717:12729   */\n      add\n        /* \"#utility.yul\":12710:12729   */\n      swap1\n      pop\n        /* \"#utility.yul\":12369:12735   */\n      swap2\n      swap1\n      pop\n      jump\t// out\n        /* \"#utility.yul\":12741:13160   */\n    tag_79:\n        /* \"#utility.yul\":12907:12911   */\n      0x00\n        /* \"#utility.yul\":12945:12947   */\n      0x20\n        /* \"#utility.yul\":12934:12943   */\n      dup3\n        /* \"#utility.yul\":12930:12948   */\n      add\n        /* \"#utility.yul\":12922:12948   */\n      swap1\n      pop\n        /* \"#utility.yul\":12994:13003   */\n      dup2\n        /* \"#utility.yul\":12988:12992   */\n      dup2\n        /* \"#utility.yul\":12984:13004   */\n      sub\n        /* \"#utility.yul\":12980:12981   */\n      0x00\n        /* \"#utility.yul\":12969:12978   */\n      dup4\n        /* \"#utility.yul\":12965:12982   */\n      add\n        /* \"#utility.yul\":12958:13005   */\n      mstore\n        /* \"#utility.yul\":13022:13153   */\n      tag_327\n        /* \"#utility.yul\":13148:13152   */\n      dup2\n        /* \"#utility.yul\":13022:13153   */\n      tag_173\n      jump\t// in\n    tag_327:\n        /* \"#utility.yul\":13014:13153   */\n      swap1\n      pop\n        /* \"#utility.yul\":12741:13160   */\n      swap2\n      swap1\n      pop\n      jump\t// out\n        /* \"#utility.yul\":13166:13346   */\n    tag_174:\n        /* \"#utility.yul\":13214:13291   */\n      0x4e487b7100000000000000000000000000000000000000000000000000000000\n        /* \"#utility.yul\":13211:13212   */\n      0x00\n        /* \"#utility.yul\":13204:13292   */\n      mstore\n        /* \"#utility.yul\":13311:13315   */\n      0x22\n        /* \"#utility.yul\":13308:13309   */\n      0x04\n        /* \"#utility.yul\":13301:13316   */\n      mstore\n        /* \"#utility.yul\":13335:13339   */\n      0x24\n        /* \"#utility.yul\":13332:13333   */\n      0x00\n        /* \"#utility.yul\":13325:13340   */\n      revert\n        /* \"#utility.yul\":13352:13672   */\n    tag_81:\n        /* \"#utility.yul\":13396:13402   */\n      0x00\n        /* \"#utility.yul\":13433:13434   */\n      0x02\n        /* \"#utility.yul\":13427:13431   */\n      dup3\n        /* \"#utility.yul\":13423:13435   */\n      div\n        /* \"#utility.yul\":13413:13435   */\n      swap1\n      pop\n        /* \"#utility.yul\":13480:13481   */\n      0x01\n        /* \"#utility.yul\":13474:13478   */\n      dup3\n        /* \"#utility.yul\":13470:13482   */\n      and\n        /* \"#utility.yul\":13501:13519   */\n      dup1\n        /* \"#utility.yul\":13491:13572   */\n      tag_330\n      jumpi\n        /* \"#utility.yul\":13557:13561   */\n      0x7f\n        /* \"#utility.yul\":13549:13555   */\n      dup3\n        /* \"#utility.yul\":13545:13562   */\n      and\n        /* \"#utility.yul\":13535:13562   */\n      swap2\n      pop\n        /* \"#utility.yul\":13491:13572   */\n    tag_330:\n        /* \"#utility.yul\":13619:13621   */\n      0x20\n        /* \"#utility.yul\":13611:13617   */\n      dup3\n        /* \"#utility.yul\":13608:13622   */\n      lt\n        /* \"#utility.yul\":13588:13606   */\n      dup2\n        /* \"#utility.yul\":13585:13623   */\n      eq\n        /* \"#utility.yul\":13582:13666   */\n      iszero\n      tag_331\n      jumpi\n        /* \"#utility.yul\":13638:13656   */\n      tag_332\n      tag_174\n      jump\t// in\n    tag_332:\n        /* \"#utility.yul\":13582:13666   */\n    tag_331:\n        /* \"#utility.yul\":13403:13672   */\n      pop\n        /* \"#utility.yul\":13352:13672   */\n      swap2\n      swap1\n      pop\n      jump\t// out\n        /* \"#utility.yul\":13678:13913   */\n    tag_175:\n        /* \"#utility.yul\":13818:13852   */\n      0x4f6e6c7920726567697374657265642070726f6475636572732063616e206361\n        /* \"#utility.yul\":13814:13815   */\n      0x00\n        /* \"#utility.yul\":13806:13812   */\n      dup3\n        /* \"#utility.yul\":13802:13816   */\n      add\n        /* \"#utility.yul\":13795:13853   */\n      mstore\n        /* \"#utility.yul\":13887:13905   */\n      0x6c6c20746869732066756e6374696f6e00000000000000000000000000000000\n        /* \"#utility.yul\":13882:13884   */\n      0x20\n        /* \"#utility.yul\":13874:13880   */\n      dup3\n        /* \"#utility.yul\":13870:13885   */\n      add\n        /* \"#utility.yul\":13863:13906   */\n      mstore\n        /* \"#utility.yul\":13678:13913   */\n      pop\n      jump\t// out\n        /* \"#utility.yul\":13919:14285   */\n    tag_176:\n        /* \"#utility.yul\":14061:14064   */\n      0x00\n        /* \"#utility.yul\":14082:14149   */\n      tag_335\n        /* \"#utility.yul\":14146:14148   */\n      0x30\n        /* \"#utility.yul\":14141:14144   */\n      dup4\n        /* \"#utility.yul\":14082:14149   */\n      tag_167\n      jump\t// in\n    tag_335:\n        /* \"#utility.yul\":14075:14149   */\n      swap2\n      pop\n        /* \"#utility.yul\":14158:14251   */\n      tag_336\n        /* \"#utility.yul\":14247:14250   */\n      dup3\n        /* \"#utility.yul\":14158:14251   */\n      tag_175\n      jump\t// in\n    tag_336:\n        /* \"#utility.yul\":14276:14278   */\n      0x40\n        /* \"#utility.yul\":14271:14274   */\n      dup3\n        /* \"#utility.yul\":14267:14279   */\n      add\n        /* \"#utility.yul\":14260:14279   */\n      swap1\n      pop\n        /* \"#utility.yul\":13919:14285   */\n      swap2\n      swap1\n      pop\n      jump\t// out\n        /* \"#utility.yul\":14291:14710   */\n    tag_94:\n        /* \"#utility.yul\":14457:14461   */\n      0x00\n        /* \"#utility.yul\":14495:14497   */\n      0x20\n        /* \"#utility.yul\":14484:14493   */\n      dup3\n        /* \"#utility.yul\":14480:14498   */\n      add\n        /* \"#utility.yul\":14472:14498   */\n      swap1\n      pop\n        /* \"#utility.yul\":14544:14553   */\n      dup2\n        /* \"#utility.yul\":14538:14542   */\n      dup2\n        /* \"#utility.yul\":14534:14554   */\n      sub\n        /* \"#utility.yul\":14530:14531   */\n      0x00\n        /* \"#utility.yul\":14519:14528   */\n      dup4\n        /* \"#utility.yul\":14515:14532   */\n      add\n        /* \"#utility.yul\":14508:14555   */\n      mstore\n        /* \"#utility.yul\":14572:14703   */\n      tag_338\n        /* \"#utility.yul\":14698:14702   */\n      dup2\n        /* \"#utility.yul\":14572:14703   */\n      tag_176\n      jump\t// in\n    tag_338:\n        /* \"#utility.yul\":14564:14703   */\n      swap1\n      pop\n        /* \"#utility.yul\":14291:14710   */\n      swap2\n      swap1\n      pop\n      jump\t// out\n        /* \"#utility.yul\":14716:14896   */\n    tag_177:\n        /* \"#utility.yul\":14764:14841   */\n      0x4e487b7100000000000000000000000000000000000000000000000000000000\n        /* \"#utility.yul\":14761:14762   */\n      0x00\n        /* \"#utility.yul\":14754:14842   */\n      mstore\n        /* \"#utility.yul\":14861:14865   */\n      0x11\n        /* \"#utility.yul\":14858:14859   */\n      0x04\n        /* \"#utility.yul\":14851:14866   */\n      mstore\n        /* \"#utility.yul\":14885:14889   */\n      0x24\n        /* \"#utility.yul\":14882:14883   */\n      0x00\n        /* \"#utility.yul\":14875:14890   */\n      revert\n        /* \"#utility.yul\":14902:15135   */\n    tag_97:\n        /* \"#utility.yul\":14941:14944   */\n      0x00\n        /* \"#utility.yul\":14964:14988   */\n      tag_341\n        /* \"#utility.yul\":14982:14987   */\n      dup3\n        /* \"#utility.yul\":14964:14988   */\n      tag_131\n      jump\t// in\n    tag_341:\n        /* \"#utility.yul\":14955:14988   */\n      swap2\n      pop\n        /* \"#utility.yul\":15010:15076   */\n      0xffffffffffffffffffffffffffffffffffffffffffffffffffffffffffffffff\n        /* \"#utility.yul\":15003:15008   */\n      dup3\n        /* \"#utility.yul\":15000:15077   */\n      eq\n        /* \"#utility.yul\":14997:15100   */\n      iszero\n      tag_342\n      jumpi\n        /* \"#utility.yul\":15080:15098   */\n      tag_343\n      tag_177\n      jump\t// in\n    tag_343:\n        /* \"#utility.yul\":14997:15100   */\n    tag_342:\n        /* \"#utility.yul\":15127:15128   */\n      0x01\n        /* \"#utility.yul\":15120:15125   */\n      dup3\n        /* \"#utility.yul\":15116:15129   */\n      add\n        /* \"#utility.yul\":15109:15129   */\n      swap1\n      pop\n        /* \"#utility.yul\":14902:15135   */\n      swap2\n      swap1\n      pop\n      jump\t// out\n        /* \"#utility.yul\":15141:15289   */\n    tag_178:\n        /* \"#utility.yul\":15243:15254   */\n      0x00\n        /* \"#utility.yul\":15280:15283   */\n      dup2\n        /* \"#utility.yul\":15265:15283   */\n      swap1\n      pop\n        /* \"#utility.yul\":15141:15289   */\n      swap3\n      swap2\n      pop\n      pop\n      jump\t// out\n        /* \"#utility.yul\":15319:15636   */\n    tag_179:\n        /* \"#utility.yul\":15435:15438   */\n      0x00\n        /* \"#utility.yul\":15456:15545   */\n      tag_346\n        /* \"#utility.yul\":15538:15544   */\n      dup4\n        /* \"#utility.yul\":15533:15536   */\n      dup6\n        /* \"#utility.yul\":15456:15545   */\n      tag_178\n      jump\t// in\n    tag_346:\n        /* \"#utility.yul\":15449:15545   */\n      swap4\n      pop\n        /* \"#utility.yul\":15555:15598   */\n      tag_347\n        /* \"#utility.yul\":15591:15597   */\n      dup4\n        /* \"#utility.yul\":15586:15589   */\n      dup6\n        /* \"#utility.yul\":15579:15584   */\n      dup5\n        /* \"#utility.yul\":15555:15598   */\n      tag_143\n      jump\t// in\n    tag_347:\n        /* \"#utility.yul\":15623:15629   */\n      dup3\n        /* \"#utility.yul\":15618:15621   */\n      dup5\n        /* \"#utility.yul\":15614:15630   */\n      add\n        /* \"#utility.yul\":15607:15630   */\n      swap1\n      pop\n        /* \"#utility.yul\":15319:15636   */\n      swap4\n      swap3\n      pop\n      pop\n      pop\n      jump\t// out\n        /* \"#utility.yul\":15642:15937   */\n    tag_101:\n        /* \"#utility.yul\":15784:15787   */\n      0x00\n        /* \"#utility.yul\":15806:15911   */\n      tag_349\n        /* \"#utility.yul\":15907:15910   */\n      dup3\n        /* \"#utility.yul\":15898:15904   */\n      dup5\n        /* \"#utility.yul\":15890:15896   */\n      dup7\n        /* \"#utility.yul\":15806:15911   */\n      tag_179\n      jump\t// in\n    tag_349:\n        /* \"#utility.yul\":15799:15911   */\n      swap2\n      pop\n        /* \"#utility.yul\":15928:15931   */\n      dup2\n        /* \"#utility.yul\":15921:15931   */\n      swap1\n      pop\n        /* \"#utility.yul\":15642:15937   */\n      swap4\n      swap3\n      pop\n      pop\n      pop\n      jump\t// out\n        /* \"#utility.yul\":15943:16167   */\n    tag_180:\n        /* \"#utility.yul\":16083:16117   */\n      0x4f6e6c7920746865206f776e65722063616e2063616c6c20746869732066756e\n        /* \"#utility.yul\":16079:16080   */\n      0x00\n        /* \"#utility.yul\":16071:16077   */\n      dup3\n        /* \"#utility.yul\":16067:16081   */\n      add\n        /* \"#utility.yul\":16060:16118   */\n      mstore\n        /* \"#utility.yul\":16152:16159   */\n      0x6374696f6e000000000000000000000000000000000000000000000000000000\n        /* \"#utility.yul\":16147:16149   */\n      0x20\n        /* \"#utility.yul\":16139:16145   */\n      dup3\n        /* \"#utility.yul\":16135:16150   */\n      add\n        /* \"#utility.yul\":16128:16160   */\n      mstore\n        /* \"#utility.yul\":15943:16167   */\n      pop\n      jump\t// out\n        /* \"#utility.yul\":16173:16539   */\n    tag_181:\n        /* \"#utility.yul\":16315:16318   */\n      0x00\n        /* \"#utility.yul\":16336:16403   */\n      tag_352\n        /* \"#utility.yul\":16400:16402   */\n      0x25\n        /* \"#utility.yul\":16395:16398   */\n      dup4\n        /* \"#utility.yul\":16336:16403   */\n      tag_167\n      jump\t// in\n    tag_352:\n        /* \"#utility.yul\":16329:16403   */\n      swap2\n      pop\n        /* \"#utility.yul\":16412:16505   */\n      tag_353\n        /* \"#utility.yul\":16501:16504   */\n      dup3\n        /* \"#utility.yul\":16412:16505   */\n      tag_180\n      jump\t// in\n    tag_353:\n        /* \"#utility.yul\":16530:16532   */\n      0x40\n        /* \"#utility.yul\":16525:16528   */\n      dup3\n        /* \"#utility.yul\":16521:16533   */\n      add\n        /* \"#utility.yul\":16514:16533   */\n      swap1\n      pop\n        /* \"#utility.yul\":16173:16539   */\n      swap2\n      swap1\n      pop\n      jump\t// out\n        /* \"#utility.yul\":16545:16964   */\n    tag_107:\n        /* \"#utility.yul\":16711:16715   */\n      0x00\n        /* \"#utility.yul\":16749:16751   */\n      0x20\n        /* \"#utility.yul\":16738:16747   */\n      dup3\n        /* \"#utility.yul\":16734:16752   */\n      add\n        /* \"#utility.yul\":16726:16752   */\n      swap1\n      pop\n        /* \"#utility.yul\":16798:16807   */\n      dup2\n        /* \"#utility.yul\":16792:16796   */\n      dup2\n        /* \"#utility.yul\":16788:16808   */\n      sub\n        /* \"#utility.yul\":16784:16785   */\n      0x00\n        /* \"#utility.yul\":16773:16782   */\n      dup4\n        /* \"#utility.yul\":16769:16786   */\n      add\n        /* \"#utility.yul\":16762:16809   */\n      mstore\n        /* \"#utility.yul\":16826:16957   */\n      tag_355\n        /* \"#utility.yul\":16952:16956   */\n      dup2\n        /* \"#utility.yul\":16826:16957   */\n      tag_181\n      jump\t// in\n    tag_355:\n        /* \"#utility.yul\":16818:16957   */\n      swap1\n      pop\n        /* \"#utility.yul\":16545:16964   */\n      swap2\n      swap1\n      pop\n      jump\t// out\n        /* \"#utility.yul\":16970:17412   */\n    tag_111:\n        /* \"#utility.yul\":17119:17123   */\n      0x00\n        /* \"#utility.yul\":17157:17159   */\n      0x60\n        /* \"#utility.yul\":17146:17155   */\n      dup3\n        /* \"#utility.yul\":17142:17160   */\n      add\n        /* \"#utility.yul\":17134:17160   */\n      swap1\n      pop\n        /* \"#utility.yul\":17170:17241   */\n      tag_357\n        /* \"#utility.yul\":17238:17239   */\n      0x00\n        /* \"#utility.yul\":17227:17236   */\n      dup4\n        /* \"#utility.yul\":17223:17240   */\n      add\n        /* \"#utility.yul\":17214:17220   */\n      dup7\n        /* \"#utility.yul\":17170:17241   */\n      tag_166\n      jump\t// in\n    tag_357:\n        /* \"#utility.yul\":17251:17323   */\n      tag_358\n        /* \"#utility.yul\":17319:17321   */\n      0x20\n        /* \"#utility.yul\":17308:17317   */\n      dup4\n        /* \"#utility.yul\":17304:17322   */\n      add\n        /* \"#utility.yul\":17295:17301   */\n      dup6\n        /* \"#utility.yul\":17251:17323   */\n      tag_166\n      jump\t// in\n    tag_358:\n        /* \"#utility.yul\":17333:17405   */\n      tag_359\n        /* \"#utility.yul\":17401:17403   */\n      0x40\n        /* \"#utility.yul\":17390:17399   */\n      dup4\n        /* \"#utility.yul\":17386:17404   */\n      add\n        /* \"#utility.yul\":17377:17383   */\n      dup5\n        /* \"#utility.yul\":17333:17405   */\n      tag_132\n      jump\t// in\n    tag_359:\n        /* \"#utility.yul\":16970:17412   */\n      swap5\n      swap4\n      pop\n      pop\n      pop\n      pop\n      jump\t// out\n        /* \"#utility.yul\":17418:17534   */\n    tag_182:\n        /* \"#utility.yul\":17488:17509   */\n      tag_361\n        /* \"#utility.yul\":17503:17508   */\n      dup2\n        /* \"#utility.yul\":17488:17509   */\n      tag_150\n      jump\t// in\n    tag_361:\n        /* \"#utility.yul\":17481:17486   */\n      dup2\n        /* \"#utility.yul\":17478:17510   */\n      eq\n        /* \"#utility.yul\":17468:17528   */\n      tag_362\n      jumpi\n        /* \"#utility.yul\":17524:17525   */\n      0x00\n        /* \"#utility.yul\":17521:17522   */\n      dup1\n        /* \"#utility.yul\":17514:17526   */\n      revert\n        /* \"#utility.yul\":17468:17528   */\n    tag_362:\n        /* \"#utility.yul\":17418:17534   */\n      pop\n      jump\t// out\n        /* \"#utility.yul\":17540:17677   */\n    tag_183:\n        /* \"#utility.yul\":17594:17599   */\n      0x00\n        /* \"#utility.yul\":17625:17631   */\n      dup2\n        /* \"#utility.yul\":17619:17632   */\n      mload\n        /* \"#utility.yul\":17610:17632   */\n      swap1\n      pop\n        /* \"#utility.yul\":17641:17671   */\n      tag_364\n        /* \"#utility.yul\":17665:17670   */\n      dup2\n        /* \"#utility.yul\":17641:17671   */\n      tag_182\n      jump\t// in\n    tag_364:\n        /* \"#utility.yul\":17540:17677   */\n      swap3\n      swap2\n      pop\n      pop\n      jump\t// out\n        /* \"#utility.yul\":17683:18028   */\n    tag_115:\n        /* \"#utility.yul\":17750:17756   */\n      0x00\n        /* \"#utility.yul\":17799:17801   */\n      0x20\n        /* \"#utility.yul\":17787:17796   */\n      dup3\n        /* \"#utility.yul\":17778:17785   */\n      dup5\n        /* \"#utility.yul\":17774:17797   */\n      sub\n        /* \"#utility.yul\":17770:17802   */\n      slt\n        /* \"#utility.yul\":17767:17886   */\n      iszero\n      tag_366\n      jumpi\n        /* \"#utility.yul\":17805:17884   */\n      tag_367\n      tag_134\n      jump\t// in\n    tag_367:\n        /* \"#utility.yul\":17767:17886   */\n    tag_366:\n        /* \"#utility.yul\":17925:17926   */\n      0x00\n        /* \"#utility.yul\":17950:18011   */\n      tag_368\n        /* \"#utility.yul\":18003:18010   */\n      dup5\n        /* \"#utility.yul\":17994:18000   */\n      dup3\n        /* \"#utility.yul\":17983:17992   */\n      dup6\n        /* \"#utility.yul\":17979:18001   */\n      add\n        /* \"#utility.yul\":17950:18011   */\n      tag_183\n      jump\t// in\n    tag_368:\n        /* \"#utility.yul\":17940:18011   */\n      swap2\n      pop\n        /* \"#utility.yul\":17896:18021   */\n      pop\n        /* \"#utility.yul\":17683:18028   */\n      swap3\n      swap2\n      pop\n      pop\n      jump\t// out\n        /* \"#utility.yul\":18034:18366   */\n    tag_117:\n        /* \"#utility.yul\":18155:18159   */\n      0x00\n        /* \"#utility.yul\":18193:18195   */\n      0x40\n        /* \"#utility.yul\":18182:18191   */\n      dup3\n        /* \"#utility.yul\":18178:18196   */\n      add\n        /* \"#utility.yul\":18170:18196   */\n      swap1\n      pop\n        /* \"#utility.yul\":18206:18277   */\n      tag_370\n        /* \"#utility.yul\":18274:18275   */\n      0x00\n        /* \"#utility.yul\":18263:18272   */\n      dup4\n        /* \"#utility.yul\":18259:18276   */\n      add\n        /* \"#utility.yul\":18250:18256   */\n      dup6\n        /* \"#utility.yul\":18206:18277   */\n      tag_166\n      jump\t// in\n    tag_370:\n        /* \"#utility.yul\":18287:18359   */\n      tag_371\n        /* \"#utility.yul\":18355:18357   */\n      0x20\n        /* \"#utility.yul\":18344:18353   */\n      dup4\n        /* \"#utility.yul\":18340:18358   */\n      add\n        /* \"#utility.yul\":18331:18337   */\n      dup5\n        /* \"#utility.yul\":18287:18359   */\n      tag_132\n      jump\t// in\n    tag_371:\n        /* \"#utility.yul\":18034:18366   */\n      swap4\n      swap3\n      pop\n      pop\n      pop\n      jump\t// out\n\n    auxdata: 0xa2646970667358221220783e3985b4c62f900457cf99fcbdc09a8d4eb0619396d07db2106de0ae7e1fa764736f6c634300080a0033\n}\n",
				"bytecode": {
					"linkReferences": {},
					"object": "60806040523480156200001157600080fd5b506040516200172538038062001725833981810160405281019062000037919062000180565b336000806101000a81548173ffffffffffffffffffffffffffffffffffffffff021916908373ffffffffffffffffffffffffffffffffffffffff1602179055508160018190555080600660006101000a81548173ffffffffffffffffffffffffffffffffffffffff021916908373ffffffffffffffffffffffffffffffffffffffff1602179055505050620001c7565b600080fd5b6000819050919050565b620000e181620000cc565b8114620000ed57600080fd5b50565b6000815190506200010181620000d6565b92915050565b600073ffffffffffffffffffffffffffffffffffffffff82169050919050565b6000620001348262000107565b9050919050565b6000620001488262000127565b9050919050565b6200015a816200013b565b81146200016657600080fd5b50565b6000815190506200017a816200014f565b92915050565b600080604083850312156200019a5762000199620000c7565b5b6000620001aa85828601620000f0565b9250506020620001bd8582860162000169565b9150509250929050565b61154e80620001d76000396000f3fe608060405234801561001057600080fd5b50600436106100cf5760003560e01c80637ccb24e91161008c5780639ae631d6116100665780639ae631d61461023c578063c320c7271461026c578063dbdf0c2114610288578063e0f6ef8714610292576100cf565b80637ccb24e9146101d05780638c96091b146102025780638da5cb5b1461021e576100cf565b806314c44e09146100d457806315bcabab146100f2578063605f9998146101225780637222e9e31461015257806376bc59ec1461017057806379a85e6c146101a0575b600080fd5b6100dc6102b0565b6040516100e99190610b84565b60405180910390f35b61010c60048036038101906101079190610cf9565b6102b6565b6040516101199190610b84565b60405180910390f35b61013c60048036038101906101379190610da0565b6102e4565b6040516101499190610de8565b60405180910390f35b61015a61033a565b6040516101679190610e62565b60405180910390f35b61018a60048036038101906101859190610da0565b610360565b6040516101979190610de8565b60405180910390f35b6101ba60048036038101906101b59190610ea9565b610380565b6040516101c79190610fcc565b60405180910390f35b6101ea60048036038101906101e59190610ea9565b610545565b6040516101f993929190611047565b60405180910390f35b61021c600480360381019061021791906110e5565b610617565b005b6102266107e2565b6040516102339190611145565b60405180910390f35b61025660048036038101906102519190611160565b610806565b6040516102639190610b84565b60405180910390f35b61028660048036038101906102819190610ea9565b610831565b005b6102906108c9565b005b61029a610a8b565b6040516102a79190610b84565b60405180910390f35b60015481565b6004818051602081018201805184825260208301602085012081835280955050505050506000915090505481565b6000600260008373ffffffffffffffffffffffffffffffffffffffff1673ffffffffffffffffffffffffffffffffffffffff16815260200190815260200160002060009054906101000a900460ff169050919050565b600660009054906101000a900473ffffffffffffffffffffffffffffffffffffffff1681565b60026020528060005260406000206000915054906101000a900460ff1681565b610388610a91565b600073ffffffffffffffffffffffffffffffffffffffff166003600084815260200190815260200160002060000160009054906101000a900473ffffffffffffffffffffffffffffffffffffffff1673ffffffffffffffffffffffffffffffffffffffff16141561042e576040517f08c379a0000000000000000000000000000000000000000000000000000000008152600401610425906111f9565b60405180910390fd5b600360008381526020019081526020016000206040518060600160405290816000820160009054906101000a900473ffffffffffffffffffffffffffffffffffffffff1673ffffffffffffffffffffffffffffffffffffffff1673ffffffffffffffffffffffffffffffffffffffff1681526020016001820180546104b290611248565b80601f01602080910402602001604051908101604052809291908181526020018280546104de90611248565b801561052b5780601f106105005761010080835404028352916020019161052b565b820191906000526020600020905b81548152906001019060200180831161050e57829003601f168201915b505050505081526020016002820154815250509050919050565b60036020528060005260406000206000915090508060000160009054906101000a900473ffffffffffffffffffffffffffffffffffffffff169080600101805461058e90611248565b80601f01602080910402602001604051908101604052809291908181526020018280546105ba90611248565b80156106075780601f106105dc57610100808354040283529160200191610607565b820191906000526020600020905b8154815290600101906020018083116105ea57829003601f168201915b5050505050908060020154905083565b600260003373ffffffffffffffffffffffffffffffffffffffff1673ffffffffffffffffffffffffffffffffffffffff16815260200190815260200160002060009054906101000a900460ff166106a3576040517f08c379a000000000000000000000000000000000000000000000000000000000815260040161069a906112ec565b60405180910390fd5b600560008154809291906106b69061133b565b919050555060405180606001604052803373ffffffffffffffffffffffffffffffffffffffff16815260200184848080601f016020809104026020016040519081016040528093929190818152602001838380828437600081840152601f19601f8201169050808301925050505050505081526020018281525060036000600554815260200190815260200160002060008201518160000160006101000a81548173ffffffffffffffffffffffffffffffffffffffff021916908373ffffffffffffffffffffffffffffffffffffffff16021790555060208201518160010190805190602001906107a8929190610ac8565b5060408201518160020155905050600554600484846040516107cb9291906113b4565b908152602001604051809103902081905550505050565b60008054906101000a900473ffffffffffffffffffffffffffffffffffffffff1681565b60006004838360405161081a9291906113b4565b908152602001604051809103902054905092915050565b60008054906101000a900473ffffffffffffffffffffffffffffffffffffffff1673ffffffffffffffffffffffffffffffffffffffff163373ffffffffffffffffffffffffffffffffffffffff16146108bf576040517f08c379a00000000000000000000000000000000000000000000000000000000081526004016108b69061143f565b60405180910390fd5b8060018190555050565b600660009054906101000a900473ffffffffffffffffffffffffffffffffffffffff1673ffffffffffffffffffffffffffffffffffffffff166323b872dd33306001546040518463ffffffff1660e01b815260040161092a9392919061145f565b6020604051808303816000875af1158015610949573d6000803e3d6000fd5b505050506040513d601f19601f8201168201806040525081019061096d91906114c2565b50600660009054906101000a900473ffffffffffffffffffffffffffffffffffffffff1673ffffffffffffffffffffffffffffffffffffffff1663a9059cbb60008054906101000a900473ffffffffffffffffffffffffffffffffffffffff166001546040518363ffffffff1660e01b81526004016109ed9291906114ef565b6020604051808303816000875af1158015610a0c573d6000803e3d6000fd5b505050506040513d601f19601f82011682018060405250810190610a3091906114c2565b506001600260003373ffffffffffffffffffffffffffffffffffffffff1673ffffffffffffffffffffffffffffffffffffffff16815260200190815260200160002060006101000a81548160ff021916908315150217905550565b60055481565b6040518060600160405280600073ffffffffffffffffffffffffffffffffffffffff16815260200160608152602001600081525090565b828054610ad490611248565b90600052602060002090601f016020900481019282610af65760008555610b3d565b82601f10610b0f57805160ff1916838001178555610b3d565b82800160010185558215610b3d579182015b82811115610b3c578251825591602001919060010190610b21565b5b509050610b4a9190610b4e565b5090565b5b80821115610b67576000816000905550600101610b4f565b5090565b6000819050919050565b610b7e81610b6b565b82525050565b6000602082019050610b996000830184610b75565b92915050565b6000604051905090565b600080fd5b600080fd5b600080fd5b600080fd5b6000601f19601f8301169050919050565b7f4e487b7100000000000000000000000000000000000000000000000000000000600052604160045260246000fd5b610c0682610bbd565b810181811067ffffffffffffffff82111715610c2557610c24610bce565b5b80604052505050565b6000610c38610b9f565b9050610c448282610bfd565b919050565b600067ffffffffffffffff821115610c6457610c63610bce565b5b610c6d82610bbd565b9050602081019050919050565b82818337600083830152505050565b6000610c9c610c9784610c49565b610c2e565b905082815260208101848484011115610cb857610cb7610bb8565b5b610cc3848285610c7a565b509392505050565b600082601f830112610ce057610cdf610bb3565b5b8135610cf0848260208601610c89565b91505092915050565b600060208284031215610d0f57610d0e610ba9565b5b600082013567ffffffffffffffff811115610d2d57610d2c610bae565b5b610d3984828501610ccb565b91505092915050565b600073ffffffffffffffffffffffffffffffffffffffff82169050919050565b6000610d6d82610d42565b9050919050565b610d7d81610d62565b8114610d8857600080fd5b50565b600081359050610d9a81610d74565b92915050565b600060208284031215610db657610db5610ba9565b5b6000610dc484828501610d8b565b91505092915050565b60008115159050919050565b610de281610dcd565b82525050565b6000602082019050610dfd6000830184610dd9565b92915050565b6000819050919050565b6000610e28610e23610e1e84610d42565b610e03565b610d42565b9050919050565b6000610e3a82610e0d565b9050919050565b6000610e4c82610e2f565b9050919050565b610e5c81610e41565b82525050565b6000602082019050610e776000830184610e53565b92915050565b610e8681610b6b565b8114610e9157600080fd5b50565b600081359050610ea381610e7d565b92915050565b600060208284031215610ebf57610ebe610ba9565b5b6000610ecd84828501610e94565b91505092915050565b610edf81610d62565b82525050565b600081519050919050565b600082825260208201905092915050565b60005b83811015610f1f578082015181840152602081019050610f04565b83811115610f2e576000848401525b50505050565b6000610f3f82610ee5565b610f498185610ef0565b9350610f59818560208601610f01565b610f6281610bbd565b840191505092915050565b610f7681610b6b565b82525050565b6000606083016000830151610f946000860182610ed6565b5060208301518482036020860152610fac8282610f34565b9150506040830151610fc16040860182610f6d565b508091505092915050565b60006020820190508181036000830152610fe68184610f7c565b905092915050565b610ff781610d62565b82525050565b600082825260208201905092915050565b600061101982610ee5565b6110238185610ffd565b9350611033818560208601610f01565b61103c81610bbd565b840191505092915050565b600060608201905061105c6000830186610fee565b818103602083015261106e818561100e565b905061107d6040830184610b75565b949350505050565b600080fd5b600080fd5b60008083601f8401126110a5576110a4610bb3565b5b8235905067ffffffffffffffff8111156110c2576110c1611085565b5b6020830191508360018202830111156110de576110dd61108a565b5b9250929050565b6000806000604084860312156110fe576110fd610ba9565b5b600084013567ffffffffffffffff81111561111c5761111b610bae565b5b6111288682870161108f565b9350935050602061113b86828701610e94565b9150509250925092565b600060208201905061115a6000830184610fee565b92915050565b6000806020838503121561117757611176610ba9565b5b600083013567ffffffffffffffff81111561119557611194610bae565b5b6111a18582860161108f565b92509250509250929050565b7f50726f64756374206e6f74207265676973746572656400000000000000000000600082015250565b60006111e3601683610ffd565b91506111ee826111ad565b602082019050919050565b60006020820190508181036000830152611212816111d6565b9050919050565b7f4e487b7100000000000000000000000000000000000000000000000000000000600052602260045260246000fd5b6000600282049050600182168061126057607f821691505b6020821081141561127457611273611219565b5b50919050565b7f4f6e6c7920726567697374657265642070726f6475636572732063616e20636160008201527f6c6c20746869732066756e6374696f6e00000000000000000000000000000000602082015250565b60006112d6603083610ffd565b91506112e18261127a565b604082019050919050565b60006020820190508181036000830152611305816112c9565b9050919050565b7f4e487b7100000000000000000000000000000000000000000000000000000000600052601160045260246000fd5b600061134682610b6b565b91507fffffffffffffffffffffffffffffffffffffffffffffffffffffffffffffffff8214156113795761137861130c565b5b600182019050919050565b600081905092915050565b600061139b8385611384565b93506113a8838584610c7a565b82840190509392505050565b60006113c182848661138f565b91508190509392505050565b7f4f6e6c7920746865206f776e65722063616e2063616c6c20746869732066756e60008201527f6374696f6e000000000000000000000000000000000000000000000000000000602082015250565b6000611429602583610ffd565b9150611434826113cd565b604082019050919050565b600060208201905081810360008301526114588161141c565b9050919050565b60006060820190506114746000830186610fee565b6114816020830185610fee565b61148e6040830184610b75565b949350505050565b61149f81610dcd565b81146114aa57600080fd5b50565b6000815190506114bc81611496565b92915050565b6000602082840312156114d8576114d7610ba9565b5b60006114e6848285016114ad565b91505092915050565b60006040820190506115046000830185610fee565b6115116020830184610b75565b939250505056fea2646970667358221220783e3985b4c62f900457cf99fcbdc09a8d4eb0619396d07db2106de0ae7e1fa764736f6c634300080a0033",
					"opcodes": "PUSH1 0x80 PUSH1 0x40 MSTORE CALLVALUE DUP1 ISZERO PUSH3 0x11 JUMPI PUSH1 0x0 DUP1 REVERT JUMPDEST POP PUSH1 0x40 MLOAD PUSH3 0x1725 CODESIZE SUB DUP1 PUSH3 0x1725 DUP4 CODECOPY DUP2 DUP2 ADD PUSH1 0x40 MSTORE DUP2 ADD SWAP1 PUSH3 0x37 SWAP2 SWAP1 PUSH3 0x180 JUMP JUMPDEST CALLER PUSH1 0x0 DUP1 PUSH2 0x100 EXP DUP2 SLOAD DUP2 PUSH20 0xFFFFFFFFFFFFFFFFFFFFFFFFFFFFFFFFFFFFFFFF MUL NOT AND SWAP1 DUP4 PUSH20 0xFFFFFFFFFFFFFFFFFFFFFFFFFFFFFFFFFFFFFFFF AND MUL OR SWAP1 SSTORE POP DUP2 PUSH1 0x1 DUP2 SWAP1 SSTORE POP DUP1 PUSH1 0x6 PUSH1 0x0 PUSH2 0x100 EXP DUP2 SLOAD DUP2 PUSH20 0xFFFFFFFFFFFFFFFFFFFFFFFFFFFFFFFFFFFFFFFF MUL NOT AND SWAP1 DUP4 PUSH20 0xFFFFFFFFFFFFFFFFFFFFFFFFFFFFFFFFFFFFFFFF AND MUL OR SWAP1 SSTORE POP POP POP PUSH3 0x1C7 JUMP JUMPDEST PUSH1 0x0 DUP1 REVERT JUMPDEST PUSH1 0x0 DUP2 SWAP1 POP SWAP2 SWAP1 POP JUMP JUMPDEST PUSH3 0xE1 DUP2 PUSH3 0xCC JUMP JUMPDEST DUP2 EQ PUSH3 0xED JUMPI PUSH1 0x0 DUP1 REVERT JUMPDEST POP JUMP JUMPDEST PUSH1 0x0 DUP2 MLOAD SWAP1 POP PUSH3 0x101 DUP2 PUSH3 0xD6 JUMP JUMPDEST SWAP3 SWAP2 POP POP JUMP JUMPDEST PUSH1 0x0 PUSH20 0xFFFFFFFFFFFFFFFFFFFFFFFFFFFFFFFFFFFFFFFF DUP3 AND SWAP1 POP SWAP2 SWAP1 POP JUMP JUMPDEST PUSH1 0x0 PUSH3 0x134 DUP3 PUSH3 0x107 JUMP JUMPDEST SWAP1 POP SWAP2 SWAP1 POP JUMP JUMPDEST PUSH1 0x0 PUSH3 0x148 DUP3 PUSH3 0x127 JUMP JUMPDEST SWAP1 POP SWAP2 SWAP1 POP JUMP JUMPDEST PUSH3 0x15A DUP2 PUSH3 0x13B JUMP JUMPDEST DUP2 EQ PUSH3 0x166 JUMPI PUSH1 0x0 DUP1 REVERT JUMPDEST POP JUMP JUMPDEST PUSH1 0x0 DUP2 MLOAD SWAP1 POP PUSH3 0x17A DUP2 PUSH3 0x14F JUMP JUMPDEST SWAP3 SWAP2 POP POP JUMP JUMPDEST PUSH1 0x0 DUP1 PUSH1 0x40 DUP4 DUP6 SUB SLT ISZERO PUSH3 0x19A JUMPI PUSH3 0x199 PUSH3 0xC7 JUMP JUMPDEST JUMPDEST PUSH1 0x0 PUSH3 0x1AA DUP6 DUP3 DUP7 ADD PUSH3 0xF0 JUMP JUMPDEST SWAP3 POP POP PUSH1 0x20 PUSH3 0x1BD DUP6 DUP3 DUP7 ADD PUSH3 0x169 JUMP JUMPDEST SWAP2 POP POP SWAP3 POP SWAP3 SWAP1 POP JUMP JUMPDEST PUSH2 0x154E DUP1 PUSH3 0x1D7 PUSH1 0x0 CODECOPY PUSH1 0x0 RETURN INVALID PUSH1 0x80 PUSH1 0x40 MSTORE CALLVALUE DUP1 ISZERO PUSH2 0x10 JUMPI PUSH1 0x0 DUP1 REVERT JUMPDEST POP PUSH1 0x4 CALLDATASIZE LT PUSH2 0xCF JUMPI PUSH1 0x0 CALLDATALOAD PUSH1 0xE0 SHR DUP1 PUSH4 0x7CCB24E9 GT PUSH2 0x8C JUMPI DUP1 PUSH4 0x9AE631D6 GT PUSH2 0x66 JUMPI DUP1 PUSH4 0x9AE631D6 EQ PUSH2 0x23C JUMPI DUP1 PUSH4 0xC320C727 EQ PUSH2 0x26C JUMPI DUP1 PUSH4 0xDBDF0C21 EQ PUSH2 0x288 JUMPI DUP1 PUSH4 0xE0F6EF87 EQ PUSH2 0x292 JUMPI PUSH2 0xCF JUMP JUMPDEST DUP1 PUSH4 0x7CCB24E9 EQ PUSH2 0x1D0 JUMPI DUP1 PUSH4 0x8C96091B EQ PUSH2 0x202 JUMPI DUP1 PUSH4 0x8DA5CB5B EQ PUSH2 0x21E JUMPI PUSH2 0xCF JUMP JUMPDEST DUP1 PUSH4 0x14C44E09 EQ PUSH2 0xD4 JUMPI DUP1 PUSH4 0x15BCABAB EQ PUSH2 0xF2 JUMPI DUP1 PUSH4 0x605F9998 EQ PUSH2 0x122 JUMPI DUP1 PUSH4 0x7222E9E3 EQ PUSH2 0x152 JUMPI DUP1 PUSH4 0x76BC59EC EQ PUSH2 0x170 JUMPI DUP1 PUSH4 0x79A85E6C EQ PUSH2 0x1A0 JUMPI JUMPDEST PUSH1 0x0 DUP1 REVERT JUMPDEST PUSH2 0xDC PUSH2 0x2B0 JUMP JUMPDEST PUSH1 0x40 MLOAD PUSH2 0xE9 SWAP2 SWAP1 PUSH2 0xB84 JUMP JUMPDEST PUSH1 0x40 MLOAD DUP1 SWAP2 SUB SWAP1 RETURN JUMPDEST PUSH2 0x10C PUSH1 0x4 DUP1 CALLDATASIZE SUB DUP2 ADD SWAP1 PUSH2 0x107 SWAP2 SWAP1 PUSH2 0xCF9 JUMP JUMPDEST PUSH2 0x2B6 JUMP JUMPDEST PUSH1 0x40 MLOAD PUSH2 0x119 SWAP2 SWAP1 PUSH2 0xB84 JUMP JUMPDEST PUSH1 0x40 MLOAD DUP1 SWAP2 SUB SWAP1 RETURN JUMPDEST PUSH2 0x13C PUSH1 0x4 DUP1 CALLDATASIZE SUB DUP2 ADD SWAP1 PUSH2 0x137 SWAP2 SWAP1 PUSH2 0xDA0 JUMP JUMPDEST PUSH2 0x2E4 JUMP JUMPDEST PUSH1 0x40 MLOAD PUSH2 0x149 SWAP2 SWAP1 PUSH2 0xDE8 JUMP JUMPDEST PUSH1 0x40 MLOAD DUP1 SWAP2 SUB SWAP1 RETURN JUMPDEST PUSH2 0x15A PUSH2 0x33A JUMP JUMPDEST PUSH1 0x40 MLOAD PUSH2 0x167 SWAP2 SWAP1 PUSH2 0xE62 JUMP JUMPDEST PUSH1 0x40 MLOAD DUP1 SWAP2 SUB SWAP1 RETURN JUMPDEST PUSH2 0x18A PUSH1 0x4 DUP1 CALLDATASIZE SUB DUP2 ADD SWAP1 PUSH2 0x185 SWAP2 SWAP1 PUSH2 0xDA0 JUMP JUMPDEST PUSH2 0x360 JUMP JUMPDEST PUSH1 0x40 MLOAD PUSH2 0x197 SWAP2 SWAP1 PUSH2 0xDE8 JUMP JUMPDEST PUSH1 0x40 MLOAD DUP1 SWAP2 SUB SWAP1 RETURN JUMPDEST PUSH2 0x1BA PUSH1 0x4 DUP1 CALLDATASIZE SUB DUP2 ADD SWAP1 PUSH2 0x1B5 SWAP2 SWAP1 PUSH2 0xEA9 JUMP JUMPDEST PUSH2 0x380 JUMP JUMPDEST PUSH1 0x40 MLOAD PUSH2 0x1C7 SWAP2 SWAP1 PUSH2 0xFCC JUMP JUMPDEST PUSH1 0x40 MLOAD DUP1 SWAP2 SUB SWAP1 RETURN JUMPDEST PUSH2 0x1EA PUSH1 0x4 DUP1 CALLDATASIZE SUB DUP2 ADD SWAP1 PUSH2 0x1E5 SWAP2 SWAP1 PUSH2 0xEA9 JUMP JUMPDEST PUSH2 0x545 JUMP JUMPDEST PUSH1 0x40 MLOAD PUSH2 0x1F9 SWAP4 SWAP3 SWAP2 SWAP1 PUSH2 0x1047 JUMP JUMPDEST PUSH1 0x40 MLOAD DUP1 SWAP2 SUB SWAP1 RETURN JUMPDEST PUSH2 0x21C PUSH1 0x4 DUP1 CALLDATASIZE SUB DUP2 ADD SWAP1 PUSH2 0x217 SWAP2 SWAP1 PUSH2 0x10E5 JUMP JUMPDEST PUSH2 0x617 JUMP JUMPDEST STOP JUMPDEST PUSH2 0x226 PUSH2 0x7E2 JUMP JUMPDEST PUSH1 0x40 MLOAD PUSH2 0x233 SWAP2 SWAP1 PUSH2 0x1145 JUMP JUMPDEST PUSH1 0x40 MLOAD DUP1 SWAP2 SUB SWAP1 RETURN JUMPDEST PUSH2 0x256 PUSH1 0x4 DUP1 CALLDATASIZE SUB DUP2 ADD SWAP1 PUSH2 0x251 SWAP2 SWAP1 PUSH2 0x1160 JUMP JUMPDEST PUSH2 0x806 JUMP JUMPDEST PUSH1 0x40 MLOAD PUSH2 0x263 SWAP2 SWAP1 PUSH2 0xB84 JUMP JUMPDEST PUSH1 0x40 MLOAD DUP1 SWAP2 SUB SWAP1 RETURN JUMPDEST PUSH2 0x286 PUSH1 0x4 DUP1 CALLDATASIZE SUB DUP2 ADD SWAP1 PUSH2 0x281 SWAP2 SWAP1 PUSH2 0xEA9 JUMP JUMPDEST PUSH2 0x831 JUMP JUMPDEST STOP JUMPDEST PUSH2 0x290 PUSH2 0x8C9 JUMP JUMPDEST STOP JUMPDEST PUSH2 0x29A PUSH2 0xA8B JUMP JUMPDEST PUSH1 0x40 MLOAD PUSH2 0x2A7 SWAP2 SWAP1 PUSH2 0xB84 JUMP JUMPDEST PUSH1 0x40 MLOAD DUP1 SWAP2 SUB SWAP1 RETURN JUMPDEST PUSH1 0x1 SLOAD DUP2 JUMP JUMPDEST PUSH1 0x4 DUP2 DUP1 MLOAD PUSH1 0x20 DUP2 ADD DUP3 ADD DUP1 MLOAD DUP5 DUP3 MSTORE PUSH1 0x20 DUP4 ADD PUSH1 0x20 DUP6 ADD KECCAK256 DUP2 DUP4 MSTORE DUP1 SWAP6 POP POP POP POP POP POP PUSH1 0x0 SWAP2 POP SWAP1 POP SLOAD DUP2 JUMP JUMPDEST PUSH1 0x0 PUSH1 0x2 PUSH1 0x0 DUP4 PUSH20 0xFFFFFFFFFFFFFFFFFFFFFFFFFFFFFFFFFFFFFFFF AND PUSH20 0xFFFFFFFFFFFFFFFFFFFFFFFFFFFFFFFFFFFFFFFF AND DUP2 MSTORE PUSH1 0x20 ADD SWAP1 DUP2 MSTORE PUSH1 0x20 ADD PUSH1 0x0 KECCAK256 PUSH1 0x0 SWAP1 SLOAD SWAP1 PUSH2 0x100 EXP SWAP1 DIV PUSH1 0xFF AND SWAP1 POP SWAP2 SWAP1 POP JUMP JUMPDEST PUSH1 0x6 PUSH1 0x0 SWAP1 SLOAD SWAP1 PUSH2 0x100 EXP SWAP1 DIV PUSH20 0xFFFFFFFFFFFFFFFFFFFFFFFFFFFFFFFFFFFFFFFF AND DUP2 JUMP JUMPDEST PUSH1 0x2 PUSH1 0x20 MSTORE DUP1 PUSH1 0x0 MSTORE PUSH1 0x40 PUSH1 0x0 KECCAK256 PUSH1 0x0 SWAP2 POP SLOAD SWAP1 PUSH2 0x100 EXP SWAP1 DIV PUSH1 0xFF AND DUP2 JUMP JUMPDEST PUSH2 0x388 PUSH2 0xA91 JUMP JUMPDEST PUSH1 0x0 PUSH20 0xFFFFFFFFFFFFFFFFFFFFFFFFFFFFFFFFFFFFFFFF AND PUSH1 0x3 PUSH1 0x0 DUP5 DUP2 MSTORE PUSH1 0x20 ADD SWAP1 DUP2 MSTORE PUSH1 0x20 ADD PUSH1 0x0 KECCAK256 PUSH1 0x0 ADD PUSH1 0x0 SWAP1 SLOAD SWAP1 PUSH2 0x100 EXP SWAP1 DIV PUSH20 0xFFFFFFFFFFFFFFFFFFFFFFFFFFFFFFFFFFFFFFFF AND PUSH20 0xFFFFFFFFFFFFFFFFFFFFFFFFFFFFFFFFFFFFFFFF AND EQ ISZERO PUSH2 0x42E JUMPI PUSH1 0x40 MLOAD PUSH32 0x8C379A000000000000000000000000000000000000000000000000000000000 DUP2 MSTORE PUSH1 0x4 ADD PUSH2 0x425 SWAP1 PUSH2 0x11F9 JUMP JUMPDEST PUSH1 0x40 MLOAD DUP1 SWAP2 SUB SWAP1 REVERT JUMPDEST PUSH1 0x3 PUSH1 0x0 DUP4 DUP2 MSTORE PUSH1 0x20 ADD SWAP1 DUP2 MSTORE PUSH1 0x20 ADD PUSH1 0x0 KECCAK256 PUSH1 0x40 MLOAD DUP1 PUSH1 0x60 ADD PUSH1 0x40 MSTORE SWAP1 DUP2 PUSH1 0x0 DUP3 ADD PUSH1 0x0 SWAP1 SLOAD SWAP1 PUSH2 0x100 EXP SWAP1 DIV PUSH20 0xFFFFFFFFFFFFFFFFFFFFFFFFFFFFFFFFFFFFFFFF AND PUSH20 0xFFFFFFFFFFFFFFFFFFFFFFFFFFFFFFFFFFFFFFFF AND PUSH20 0xFFFFFFFFFFFFFFFFFFFFFFFFFFFFFFFFFFFFFFFF AND DUP2 MSTORE PUSH1 0x20 ADD PUSH1 0x1 DUP3 ADD DUP1 SLOAD PUSH2 0x4B2 SWAP1 PUSH2 0x1248 JUMP JUMPDEST DUP1 PUSH1 0x1F ADD PUSH1 0x20 DUP1 SWAP2 DIV MUL PUSH1 0x20 ADD PUSH1 0x40 MLOAD SWAP1 DUP2 ADD PUSH1 0x40 MSTORE DUP1 SWAP3 SWAP2 SWAP1 DUP2 DUP2 MSTORE PUSH1 0x20 ADD DUP3 DUP1 SLOAD PUSH2 0x4DE SWAP1 PUSH2 0x1248 JUMP JUMPDEST DUP1 ISZERO PUSH2 0x52B JUMPI DUP1 PUSH1 0x1F LT PUSH2 0x500 JUMPI PUSH2 0x100 DUP1 DUP4 SLOAD DIV MUL DUP4 MSTORE SWAP2 PUSH1 0x20 ADD SWAP2 PUSH2 0x52B JUMP JUMPDEST DUP3 ADD SWAP2 SWAP1 PUSH1 0x0 MSTORE PUSH1 0x20 PUSH1 0x0 KECCAK256 SWAP1 JUMPDEST DUP2 SLOAD DUP2 MSTORE SWAP1 PUSH1 0x1 ADD SWAP1 PUSH1 0x20 ADD DUP1 DUP4 GT PUSH2 0x50E JUMPI DUP3 SWAP1 SUB PUSH1 0x1F AND DUP3 ADD SWAP2 JUMPDEST POP POP POP POP POP DUP2 MSTORE PUSH1 0x20 ADD PUSH1 0x2 DUP3 ADD SLOAD DUP2 MSTORE POP POP SWAP1 POP SWAP2 SWAP1 POP JUMP JUMPDEST PUSH1 0x3 PUSH1 0x20 MSTORE DUP1 PUSH1 0x0 MSTORE PUSH1 0x40 PUSH1 0x0 KECCAK256 PUSH1 0x0 SWAP2 POP SWAP1 POP DUP1 PUSH1 0x0 ADD PUSH1 0x0 SWAP1 SLOAD SWAP1 PUSH2 0x100 EXP SWAP1 DIV PUSH20 0xFFFFFFFFFFFFFFFFFFFFFFFFFFFFFFFFFFFFFFFF AND SWAP1 DUP1 PUSH1 0x1 ADD DUP1 SLOAD PUSH2 0x58E SWAP1 PUSH2 0x1248 JUMP JUMPDEST DUP1 PUSH1 0x1F ADD PUSH1 0x20 DUP1 SWAP2 DIV MUL PUSH1 0x20 ADD PUSH1 0x40 MLOAD SWAP1 DUP2 ADD PUSH1 0x40 MSTORE DUP1 SWAP3 SWAP2 SWAP1 DUP2 DUP2 MSTORE PUSH1 0x20 ADD DUP3 DUP1 SLOAD PUSH2 0x5BA SWAP1 PUSH2 0x1248 JUMP JUMPDEST DUP1 ISZERO PUSH2 0x607 JUMPI DUP1 PUSH1 0x1F LT PUSH2 0x5DC JUMPI PUSH2 0x100 DUP1 DUP4 SLOAD DIV MUL DUP4 MSTORE SWAP2 PUSH1 0x20 ADD SWAP2 PUSH2 0x607 JUMP JUMPDEST DUP3 ADD SWAP2 SWAP1 PUSH1 0x0 MSTORE PUSH1 0x20 PUSH1 0x0 KECCAK256 SWAP1 JUMPDEST DUP2 SLOAD DUP2 MSTORE SWAP1 PUSH1 0x1 ADD SWAP1 PUSH1 0x20 ADD DUP1 DUP4 GT PUSH2 0x5EA JUMPI DUP3 SWAP1 SUB PUSH1 0x1F AND DUP3 ADD SWAP2 JUMPDEST POP POP POP POP POP SWAP1 DUP1 PUSH1 0x2 ADD SLOAD SWAP1 POP DUP4 JUMP JUMPDEST PUSH1 0x2 PUSH1 0x0 CALLER PUSH20 0xFFFFFFFFFFFFFFFFFFFFFFFFFFFFFFFFFFFFFFFF AND PUSH20 0xFFFFFFFFFFFFFFFFFFFFFFFFFFFFFFFFFFFFFFFF AND DUP2 MSTORE PUSH1 0x20 ADD SWAP1 DUP2 MSTORE PUSH1 0x20 ADD PUSH1 0x0 KECCAK256 PUSH1 0x0 SWAP1 SLOAD SWAP1 PUSH2 0x100 EXP SWAP1 DIV PUSH1 0xFF AND PUSH2 0x6A3 JUMPI PUSH1 0x40 MLOAD PUSH32 0x8C379A000000000000000000000000000000000000000000000000000000000 DUP2 MSTORE PUSH1 0x4 ADD PUSH2 0x69A SWAP1 PUSH2 0x12EC JUMP JUMPDEST PUSH1 0x40 MLOAD DUP1 SWAP2 SUB SWAP1 REVERT JUMPDEST PUSH1 0x5 PUSH1 0x0 DUP2 SLOAD DUP1 SWAP3 SWAP2 SWAP1 PUSH2 0x6B6 SWAP1 PUSH2 0x133B JUMP JUMPDEST SWAP2 SWAP1 POP SSTORE POP PUSH1 0x40 MLOAD DUP1 PUSH1 0x60 ADD PUSH1 0x40 MSTORE DUP1 CALLER PUSH20 0xFFFFFFFFFFFFFFFFFFFFFFFFFFFFFFFFFFFFFFFF AND DUP2 MSTORE PUSH1 0x20 ADD DUP5 DUP5 DUP1 DUP1 PUSH1 0x1F ADD PUSH1 0x20 DUP1 SWAP2 DIV MUL PUSH1 0x20 ADD PUSH1 0x40 MLOAD SWAP1 DUP2 ADD PUSH1 0x40 MSTORE DUP1 SWAP4 SWAP3 SWAP2 SWAP1 DUP2 DUP2 MSTORE PUSH1 0x20 ADD DUP4 DUP4 DUP1 DUP3 DUP5 CALLDATACOPY PUSH1 0x0 DUP2 DUP5 ADD MSTORE PUSH1 0x1F NOT PUSH1 0x1F DUP3 ADD AND SWAP1 POP DUP1 DUP4 ADD SWAP3 POP POP POP POP POP POP POP DUP2 MSTORE PUSH1 0x20 ADD DUP3 DUP2 MSTORE POP PUSH1 0x3 PUSH1 0x0 PUSH1 0x5 SLOAD DUP2 MSTORE PUSH1 0x20 ADD SWAP1 DUP2 MSTORE PUSH1 0x20 ADD PUSH1 0x0 KECCAK256 PUSH1 0x0 DUP3 ADD MLOAD DUP2 PUSH1 0x0 ADD PUSH1 0x0 PUSH2 0x100 EXP DUP2 SLOAD DUP2 PUSH20 0xFFFFFFFFFFFFFFFFFFFFFFFFFFFFFFFFFFFFFFFF MUL NOT AND SWAP1 DUP4 PUSH20 0xFFFFFFFFFFFFFFFFFFFFFFFFFFFFFFFFFFFFFFFF AND MUL OR SWAP1 SSTORE POP PUSH1 0x20 DUP3 ADD MLOAD DUP2 PUSH1 0x1 ADD SWAP1 DUP1 MLOAD SWAP1 PUSH1 0x20 ADD SWAP1 PUSH2 0x7A8 SWAP3 SWAP2 SWAP1 PUSH2 0xAC8 JUMP JUMPDEST POP PUSH1 0x40 DUP3 ADD MLOAD DUP2 PUSH1 0x2 ADD SSTORE SWAP1 POP POP PUSH1 0x5 SLOAD PUSH1 0x4 DUP5 DUP5 PUSH1 0x40 MLOAD PUSH2 0x7CB SWAP3 SWAP2 SWAP1 PUSH2 0x13B4 JUMP JUMPDEST SWAP1 DUP2 MSTORE PUSH1 0x20 ADD PUSH1 0x40 MLOAD DUP1 SWAP2 SUB SWAP1 KECCAK256 DUP2 SWAP1 SSTORE POP POP POP POP JUMP JUMPDEST PUSH1 0x0 DUP1 SLOAD SWAP1 PUSH2 0x100 EXP SWAP1 DIV PUSH20 0xFFFFFFFFFFFFFFFFFFFFFFFFFFFFFFFFFFFFFFFF AND DUP2 JUMP JUMPDEST PUSH1 0x0 PUSH1 0x4 DUP4 DUP4 PUSH1 0x40 MLOAD PUSH2 0x81A SWAP3 SWAP2 SWAP1 PUSH2 0x13B4 JUMP JUMPDEST SWAP1 DUP2 MSTORE PUSH1 0x20 ADD PUSH1 0x40 MLOAD DUP1 SWAP2 SUB SWAP1 KECCAK256 SLOAD SWAP1 POP SWAP3 SWAP2 POP POP JUMP JUMPDEST PUSH1 0x0 DUP1 SLOAD SWAP1 PUSH2 0x100 EXP SWAP1 DIV PUSH20 0xFFFFFFFFFFFFFFFFFFFFFFFFFFFFFFFFFFFFFFFF AND PUSH20 0xFFFFFFFFFFFFFFFFFFFFFFFFFFFFFFFFFFFFFFFF AND CALLER PUSH20 0xFFFFFFFFFFFFFFFFFFFFFFFFFFFFFFFFFFFFFFFF AND EQ PUSH2 0x8BF JUMPI PUSH1 0x40 MLOAD PUSH32 0x8C379A000000000000000000000000000000000000000000000000000000000 DUP2 MSTORE PUSH1 0x4 ADD PUSH2 0x8B6 SWAP1 PUSH2 0x143F JUMP JUMPDEST PUSH1 0x40 MLOAD DUP1 SWAP2 SUB SWAP1 REVERT JUMPDEST DUP1 PUSH1 0x1 DUP2 SWAP1 SSTORE POP POP JUMP JUMPDEST PUSH1 0x6 PUSH1 0x0 SWAP1 SLOAD SWAP1 PUSH2 0x100 EXP SWAP1 DIV PUSH20 0xFFFFFFFFFFFFFFFFFFFFFFFFFFFFFFFFFFFFFFFF AND PUSH20 0xFFFFFFFFFFFFFFFFFFFFFFFFFFFFFFFFFFFFFFFF AND PUSH4 0x23B872DD CALLER ADDRESS PUSH1 0x1 SLOAD PUSH1 0x40 MLOAD DUP5 PUSH4 0xFFFFFFFF AND PUSH1 0xE0 SHL DUP2 MSTORE PUSH1 0x4 ADD PUSH2 0x92A SWAP4 SWAP3 SWAP2 SWAP1 PUSH2 0x145F JUMP JUMPDEST PUSH1 0x20 PUSH1 0x40 MLOAD DUP1 DUP4 SUB DUP2 PUSH1 0x0 DUP8 GAS CALL ISZERO DUP1 ISZERO PUSH2 0x949 JUMPI RETURNDATASIZE PUSH1 0x0 DUP1 RETURNDATACOPY RETURNDATASIZE PUSH1 0x0 REVERT JUMPDEST POP POP POP POP PUSH1 0x40 MLOAD RETURNDATASIZE PUSH1 0x1F NOT PUSH1 0x1F DUP3 ADD AND DUP3 ADD DUP1 PUSH1 0x40 MSTORE POP DUP2 ADD SWAP1 PUSH2 0x96D SWAP2 SWAP1 PUSH2 0x14C2 JUMP JUMPDEST POP PUSH1 0x6 PUSH1 0x0 SWAP1 SLOAD SWAP1 PUSH2 0x100 EXP SWAP1 DIV PUSH20 0xFFFFFFFFFFFFFFFFFFFFFFFFFFFFFFFFFFFFFFFF AND PUSH20 0xFFFFFFFFFFFFFFFFFFFFFFFFFFFFFFFFFFFFFFFF AND PUSH4 0xA9059CBB PUSH1 0x0 DUP1 SLOAD SWAP1 PUSH2 0x100 EXP SWAP1 DIV PUSH20 0xFFFFFFFFFFFFFFFFFFFFFFFFFFFFFFFFFFFFFFFF AND PUSH1 0x1 SLOAD PUSH1 0x40 MLOAD DUP4 PUSH4 0xFFFFFFFF AND PUSH1 0xE0 SHL DUP2 MSTORE PUSH1 0x4 ADD PUSH2 0x9ED SWAP3 SWAP2 SWAP1 PUSH2 0x14EF JUMP JUMPDEST PUSH1 0x20 PUSH1 0x40 MLOAD DUP1 DUP4 SUB DUP2 PUSH1 0x0 DUP8 GAS CALL ISZERO DUP1 ISZERO PUSH2 0xA0C JUMPI RETURNDATASIZE PUSH1 0x0 DUP1 RETURNDATACOPY RETURNDATASIZE PUSH1 0x0 REVERT JUMPDEST POP POP POP POP PUSH1 0x40 MLOAD RETURNDATASIZE PUSH1 0x1F NOT PUSH1 0x1F DUP3 ADD AND DUP3 ADD DUP1 PUSH1 0x40 MSTORE POP DUP2 ADD SWAP1 PUSH2 0xA30 SWAP2 SWAP1 PUSH2 0x14C2 JUMP JUMPDEST POP PUSH1 0x1 PUSH1 0x2 PUSH1 0x0 CALLER PUSH20 0xFFFFFFFFFFFFFFFFFFFFFFFFFFFFFFFFFFFFFFFF AND PUSH20 0xFFFFFFFFFFFFFFFFFFFFFFFFFFFFFFFFFFFFFFFF AND DUP2 MSTORE PUSH1 0x20 ADD SWAP1 DUP2 MSTORE PUSH1 0x20 ADD PUSH1 0x0 KECCAK256 PUSH1 0x0 PUSH2 0x100 EXP DUP2 SLOAD DUP2 PUSH1 0xFF MUL NOT AND SWAP1 DUP4 ISZERO ISZERO MUL OR SWAP1 SSTORE POP JUMP JUMPDEST PUSH1 0x5 SLOAD DUP2 JUMP JUMPDEST PUSH1 0x40 MLOAD DUP1 PUSH1 0x60 ADD PUSH1 0x40 MSTORE DUP1 PUSH1 0x0 PUSH20 0xFFFFFFFFFFFFFFFFFFFFFFFFFFFFFFFFFFFFFFFF AND DUP2 MSTORE PUSH1 0x20 ADD PUSH1 0x60 DUP2 MSTORE PUSH1 0x20 ADD PUSH1 0x0 DUP2 MSTORE POP SWAP1 JUMP JUMPDEST DUP3 DUP1 SLOAD PUSH2 0xAD4 SWAP1 PUSH2 0x1248 JUMP JUMPDEST SWAP1 PUSH1 0x0 MSTORE PUSH1 0x20 PUSH1 0x0 KECCAK256 SWAP1 PUSH1 0x1F ADD PUSH1 0x20 SWAP1 DIV DUP2 ADD SWAP3 DUP3 PUSH2 0xAF6 JUMPI PUSH1 0x0 DUP6 SSTORE PUSH2 0xB3D JUMP JUMPDEST DUP3 PUSH1 0x1F LT PUSH2 0xB0F JUMPI DUP1 MLOAD PUSH1 0xFF NOT AND DUP4 DUP1 ADD OR DUP6 SSTORE PUSH2 0xB3D JUMP JUMPDEST DUP3 DUP1 ADD PUSH1 0x1 ADD DUP6 SSTORE DUP3 ISZERO PUSH2 0xB3D JUMPI SWAP2 DUP3 ADD JUMPDEST DUP3 DUP2 GT ISZERO PUSH2 0xB3C JUMPI DUP3 MLOAD DUP3 SSTORE SWAP2 PUSH1 0x20 ADD SWAP2 SWAP1 PUSH1 0x1 ADD SWAP1 PUSH2 0xB21 JUMP JUMPDEST JUMPDEST POP SWAP1 POP PUSH2 0xB4A SWAP2 SWAP1 PUSH2 0xB4E JUMP JUMPDEST POP SWAP1 JUMP JUMPDEST JUMPDEST DUP1 DUP3 GT ISZERO PUSH2 0xB67 JUMPI PUSH1 0x0 DUP2 PUSH1 0x0 SWAP1 SSTORE POP PUSH1 0x1 ADD PUSH2 0xB4F JUMP JUMPDEST POP SWAP1 JUMP JUMPDEST PUSH1 0x0 DUP2 SWAP1 POP SWAP2 SWAP1 POP JUMP JUMPDEST PUSH2 0xB7E DUP2 PUSH2 0xB6B JUMP JUMPDEST DUP3 MSTORE POP POP JUMP JUMPDEST PUSH1 0x0 PUSH1 0x20 DUP3 ADD SWAP1 POP PUSH2 0xB99 PUSH1 0x0 DUP4 ADD DUP5 PUSH2 0xB75 JUMP JUMPDEST SWAP3 SWAP2 POP POP JUMP JUMPDEST PUSH1 0x0 PUSH1 0x40 MLOAD SWAP1 POP SWAP1 JUMP JUMPDEST PUSH1 0x0 DUP1 REVERT JUMPDEST PUSH1 0x0 DUP1 REVERT JUMPDEST PUSH1 0x0 DUP1 REVERT JUMPDEST PUSH1 0x0 DUP1 REVERT JUMPDEST PUSH1 0x0 PUSH1 0x1F NOT PUSH1 0x1F DUP4 ADD AND SWAP1 POP SWAP2 SWAP1 POP JUMP JUMPDEST PUSH32 0x4E487B7100000000000000000000000000000000000000000000000000000000 PUSH1 0x0 MSTORE PUSH1 0x41 PUSH1 0x4 MSTORE PUSH1 0x24 PUSH1 0x0 REVERT JUMPDEST PUSH2 0xC06 DUP3 PUSH2 0xBBD JUMP JUMPDEST DUP2 ADD DUP2 DUP2 LT PUSH8 0xFFFFFFFFFFFFFFFF DUP3 GT OR ISZERO PUSH2 0xC25 JUMPI PUSH2 0xC24 PUSH2 0xBCE JUMP JUMPDEST JUMPDEST DUP1 PUSH1 0x40 MSTORE POP POP POP JUMP JUMPDEST PUSH1 0x0 PUSH2 0xC38 PUSH2 0xB9F JUMP JUMPDEST SWAP1 POP PUSH2 0xC44 DUP3 DUP3 PUSH2 0xBFD JUMP JUMPDEST SWAP2 SWAP1 POP JUMP JUMPDEST PUSH1 0x0 PUSH8 0xFFFFFFFFFFFFFFFF DUP3 GT ISZERO PUSH2 0xC64 JUMPI PUSH2 0xC63 PUSH2 0xBCE JUMP JUMPDEST JUMPDEST PUSH2 0xC6D DUP3 PUSH2 0xBBD JUMP JUMPDEST SWAP1 POP PUSH1 0x20 DUP2 ADD SWAP1 POP SWAP2 SWAP1 POP JUMP JUMPDEST DUP3 DUP2 DUP4 CALLDATACOPY PUSH1 0x0 DUP4 DUP4 ADD MSTORE POP POP POP JUMP JUMPDEST PUSH1 0x0 PUSH2 0xC9C PUSH2 0xC97 DUP5 PUSH2 0xC49 JUMP JUMPDEST PUSH2 0xC2E JUMP JUMPDEST SWAP1 POP DUP3 DUP2 MSTORE PUSH1 0x20 DUP2 ADD DUP5 DUP5 DUP5 ADD GT ISZERO PUSH2 0xCB8 JUMPI PUSH2 0xCB7 PUSH2 0xBB8 JUMP JUMPDEST JUMPDEST PUSH2 0xCC3 DUP5 DUP3 DUP6 PUSH2 0xC7A JUMP JUMPDEST POP SWAP4 SWAP3 POP POP POP JUMP JUMPDEST PUSH1 0x0 DUP3 PUSH1 0x1F DUP4 ADD SLT PUSH2 0xCE0 JUMPI PUSH2 0xCDF PUSH2 0xBB3 JUMP JUMPDEST JUMPDEST DUP2 CALLDATALOAD PUSH2 0xCF0 DUP5 DUP3 PUSH1 0x20 DUP7 ADD PUSH2 0xC89 JUMP JUMPDEST SWAP2 POP POP SWAP3 SWAP2 POP POP JUMP JUMPDEST PUSH1 0x0 PUSH1 0x20 DUP3 DUP5 SUB SLT ISZERO PUSH2 0xD0F JUMPI PUSH2 0xD0E PUSH2 0xBA9 JUMP JUMPDEST JUMPDEST PUSH1 0x0 DUP3 ADD CALLDATALOAD PUSH8 0xFFFFFFFFFFFFFFFF DUP2 GT ISZERO PUSH2 0xD2D JUMPI PUSH2 0xD2C PUSH2 0xBAE JUMP JUMPDEST JUMPDEST PUSH2 0xD39 DUP5 DUP3 DUP6 ADD PUSH2 0xCCB JUMP JUMPDEST SWAP2 POP POP SWAP3 SWAP2 POP POP JUMP JUMPDEST PUSH1 0x0 PUSH20 0xFFFFFFFFFFFFFFFFFFFFFFFFFFFFFFFFFFFFFFFF DUP3 AND SWAP1 POP SWAP2 SWAP1 POP JUMP JUMPDEST PUSH1 0x0 PUSH2 0xD6D DUP3 PUSH2 0xD42 JUMP JUMPDEST SWAP1 POP SWAP2 SWAP1 POP JUMP JUMPDEST PUSH2 0xD7D DUP2 PUSH2 0xD62 JUMP JUMPDEST DUP2 EQ PUSH2 0xD88 JUMPI PUSH1 0x0 DUP1 REVERT JUMPDEST POP JUMP JUMPDEST PUSH1 0x0 DUP2 CALLDATALOAD SWAP1 POP PUSH2 0xD9A DUP2 PUSH2 0xD74 JUMP JUMPDEST SWAP3 SWAP2 POP POP JUMP JUMPDEST PUSH1 0x0 PUSH1 0x20 DUP3 DUP5 SUB SLT ISZERO PUSH2 0xDB6 JUMPI PUSH2 0xDB5 PUSH2 0xBA9 JUMP JUMPDEST JUMPDEST PUSH1 0x0 PUSH2 0xDC4 DUP5 DUP3 DUP6 ADD PUSH2 0xD8B JUMP JUMPDEST SWAP2 POP POP SWAP3 SWAP2 POP POP JUMP JUMPDEST PUSH1 0x0 DUP2 ISZERO ISZERO SWAP1 POP SWAP2 SWAP1 POP JUMP JUMPDEST PUSH2 0xDE2 DUP2 PUSH2 0xDCD JUMP JUMPDEST DUP3 MSTORE POP POP JUMP JUMPDEST PUSH1 0x0 PUSH1 0x20 DUP3 ADD SWAP1 POP PUSH2 0xDFD PUSH1 0x0 DUP4 ADD DUP5 PUSH2 0xDD9 JUMP JUMPDEST SWAP3 SWAP2 POP POP JUMP JUMPDEST PUSH1 0x0 DUP2 SWAP1 POP SWAP2 SWAP1 POP JUMP JUMPDEST PUSH1 0x0 PUSH2 0xE28 PUSH2 0xE23 PUSH2 0xE1E DUP5 PUSH2 0xD42 JUMP JUMPDEST PUSH2 0xE03 JUMP JUMPDEST PUSH2 0xD42 JUMP JUMPDEST SWAP1 POP SWAP2 SWAP1 POP JUMP JUMPDEST PUSH1 0x0 PUSH2 0xE3A DUP3 PUSH2 0xE0D JUMP JUMPDEST SWAP1 POP SWAP2 SWAP1 POP JUMP JUMPDEST PUSH1 0x0 PUSH2 0xE4C DUP3 PUSH2 0xE2F JUMP JUMPDEST SWAP1 POP SWAP2 SWAP1 POP JUMP JUMPDEST PUSH2 0xE5C DUP2 PUSH2 0xE41 JUMP JUMPDEST DUP3 MSTORE POP POP JUMP JUMPDEST PUSH1 0x0 PUSH1 0x20 DUP3 ADD SWAP1 POP PUSH2 0xE77 PUSH1 0x0 DUP4 ADD DUP5 PUSH2 0xE53 JUMP JUMPDEST SWAP3 SWAP2 POP POP JUMP JUMPDEST PUSH2 0xE86 DUP2 PUSH2 0xB6B JUMP JUMPDEST DUP2 EQ PUSH2 0xE91 JUMPI PUSH1 0x0 DUP1 REVERT JUMPDEST POP JUMP JUMPDEST PUSH1 0x0 DUP2 CALLDATALOAD SWAP1 POP PUSH2 0xEA3 DUP2 PUSH2 0xE7D JUMP JUMPDEST SWAP3 SWAP2 POP POP JUMP JUMPDEST PUSH1 0x0 PUSH1 0x20 DUP3 DUP5 SUB SLT ISZERO PUSH2 0xEBF JUMPI PUSH2 0xEBE PUSH2 0xBA9 JUMP JUMPDEST JUMPDEST PUSH1 0x0 PUSH2 0xECD DUP5 DUP3 DUP6 ADD PUSH2 0xE94 JUMP JUMPDEST SWAP2 POP POP SWAP3 SWAP2 POP POP JUMP JUMPDEST PUSH2 0xEDF DUP2 PUSH2 0xD62 JUMP JUMPDEST DUP3 MSTORE POP POP JUMP JUMPDEST PUSH1 0x0 DUP2 MLOAD SWAP1 POP SWAP2 SWAP1 POP JUMP JUMPDEST PUSH1 0x0 DUP3 DUP3 MSTORE PUSH1 0x20 DUP3 ADD SWAP1 POP SWAP3 SWAP2 POP POP JUMP JUMPDEST PUSH1 0x0 JUMPDEST DUP4 DUP2 LT ISZERO PUSH2 0xF1F JUMPI DUP1 DUP3 ADD MLOAD DUP2 DUP5 ADD MSTORE PUSH1 0x20 DUP2 ADD SWAP1 POP PUSH2 0xF04 JUMP JUMPDEST DUP4 DUP2 GT ISZERO PUSH2 0xF2E JUMPI PUSH1 0x0 DUP5 DUP5 ADD MSTORE JUMPDEST POP POP POP POP JUMP JUMPDEST PUSH1 0x0 PUSH2 0xF3F DUP3 PUSH2 0xEE5 JUMP JUMPDEST PUSH2 0xF49 DUP2 DUP6 PUSH2 0xEF0 JUMP JUMPDEST SWAP4 POP PUSH2 0xF59 DUP2 DUP6 PUSH1 0x20 DUP7 ADD PUSH2 0xF01 JUMP JUMPDEST PUSH2 0xF62 DUP2 PUSH2 0xBBD JUMP JUMPDEST DUP5 ADD SWAP2 POP POP SWAP3 SWAP2 POP POP JUMP JUMPDEST PUSH2 0xF76 DUP2 PUSH2 0xB6B JUMP JUMPDEST DUP3 MSTORE POP POP JUMP JUMPDEST PUSH1 0x0 PUSH1 0x60 DUP4 ADD PUSH1 0x0 DUP4 ADD MLOAD PUSH2 0xF94 PUSH1 0x0 DUP7 ADD DUP3 PUSH2 0xED6 JUMP JUMPDEST POP PUSH1 0x20 DUP4 ADD MLOAD DUP5 DUP3 SUB PUSH1 0x20 DUP7 ADD MSTORE PUSH2 0xFAC DUP3 DUP3 PUSH2 0xF34 JUMP JUMPDEST SWAP2 POP POP PUSH1 0x40 DUP4 ADD MLOAD PUSH2 0xFC1 PUSH1 0x40 DUP7 ADD DUP3 PUSH2 0xF6D JUMP JUMPDEST POP DUP1 SWAP2 POP POP SWAP3 SWAP2 POP POP JUMP JUMPDEST PUSH1 0x0 PUSH1 0x20 DUP3 ADD SWAP1 POP DUP2 DUP2 SUB PUSH1 0x0 DUP4 ADD MSTORE PUSH2 0xFE6 DUP2 DUP5 PUSH2 0xF7C JUMP JUMPDEST SWAP1 POP SWAP3 SWAP2 POP POP JUMP JUMPDEST PUSH2 0xFF7 DUP2 PUSH2 0xD62 JUMP JUMPDEST DUP3 MSTORE POP POP JUMP JUMPDEST PUSH1 0x0 DUP3 DUP3 MSTORE PUSH1 0x20 DUP3 ADD SWAP1 POP SWAP3 SWAP2 POP POP JUMP JUMPDEST PUSH1 0x0 PUSH2 0x1019 DUP3 PUSH2 0xEE5 JUMP JUMPDEST PUSH2 0x1023 DUP2 DUP6 PUSH2 0xFFD JUMP JUMPDEST SWAP4 POP PUSH2 0x1033 DUP2 DUP6 PUSH1 0x20 DUP7 ADD PUSH2 0xF01 JUMP JUMPDEST PUSH2 0x103C DUP2 PUSH2 0xBBD JUMP JUMPDEST DUP5 ADD SWAP2 POP POP SWAP3 SWAP2 POP POP JUMP JUMPDEST PUSH1 0x0 PUSH1 0x60 DUP3 ADD SWAP1 POP PUSH2 0x105C PUSH1 0x0 DUP4 ADD DUP7 PUSH2 0xFEE JUMP JUMPDEST DUP2 DUP2 SUB PUSH1 0x20 DUP4 ADD MSTORE PUSH2 0x106E DUP2 DUP6 PUSH2 0x100E JUMP JUMPDEST SWAP1 POP PUSH2 0x107D PUSH1 0x40 DUP4 ADD DUP5 PUSH2 0xB75 JUMP JUMPDEST SWAP5 SWAP4 POP POP POP POP JUMP JUMPDEST PUSH1 0x0 DUP1 REVERT JUMPDEST PUSH1 0x0 DUP1 REVERT JUMPDEST PUSH1 0x0 DUP1 DUP4 PUSH1 0x1F DUP5 ADD SLT PUSH2 0x10A5 JUMPI PUSH2 0x10A4 PUSH2 0xBB3 JUMP JUMPDEST JUMPDEST DUP3 CALLDATALOAD SWAP1 POP PUSH8 0xFFFFFFFFFFFFFFFF DUP2 GT ISZERO PUSH2 0x10C2 JUMPI PUSH2 0x10C1 PUSH2 0x1085 JUMP JUMPDEST JUMPDEST PUSH1 0x20 DUP4 ADD SWAP2 POP DUP4 PUSH1 0x1 DUP3 MUL DUP4 ADD GT ISZERO PUSH2 0x10DE JUMPI PUSH2 0x10DD PUSH2 0x108A JUMP JUMPDEST JUMPDEST SWAP3 POP SWAP3 SWAP1 POP JUMP JUMPDEST PUSH1 0x0 DUP1 PUSH1 0x0 PUSH1 0x40 DUP5 DUP7 SUB SLT ISZERO PUSH2 0x10FE JUMPI PUSH2 0x10FD PUSH2 0xBA9 JUMP JUMPDEST JUMPDEST PUSH1 0x0 DUP5 ADD CALLDATALOAD PUSH8 0xFFFFFFFFFFFFFFFF DUP2 GT ISZERO PUSH2 0x111C JUMPI PUSH2 0x111B PUSH2 0xBAE JUMP JUMPDEST JUMPDEST PUSH2 0x1128 DUP7 DUP3 DUP8 ADD PUSH2 0x108F JUMP JUMPDEST SWAP4 POP SWAP4 POP POP PUSH1 0x20 PUSH2 0x113B DUP7 DUP3 DUP8 ADD PUSH2 0xE94 JUMP JUMPDEST SWAP2 POP POP SWAP3 POP SWAP3 POP SWAP3 JUMP JUMPDEST PUSH1 0x0 PUSH1 0x20 DUP3 ADD SWAP1 POP PUSH2 0x115A PUSH1 0x0 DUP4 ADD DUP5 PUSH2 0xFEE JUMP JUMPDEST SWAP3 SWAP2 POP POP JUMP JUMPDEST PUSH1 0x0 DUP1 PUSH1 0x20 DUP4 DUP6 SUB SLT ISZERO PUSH2 0x1177 JUMPI PUSH2 0x1176 PUSH2 0xBA9 JUMP JUMPDEST JUMPDEST PUSH1 0x0 DUP4 ADD CALLDATALOAD PUSH8 0xFFFFFFFFFFFFFFFF DUP2 GT ISZERO PUSH2 0x1195 JUMPI PUSH2 0x1194 PUSH2 0xBAE JUMP JUMPDEST JUMPDEST PUSH2 0x11A1 DUP6 DUP3 DUP7 ADD PUSH2 0x108F JUMP JUMPDEST SWAP3 POP SWAP3 POP POP SWAP3 POP SWAP3 SWAP1 POP JUMP JUMPDEST PUSH32 0x50726F64756374206E6F74207265676973746572656400000000000000000000 PUSH1 0x0 DUP3 ADD MSTORE POP JUMP JUMPDEST PUSH1 0x0 PUSH2 0x11E3 PUSH1 0x16 DUP4 PUSH2 0xFFD JUMP JUMPDEST SWAP2 POP PUSH2 0x11EE DUP3 PUSH2 0x11AD JUMP JUMPDEST PUSH1 0x20 DUP3 ADD SWAP1 POP SWAP2 SWAP1 POP JUMP JUMPDEST PUSH1 0x0 PUSH1 0x20 DUP3 ADD SWAP1 POP DUP2 DUP2 SUB PUSH1 0x0 DUP4 ADD MSTORE PUSH2 0x1212 DUP2 PUSH2 0x11D6 JUMP JUMPDEST SWAP1 POP SWAP2 SWAP1 POP JUMP JUMPDEST PUSH32 0x4E487B7100000000000000000000000000000000000000000000000000000000 PUSH1 0x0 MSTORE PUSH1 0x22 PUSH1 0x4 MSTORE PUSH1 0x24 PUSH1 0x0 REVERT JUMPDEST PUSH1 0x0 PUSH1 0x2 DUP3 DIV SWAP1 POP PUSH1 0x1 DUP3 AND DUP1 PUSH2 0x1260 JUMPI PUSH1 0x7F DUP3 AND SWAP2 POP JUMPDEST PUSH1 0x20 DUP3 LT DUP2 EQ ISZERO PUSH2 0x1274 JUMPI PUSH2 0x1273 PUSH2 0x1219 JUMP JUMPDEST JUMPDEST POP SWAP2 SWAP1 POP JUMP JUMPDEST PUSH32 0x4F6E6C7920726567697374657265642070726F6475636572732063616E206361 PUSH1 0x0 DUP3 ADD MSTORE PUSH32 0x6C6C20746869732066756E6374696F6E00000000000000000000000000000000 PUSH1 0x20 DUP3 ADD MSTORE POP JUMP JUMPDEST PUSH1 0x0 PUSH2 0x12D6 PUSH1 0x30 DUP4 PUSH2 0xFFD JUMP JUMPDEST SWAP2 POP PUSH2 0x12E1 DUP3 PUSH2 0x127A JUMP JUMPDEST PUSH1 0x40 DUP3 ADD SWAP1 POP SWAP2 SWAP1 POP JUMP JUMPDEST PUSH1 0x0 PUSH1 0x20 DUP3 ADD SWAP1 POP DUP2 DUP2 SUB PUSH1 0x0 DUP4 ADD MSTORE PUSH2 0x1305 DUP2 PUSH2 0x12C9 JUMP JUMPDEST SWAP1 POP SWAP2 SWAP1 POP JUMP JUMPDEST PUSH32 0x4E487B7100000000000000000000000000000000000000000000000000000000 PUSH1 0x0 MSTORE PUSH1 0x11 PUSH1 0x4 MSTORE PUSH1 0x24 PUSH1 0x0 REVERT JUMPDEST PUSH1 0x0 PUSH2 0x1346 DUP3 PUSH2 0xB6B JUMP JUMPDEST SWAP2 POP PUSH32 0xFFFFFFFFFFFFFFFFFFFFFFFFFFFFFFFFFFFFFFFFFFFFFFFFFFFFFFFFFFFFFFFF DUP3 EQ ISZERO PUSH2 0x1379 JUMPI PUSH2 0x1378 PUSH2 0x130C JUMP JUMPDEST JUMPDEST PUSH1 0x1 DUP3 ADD SWAP1 POP SWAP2 SWAP1 POP JUMP JUMPDEST PUSH1 0x0 DUP2 SWAP1 POP SWAP3 SWAP2 POP POP JUMP JUMPDEST PUSH1 0x0 PUSH2 0x139B DUP4 DUP6 PUSH2 0x1384 JUMP JUMPDEST SWAP4 POP PUSH2 0x13A8 DUP4 DUP6 DUP5 PUSH2 0xC7A JUMP JUMPDEST DUP3 DUP5 ADD SWAP1 POP SWAP4 SWAP3 POP POP POP JUMP JUMPDEST PUSH1 0x0 PUSH2 0x13C1 DUP3 DUP5 DUP7 PUSH2 0x138F JUMP JUMPDEST SWAP2 POP DUP2 SWAP1 POP SWAP4 SWAP3 POP POP POP JUMP JUMPDEST PUSH32 0x4F6E6C7920746865206F776E65722063616E2063616C6C20746869732066756E PUSH1 0x0 DUP3 ADD MSTORE PUSH32 0x6374696F6E000000000000000000000000000000000000000000000000000000 PUSH1 0x20 DUP3 ADD MSTORE POP JUMP JUMPDEST PUSH1 0x0 PUSH2 0x1429 PUSH1 0x25 DUP4 PUSH2 0xFFD JUMP JUMPDEST SWAP2 POP PUSH2 0x1434 DUP3 PUSH2 0x13CD JUMP JUMPDEST PUSH1 0x40 DUP3 ADD SWAP1 POP SWAP2 SWAP1 POP JUMP JUMPDEST PUSH1 0x0 PUSH1 0x20 DUP3 ADD SWAP1 POP DUP2 DUP2 SUB PUSH1 0x0 DUP4 ADD MSTORE PUSH2 0x1458 DUP2 PUSH2 0x141C JUMP JUMPDEST SWAP1 POP SWAP2 SWAP1 POP JUMP JUMPDEST PUSH1 0x0 PUSH1 0x60 DUP3 ADD SWAP1 POP PUSH2 0x1474 PUSH1 0x0 DUP4 ADD DUP7 PUSH2 0xFEE JUMP JUMPDEST PUSH2 0x1481 PUSH1 0x20 DUP4 ADD DUP6 PUSH2 0xFEE JUMP JUMPDEST PUSH2 0x148E PUSH1 0x40 DUP4 ADD DUP5 PUSH2 0xB75 JUMP JUMPDEST SWAP5 SWAP4 POP POP POP POP JUMP JUMPDEST PUSH2 0x149F DUP2 PUSH2 0xDCD JUMP JUMPDEST DUP2 EQ PUSH2 0x14AA JUMPI PUSH1 0x0 DUP1 REVERT JUMPDEST POP JUMP JUMPDEST PUSH1 0x0 DUP2 MLOAD SWAP1 POP PUSH2 0x14BC DUP2 PUSH2 0x1496 JUMP JUMPDEST SWAP3 SWAP2 POP POP JUMP JUMPDEST PUSH1 0x0 PUSH1 0x20 DUP3 DUP5 SUB SLT ISZERO PUSH2 0x14D8 JUMPI PUSH2 0x14D7 PUSH2 0xBA9 JUMP JUMPDEST JUMPDEST PUSH1 0x0 PUSH2 0x14E6 DUP5 DUP3 DUP6 ADD PUSH2 0x14AD JUMP JUMPDEST SWAP2 POP POP SWAP3 SWAP2 POP POP JUMP JUMPDEST PUSH1 0x0 PUSH1 0x40 DUP3 ADD SWAP1 POP PUSH2 0x1504 PUSH1 0x0 DUP4 ADD DUP6 PUSH2 0xFEE JUMP JUMPDEST PUSH2 0x1511 PUSH1 0x20 DUP4 ADD DUP5 PUSH2 0xB75 JUMP JUMPDEST SWAP4 SWAP3 POP POP POP JUMP INVALID LOG2 PUSH5 0x6970667358 0x22 SLT KECCAK256 PUSH25 0x3E3985B4C62F900457CF99FCBDC09A8D4EB0619396D07DB210 PUSH14 0xE0AE7E1FA764736F6C634300080A STOP CALLER "
				},
				"gasEstimates": {
					"creation": {
						"codeDepositCost": "1090800",
						"executionCost": "infinite",
						"totalCost": "infinite"
					},
					"external": {
						"brandProducts(string)": "infinite",
						"getBrandInfo(string)": "infinite",
						"getProductInfo(uint256)": "infinite",
						"isProducerRegistered(address)": "2928",
						"owner()": "2578",
						"productCount()": "2517",
						"registerProducer()": "infinite",
						"registerProduct(string,uint256)": "infinite",
						"registeredProducers(address)": "2934",
						"registeredProducts(uint256)": "infinite",
						"registrationFee()": "2430",
						"sampleToken()": "infinite",
						"setRegistrationFee(uint256)": "24731"
					}
				},
				"methodIdentifiers": {
					"brandProducts(string)": "15bcabab",
					"getBrandInfo(string)": "9ae631d6",
					"getProductInfo(uint256)": "79a85e6c",
					"isProducerRegistered(address)": "605f9998",
					"owner()": "8da5cb5b",
					"productCount()": "e0f6ef87",
					"registerProducer()": "dbdf0c21",
					"registerProduct(string,uint256)": "8c96091b",
					"registeredProducers(address)": "76bc59ec",
					"registeredProducts(uint256)": "7ccb24e9",
					"registrationFee()": "14c44e09",
					"sampleToken()": "7222e9e3",
					"setRegistrationFee(uint256)": "c320c727"
				}
			},
			"storageLayout": {
				"storage": [
					{
						"astId": 4,
						"contract": "ProductIdentification.sol:ProductIdentification",
						"label": "owner",
						"offset": 0,
						"slot": "0",
						"type": "t_address"
					},
					{
						"astId": 6,
						"contract": "ProductIdentification.sol:ProductIdentification",
						"label": "registrationFee",
						"offset": 0,
						"slot": "1",
						"type": "t_uint256"
					},
					{
						"astId": 10,
						"contract": "ProductIdentification.sol:ProductIdentification",
						"label": "registeredProducers",
						"offset": 0,
						"slot": "2",
						"type": "t_mapping(t_address,t_bool)"
					},
					{
						"astId": 15,
						"contract": "ProductIdentification.sol:ProductIdentification",
						"label": "registeredProducts",
						"offset": 0,
						"slot": "3",
						"type": "t_mapping(t_uint256,t_struct(Product)31_storage)"
					},
					{
						"astId": 19,
						"contract": "ProductIdentification.sol:ProductIdentification",
						"label": "brandProducts",
						"offset": 0,
						"slot": "4",
						"type": "t_mapping(t_string_memory_ptr,t_uint256)"
					},
					{
						"astId": 21,
						"contract": "ProductIdentification.sol:ProductIdentification",
						"label": "productCount",
						"offset": 0,
						"slot": "5",
						"type": "t_uint256"
					},
					{
						"astId": 24,
						"contract": "ProductIdentification.sol:ProductIdentification",
						"label": "sampleToken",
						"offset": 0,
						"slot": "6",
						"type": "t_contract(SampleToken)398"
					}
				],
				"types": {
					"t_address": {
						"encoding": "inplace",
						"label": "address",
						"numberOfBytes": "20"
					},
					"t_bool": {
						"encoding": "inplace",
						"label": "bool",
						"numberOfBytes": "1"
					},
					"t_contract(SampleToken)398": {
						"encoding": "inplace",
						"label": "contract SampleToken",
						"numberOfBytes": "20"
					},
					"t_mapping(t_address,t_bool)": {
						"encoding": "mapping",
						"key": "t_address",
						"label": "mapping(address => bool)",
						"numberOfBytes": "32",
						"value": "t_bool"
					},
					"t_mapping(t_string_memory_ptr,t_uint256)": {
						"encoding": "mapping",
						"key": "t_string_memory_ptr",
						"label": "mapping(string => uint256)",
						"numberOfBytes": "32",
						"value": "t_uint256"
					},
					"t_mapping(t_uint256,t_struct(Product)31_storage)": {
						"encoding": "mapping",
						"key": "t_uint256",
						"label": "mapping(uint256 => struct ProductIdentification.Product)",
						"numberOfBytes": "32",
						"value": "t_struct(Product)31_storage"
					},
					"t_string_memory_ptr": {
						"encoding": "bytes",
						"label": "string",
						"numberOfBytes": "32"
					},
					"t_string_storage": {
						"encoding": "bytes",
						"label": "string",
						"numberOfBytes": "32"
					},
					"t_struct(Product)31_storage": {
						"encoding": "inplace",
						"label": "struct ProductIdentification.Product",
						"members": [
							{
								"astId": 26,
								"contract": "ProductIdentification.sol:ProductIdentification",
								"label": "manufacturer",
								"offset": 0,
								"slot": "0",
								"type": "t_address"
							},
							{
								"astId": 28,
								"contract": "ProductIdentification.sol:ProductIdentification",
								"label": "name",
								"offset": 0,
								"slot": "1",
								"type": "t_string_storage"
							},
							{
								"astId": 30,
								"contract": "ProductIdentification.sol:ProductIdentification",
								"label": "volume",
								"offset": 0,
								"slot": "2",
								"type": "t_uint256"
							}
						],
						"numberOfBytes": "96"
					},
					"t_uint256": {
						"encoding": "inplace",
						"label": "uint256",
						"numberOfBytes": "32"
					}
				}
			},
			"userdoc": {
				"kind": "user",
				"methods": {},
				"version": 1
			}
		}
	}
}