{
	"data": {
		"bytecode": {
			"linkReferences": {},
			"object": "60806040523480156200001157600080fd5b5060405162001fda38038062001fda833981810160405281019062000037919062000573565b80600560006101000a81548173ffffffffffffffffffffffffffffffffffffffff021916908373ffffffffffffffffffffffffffffffffffffffff1602179055506000600560009054906101000a900473ffffffffffffffffffffffffffffffffffffffff16905060008173ffffffffffffffffffffffffffffffffffffffff16639ae631d6866040518263ffffffff1660e01b8152600401620000dc919062000696565b602060405180830381865afa158015620000fa573d6000803e3d6000fd5b505050506040513d601f19601f82011682018060405250810190620001209190620006ba565b1162000163576040517f08c379a00000000000000000000000000000000000000000000000000000000081526004016200015a9062000762565b60405180910390fd5b846000806101000a81548173ffffffffffffffffffffffffffffffffffffffff021916908373ffffffffffffffffffffffffffffffffffffffff16021790555042600181905550610e1086620001ba9190620007b3565b600154620001c9919062000814565b6002819055506001600b60006101000a81548160ff02191690836001811115620001f857620001f762000871565b5b021790555083600760000190805190602001906200021892919062000241565b5082600760010190805190602001906200023492919062000241565b5050505050505062000905565b8280546200024f90620008cf565b90600052602060002090601f016020900481019282620002735760008555620002bf565b82601f106200028e57805160ff1916838001178555620002bf565b82800160010185558215620002bf579182015b82811115620002be578251825591602001919060010190620002a1565b5b509050620002ce9190620002d2565b5090565b5b80821115620002ed576000816000905550600101620002d3565b5090565b6000604051905090565b600080fd5b600080fd5b6000819050919050565b6200031a8162000305565b81146200032657600080fd5b50565b6000815190506200033a816200030f565b92915050565b600073ffffffffffffffffffffffffffffffffffffffff82169050919050565b60006200036d8262000340565b9050919050565b6200037f8162000360565b81146200038b57600080fd5b50565b6000815190506200039f8162000374565b92915050565b600080fd5b600080fd5b6000601f19601f8301169050919050565b7f4e487b7100000000000000000000000000000000000000000000000000000000600052604160045260246000fd5b620003fa82620003af565b810181811067ffffffffffffffff821117156200041c576200041b620003c0565b5b80604052505050565b600062000431620002f1565b90506200043f8282620003ef565b919050565b600067ffffffffffffffff821115620004625762000461620003c0565b5b6200046d82620003af565b9050602081019050919050565b60005b838110156200049a5780820151818401526020810190506200047d565b83811115620004aa576000848401525b50505050565b6000620004c7620004c18462000444565b62000425565b905082815260208101848484011115620004e657620004e5620003aa565b5b620004f38482856200047a565b509392505050565b600082601f830112620005135762000512620003a5565b5b815162000525848260208601620004b0565b91505092915050565b60006200053b8262000340565b9050919050565b6200054d816200052e565b81146200055957600080fd5b50565b6000815190506200056d8162000542565b92915050565b600080600080600060a08688031215620005925762000591620002fb565b5b6000620005a28882890162000329565b9550506020620005b5888289016200038e565b945050604086015167ffffffffffffffff811115620005d957620005d862000300565b5b620005e788828901620004fb565b935050606086015167ffffffffffffffff8111156200060b576200060a62000300565b5b6200061988828901620004fb565b92505060806200062c888289016200055c565b9150509295509295909350565b600081519050919050565b600082825260208201905092915050565b6000620006628262000639565b6200066e818562000644565b9350620006808185602086016200047a565b6200068b81620003af565b840191505092915050565b60006020820190508181036000830152620006b2818462000655565b905092915050565b600060208284031215620006d357620006d2620002fb565b5b6000620006e38482850162000329565b91505092915050565b7f54686973206272616e6420646f65736e277420657869737420696e2050726f6460008201527f7563744964656e74696669636174696f6e000000000000000000000000000000602082015250565b60006200074a60318362000644565b91506200075782620006ec565b604082019050919050565b600060208201905081810360008301526200077d816200073b565b9050919050565b7f4e487b7100000000000000000000000000000000000000000000000000000000600052601160045260246000fd5b6000620007c08262000305565b9150620007cd8362000305565b9250817fffffffffffffffffffffffffffffffffffffffffffffffffffffffffffffffff048311821515161562000809576200080862000784565b5b828202905092915050565b6000620008218262000305565b91506200082e8362000305565b9250827fffffffffffffffffffffffffffffffffffffffffffffffffffffffffffffffff0382111562000866576200086562000784565b5b828201905092915050565b7f4e487b7100000000000000000000000000000000000000000000000000000000600052602160045260246000fd5b7f4e487b7100000000000000000000000000000000000000000000000000000000600052602260045260246000fd5b60006002820490506001821680620008e857607f821691505b60208210811415620008ff57620008fe620008a0565b5b50919050565b6116c580620009156000396000f3fe6080604052600436106100e15760003560e01c80637222e9e31161007f578063bbafd3d411610059578063bbafd3d4146102bd578063c458b65a146102e8578063c486456c14610313578063d57bde791461033e576100e8565b80637222e9e31461023c57806378f453401461026757806391f9015714610292576100e8565b80633ccfd60b116100bb5780633ccfd60b1461016c578063454a2ab31461019757806362ea82db146101d45780636a655c7614610211576100e8565b80630216f202146100ea5780630ac298dc146101165780633ba88ca114610141576100e8565b366100e857005b005b3480156100f657600080fd5b506100ff610369565b60405161010d929190610f98565b60405180910390f35b34801561012257600080fd5b5061012b61048b565b6040516101389190611010565b60405180910390f35b34801561014d57600080fd5b506101566104b4565b6040516101639190611046565b60405180910390f35b34801561017857600080fd5b506101816105c5565b60405161018e9190611046565b60405180910390f35b3480156101a357600080fd5b506101be60048036038101906101b9919061109c565b6107b4565b6040516101cb9190611046565b60405180910390f35b3480156101e057600080fd5b506101fb60048036038101906101f691906110f5565b610ad8565b6040516102089190611131565b60405180910390f35b34801561021d57600080fd5b50610226610af0565b6040516102339190611010565b60405180910390f35b34801561024857600080fd5b50610251610b16565b60405161025e91906111ab565b60405180910390f35b34801561027357600080fd5b5061027c610b3c565b6040516102899190611131565b60405180910390f35b34801561029e57600080fd5b506102a7610b42565b6040516102b49190611010565b60405180910390f35b3480156102c957600080fd5b506102d2610b68565b6040516102df9190611046565b60405180910390f35b3480156102f457600080fd5b506102fd610ee0565b60405161030a9190611131565b60405180910390f35b34801561031f57600080fd5b50610328610ee6565b604051610335919061123d565b60405180910390f35b34801561034a57600080fd5b50610353610ef9565b6040516103609190611131565b60405180910390f35b600780600001805461037a90611287565b80601f01602080910402602001604051908101604052809291908181526020018280546103a690611287565b80156103f35780601f106103c8576101008083540402835291602001916103f3565b820191906000526020600020905b8154815290600101906020018083116103d657829003601f168201915b50505050509080600101805461040890611287565b80601f016020809104026020016040519081016040528092919081815260200182805461043490611287565b80156104815780601f1061045657610100808354040283529160200191610481565b820191906000526020600020905b81548152906001019060200180831161046457829003601f168201915b5050505050905082565b60008060009054906101000a900473ffffffffffffffffffffffffffffffffffffffff16905090565b60008060009054906101000a900473ffffffffffffffffffffffffffffffffffffffff1673ffffffffffffffffffffffffffffffffffffffff163373ffffffffffffffffffffffffffffffffffffffff161461050f57600080fd5b6002544211158015610553575060018081111561052f5761052e6111c6565b5b600b60009054906101000a900460ff166001811115610551576105506111c6565b5b145b61055c57600080fd5b6000600b60006101000a81548160ff02191690836001811115610582576105816111c6565b5b02179055507f06b08932edfa95ecf10e18f8e389c58332551bbfe5faf843ed9afb329fd14118426040516105b69190611305565b60405180910390a16001905090565b600060025442118061060a5750600060018111156105e6576105e56111c6565b5b600b60009054906101000a900460ff166001811115610608576106076111c6565b5b145b610649576040517f08c379a0000000000000000000000000000000000000000000000000000000008152600401610640906113a5565b60405180910390fd5b6000600a60003373ffffffffffffffffffffffffffffffffffffffff1673ffffffffffffffffffffffffffffffffffffffff1681526020019081526020016000205490506000600a60003373ffffffffffffffffffffffffffffffffffffffff1673ffffffffffffffffffffffffffffffffffffffff16815260200190815260200160002081905550600660009054906101000a900473ffffffffffffffffffffffffffffffffffffffff1673ffffffffffffffffffffffffffffffffffffffff1663a9059cbb33836040518363ffffffff1660e01b815260040161072f9291906113c5565b6020604051808303816000875af115801561074e573d6000803e3d6000fd5b505050506040513d601f19601f82011682018060405250810190610772919061141a565b507f2f174ca282119315c59efaf21147aef438581dabdeb498198ae28964373dd8bc33826040516107a49291906113c5565b60405180910390a1600191505090565b600060025442111580156107fa57506001808111156107d6576107d56111c6565b5b600b60009054906101000a900460ff1660018111156107f8576107f76111c6565b5b145b61080357600080fd5b6000600a60003373ffffffffffffffffffffffffffffffffffffffff1673ffffffffffffffffffffffffffffffffffffffff1681526020019081526020016000205414610885576040517f08c379a000000000000000000000000000000000000000000000000000000000815260040161087c90611493565b60405180910390fd5b60035482116108c9576040517f08c379a00000000000000000000000000000000000000000000000000000000081526004016108c0906114ff565b60405180910390fd5b33600460006101000a81548173ffffffffffffffffffffffffffffffffffffffff021916908373ffffffffffffffffffffffffffffffffffffffff160217905550816003819055506009339080600181540180825580915050600190039060005260206000200160009091909190916101000a81548173ffffffffffffffffffffffffffffffffffffffff021916908373ffffffffffffffffffffffffffffffffffffffff160217905550600354600a60003373ffffffffffffffffffffffffffffffffffffffff1673ffffffffffffffffffffffffffffffffffffffff16815260200190815260200160002081905550600660009054906101000a900473ffffffffffffffffffffffffffffffffffffffff1673ffffffffffffffffffffffffffffffffffffffff166323b872dd3330856040518463ffffffff1660e01b8152600401610a199392919061151f565b6020604051808303816000875af1158015610a38573d6000803e3d6000fd5b505050506040513d601f19601f82011682018060405250810190610a5c919061141a565b50600460009054906101000a900473ffffffffffffffffffffffffffffffffffffffff1673ffffffffffffffffffffffffffffffffffffffff167f0d993d4f8a84158f5329713d6d13ef54e77b325040c887c8b3e565cfd0cd3e21600354604051610ac79190611131565b60405180910390a260019050919050565b600a6020528060005260406000206000915090505481565b600560009054906101000a900473ffffffffffffffffffffffffffffffffffffffff1681565b600660009054906101000a900473ffffffffffffffffffffffffffffffffffffffff1681565b60015481565b600460009054906101000a900473ffffffffffffffffffffffffffffffffffffffff1681565b60008060009054906101000a900473ffffffffffffffffffffffffffffffffffffffff1673ffffffffffffffffffffffffffffffffffffffff163373ffffffffffffffffffffffffffffffffffffffff1614610bc357600080fd5b600254421180610c06575060006001811115610be257610be16111c6565b5b600b60009054906101000a900460ff166001811115610c0457610c036111c6565b5b145b610c45576040517f08c379a0000000000000000000000000000000000000000000000000000000008152600401610c3c906115c8565b60405180910390fd5b60005b600980549050811015610ea6576000600a600060098481548110610c6f57610c6e6115e8565b5b9060005260206000200160009054906101000a900473ffffffffffffffffffffffffffffffffffffffff1673ffffffffffffffffffffffffffffffffffffffff1673ffffffffffffffffffffffffffffffffffffffff1681526020019081526020016000205414158015610d6f5750600460009054906101000a900473ffffffffffffffffffffffffffffffffffffffff1673ffffffffffffffffffffffffffffffffffffffff1660098281548110610d2b57610d2a6115e8565b5b9060005260206000200160009054906101000a900473ffffffffffffffffffffffffffffffffffffffff1673ffffffffffffffffffffffffffffffffffffffff1614155b15610e9357600660009054906101000a900473ffffffffffffffffffffffffffffffffffffffff1673ffffffffffffffffffffffffffffffffffffffff1663a9059cbb33600a600060098681548110610dcb57610dca6115e8565b5b9060005260206000200160009054906101000a900473ffffffffffffffffffffffffffffffffffffffff1673ffffffffffffffffffffffffffffffffffffffff1673ffffffffffffffffffffffffffffffffffffffff168152602001908152602001600020546040518363ffffffff1660e01b8152600401610e4e9291906113c5565b6020604051808303816000875af1158015610e6d573d6000803e3d6000fd5b505050506040513d601f19601f82011682018060405250810190610e91919061141a565b505b8080610e9e90611646565b915050610c48565b5060008054906101000a900473ffffffffffffffffffffffffffffffffffffffff1673ffffffffffffffffffffffffffffffffffffffff16ff5b60025481565b600b60009054906101000a900460ff1681565b60035481565b600081519050919050565b600082825260208201905092915050565b60005b83811015610f39578082015181840152602081019050610f1e565b83811115610f48576000848401525b50505050565b6000601f19601f8301169050919050565b6000610f6a82610eff565b610f748185610f0a565b9350610f84818560208601610f1b565b610f8d81610f4e565b840191505092915050565b60006040820190508181036000830152610fb28185610f5f565b90508181036020830152610fc68184610f5f565b90509392505050565b600073ffffffffffffffffffffffffffffffffffffffff82169050919050565b6000610ffa82610fcf565b9050919050565b61100a81610fef565b82525050565b60006020820190506110256000830184611001565b92915050565b60008115159050919050565b6110408161102b565b82525050565b600060208201905061105b6000830184611037565b92915050565b600080fd5b6000819050919050565b61107981611066565b811461108457600080fd5b50565b60008135905061109681611070565b92915050565b6000602082840312156110b2576110b1611061565b5b60006110c084828501611087565b91505092915050565b6110d281610fef565b81146110dd57600080fd5b50565b6000813590506110ef816110c9565b92915050565b60006020828403121561110b5761110a611061565b5b6000611119848285016110e0565b91505092915050565b61112b81611066565b82525050565b60006020820190506111466000830184611122565b92915050565b6000819050919050565b600061117161116c61116784610fcf565b61114c565b610fcf565b9050919050565b600061118382611156565b9050919050565b600061119582611178565b9050919050565b6111a58161118a565b82525050565b60006020820190506111c0600083018461119c565b92915050565b7f4e487b7100000000000000000000000000000000000000000000000000000000600052602160045260246000fd5b60028110611206576112056111c6565b5b50565b6000819050611217826111f5565b919050565b600061122782611209565b9050919050565b6112378161121c565b82525050565b6000602082019050611252600083018461122e565b92915050565b7f4e487b7100000000000000000000000000000000000000000000000000000000600052602260045260246000fd5b6000600282049050600182168061129f57607f821691505b602082108114156112b3576112b2611258565b5b50919050565b7f41756374696f6e2043616e63656c6c6564000000000000000000000000000000600082015250565b60006112ef601183610f0a565b91506112fa826112b9565b602082019050919050565b6000604082019050818103600083015261131e816112e2565b905061132d6020830184611122565b92915050565b7f596f752063616e27742077697468647261772c207468652061756374696f6e2060008201527f6973207374696c6c206f70656e00000000000000000000000000000000000000602082015250565b600061138f602d83610f0a565b915061139a82611333565b604082019050919050565b600060208201905081810360008301526113be81611382565b9050919050565b60006040820190506113da6000830185611001565b6113e76020830184611122565b9392505050565b6113f78161102b565b811461140257600080fd5b50565b600081519050611414816113ee565b92915050565b6000602082840312156114305761142f611061565b5b600061143e84828501611405565b91505092915050565b7f596f7520616c7265616479206d61646520612062696400000000000000000000600082015250565b600061147d601683610f0a565b915061148882611447565b602082019050919050565b600060208201905081810360008301526114ac81611470565b9050919050565b7f596f752063616e2774206269642c204d616b6520612068696768657220426964600082015250565b60006114e9602083610f0a565b91506114f4826114b3565b602082019050919050565b60006020820190508181036000830152611518816114dc565b9050919050565b60006060820190506115346000830186611001565b6115416020830185611001565b61154e6040830184611122565b949350505050565b7f596f752063616e27742064657374727563742074686520636f6e74726163742c60008201527f5468652061756374696f6e206973207374696c6c206f70656e00000000000000602082015250565b60006115b2603983610f0a565b91506115bd82611556565b604082019050919050565b600060208201905081810360008301526115e1816115a5565b9050919050565b7f4e487b7100000000000000000000000000000000000000000000000000000000600052603260045260246000fd5b7f4e487b7100000000000000000000000000000000000000000000000000000000600052601160045260246000fd5b600061165182611066565b91507fffffffffffffffffffffffffffffffffffffffffffffffffffffffffffffffff82141561168457611683611617565b5b60018201905091905056fea26469706673582212204e3389891548198cb356eb08c20667ad7ae06e59ce56676e99324a86530c0b2364736f6c634300080a0033",
			"opcodes": "PUSH1 0x80 PUSH1 0x40 MSTORE CALLVALUE DUP1 ISZERO PUSH3 0x11 JUMPI PUSH1 0x0 DUP1 REVERT JUMPDEST POP PUSH1 0x40 MLOAD PUSH3 0x1FDA CODESIZE SUB DUP1 PUSH3 0x1FDA DUP4 CODECOPY DUP2 DUP2 ADD PUSH1 0x40 MSTORE DUP2 ADD SWAP1 PUSH3 0x37 SWAP2 SWAP1 PUSH3 0x573 JUMP JUMPDEST DUP1 PUSH1 0x5 PUSH1 0x0 PUSH2 0x100 EXP DUP2 SLOAD DUP2 PUSH20 0xFFFFFFFFFFFFFFFFFFFFFFFFFFFFFFFFFFFFFFFF MUL NOT AND SWAP1 DUP4 PUSH20 0xFFFFFFFFFFFFFFFFFFFFFFFFFFFFFFFFFFFFFFFF AND MUL OR SWAP1 SSTORE POP PUSH1 0x0 PUSH1 0x5 PUSH1 0x0 SWAP1 SLOAD SWAP1 PUSH2 0x100 EXP SWAP1 DIV PUSH20 0xFFFFFFFFFFFFFFFFFFFFFFFFFFFFFFFFFFFFFFFF AND SWAP1 POP PUSH1 0x0 DUP2 PUSH20 0xFFFFFFFFFFFFFFFFFFFFFFFFFFFFFFFFFFFFFFFF AND PUSH4 0x9AE631D6 DUP7 PUSH1 0x40 MLOAD DUP3 PUSH4 0xFFFFFFFF AND PUSH1 0xE0 SHL DUP2 MSTORE PUSH1 0x4 ADD PUSH3 0xDC SWAP2 SWAP1 PUSH3 0x696 JUMP JUMPDEST PUSH1 0x20 PUSH1 0x40 MLOAD DUP1 DUP4 SUB DUP2 DUP7 GAS STATICCALL ISZERO DUP1 ISZERO PUSH3 0xFA JUMPI RETURNDATASIZE PUSH1 0x0 DUP1 RETURNDATACOPY RETURNDATASIZE PUSH1 0x0 REVERT JUMPDEST POP POP POP POP PUSH1 0x40 MLOAD RETURNDATASIZE PUSH1 0x1F NOT PUSH1 0x1F DUP3 ADD AND DUP3 ADD DUP1 PUSH1 0x40 MSTORE POP DUP2 ADD SWAP1 PUSH3 0x120 SWAP2 SWAP1 PUSH3 0x6BA JUMP JUMPDEST GT PUSH3 0x163 JUMPI PUSH1 0x40 MLOAD PUSH32 0x8C379A000000000000000000000000000000000000000000000000000000000 DUP2 MSTORE PUSH1 0x4 ADD PUSH3 0x15A SWAP1 PUSH3 0x762 JUMP JUMPDEST PUSH1 0x40 MLOAD DUP1 SWAP2 SUB SWAP1 REVERT JUMPDEST DUP5 PUSH1 0x0 DUP1 PUSH2 0x100 EXP DUP2 SLOAD DUP2 PUSH20 0xFFFFFFFFFFFFFFFFFFFFFFFFFFFFFFFFFFFFFFFF MUL NOT AND SWAP1 DUP4 PUSH20 0xFFFFFFFFFFFFFFFFFFFFFFFFFFFFFFFFFFFFFFFF AND MUL OR SWAP1 SSTORE POP TIMESTAMP PUSH1 0x1 DUP2 SWAP1 SSTORE POP PUSH2 0xE10 DUP7 PUSH3 0x1BA SWAP2 SWAP1 PUSH3 0x7B3 JUMP JUMPDEST PUSH1 0x1 SLOAD PUSH3 0x1C9 SWAP2 SWAP1 PUSH3 0x814 JUMP JUMPDEST PUSH1 0x2 DUP2 SWAP1 SSTORE POP PUSH1 0x1 PUSH1 0xB PUSH1 0x0 PUSH2 0x100 EXP DUP2 SLOAD DUP2 PUSH1 0xFF MUL NOT AND SWAP1 DUP4 PUSH1 0x1 DUP2 GT ISZERO PUSH3 0x1F8 JUMPI PUSH3 0x1F7 PUSH3 0x871 JUMP JUMPDEST JUMPDEST MUL OR SWAP1 SSTORE POP DUP4 PUSH1 0x7 PUSH1 0x0 ADD SWAP1 DUP1 MLOAD SWAP1 PUSH1 0x20 ADD SWAP1 PUSH3 0x218 SWAP3 SWAP2 SWAP1 PUSH3 0x241 JUMP JUMPDEST POP DUP3 PUSH1 0x7 PUSH1 0x1 ADD SWAP1 DUP1 MLOAD SWAP1 PUSH1 0x20 ADD SWAP1 PUSH3 0x234 SWAP3 SWAP2 SWAP1 PUSH3 0x241 JUMP JUMPDEST POP POP POP POP POP POP POP PUSH3 0x905 JUMP JUMPDEST DUP3 DUP1 SLOAD PUSH3 0x24F SWAP1 PUSH3 0x8CF JUMP JUMPDEST SWAP1 PUSH1 0x0 MSTORE PUSH1 0x20 PUSH1 0x0 KECCAK256 SWAP1 PUSH1 0x1F ADD PUSH1 0x20 SWAP1 DIV DUP2 ADD SWAP3 DUP3 PUSH3 0x273 JUMPI PUSH1 0x0 DUP6 SSTORE PUSH3 0x2BF JUMP JUMPDEST DUP3 PUSH1 0x1F LT PUSH3 0x28E JUMPI DUP1 MLOAD PUSH1 0xFF NOT AND DUP4 DUP1 ADD OR DUP6 SSTORE PUSH3 0x2BF JUMP JUMPDEST DUP3 DUP1 ADD PUSH1 0x1 ADD DUP6 SSTORE DUP3 ISZERO PUSH3 0x2BF JUMPI SWAP2 DUP3 ADD JUMPDEST DUP3 DUP2 GT ISZERO PUSH3 0x2BE JUMPI DUP3 MLOAD DUP3 SSTORE SWAP2 PUSH1 0x20 ADD SWAP2 SWAP1 PUSH1 0x1 ADD SWAP1 PUSH3 0x2A1 JUMP JUMPDEST JUMPDEST POP SWAP1 POP PUSH3 0x2CE SWAP2 SWAP1 PUSH3 0x2D2 JUMP JUMPDEST POP SWAP1 JUMP JUMPDEST JUMPDEST DUP1 DUP3 GT ISZERO PUSH3 0x2ED JUMPI PUSH1 0x0 DUP2 PUSH1 0x0 SWAP1 SSTORE POP PUSH1 0x1 ADD PUSH3 0x2D3 JUMP JUMPDEST POP SWAP1 JUMP JUMPDEST PUSH1 0x0 PUSH1 0x40 MLOAD SWAP1 POP SWAP1 JUMP JUMPDEST PUSH1 0x0 DUP1 REVERT JUMPDEST PUSH1 0x0 DUP1 REVERT JUMPDEST PUSH1 0x0 DUP2 SWAP1 POP SWAP2 SWAP1 POP JUMP JUMPDEST PUSH3 0x31A DUP2 PUSH3 0x305 JUMP JUMPDEST DUP2 EQ PUSH3 0x326 JUMPI PUSH1 0x0 DUP1 REVERT JUMPDEST POP JUMP JUMPDEST PUSH1 0x0 DUP2 MLOAD SWAP1 POP PUSH3 0x33A DUP2 PUSH3 0x30F JUMP JUMPDEST SWAP3 SWAP2 POP POP JUMP JUMPDEST PUSH1 0x0 PUSH20 0xFFFFFFFFFFFFFFFFFFFFFFFFFFFFFFFFFFFFFFFF DUP3 AND SWAP1 POP SWAP2 SWAP1 POP JUMP JUMPDEST PUSH1 0x0 PUSH3 0x36D DUP3 PUSH3 0x340 JUMP JUMPDEST SWAP1 POP SWAP2 SWAP1 POP JUMP JUMPDEST PUSH3 0x37F DUP2 PUSH3 0x360 JUMP JUMPDEST DUP2 EQ PUSH3 0x38B JUMPI PUSH1 0x0 DUP1 REVERT JUMPDEST POP JUMP JUMPDEST PUSH1 0x0 DUP2 MLOAD SWAP1 POP PUSH3 0x39F DUP2 PUSH3 0x374 JUMP JUMPDEST SWAP3 SWAP2 POP POP JUMP JUMPDEST PUSH1 0x0 DUP1 REVERT JUMPDEST PUSH1 0x0 DUP1 REVERT JUMPDEST PUSH1 0x0 PUSH1 0x1F NOT PUSH1 0x1F DUP4 ADD AND SWAP1 POP SWAP2 SWAP1 POP JUMP JUMPDEST PUSH32 0x4E487B7100000000000000000000000000000000000000000000000000000000 PUSH1 0x0 MSTORE PUSH1 0x41 PUSH1 0x4 MSTORE PUSH1 0x24 PUSH1 0x0 REVERT JUMPDEST PUSH3 0x3FA DUP3 PUSH3 0x3AF JUMP JUMPDEST DUP2 ADD DUP2 DUP2 LT PUSH8 0xFFFFFFFFFFFFFFFF DUP3 GT OR ISZERO PUSH3 0x41C JUMPI PUSH3 0x41B PUSH3 0x3C0 JUMP JUMPDEST JUMPDEST DUP1 PUSH1 0x40 MSTORE POP POP POP JUMP JUMPDEST PUSH1 0x0 PUSH3 0x431 PUSH3 0x2F1 JUMP JUMPDEST SWAP1 POP PUSH3 0x43F DUP3 DUP3 PUSH3 0x3EF JUMP JUMPDEST SWAP2 SWAP1 POP JUMP JUMPDEST PUSH1 0x0 PUSH8 0xFFFFFFFFFFFFFFFF DUP3 GT ISZERO PUSH3 0x462 JUMPI PUSH3 0x461 PUSH3 0x3C0 JUMP JUMPDEST JUMPDEST PUSH3 0x46D DUP3 PUSH3 0x3AF JUMP JUMPDEST SWAP1 POP PUSH1 0x20 DUP2 ADD SWAP1 POP SWAP2 SWAP1 POP JUMP JUMPDEST PUSH1 0x0 JUMPDEST DUP4 DUP2 LT ISZERO PUSH3 0x49A JUMPI DUP1 DUP3 ADD MLOAD DUP2 DUP5 ADD MSTORE PUSH1 0x20 DUP2 ADD SWAP1 POP PUSH3 0x47D JUMP JUMPDEST DUP4 DUP2 GT ISZERO PUSH3 0x4AA JUMPI PUSH1 0x0 DUP5 DUP5 ADD MSTORE JUMPDEST POP POP POP POP JUMP JUMPDEST PUSH1 0x0 PUSH3 0x4C7 PUSH3 0x4C1 DUP5 PUSH3 0x444 JUMP JUMPDEST PUSH3 0x425 JUMP JUMPDEST SWAP1 POP DUP3 DUP2 MSTORE PUSH1 0x20 DUP2 ADD DUP5 DUP5 DUP5 ADD GT ISZERO PUSH3 0x4E6 JUMPI PUSH3 0x4E5 PUSH3 0x3AA JUMP JUMPDEST JUMPDEST PUSH3 0x4F3 DUP5 DUP3 DUP6 PUSH3 0x47A JUMP JUMPDEST POP SWAP4 SWAP3 POP POP POP JUMP JUMPDEST PUSH1 0x0 DUP3 PUSH1 0x1F DUP4 ADD SLT PUSH3 0x513 JUMPI PUSH3 0x512 PUSH3 0x3A5 JUMP JUMPDEST JUMPDEST DUP2 MLOAD PUSH3 0x525 DUP5 DUP3 PUSH1 0x20 DUP7 ADD PUSH3 0x4B0 JUMP JUMPDEST SWAP2 POP POP SWAP3 SWAP2 POP POP JUMP JUMPDEST PUSH1 0x0 PUSH3 0x53B DUP3 PUSH3 0x340 JUMP JUMPDEST SWAP1 POP SWAP2 SWAP1 POP JUMP JUMPDEST PUSH3 0x54D DUP2 PUSH3 0x52E JUMP JUMPDEST DUP2 EQ PUSH3 0x559 JUMPI PUSH1 0x0 DUP1 REVERT JUMPDEST POP JUMP JUMPDEST PUSH1 0x0 DUP2 MLOAD SWAP1 POP PUSH3 0x56D DUP2 PUSH3 0x542 JUMP JUMPDEST SWAP3 SWAP2 POP POP JUMP JUMPDEST PUSH1 0x0 DUP1 PUSH1 0x0 DUP1 PUSH1 0x0 PUSH1 0xA0 DUP7 DUP9 SUB SLT ISZERO PUSH3 0x592 JUMPI PUSH3 0x591 PUSH3 0x2FB JUMP JUMPDEST JUMPDEST PUSH1 0x0 PUSH3 0x5A2 DUP9 DUP3 DUP10 ADD PUSH3 0x329 JUMP JUMPDEST SWAP6 POP POP PUSH1 0x20 PUSH3 0x5B5 DUP9 DUP3 DUP10 ADD PUSH3 0x38E JUMP JUMPDEST SWAP5 POP POP PUSH1 0x40 DUP7 ADD MLOAD PUSH8 0xFFFFFFFFFFFFFFFF DUP2 GT ISZERO PUSH3 0x5D9 JUMPI PUSH3 0x5D8 PUSH3 0x300 JUMP JUMPDEST JUMPDEST PUSH3 0x5E7 DUP9 DUP3 DUP10 ADD PUSH3 0x4FB JUMP JUMPDEST SWAP4 POP POP PUSH1 0x60 DUP7 ADD MLOAD PUSH8 0xFFFFFFFFFFFFFFFF DUP2 GT ISZERO PUSH3 0x60B JUMPI PUSH3 0x60A PUSH3 0x300 JUMP JUMPDEST JUMPDEST PUSH3 0x619 DUP9 DUP3 DUP10 ADD PUSH3 0x4FB JUMP JUMPDEST SWAP3 POP POP PUSH1 0x80 PUSH3 0x62C DUP9 DUP3 DUP10 ADD PUSH3 0x55C JUMP JUMPDEST SWAP2 POP POP SWAP3 SWAP6 POP SWAP3 SWAP6 SWAP1 SWAP4 POP JUMP JUMPDEST PUSH1 0x0 DUP2 MLOAD SWAP1 POP SWAP2 SWAP1 POP JUMP JUMPDEST PUSH1 0x0 DUP3 DUP3 MSTORE PUSH1 0x20 DUP3 ADD SWAP1 POP SWAP3 SWAP2 POP POP JUMP JUMPDEST PUSH1 0x0 PUSH3 0x662 DUP3 PUSH3 0x639 JUMP JUMPDEST PUSH3 0x66E DUP2 DUP6 PUSH3 0x644 JUMP JUMPDEST SWAP4 POP PUSH3 0x680 DUP2 DUP6 PUSH1 0x20 DUP7 ADD PUSH3 0x47A JUMP JUMPDEST PUSH3 0x68B DUP2 PUSH3 0x3AF JUMP JUMPDEST DUP5 ADD SWAP2 POP POP SWAP3 SWAP2 POP POP JUMP JUMPDEST PUSH1 0x0 PUSH1 0x20 DUP3 ADD SWAP1 POP DUP2 DUP2 SUB PUSH1 0x0 DUP4 ADD MSTORE PUSH3 0x6B2 DUP2 DUP5 PUSH3 0x655 JUMP JUMPDEST SWAP1 POP SWAP3 SWAP2 POP POP JUMP JUMPDEST PUSH1 0x0 PUSH1 0x20 DUP3 DUP5 SUB SLT ISZERO PUSH3 0x6D3 JUMPI PUSH3 0x6D2 PUSH3 0x2FB JUMP JUMPDEST JUMPDEST PUSH1 0x0 PUSH3 0x6E3 DUP5 DUP3 DUP6 ADD PUSH3 0x329 JUMP JUMPDEST SWAP2 POP POP SWAP3 SWAP2 POP POP JUMP JUMPDEST PUSH32 0x54686973206272616E6420646F65736E277420657869737420696E2050726F64 PUSH1 0x0 DUP3 ADD MSTORE PUSH32 0x7563744964656E74696669636174696F6E000000000000000000000000000000 PUSH1 0x20 DUP3 ADD MSTORE POP JUMP JUMPDEST PUSH1 0x0 PUSH3 0x74A PUSH1 0x31 DUP4 PUSH3 0x644 JUMP JUMPDEST SWAP2 POP PUSH3 0x757 DUP3 PUSH3 0x6EC JUMP JUMPDEST PUSH1 0x40 DUP3 ADD SWAP1 POP SWAP2 SWAP1 POP JUMP JUMPDEST PUSH1 0x0 PUSH1 0x20 DUP3 ADD SWAP1 POP DUP2 DUP2 SUB PUSH1 0x0 DUP4 ADD MSTORE PUSH3 0x77D DUP2 PUSH3 0x73B JUMP JUMPDEST SWAP1 POP SWAP2 SWAP1 POP JUMP JUMPDEST PUSH32 0x4E487B7100000000000000000000000000000000000000000000000000000000 PUSH1 0x0 MSTORE PUSH1 0x11 PUSH1 0x4 MSTORE PUSH1 0x24 PUSH1 0x0 REVERT JUMPDEST PUSH1 0x0 PUSH3 0x7C0 DUP3 PUSH3 0x305 JUMP JUMPDEST SWAP2 POP PUSH3 0x7CD DUP4 PUSH3 0x305 JUMP JUMPDEST SWAP3 POP DUP2 PUSH32 0xFFFFFFFFFFFFFFFFFFFFFFFFFFFFFFFFFFFFFFFFFFFFFFFFFFFFFFFFFFFFFFFF DIV DUP4 GT DUP3 ISZERO ISZERO AND ISZERO PUSH3 0x809 JUMPI PUSH3 0x808 PUSH3 0x784 JUMP JUMPDEST JUMPDEST DUP3 DUP3 MUL SWAP1 POP SWAP3 SWAP2 POP POP JUMP JUMPDEST PUSH1 0x0 PUSH3 0x821 DUP3 PUSH3 0x305 JUMP JUMPDEST SWAP2 POP PUSH3 0x82E DUP4 PUSH3 0x305 JUMP JUMPDEST SWAP3 POP DUP3 PUSH32 0xFFFFFFFFFFFFFFFFFFFFFFFFFFFFFFFFFFFFFFFFFFFFFFFFFFFFFFFFFFFFFFFF SUB DUP3 GT ISZERO PUSH3 0x866 JUMPI PUSH3 0x865 PUSH3 0x784 JUMP JUMPDEST JUMPDEST DUP3 DUP3 ADD SWAP1 POP SWAP3 SWAP2 POP POP JUMP JUMPDEST PUSH32 0x4E487B7100000000000000000000000000000000000000000000000000000000 PUSH1 0x0 MSTORE PUSH1 0x21 PUSH1 0x4 MSTORE PUSH1 0x24 PUSH1 0x0 REVERT JUMPDEST PUSH32 0x4E487B7100000000000000000000000000000000000000000000000000000000 PUSH1 0x0 MSTORE PUSH1 0x22 PUSH1 0x4 MSTORE PUSH1 0x24 PUSH1 0x0 REVERT JUMPDEST PUSH1 0x0 PUSH1 0x2 DUP3 DIV SWAP1 POP PUSH1 0x1 DUP3 AND DUP1 PUSH3 0x8E8 JUMPI PUSH1 0x7F DUP3 AND SWAP2 POP JUMPDEST PUSH1 0x20 DUP3 LT DUP2 EQ ISZERO PUSH3 0x8FF JUMPI PUSH3 0x8FE PUSH3 0x8A0 JUMP JUMPDEST JUMPDEST POP SWAP2 SWAP1 POP JUMP JUMPDEST PUSH2 0x16C5 DUP1 PUSH3 0x915 PUSH1 0x0 CODECOPY PUSH1 0x0 RETURN INVALID PUSH1 0x80 PUSH1 0x40 MSTORE PUSH1 0x4 CALLDATASIZE LT PUSH2 0xE1 JUMPI PUSH1 0x0 CALLDATALOAD PUSH1 0xE0 SHR DUP1 PUSH4 0x7222E9E3 GT PUSH2 0x7F JUMPI DUP1 PUSH4 0xBBAFD3D4 GT PUSH2 0x59 JUMPI DUP1 PUSH4 0xBBAFD3D4 EQ PUSH2 0x2BD JUMPI DUP1 PUSH4 0xC458B65A EQ PUSH2 0x2E8 JUMPI DUP1 PUSH4 0xC486456C EQ PUSH2 0x313 JUMPI DUP1 PUSH4 0xD57BDE79 EQ PUSH2 0x33E JUMPI PUSH2 0xE8 JUMP JUMPDEST DUP1 PUSH4 0x7222E9E3 EQ PUSH2 0x23C JUMPI DUP1 PUSH4 0x78F45340 EQ PUSH2 0x267 JUMPI DUP1 PUSH4 0x91F90157 EQ PUSH2 0x292 JUMPI PUSH2 0xE8 JUMP JUMPDEST DUP1 PUSH4 0x3CCFD60B GT PUSH2 0xBB JUMPI DUP1 PUSH4 0x3CCFD60B EQ PUSH2 0x16C JUMPI DUP1 PUSH4 0x454A2AB3 EQ PUSH2 0x197 JUMPI DUP1 PUSH4 0x62EA82DB EQ PUSH2 0x1D4 JUMPI DUP1 PUSH4 0x6A655C76 EQ PUSH2 0x211 JUMPI PUSH2 0xE8 JUMP JUMPDEST DUP1 PUSH4 0x216F202 EQ PUSH2 0xEA JUMPI DUP1 PUSH4 0xAC298DC EQ PUSH2 0x116 JUMPI DUP1 PUSH4 0x3BA88CA1 EQ PUSH2 0x141 JUMPI PUSH2 0xE8 JUMP JUMPDEST CALLDATASIZE PUSH2 0xE8 JUMPI STOP JUMPDEST STOP JUMPDEST CALLVALUE DUP1 ISZERO PUSH2 0xF6 JUMPI PUSH1 0x0 DUP1 REVERT JUMPDEST POP PUSH2 0xFF PUSH2 0x369 JUMP JUMPDEST PUSH1 0x40 MLOAD PUSH2 0x10D SWAP3 SWAP2 SWAP1 PUSH2 0xF98 JUMP JUMPDEST PUSH1 0x40 MLOAD DUP1 SWAP2 SUB SWAP1 RETURN JUMPDEST CALLVALUE DUP1 ISZERO PUSH2 0x122 JUMPI PUSH1 0x0 DUP1 REVERT JUMPDEST POP PUSH2 0x12B PUSH2 0x48B JUMP JUMPDEST PUSH1 0x40 MLOAD PUSH2 0x138 SWAP2 SWAP1 PUSH2 0x1010 JUMP JUMPDEST PUSH1 0x40 MLOAD DUP1 SWAP2 SUB SWAP1 RETURN JUMPDEST CALLVALUE DUP1 ISZERO PUSH2 0x14D JUMPI PUSH1 0x0 DUP1 REVERT JUMPDEST POP PUSH2 0x156 PUSH2 0x4B4 JUMP JUMPDEST PUSH1 0x40 MLOAD PUSH2 0x163 SWAP2 SWAP1 PUSH2 0x1046 JUMP JUMPDEST PUSH1 0x40 MLOAD DUP1 SWAP2 SUB SWAP1 RETURN JUMPDEST CALLVALUE DUP1 ISZERO PUSH2 0x178 JUMPI PUSH1 0x0 DUP1 REVERT JUMPDEST POP PUSH2 0x181 PUSH2 0x5C5 JUMP JUMPDEST PUSH1 0x40 MLOAD PUSH2 0x18E SWAP2 SWAP1 PUSH2 0x1046 JUMP JUMPDEST PUSH1 0x40 MLOAD DUP1 SWAP2 SUB SWAP1 RETURN JUMPDEST CALLVALUE DUP1 ISZERO PUSH2 0x1A3 JUMPI PUSH1 0x0 DUP1 REVERT JUMPDEST POP PUSH2 0x1BE PUSH1 0x4 DUP1 CALLDATASIZE SUB DUP2 ADD SWAP1 PUSH2 0x1B9 SWAP2 SWAP1 PUSH2 0x109C JUMP JUMPDEST PUSH2 0x7B4 JUMP JUMPDEST PUSH1 0x40 MLOAD PUSH2 0x1CB SWAP2 SWAP1 PUSH2 0x1046 JUMP JUMPDEST PUSH1 0x40 MLOAD DUP1 SWAP2 SUB SWAP1 RETURN JUMPDEST CALLVALUE DUP1 ISZERO PUSH2 0x1E0 JUMPI PUSH1 0x0 DUP1 REVERT JUMPDEST POP PUSH2 0x1FB PUSH1 0x4 DUP1 CALLDATASIZE SUB DUP2 ADD SWAP1 PUSH2 0x1F6 SWAP2 SWAP1 PUSH2 0x10F5 JUMP JUMPDEST PUSH2 0xAD8 JUMP JUMPDEST PUSH1 0x40 MLOAD PUSH2 0x208 SWAP2 SWAP1 PUSH2 0x1131 JUMP JUMPDEST PUSH1 0x40 MLOAD DUP1 SWAP2 SUB SWAP1 RETURN JUMPDEST CALLVALUE DUP1 ISZERO PUSH2 0x21D JUMPI PUSH1 0x0 DUP1 REVERT JUMPDEST POP PUSH2 0x226 PUSH2 0xAF0 JUMP JUMPDEST PUSH1 0x40 MLOAD PUSH2 0x233 SWAP2 SWAP1 PUSH2 0x1010 JUMP JUMPDEST PUSH1 0x40 MLOAD DUP1 SWAP2 SUB SWAP1 RETURN JUMPDEST CALLVALUE DUP1 ISZERO PUSH2 0x248 JUMPI PUSH1 0x0 DUP1 REVERT JUMPDEST POP PUSH2 0x251 PUSH2 0xB16 JUMP JUMPDEST PUSH1 0x40 MLOAD PUSH2 0x25E SWAP2 SWAP1 PUSH2 0x11AB JUMP JUMPDEST PUSH1 0x40 MLOAD DUP1 SWAP2 SUB SWAP1 RETURN JUMPDEST CALLVALUE DUP1 ISZERO PUSH2 0x273 JUMPI PUSH1 0x0 DUP1 REVERT JUMPDEST POP PUSH2 0x27C PUSH2 0xB3C JUMP JUMPDEST PUSH1 0x40 MLOAD PUSH2 0x289 SWAP2 SWAP1 PUSH2 0x1131 JUMP JUMPDEST PUSH1 0x40 MLOAD DUP1 SWAP2 SUB SWAP1 RETURN JUMPDEST CALLVALUE DUP1 ISZERO PUSH2 0x29E JUMPI PUSH1 0x0 DUP1 REVERT JUMPDEST POP PUSH2 0x2A7 PUSH2 0xB42 JUMP JUMPDEST PUSH1 0x40 MLOAD PUSH2 0x2B4 SWAP2 SWAP1 PUSH2 0x1010 JUMP JUMPDEST PUSH1 0x40 MLOAD DUP1 SWAP2 SUB SWAP1 RETURN JUMPDEST CALLVALUE DUP1 ISZERO PUSH2 0x2C9 JUMPI PUSH1 0x0 DUP1 REVERT JUMPDEST POP PUSH2 0x2D2 PUSH2 0xB68 JUMP JUMPDEST PUSH1 0x40 MLOAD PUSH2 0x2DF SWAP2 SWAP1 PUSH2 0x1046 JUMP JUMPDEST PUSH1 0x40 MLOAD DUP1 SWAP2 SUB SWAP1 RETURN JUMPDEST CALLVALUE DUP1 ISZERO PUSH2 0x2F4 JUMPI PUSH1 0x0 DUP1 REVERT JUMPDEST POP PUSH2 0x2FD PUSH2 0xEE0 JUMP JUMPDEST PUSH1 0x40 MLOAD PUSH2 0x30A SWAP2 SWAP1 PUSH2 0x1131 JUMP JUMPDEST PUSH1 0x40 MLOAD DUP1 SWAP2 SUB SWAP1 RETURN JUMPDEST CALLVALUE DUP1 ISZERO PUSH2 0x31F JUMPI PUSH1 0x0 DUP1 REVERT JUMPDEST POP PUSH2 0x328 PUSH2 0xEE6 JUMP JUMPDEST PUSH1 0x40 MLOAD PUSH2 0x335 SWAP2 SWAP1 PUSH2 0x123D JUMP JUMPDEST PUSH1 0x40 MLOAD DUP1 SWAP2 SUB SWAP1 RETURN JUMPDEST CALLVALUE DUP1 ISZERO PUSH2 0x34A JUMPI PUSH1 0x0 DUP1 REVERT JUMPDEST POP PUSH2 0x353 PUSH2 0xEF9 JUMP JUMPDEST PUSH1 0x40 MLOAD PUSH2 0x360 SWAP2 SWAP1 PUSH2 0x1131 JUMP JUMPDEST PUSH1 0x40 MLOAD DUP1 SWAP2 SUB SWAP1 RETURN JUMPDEST PUSH1 0x7 DUP1 PUSH1 0x0 ADD DUP1 SLOAD PUSH2 0x37A SWAP1 PUSH2 0x1287 JUMP JUMPDEST DUP1 PUSH1 0x1F ADD PUSH1 0x20 DUP1 SWAP2 DIV MUL PUSH1 0x20 ADD PUSH1 0x40 MLOAD SWAP1 DUP2 ADD PUSH1 0x40 MSTORE DUP1 SWAP3 SWAP2 SWAP1 DUP2 DUP2 MSTORE PUSH1 0x20 ADD DUP3 DUP1 SLOAD PUSH2 0x3A6 SWAP1 PUSH2 0x1287 JUMP JUMPDEST DUP1 ISZERO PUSH2 0x3F3 JUMPI DUP1 PUSH1 0x1F LT PUSH2 0x3C8 JUMPI PUSH2 0x100 DUP1 DUP4 SLOAD DIV MUL DUP4 MSTORE SWAP2 PUSH1 0x20 ADD SWAP2 PUSH2 0x3F3 JUMP JUMPDEST DUP3 ADD SWAP2 SWAP1 PUSH1 0x0 MSTORE PUSH1 0x20 PUSH1 0x0 KECCAK256 SWAP1 JUMPDEST DUP2 SLOAD DUP2 MSTORE SWAP1 PUSH1 0x1 ADD SWAP1 PUSH1 0x20 ADD DUP1 DUP4 GT PUSH2 0x3D6 JUMPI DUP3 SWAP1 SUB PUSH1 0x1F AND DUP3 ADD SWAP2 JUMPDEST POP POP POP POP POP SWAP1 DUP1 PUSH1 0x1 ADD DUP1 SLOAD PUSH2 0x408 SWAP1 PUSH2 0x1287 JUMP JUMPDEST DUP1 PUSH1 0x1F ADD PUSH1 0x20 DUP1 SWAP2 DIV MUL PUSH1 0x20 ADD PUSH1 0x40 MLOAD SWAP1 DUP2 ADD PUSH1 0x40 MSTORE DUP1 SWAP3 SWAP2 SWAP1 DUP2 DUP2 MSTORE PUSH1 0x20 ADD DUP3 DUP1 SLOAD PUSH2 0x434 SWAP1 PUSH2 0x1287 JUMP JUMPDEST DUP1 ISZERO PUSH2 0x481 JUMPI DUP1 PUSH1 0x1F LT PUSH2 0x456 JUMPI PUSH2 0x100 DUP1 DUP4 SLOAD DIV MUL DUP4 MSTORE SWAP2 PUSH1 0x20 ADD SWAP2 PUSH2 0x481 JUMP JUMPDEST DUP3 ADD SWAP2 SWAP1 PUSH1 0x0 MSTORE PUSH1 0x20 PUSH1 0x0 KECCAK256 SWAP1 JUMPDEST DUP2 SLOAD DUP2 MSTORE SWAP1 PUSH1 0x1 ADD SWAP1 PUSH1 0x20 ADD DUP1 DUP4 GT PUSH2 0x464 JUMPI DUP3 SWAP1 SUB PUSH1 0x1F AND DUP3 ADD SWAP2 JUMPDEST POP POP POP POP POP SWAP1 POP DUP3 JUMP JUMPDEST PUSH1 0x0 DUP1 PUSH1 0x0 SWAP1 SLOAD SWAP1 PUSH2 0x100 EXP SWAP1 DIV PUSH20 0xFFFFFFFFFFFFFFFFFFFFFFFFFFFFFFFFFFFFFFFF AND SWAP1 POP SWAP1 JUMP JUMPDEST PUSH1 0x0 DUP1 PUSH1 0x0 SWAP1 SLOAD SWAP1 PUSH2 0x100 EXP SWAP1 DIV PUSH20 0xFFFFFFFFFFFFFFFFFFFFFFFFFFFFFFFFFFFFFFFF AND PUSH20 0xFFFFFFFFFFFFFFFFFFFFFFFFFFFFFFFFFFFFFFFF AND CALLER PUSH20 0xFFFFFFFFFFFFFFFFFFFFFFFFFFFFFFFFFFFFFFFF AND EQ PUSH2 0x50F JUMPI PUSH1 0x0 DUP1 REVERT JUMPDEST PUSH1 0x2 SLOAD TIMESTAMP GT ISZERO DUP1 ISZERO PUSH2 0x553 JUMPI POP PUSH1 0x1 DUP1 DUP2 GT ISZERO PUSH2 0x52F JUMPI PUSH2 0x52E PUSH2 0x11C6 JUMP JUMPDEST JUMPDEST PUSH1 0xB PUSH1 0x0 SWAP1 SLOAD SWAP1 PUSH2 0x100 EXP SWAP1 DIV PUSH1 0xFF AND PUSH1 0x1 DUP2 GT ISZERO PUSH2 0x551 JUMPI PUSH2 0x550 PUSH2 0x11C6 JUMP JUMPDEST JUMPDEST EQ JUMPDEST PUSH2 0x55C JUMPI PUSH1 0x0 DUP1 REVERT JUMPDEST PUSH1 0x0 PUSH1 0xB PUSH1 0x0 PUSH2 0x100 EXP DUP2 SLOAD DUP2 PUSH1 0xFF MUL NOT AND SWAP1 DUP4 PUSH1 0x1 DUP2 GT ISZERO PUSH2 0x582 JUMPI PUSH2 0x581 PUSH2 0x11C6 JUMP JUMPDEST JUMPDEST MUL OR SWAP1 SSTORE POP PUSH32 0x6B08932EDFA95ECF10E18F8E389C58332551BBFE5FAF843ED9AFB329FD14118 TIMESTAMP PUSH1 0x40 MLOAD PUSH2 0x5B6 SWAP2 SWAP1 PUSH2 0x1305 JUMP JUMPDEST PUSH1 0x40 MLOAD DUP1 SWAP2 SUB SWAP1 LOG1 PUSH1 0x1 SWAP1 POP SWAP1 JUMP JUMPDEST PUSH1 0x0 PUSH1 0x2 SLOAD TIMESTAMP GT DUP1 PUSH2 0x60A JUMPI POP PUSH1 0x0 PUSH1 0x1 DUP2 GT ISZERO PUSH2 0x5E6 JUMPI PUSH2 0x5E5 PUSH2 0x11C6 JUMP JUMPDEST JUMPDEST PUSH1 0xB PUSH1 0x0 SWAP1 SLOAD SWAP1 PUSH2 0x100 EXP SWAP1 DIV PUSH1 0xFF AND PUSH1 0x1 DUP2 GT ISZERO PUSH2 0x608 JUMPI PUSH2 0x607 PUSH2 0x11C6 JUMP JUMPDEST JUMPDEST EQ JUMPDEST PUSH2 0x649 JUMPI PUSH1 0x40 MLOAD PUSH32 0x8C379A000000000000000000000000000000000000000000000000000000000 DUP2 MSTORE PUSH1 0x4 ADD PUSH2 0x640 SWAP1 PUSH2 0x13A5 JUMP JUMPDEST PUSH1 0x40 MLOAD DUP1 SWAP2 SUB SWAP1 REVERT JUMPDEST PUSH1 0x0 PUSH1 0xA PUSH1 0x0 CALLER PUSH20 0xFFFFFFFFFFFFFFFFFFFFFFFFFFFFFFFFFFFFFFFF AND PUSH20 0xFFFFFFFFFFFFFFFFFFFFFFFFFFFFFFFFFFFFFFFF AND DUP2 MSTORE PUSH1 0x20 ADD SWAP1 DUP2 MSTORE PUSH1 0x20 ADD PUSH1 0x0 KECCAK256 SLOAD SWAP1 POP PUSH1 0x0 PUSH1 0xA PUSH1 0x0 CALLER PUSH20 0xFFFFFFFFFFFFFFFFFFFFFFFFFFFFFFFFFFFFFFFF AND PUSH20 0xFFFFFFFFFFFFFFFFFFFFFFFFFFFFFFFFFFFFFFFF AND DUP2 MSTORE PUSH1 0x20 ADD SWAP1 DUP2 MSTORE PUSH1 0x20 ADD PUSH1 0x0 KECCAK256 DUP2 SWAP1 SSTORE POP PUSH1 0x6 PUSH1 0x0 SWAP1 SLOAD SWAP1 PUSH2 0x100 EXP SWAP1 DIV PUSH20 0xFFFFFFFFFFFFFFFFFFFFFFFFFFFFFFFFFFFFFFFF AND PUSH20 0xFFFFFFFFFFFFFFFFFFFFFFFFFFFFFFFFFFFFFFFF AND PUSH4 0xA9059CBB CALLER DUP4 PUSH1 0x40 MLOAD DUP4 PUSH4 0xFFFFFFFF AND PUSH1 0xE0 SHL DUP2 MSTORE PUSH1 0x4 ADD PUSH2 0x72F SWAP3 SWAP2 SWAP1 PUSH2 0x13C5 JUMP JUMPDEST PUSH1 0x20 PUSH1 0x40 MLOAD DUP1 DUP4 SUB DUP2 PUSH1 0x0 DUP8 GAS CALL ISZERO DUP1 ISZERO PUSH2 0x74E JUMPI RETURNDATASIZE PUSH1 0x0 DUP1 RETURNDATACOPY RETURNDATASIZE PUSH1 0x0 REVERT JUMPDEST POP POP POP POP PUSH1 0x40 MLOAD RETURNDATASIZE PUSH1 0x1F NOT PUSH1 0x1F DUP3 ADD AND DUP3 ADD DUP1 PUSH1 0x40 MSTORE POP DUP2 ADD SWAP1 PUSH2 0x772 SWAP2 SWAP1 PUSH2 0x141A JUMP JUMPDEST POP PUSH32 0x2F174CA282119315C59EFAF21147AEF438581DABDEB498198AE28964373DD8BC CALLER DUP3 PUSH1 0x40 MLOAD PUSH2 0x7A4 SWAP3 SWAP2 SWAP1 PUSH2 0x13C5 JUMP JUMPDEST PUSH1 0x40 MLOAD DUP1 SWAP2 SUB SWAP1 LOG1 PUSH1 0x1 SWAP2 POP POP SWAP1 JUMP JUMPDEST PUSH1 0x0 PUSH1 0x2 SLOAD TIMESTAMP GT ISZERO DUP1 ISZERO PUSH2 0x7FA JUMPI POP PUSH1 0x1 DUP1 DUP2 GT ISZERO PUSH2 0x7D6 JUMPI PUSH2 0x7D5 PUSH2 0x11C6 JUMP JUMPDEST JUMPDEST PUSH1 0xB PUSH1 0x0 SWAP1 SLOAD SWAP1 PUSH2 0x100 EXP SWAP1 DIV PUSH1 0xFF AND PUSH1 0x1 DUP2 GT ISZERO PUSH2 0x7F8 JUMPI PUSH2 0x7F7 PUSH2 0x11C6 JUMP JUMPDEST JUMPDEST EQ JUMPDEST PUSH2 0x803 JUMPI PUSH1 0x0 DUP1 REVERT JUMPDEST PUSH1 0x0 PUSH1 0xA PUSH1 0x0 CALLER PUSH20 0xFFFFFFFFFFFFFFFFFFFFFFFFFFFFFFFFFFFFFFFF AND PUSH20 0xFFFFFFFFFFFFFFFFFFFFFFFFFFFFFFFFFFFFFFFF AND DUP2 MSTORE PUSH1 0x20 ADD SWAP1 DUP2 MSTORE PUSH1 0x20 ADD PUSH1 0x0 KECCAK256 SLOAD EQ PUSH2 0x885 JUMPI PUSH1 0x40 MLOAD PUSH32 0x8C379A000000000000000000000000000000000000000000000000000000000 DUP2 MSTORE PUSH1 0x4 ADD PUSH2 0x87C SWAP1 PUSH2 0x1493 JUMP JUMPDEST PUSH1 0x40 MLOAD DUP1 SWAP2 SUB SWAP1 REVERT JUMPDEST PUSH1 0x3 SLOAD DUP3 GT PUSH2 0x8C9 JUMPI PUSH1 0x40 MLOAD PUSH32 0x8C379A000000000000000000000000000000000000000000000000000000000 DUP2 MSTORE PUSH1 0x4 ADD PUSH2 0x8C0 SWAP1 PUSH2 0x14FF JUMP JUMPDEST PUSH1 0x40 MLOAD DUP1 SWAP2 SUB SWAP1 REVERT JUMPDEST CALLER PUSH1 0x4 PUSH1 0x0 PUSH2 0x100 EXP DUP2 SLOAD DUP2 PUSH20 0xFFFFFFFFFFFFFFFFFFFFFFFFFFFFFFFFFFFFFFFF MUL NOT AND SWAP1 DUP4 PUSH20 0xFFFFFFFFFFFFFFFFFFFFFFFFFFFFFFFFFFFFFFFF AND MUL OR SWAP1 SSTORE POP DUP2 PUSH1 0x3 DUP2 SWAP1 SSTORE POP PUSH1 0x9 CALLER SWAP1 DUP1 PUSH1 0x1 DUP2 SLOAD ADD DUP1 DUP3 SSTORE DUP1 SWAP2 POP POP PUSH1 0x1 SWAP1 SUB SWAP1 PUSH1 0x0 MSTORE PUSH1 0x20 PUSH1 0x0 KECCAK256 ADD PUSH1 0x0 SWAP1 SWAP2 SWAP1 SWAP2 SWAP1 SWAP2 PUSH2 0x100 EXP DUP2 SLOAD DUP2 PUSH20 0xFFFFFFFFFFFFFFFFFFFFFFFFFFFFFFFFFFFFFFFF MUL NOT AND SWAP1 DUP4 PUSH20 0xFFFFFFFFFFFFFFFFFFFFFFFFFFFFFFFFFFFFFFFF AND MUL OR SWAP1 SSTORE POP PUSH1 0x3 SLOAD PUSH1 0xA PUSH1 0x0 CALLER PUSH20 0xFFFFFFFFFFFFFFFFFFFFFFFFFFFFFFFFFFFFFFFF AND PUSH20 0xFFFFFFFFFFFFFFFFFFFFFFFFFFFFFFFFFFFFFFFF AND DUP2 MSTORE PUSH1 0x20 ADD SWAP1 DUP2 MSTORE PUSH1 0x20 ADD PUSH1 0x0 KECCAK256 DUP2 SWAP1 SSTORE POP PUSH1 0x6 PUSH1 0x0 SWAP1 SLOAD SWAP1 PUSH2 0x100 EXP SWAP1 DIV PUSH20 0xFFFFFFFFFFFFFFFFFFFFFFFFFFFFFFFFFFFFFFFF AND PUSH20 0xFFFFFFFFFFFFFFFFFFFFFFFFFFFFFFFFFFFFFFFF AND PUSH4 0x23B872DD CALLER ADDRESS DUP6 PUSH1 0x40 MLOAD DUP5 PUSH4 0xFFFFFFFF AND PUSH1 0xE0 SHL DUP2 MSTORE PUSH1 0x4 ADD PUSH2 0xA19 SWAP4 SWAP3 SWAP2 SWAP1 PUSH2 0x151F JUMP JUMPDEST PUSH1 0x20 PUSH1 0x40 MLOAD DUP1 DUP4 SUB DUP2 PUSH1 0x0 DUP8 GAS CALL ISZERO DUP1 ISZERO PUSH2 0xA38 JUMPI RETURNDATASIZE PUSH1 0x0 DUP1 RETURNDATACOPY RETURNDATASIZE PUSH1 0x0 REVERT JUMPDEST POP POP POP POP PUSH1 0x40 MLOAD RETURNDATASIZE PUSH1 0x1F NOT PUSH1 0x1F DUP3 ADD AND DUP3 ADD DUP1 PUSH1 0x40 MSTORE POP DUP2 ADD SWAP1 PUSH2 0xA5C SWAP2 SWAP1 PUSH2 0x141A JUMP JUMPDEST POP PUSH1 0x4 PUSH1 0x0 SWAP1 SLOAD SWAP1 PUSH2 0x100 EXP SWAP1 DIV PUSH20 0xFFFFFFFFFFFFFFFFFFFFFFFFFFFFFFFFFFFFFFFF AND PUSH20 0xFFFFFFFFFFFFFFFFFFFFFFFFFFFFFFFFFFFFFFFF AND PUSH32 0xD993D4F8A84158F5329713D6D13EF54E77B325040C887C8B3E565CFD0CD3E21 PUSH1 0x3 SLOAD PUSH1 0x40 MLOAD PUSH2 0xAC7 SWAP2 SWAP1 PUSH2 0x1131 JUMP JUMPDEST PUSH1 0x40 MLOAD DUP1 SWAP2 SUB SWAP1 LOG2 PUSH1 0x1 SWAP1 POP SWAP2 SWAP1 POP JUMP JUMPDEST PUSH1 0xA PUSH1 0x20 MSTORE DUP1 PUSH1 0x0 MSTORE PUSH1 0x40 PUSH1 0x0 KECCAK256 PUSH1 0x0 SWAP2 POP SWAP1 POP SLOAD DUP2 JUMP JUMPDEST PUSH1 0x5 PUSH1 0x0 SWAP1 SLOAD SWAP1 PUSH2 0x100 EXP SWAP1 DIV PUSH20 0xFFFFFFFFFFFFFFFFFFFFFFFFFFFFFFFFFFFFFFFF AND DUP2 JUMP JUMPDEST PUSH1 0x6 PUSH1 0x0 SWAP1 SLOAD SWAP1 PUSH2 0x100 EXP SWAP1 DIV PUSH20 0xFFFFFFFFFFFFFFFFFFFFFFFFFFFFFFFFFFFFFFFF AND DUP2 JUMP JUMPDEST PUSH1 0x1 SLOAD DUP2 JUMP JUMPDEST PUSH1 0x4 PUSH1 0x0 SWAP1 SLOAD SWAP1 PUSH2 0x100 EXP SWAP1 DIV PUSH20 0xFFFFFFFFFFFFFFFFFFFFFFFFFFFFFFFFFFFFFFFF AND DUP2 JUMP JUMPDEST PUSH1 0x0 DUP1 PUSH1 0x0 SWAP1 SLOAD SWAP1 PUSH2 0x100 EXP SWAP1 DIV PUSH20 0xFFFFFFFFFFFFFFFFFFFFFFFFFFFFFFFFFFFFFFFF AND PUSH20 0xFFFFFFFFFFFFFFFFFFFFFFFFFFFFFFFFFFFFFFFF AND CALLER PUSH20 0xFFFFFFFFFFFFFFFFFFFFFFFFFFFFFFFFFFFFFFFF AND EQ PUSH2 0xBC3 JUMPI PUSH1 0x0 DUP1 REVERT JUMPDEST PUSH1 0x2 SLOAD TIMESTAMP GT DUP1 PUSH2 0xC06 JUMPI POP PUSH1 0x0 PUSH1 0x1 DUP2 GT ISZERO PUSH2 0xBE2 JUMPI PUSH2 0xBE1 PUSH2 0x11C6 JUMP JUMPDEST JUMPDEST PUSH1 0xB PUSH1 0x0 SWAP1 SLOAD SWAP1 PUSH2 0x100 EXP SWAP1 DIV PUSH1 0xFF AND PUSH1 0x1 DUP2 GT ISZERO PUSH2 0xC04 JUMPI PUSH2 0xC03 PUSH2 0x11C6 JUMP JUMPDEST JUMPDEST EQ JUMPDEST PUSH2 0xC45 JUMPI PUSH1 0x40 MLOAD PUSH32 0x8C379A000000000000000000000000000000000000000000000000000000000 DUP2 MSTORE PUSH1 0x4 ADD PUSH2 0xC3C SWAP1 PUSH2 0x15C8 JUMP JUMPDEST PUSH1 0x40 MLOAD DUP1 SWAP2 SUB SWAP1 REVERT JUMPDEST PUSH1 0x0 JUMPDEST PUSH1 0x9 DUP1 SLOAD SWAP1 POP DUP2 LT ISZERO PUSH2 0xEA6 JUMPI PUSH1 0x0 PUSH1 0xA PUSH1 0x0 PUSH1 0x9 DUP5 DUP2 SLOAD DUP2 LT PUSH2 0xC6F JUMPI PUSH2 0xC6E PUSH2 0x15E8 JUMP JUMPDEST JUMPDEST SWAP1 PUSH1 0x0 MSTORE PUSH1 0x20 PUSH1 0x0 KECCAK256 ADD PUSH1 0x0 SWAP1 SLOAD SWAP1 PUSH2 0x100 EXP SWAP1 DIV PUSH20 0xFFFFFFFFFFFFFFFFFFFFFFFFFFFFFFFFFFFFFFFF AND PUSH20 0xFFFFFFFFFFFFFFFFFFFFFFFFFFFFFFFFFFFFFFFF AND PUSH20 0xFFFFFFFFFFFFFFFFFFFFFFFFFFFFFFFFFFFFFFFF AND DUP2 MSTORE PUSH1 0x20 ADD SWAP1 DUP2 MSTORE PUSH1 0x20 ADD PUSH1 0x0 KECCAK256 SLOAD EQ ISZERO DUP1 ISZERO PUSH2 0xD6F JUMPI POP PUSH1 0x4 PUSH1 0x0 SWAP1 SLOAD SWAP1 PUSH2 0x100 EXP SWAP1 DIV PUSH20 0xFFFFFFFFFFFFFFFFFFFFFFFFFFFFFFFFFFFFFFFF AND PUSH20 0xFFFFFFFFFFFFFFFFFFFFFFFFFFFFFFFFFFFFFFFF AND PUSH1 0x9 DUP3 DUP2 SLOAD DUP2 LT PUSH2 0xD2B JUMPI PUSH2 0xD2A PUSH2 0x15E8 JUMP JUMPDEST JUMPDEST SWAP1 PUSH1 0x0 MSTORE PUSH1 0x20 PUSH1 0x0 KECCAK256 ADD PUSH1 0x0 SWAP1 SLOAD SWAP1 PUSH2 0x100 EXP SWAP1 DIV PUSH20 0xFFFFFFFFFFFFFFFFFFFFFFFFFFFFFFFFFFFFFFFF AND PUSH20 0xFFFFFFFFFFFFFFFFFFFFFFFFFFFFFFFFFFFFFFFF AND EQ ISZERO JUMPDEST ISZERO PUSH2 0xE93 JUMPI PUSH1 0x6 PUSH1 0x0 SWAP1 SLOAD SWAP1 PUSH2 0x100 EXP SWAP1 DIV PUSH20 0xFFFFFFFFFFFFFFFFFFFFFFFFFFFFFFFFFFFFFFFF AND PUSH20 0xFFFFFFFFFFFFFFFFFFFFFFFFFFFFFFFFFFFFFFFF AND PUSH4 0xA9059CBB CALLER PUSH1 0xA PUSH1 0x0 PUSH1 0x9 DUP7 DUP2 SLOAD DUP2 LT PUSH2 0xDCB JUMPI PUSH2 0xDCA PUSH2 0x15E8 JUMP JUMPDEST JUMPDEST SWAP1 PUSH1 0x0 MSTORE PUSH1 0x20 PUSH1 0x0 KECCAK256 ADD PUSH1 0x0 SWAP1 SLOAD SWAP1 PUSH2 0x100 EXP SWAP1 DIV PUSH20 0xFFFFFFFFFFFFFFFFFFFFFFFFFFFFFFFFFFFFFFFF AND PUSH20 0xFFFFFFFFFFFFFFFFFFFFFFFFFFFFFFFFFFFFFFFF AND PUSH20 0xFFFFFFFFFFFFFFFFFFFFFFFFFFFFFFFFFFFFFFFF AND DUP2 MSTORE PUSH1 0x20 ADD SWAP1 DUP2 MSTORE PUSH1 0x20 ADD PUSH1 0x0 KECCAK256 SLOAD PUSH1 0x40 MLOAD DUP4 PUSH4 0xFFFFFFFF AND PUSH1 0xE0 SHL DUP2 MSTORE PUSH1 0x4 ADD PUSH2 0xE4E SWAP3 SWAP2 SWAP1 PUSH2 0x13C5 JUMP JUMPDEST PUSH1 0x20 PUSH1 0x40 MLOAD DUP1 DUP4 SUB DUP2 PUSH1 0x0 DUP8 GAS CALL ISZERO DUP1 ISZERO PUSH2 0xE6D JUMPI RETURNDATASIZE PUSH1 0x0 DUP1 RETURNDATACOPY RETURNDATASIZE PUSH1 0x0 REVERT JUMPDEST POP POP POP POP PUSH1 0x40 MLOAD RETURNDATASIZE PUSH1 0x1F NOT PUSH1 0x1F DUP3 ADD AND DUP3 ADD DUP1 PUSH1 0x40 MSTORE POP DUP2 ADD SWAP1 PUSH2 0xE91 SWAP2 SWAP1 PUSH2 0x141A JUMP JUMPDEST POP JUMPDEST DUP1 DUP1 PUSH2 0xE9E SWAP1 PUSH2 0x1646 JUMP JUMPDEST SWAP2 POP POP PUSH2 0xC48 JUMP JUMPDEST POP PUSH1 0x0 DUP1 SLOAD SWAP1 PUSH2 0x100 EXP SWAP1 DIV PUSH20 0xFFFFFFFFFFFFFFFFFFFFFFFFFFFFFFFFFFFFFFFF AND PUSH20 0xFFFFFFFFFFFFFFFFFFFFFFFFFFFFFFFFFFFFFFFF AND SELFDESTRUCT JUMPDEST PUSH1 0x2 SLOAD DUP2 JUMP JUMPDEST PUSH1 0xB PUSH1 0x0 SWAP1 SLOAD SWAP1 PUSH2 0x100 EXP SWAP1 DIV PUSH1 0xFF AND DUP2 JUMP JUMPDEST PUSH1 0x3 SLOAD DUP2 JUMP JUMPDEST PUSH1 0x0 DUP2 MLOAD SWAP1 POP SWAP2 SWAP1 POP JUMP JUMPDEST PUSH1 0x0 DUP3 DUP3 MSTORE PUSH1 0x20 DUP3 ADD SWAP1 POP SWAP3 SWAP2 POP POP JUMP JUMPDEST PUSH1 0x0 JUMPDEST DUP4 DUP2 LT ISZERO PUSH2 0xF39 JUMPI DUP1 DUP3 ADD MLOAD DUP2 DUP5 ADD MSTORE PUSH1 0x20 DUP2 ADD SWAP1 POP PUSH2 0xF1E JUMP JUMPDEST DUP4 DUP2 GT ISZERO PUSH2 0xF48 JUMPI PUSH1 0x0 DUP5 DUP5 ADD MSTORE JUMPDEST POP POP POP POP JUMP JUMPDEST PUSH1 0x0 PUSH1 0x1F NOT PUSH1 0x1F DUP4 ADD AND SWAP1 POP SWAP2 SWAP1 POP JUMP JUMPDEST PUSH1 0x0 PUSH2 0xF6A DUP3 PUSH2 0xEFF JUMP JUMPDEST PUSH2 0xF74 DUP2 DUP6 PUSH2 0xF0A JUMP JUMPDEST SWAP4 POP PUSH2 0xF84 DUP2 DUP6 PUSH1 0x20 DUP7 ADD PUSH2 0xF1B JUMP JUMPDEST PUSH2 0xF8D DUP2 PUSH2 0xF4E JUMP JUMPDEST DUP5 ADD SWAP2 POP POP SWAP3 SWAP2 POP POP JUMP JUMPDEST PUSH1 0x0 PUSH1 0x40 DUP3 ADD SWAP1 POP DUP2 DUP2 SUB PUSH1 0x0 DUP4 ADD MSTORE PUSH2 0xFB2 DUP2 DUP6 PUSH2 0xF5F JUMP JUMPDEST SWAP1 POP DUP2 DUP2 SUB PUSH1 0x20 DUP4 ADD MSTORE PUSH2 0xFC6 DUP2 DUP5 PUSH2 0xF5F JUMP JUMPDEST SWAP1 POP SWAP4 SWAP3 POP POP POP JUMP JUMPDEST PUSH1 0x0 PUSH20 0xFFFFFFFFFFFFFFFFFFFFFFFFFFFFFFFFFFFFFFFF DUP3 AND SWAP1 POP SWAP2 SWAP1 POP JUMP JUMPDEST PUSH1 0x0 PUSH2 0xFFA DUP3 PUSH2 0xFCF JUMP JUMPDEST SWAP1 POP SWAP2 SWAP1 POP JUMP JUMPDEST PUSH2 0x100A DUP2 PUSH2 0xFEF JUMP JUMPDEST DUP3 MSTORE POP POP JUMP JUMPDEST PUSH1 0x0 PUSH1 0x20 DUP3 ADD SWAP1 POP PUSH2 0x1025 PUSH1 0x0 DUP4 ADD DUP5 PUSH2 0x1001 JUMP JUMPDEST SWAP3 SWAP2 POP POP JUMP JUMPDEST PUSH1 0x0 DUP2 ISZERO ISZERO SWAP1 POP SWAP2 SWAP1 POP JUMP JUMPDEST PUSH2 0x1040 DUP2 PUSH2 0x102B JUMP JUMPDEST DUP3 MSTORE POP POP JUMP JUMPDEST PUSH1 0x0 PUSH1 0x20 DUP3 ADD SWAP1 POP PUSH2 0x105B PUSH1 0x0 DUP4 ADD DUP5 PUSH2 0x1037 JUMP JUMPDEST SWAP3 SWAP2 POP POP JUMP JUMPDEST PUSH1 0x0 DUP1 REVERT JUMPDEST PUSH1 0x0 DUP2 SWAP1 POP SWAP2 SWAP1 POP JUMP JUMPDEST PUSH2 0x1079 DUP2 PUSH2 0x1066 JUMP JUMPDEST DUP2 EQ PUSH2 0x1084 JUMPI PUSH1 0x0 DUP1 REVERT JUMPDEST POP JUMP JUMPDEST PUSH1 0x0 DUP2 CALLDATALOAD SWAP1 POP PUSH2 0x1096 DUP2 PUSH2 0x1070 JUMP JUMPDEST SWAP3 SWAP2 POP POP JUMP JUMPDEST PUSH1 0x0 PUSH1 0x20 DUP3 DUP5 SUB SLT ISZERO PUSH2 0x10B2 JUMPI PUSH2 0x10B1 PUSH2 0x1061 JUMP JUMPDEST JUMPDEST PUSH1 0x0 PUSH2 0x10C0 DUP5 DUP3 DUP6 ADD PUSH2 0x1087 JUMP JUMPDEST SWAP2 POP POP SWAP3 SWAP2 POP POP JUMP JUMPDEST PUSH2 0x10D2 DUP2 PUSH2 0xFEF JUMP JUMPDEST DUP2 EQ PUSH2 0x10DD JUMPI PUSH1 0x0 DUP1 REVERT JUMPDEST POP JUMP JUMPDEST PUSH1 0x0 DUP2 CALLDATALOAD SWAP1 POP PUSH2 0x10EF DUP2 PUSH2 0x10C9 JUMP JUMPDEST SWAP3 SWAP2 POP POP JUMP JUMPDEST PUSH1 0x0 PUSH1 0x20 DUP3 DUP5 SUB SLT ISZERO PUSH2 0x110B JUMPI PUSH2 0x110A PUSH2 0x1061 JUMP JUMPDEST JUMPDEST PUSH1 0x0 PUSH2 0x1119 DUP5 DUP3 DUP6 ADD PUSH2 0x10E0 JUMP JUMPDEST SWAP2 POP POP SWAP3 SWAP2 POP POP JUMP JUMPDEST PUSH2 0x112B DUP2 PUSH2 0x1066 JUMP JUMPDEST DUP3 MSTORE POP POP JUMP JUMPDEST PUSH1 0x0 PUSH1 0x20 DUP3 ADD SWAP1 POP PUSH2 0x1146 PUSH1 0x0 DUP4 ADD DUP5 PUSH2 0x1122 JUMP JUMPDEST SWAP3 SWAP2 POP POP JUMP JUMPDEST PUSH1 0x0 DUP2 SWAP1 POP SWAP2 SWAP1 POP JUMP JUMPDEST PUSH1 0x0 PUSH2 0x1171 PUSH2 0x116C PUSH2 0x1167 DUP5 PUSH2 0xFCF JUMP JUMPDEST PUSH2 0x114C JUMP JUMPDEST PUSH2 0xFCF JUMP JUMPDEST SWAP1 POP SWAP2 SWAP1 POP JUMP JUMPDEST PUSH1 0x0 PUSH2 0x1183 DUP3 PUSH2 0x1156 JUMP JUMPDEST SWAP1 POP SWAP2 SWAP1 POP JUMP JUMPDEST PUSH1 0x0 PUSH2 0x1195 DUP3 PUSH2 0x1178 JUMP JUMPDEST SWAP1 POP SWAP2 SWAP1 POP JUMP JUMPDEST PUSH2 0x11A5 DUP2 PUSH2 0x118A JUMP JUMPDEST DUP3 MSTORE POP POP JUMP JUMPDEST PUSH1 0x0 PUSH1 0x20 DUP3 ADD SWAP1 POP PUSH2 0x11C0 PUSH1 0x0 DUP4 ADD DUP5 PUSH2 0x119C JUMP JUMPDEST SWAP3 SWAP2 POP POP JUMP JUMPDEST PUSH32 0x4E487B7100000000000000000000000000000000000000000000000000000000 PUSH1 0x0 MSTORE PUSH1 0x21 PUSH1 0x4 MSTORE PUSH1 0x24 PUSH1 0x0 REVERT JUMPDEST PUSH1 0x2 DUP2 LT PUSH2 0x1206 JUMPI PUSH2 0x1205 PUSH2 0x11C6 JUMP JUMPDEST JUMPDEST POP JUMP JUMPDEST PUSH1 0x0 DUP2 SWAP1 POP PUSH2 0x1217 DUP3 PUSH2 0x11F5 JUMP JUMPDEST SWAP2 SWAP1 POP JUMP JUMPDEST PUSH1 0x0 PUSH2 0x1227 DUP3 PUSH2 0x1209 JUMP JUMPDEST SWAP1 POP SWAP2 SWAP1 POP JUMP JUMPDEST PUSH2 0x1237 DUP2 PUSH2 0x121C JUMP JUMPDEST DUP3 MSTORE POP POP JUMP JUMPDEST PUSH1 0x0 PUSH1 0x20 DUP3 ADD SWAP1 POP PUSH2 0x1252 PUSH1 0x0 DUP4 ADD DUP5 PUSH2 0x122E JUMP JUMPDEST SWAP3 SWAP2 POP POP JUMP JUMPDEST PUSH32 0x4E487B7100000000000000000000000000000000000000000000000000000000 PUSH1 0x0 MSTORE PUSH1 0x22 PUSH1 0x4 MSTORE PUSH1 0x24 PUSH1 0x0 REVERT JUMPDEST PUSH1 0x0 PUSH1 0x2 DUP3 DIV SWAP1 POP PUSH1 0x1 DUP3 AND DUP1 PUSH2 0x129F JUMPI PUSH1 0x7F DUP3 AND SWAP2 POP JUMPDEST PUSH1 0x20 DUP3 LT DUP2 EQ ISZERO PUSH2 0x12B3 JUMPI PUSH2 0x12B2 PUSH2 0x1258 JUMP JUMPDEST JUMPDEST POP SWAP2 SWAP1 POP JUMP JUMPDEST PUSH32 0x41756374696F6E2043616E63656C6C6564000000000000000000000000000000 PUSH1 0x0 DUP3 ADD MSTORE POP JUMP JUMPDEST PUSH1 0x0 PUSH2 0x12EF PUSH1 0x11 DUP4 PUSH2 0xF0A JUMP JUMPDEST SWAP2 POP PUSH2 0x12FA DUP3 PUSH2 0x12B9 JUMP JUMPDEST PUSH1 0x20 DUP3 ADD SWAP1 POP SWAP2 SWAP1 POP JUMP JUMPDEST PUSH1 0x0 PUSH1 0x40 DUP3 ADD SWAP1 POP DUP2 DUP2 SUB PUSH1 0x0 DUP4 ADD MSTORE PUSH2 0x131E DUP2 PUSH2 0x12E2 JUMP JUMPDEST SWAP1 POP PUSH2 0x132D PUSH1 0x20 DUP4 ADD DUP5 PUSH2 0x1122 JUMP JUMPDEST SWAP3 SWAP2 POP POP JUMP JUMPDEST PUSH32 0x596F752063616E27742077697468647261772C207468652061756374696F6E20 PUSH1 0x0 DUP3 ADD MSTORE PUSH32 0x6973207374696C6C206F70656E00000000000000000000000000000000000000 PUSH1 0x20 DUP3 ADD MSTORE POP JUMP JUMPDEST PUSH1 0x0 PUSH2 0x138F PUSH1 0x2D DUP4 PUSH2 0xF0A JUMP JUMPDEST SWAP2 POP PUSH2 0x139A DUP3 PUSH2 0x1333 JUMP JUMPDEST PUSH1 0x40 DUP3 ADD SWAP1 POP SWAP2 SWAP1 POP JUMP JUMPDEST PUSH1 0x0 PUSH1 0x20 DUP3 ADD SWAP1 POP DUP2 DUP2 SUB PUSH1 0x0 DUP4 ADD MSTORE PUSH2 0x13BE DUP2 PUSH2 0x1382 JUMP JUMPDEST SWAP1 POP SWAP2 SWAP1 POP JUMP JUMPDEST PUSH1 0x0 PUSH1 0x40 DUP3 ADD SWAP1 POP PUSH2 0x13DA PUSH1 0x0 DUP4 ADD DUP6 PUSH2 0x1001 JUMP JUMPDEST PUSH2 0x13E7 PUSH1 0x20 DUP4 ADD DUP5 PUSH2 0x1122 JUMP JUMPDEST SWAP4 SWAP3 POP POP POP JUMP JUMPDEST PUSH2 0x13F7 DUP2 PUSH2 0x102B JUMP JUMPDEST DUP2 EQ PUSH2 0x1402 JUMPI PUSH1 0x0 DUP1 REVERT JUMPDEST POP JUMP JUMPDEST PUSH1 0x0 DUP2 MLOAD SWAP1 POP PUSH2 0x1414 DUP2 PUSH2 0x13EE JUMP JUMPDEST SWAP3 SWAP2 POP POP JUMP JUMPDEST PUSH1 0x0 PUSH1 0x20 DUP3 DUP5 SUB SLT ISZERO PUSH2 0x1430 JUMPI PUSH2 0x142F PUSH2 0x1061 JUMP JUMPDEST JUMPDEST PUSH1 0x0 PUSH2 0x143E DUP5 DUP3 DUP6 ADD PUSH2 0x1405 JUMP JUMPDEST SWAP2 POP POP SWAP3 SWAP2 POP POP JUMP JUMPDEST PUSH32 0x596F7520616C7265616479206D61646520612062696400000000000000000000 PUSH1 0x0 DUP3 ADD MSTORE POP JUMP JUMPDEST PUSH1 0x0 PUSH2 0x147D PUSH1 0x16 DUP4 PUSH2 0xF0A JUMP JUMPDEST SWAP2 POP PUSH2 0x1488 DUP3 PUSH2 0x1447 JUMP JUMPDEST PUSH1 0x20 DUP3 ADD SWAP1 POP SWAP2 SWAP1 POP JUMP JUMPDEST PUSH1 0x0 PUSH1 0x20 DUP3 ADD SWAP1 POP DUP2 DUP2 SUB PUSH1 0x0 DUP4 ADD MSTORE PUSH2 0x14AC DUP2 PUSH2 0x1470 JUMP JUMPDEST SWAP1 POP SWAP2 SWAP1 POP JUMP JUMPDEST PUSH32 0x596F752063616E2774206269642C204D616B6520612068696768657220426964 PUSH1 0x0 DUP3 ADD MSTORE POP JUMP JUMPDEST PUSH1 0x0 PUSH2 0x14E9 PUSH1 0x20 DUP4 PUSH2 0xF0A JUMP JUMPDEST SWAP2 POP PUSH2 0x14F4 DUP3 PUSH2 0x14B3 JUMP JUMPDEST PUSH1 0x20 DUP3 ADD SWAP1 POP SWAP2 SWAP1 POP JUMP JUMPDEST PUSH1 0x0 PUSH1 0x20 DUP3 ADD SWAP1 POP DUP2 DUP2 SUB PUSH1 0x0 DUP4 ADD MSTORE PUSH2 0x1518 DUP2 PUSH2 0x14DC JUMP JUMPDEST SWAP1 POP SWAP2 SWAP1 POP JUMP JUMPDEST PUSH1 0x0 PUSH1 0x60 DUP3 ADD SWAP1 POP PUSH2 0x1534 PUSH1 0x0 DUP4 ADD DUP7 PUSH2 0x1001 JUMP JUMPDEST PUSH2 0x1541 PUSH1 0x20 DUP4 ADD DUP6 PUSH2 0x1001 JUMP JUMPDEST PUSH2 0x154E PUSH1 0x40 DUP4 ADD DUP5 PUSH2 0x1122 JUMP JUMPDEST SWAP5 SWAP4 POP POP POP POP JUMP JUMPDEST PUSH32 0x596F752063616E27742064657374727563742074686520636F6E74726163742C PUSH1 0x0 DUP3 ADD MSTORE PUSH32 0x5468652061756374696F6E206973207374696C6C206F70656E00000000000000 PUSH1 0x20 DUP3 ADD MSTORE POP JUMP JUMPDEST PUSH1 0x0 PUSH2 0x15B2 PUSH1 0x39 DUP4 PUSH2 0xF0A JUMP JUMPDEST SWAP2 POP PUSH2 0x15BD DUP3 PUSH2 0x1556 JUMP JUMPDEST PUSH1 0x40 DUP3 ADD SWAP1 POP SWAP2 SWAP1 POP JUMP JUMPDEST PUSH1 0x0 PUSH1 0x20 DUP3 ADD SWAP1 POP DUP2 DUP2 SUB PUSH1 0x0 DUP4 ADD MSTORE PUSH2 0x15E1 DUP2 PUSH2 0x15A5 JUMP JUMPDEST SWAP1 POP SWAP2 SWAP1 POP JUMP JUMPDEST PUSH32 0x4E487B7100000000000000000000000000000000000000000000000000000000 PUSH1 0x0 MSTORE PUSH1 0x32 PUSH1 0x4 MSTORE PUSH1 0x24 PUSH1 0x0 REVERT JUMPDEST PUSH32 0x4E487B7100000000000000000000000000000000000000000000000000000000 PUSH1 0x0 MSTORE PUSH1 0x11 PUSH1 0x4 MSTORE PUSH1 0x24 PUSH1 0x0 REVERT JUMPDEST PUSH1 0x0 PUSH2 0x1651 DUP3 PUSH2 0x1066 JUMP JUMPDEST SWAP2 POP PUSH32 0xFFFFFFFFFFFFFFFFFFFFFFFFFFFFFFFFFFFFFFFFFFFFFFFFFFFFFFFFFFFFFFFF DUP3 EQ ISZERO PUSH2 0x1684 JUMPI PUSH2 0x1683 PUSH2 0x1617 JUMP JUMPDEST JUMPDEST PUSH1 0x1 DUP3 ADD SWAP1 POP SWAP2 SWAP1 POP JUMP INVALID LOG2 PUSH5 0x6970667358 0x22 SLT KECCAK256 0x4E CALLER DUP10 DUP10 ISZERO BASEFEE NOT DUP13 0xB3 JUMP 0xEB ADDMOD 0xC2 MOD PUSH8 0xAD7AE06E59CE5667 PUSH15 0x99324A86530C0B2364736F6C634300 ADDMOD EXP STOP CALLER "
		},
		"gasEstimates": {
			"creation": {
				"codeDepositCost": "1165800",
				"executionCost": "infinite",
				"totalCost": "infinite"
			},
			"external": {
				"": "175",
				"Mycar()": "infinite",
				"STATE()": "2626",
				"auction_end()": "2473",
				"auction_start()": "2474",
				"bid(uint256)": "infinite",
				"bids(address)": "2881",
				"cancel_auction()": "33366",
				"destruct_auction()": "infinite",
				"get_owner()": "2568",
				"highestBid()": "2517",
				"highestBidder()": "2581",
				"identificationOwner()": "2603",
				"sampleToken()": "infinite",
				"withdraw()": "infinite"
			}
		},
		"methodIdentifiers": {
			"Mycar()": "0216f202",
			"STATE()": "c486456c",
			"auction_end()": "c458b65a",
			"auction_start()": "78f45340",
			"bid(uint256)": "454a2ab3",
			"bids(address)": "62ea82db",
			"cancel_auction()": "3ba88ca1",
			"destruct_auction()": "bbafd3d4",
			"get_owner()": "0ac298dc",
			"highestBid()": "d57bde79",
			"highestBidder()": "91f90157",
			"identificationOwner()": "6a655c76",
			"sampleToken()": "7222e9e3",
			"withdraw()": "3ccfd60b"
		}
	},
	"abi": [
		{
			"inputs": [
				{
					"internalType": "uint256",
					"name": "_biddingTime",
					"type": "uint256"
				},
				{
					"internalType": "address payable",
					"name": "_owner",
					"type": "address"
				},
				{
					"internalType": "string",
					"name": "_brand",
					"type": "string"
				},
				{
					"internalType": "string",
					"name": "_Rnumber",
					"type": "string"
				},
				{
					"internalType": "address",
					"name": "_identificationOwner",
					"type": "address"
				}
			],
			"stateMutability": "nonpayable",
			"type": "constructor"
		},
		{
			"anonymous": false,
			"inputs": [
				{
					"indexed": true,
					"internalType": "address",
					"name": "highestBidder",
					"type": "address"
				},
				{
					"indexed": false,
					"internalType": "uint256",
					"name": "highestBid",
					"type": "uint256"
				}
			],
			"name": "BidEvent",
			"type": "event"
		},
		{
			"anonymous": false,
			"inputs": [
				{
					"indexed": false,
					"internalType": "string",
					"name": "message",
					"type": "string"
				},
				{
					"indexed": false,
					"internalType": "uint256",
					"name": "time",
					"type": "uint256"
				}
			],
			"name": "CanceledEvent",
			"type": "event"
		},
		{
			"anonymous": false,
			"inputs": [
				{
					"indexed": false,
					"internalType": "address",
					"name": "withdrawer",
					"type": "address"
				},
				{
					"indexed": false,
					"internalType": "uint256",
					"name": "amount",
					"type": "uint256"
				}
			],
			"name": "WithdrawalEvent",
			"type": "event"
		},
		{
			"stateMutability": "payable",
			"type": "fallback"
		},
		{
			"inputs": [],
			"name": "Mycar",
			"outputs": [
				{
					"internalType": "string",
					"name": "Brand",
					"type": "string"
				},
				{
					"internalType": "string",
					"name": "Rnumber",
					"type": "string"
				}
			],
			"stateMutability": "view",
			"type": "function"
		},
		{
			"inputs": [],
			"name": "STATE",
			"outputs": [
				{
					"internalType": "enum Auction.auction_state",
					"name": "",
					"type": "uint8"
				}
			],
			"stateMutability": "view",
			"type": "function"
		},
		{
			"inputs": [],
			"name": "auction_end",
			"outputs": [
				{
					"internalType": "uint256",
					"name": "",
					"type": "uint256"
				}
			],
			"stateMutability": "view",
			"type": "function"
		},
		{
			"inputs": [],
			"name": "auction_start",
			"outputs": [
				{
					"internalType": "uint256",
					"name": "",
					"type": "uint256"
				}
			],
			"stateMutability": "view",
			"type": "function"
		},
		{
			"inputs": [
				{
					"internalType": "uint256",
					"name": "_token",
					"type": "uint256"
				}
			],
			"name": "bid",
			"outputs": [
				{
					"internalType": "bool",
					"name": "",
					"type": "bool"
				}
			],
			"stateMutability": "nonpayable",
			"type": "function"
		},
		{
			"inputs": [
				{
					"internalType": "address",
					"name": "",
					"type": "address"
				}
			],
			"name": "bids",
			"outputs": [
				{
					"internalType": "uint256",
					"name": "",
					"type": "uint256"
				}
			],
			"stateMutability": "view",
			"type": "function"
		},
		{
			"inputs": [],
			"name": "cancel_auction",
			"outputs": [
				{
					"internalType": "bool",
					"name": "",
					"type": "bool"
				}
			],
			"stateMutability": "nonpayable",
			"type": "function"
		},
		{
			"inputs": [],
			"name": "destruct_auction",
			"outputs": [
				{
					"internalType": "bool",
					"name": "",
					"type": "bool"
				}
			],
			"stateMutability": "nonpayable",
			"type": "function"
		},
		{
			"inputs": [],
			"name": "get_owner",
			"outputs": [
				{
					"internalType": "address",
					"name": "",
					"type": "address"
				}
			],
			"stateMutability": "view",
			"type": "function"
		},
		{
			"inputs": [],
			"name": "highestBid",
			"outputs": [
				{
					"internalType": "uint256",
					"name": "",
					"type": "uint256"
				}
			],
			"stateMutability": "view",
			"type": "function"
		},
		{
			"inputs": [],
			"name": "highestBidder",
			"outputs": [
				{
					"internalType": "address",
					"name": "",
					"type": "address"
				}
			],
			"stateMutability": "view",
			"type": "function"
		},
		{
			"inputs": [],
			"name": "identificationOwner",
			"outputs": [
				{
					"internalType": "address",
					"name": "",
					"type": "address"
				}
			],
			"stateMutability": "view",
			"type": "function"
		},
		{
			"inputs": [],
			"name": "sampleToken",
			"outputs": [
				{
					"internalType": "contract SampleToken",
					"name": "",
					"type": "address"
				}
			],
			"stateMutability": "view",
			"type": "function"
		},
		{
			"inputs": [],
			"name": "withdraw",
			"outputs": [
				{
					"internalType": "bool",
					"name": "",
					"type": "bool"
				}
			],
			"stateMutability": "nonpayable",
			"type": "function"
		},
		{
			"stateMutability": "payable",
			"type": "receive"
		}
	]
}