{
	"data": {
		"bytecode": {
			"linkReferences": {},
			"object": "60806040523480156200001157600080fd5b5060405162001a0b38038062001a0b833981810160405281019062000037919062000174565b336000806101000a81548173ffffffffffffffffffffffffffffffffffffffff021916908373ffffffffffffffffffffffffffffffffffffffff160217905550826002819055508160038190555080600160006101000a81548173ffffffffffffffffffffffffffffffffffffffff021916908373ffffffffffffffffffffffffffffffffffffffff160217905550505050620001d0565b600080fd5b6000819050919050565b620000e981620000d4565b8114620000f557600080fd5b50565b6000815190506200010981620000de565b92915050565b600073ffffffffffffffffffffffffffffffffffffffff82169050919050565b60006200013c826200010f565b9050919050565b6200014e816200012f565b81146200015a57600080fd5b50565b6000815190506200016e8162000143565b92915050565b60008060006060848603121562000190576200018f620000cf565b5b6000620001a086828701620000f8565b9350506020620001b386828701620000f8565b9250506040620001c6868287016200015d565b9150509250925092565b61182b80620001e06000396000f3fe6080604052600436106100c25760003560e01c8063b7269d091161007f578063e4657ea311610059578063e4657ea314610245578063ed2264f614610270578063ed8e67ce146102ad578063f6c96faa146102ea576100c2565b8063b7269d09146101c8578063bc94994a146101f1578063bcffcb0f1461021c576100c2565b806329be3ea2146100c75780633e0f1e9e146100f057806350b4a5571461012d57806356a7a5d2146101495780636a655c76146101725780638da5cb5b1461019d575b600080fd5b3480156100d357600080fd5b506100ee60048036038101906100e99190610d4c565b610315565b005b3480156100fc57600080fd5b5061011760048036038101906101129190610d4c565b610451565b6040516101249190610d94565b60405180910390f35b61014760048036038101906101429190610de5565b610471565b005b34801561015557600080fd5b50610170600480360381019061016b9190610e25565b610902565b005b34801561017e57600080fd5b506101876109df565b6040516101949190610e61565b60405180910390f35b3480156101a957600080fd5b506101b2610a05565b6040516101bf9190610e61565b60405180910390f35b3480156101d457600080fd5b506101ef60048036038101906101ea9190610e25565b610a29565b005b3480156101fd57600080fd5b50610206610ac1565b6040516102139190610e8b565b60405180910390f35b34801561022857600080fd5b50610243600480360381019061023e9190610de5565b610ac7565b005b34801561025157600080fd5b5061025a610c99565b6040516102679190610e8b565b60405180910390f35b34801561027c57600080fd5b5061029760048036038101906102929190610e25565b610c9f565b6040516102a49190610e8b565b60405180910390f35b3480156102b957600080fd5b506102d460048036038101906102cf9190610e25565b610cbc565b6040516102e19190610e8b565b60405180910390f35b3480156102f657600080fd5b506102ff610cd4565b60405161030c9190610e8b565b60405180910390f35b6000600160009054906101000a900473ffffffffffffffffffffffffffffffffffffffff1690508073ffffffffffffffffffffffffffffffffffffffff1663605f9998336040518263ffffffff1660e01b81526004016103759190610e61565b602060405180830381865afa158015610392573d6000803e3d6000fd5b505050506040513d601f19601f820116820180604052508101906103b69190610ed2565b6103f5576040517f08c379a00000000000000000000000000000000000000000000000000000000081526004016103ec90610f82565b60405180910390fd5b6001600560008473ffffffffffffffffffffffffffffffffffffffff1673ffffffffffffffffffffffffffffffffffffffff16815260200190815260200160002060006101000a81548160ff0219169083151502179055505050565b60056020528060005260406000206000915054906101000a900460ff1681565b6000600160009054906101000a900473ffffffffffffffffffffffffffffffffffffffff1690508073ffffffffffffffffffffffffffffffffffffffff1663605f9998336040518263ffffffff1660e01b81526004016104d19190610e61565b602060405180830381865afa1580156104ee573d6000803e3d6000fd5b505050506040513d601f19601f820116820180604052508101906105129190610ed2565b610551576040517f08c379a000000000000000000000000000000000000000000000000000000000815260040161054890610f82565b60405180910390fd5b8160025461055f9190610fd1565b3410156105a1576040517f08c379a00000000000000000000000000000000000000000000000000000000081526004016105989061105f565b60405180910390fd5b6000600160009054906101000a900473ffffffffffffffffffffffffffffffffffffffff1690506006600085815260200190815260200160002054836105e7919061107f565b8173ffffffffffffffffffffffffffffffffffffffff166379a85e6c866040518263ffffffff1660e01b81526004016106209190610e8b565b600060405180830381865afa15801561063d573d6000803e3d6000fd5b505050506040513d6000823e3d601f19601f8201168201806040525081019061066691906112c8565b6040015110156106ab576040517f08c379a00000000000000000000000000000000000000000000000000000000081526004016106a29061135d565b60405180910390fd5b600454836106b9919061107f565b60035410156106fd576040517f08c379a00000000000000000000000000000000000000000000000000000000081526004016106f4906113c9565b60405180910390fd5b82600660008681526020019081526020016000206000828254610720919061107f565b925050819055508260046000828254610739919061107f565b9250508190555060008060009054906101000a900473ffffffffffffffffffffffffffffffffffffffff1673ffffffffffffffffffffffffffffffffffffffff16846002546107889190610fd1565b6040516107949061141a565b60006040518083038185875af1925050503d80600081146107d1576040519150601f19603f3d011682016040523d82523d6000602084013e6107d6565b606091505b505090508061081a576040517f08c379a0000000000000000000000000000000000000000000000000000000008152600401610811906114a1565b60405180910390fd5b836002546108289190610fd1565b34036108355750506108fd565b60003373ffffffffffffffffffffffffffffffffffffffff168560025461085c9190610fd1565b3461086791906114c1565b6040516108739061141a565b60006040518083038185875af1925050503d80600081146108b0576040519150601f19603f3d011682016040523d82523d6000602084013e6108b5565b606091505b50509050806108f9576040517f08c379a00000000000000000000000000000000000000000000000000000000081526004016108f090611567565b60405180910390fd5b5050505b505050565b60008054906101000a900473ffffffffffffffffffffffffffffffffffffffff1673ffffffffffffffffffffffffffffffffffffffff163373ffffffffffffffffffffffffffffffffffffffff1614610990576040517f08c379a0000000000000000000000000000000000000000000000000000000008152600401610987906115f9565b60405180910390fd5b8060045411156109d5576040517f08c379a00000000000000000000000000000000000000000000000000000000081526004016109cc906116b1565b60405180910390fd5b8060038190555050565b600160009054906101000a900473ffffffffffffffffffffffffffffffffffffffff1681565b60008054906101000a900473ffffffffffffffffffffffffffffffffffffffff1681565b60008054906101000a900473ffffffffffffffffffffffffffffffffffffffff1673ffffffffffffffffffffffffffffffffffffffff163373ffffffffffffffffffffffffffffffffffffffff1614610ab7576040517f08c379a0000000000000000000000000000000000000000000000000000000008152600401610aae906115f9565b60405180910390fd5b8060028190555050565b60035481565b6000600160009054906101000a900473ffffffffffffffffffffffffffffffffffffffff1690508073ffffffffffffffffffffffffffffffffffffffff1663605f9998336040518263ffffffff1660e01b8152600401610b279190610e61565b602060405180830381865afa158015610b44573d6000803e3d6000fd5b505050506040513d601f19601f82011682018060405250810190610b689190610ed2565b80610bbc5750600560003373ffffffffffffffffffffffffffffffffffffffff1673ffffffffffffffffffffffffffffffffffffffff16815260200190815260200160002060009054906101000a900460ff165b610bfb576040517f08c379a0000000000000000000000000000000000000000000000000000000008152600401610bf290611743565b60405180910390fd5b8160066000858152602001908152602001600020541015610c51576040517f08c379a0000000000000000000000000000000000000000000000000000000008152600401610c48906117d5565b60405180910390fd5b81600660008581526020019081526020016000206000828254610c7491906114c1565b925050819055508160046000828254610c8d91906114c1565b92505081905550505050565b60045481565b600060066000838152602001908152602001600020549050919050565b60066020528060005260406000206000915090505481565b60025481565b6000604051905090565b600080fd5b600080fd5b600073ffffffffffffffffffffffffffffffffffffffff82169050919050565b6000610d1982610cee565b9050919050565b610d2981610d0e565b8114610d3457600080fd5b50565b600081359050610d4681610d20565b92915050565b600060208284031215610d6257610d61610ce4565b5b6000610d7084828501610d37565b91505092915050565b60008115159050919050565b610d8e81610d79565b82525050565b6000602082019050610da96000830184610d85565b92915050565b6000819050919050565b610dc281610daf565b8114610dcd57600080fd5b50565b600081359050610ddf81610db9565b92915050565b60008060408385031215610dfc57610dfb610ce4565b5b6000610e0a85828601610dd0565b9250506020610e1b85828601610dd0565b9150509250929050565b600060208284031215610e3b57610e3a610ce4565b5b6000610e4984828501610dd0565b91505092915050565b610e5b81610d0e565b82525050565b6000602082019050610e766000830184610e52565b92915050565b610e8581610daf565b82525050565b6000602082019050610ea06000830184610e7c565b92915050565b610eaf81610d79565b8114610eba57600080fd5b50565b600081519050610ecc81610ea6565b92915050565b600060208284031215610ee857610ee7610ce4565b5b6000610ef684828501610ebd565b91505092915050565b600082825260208201905092915050565b7f4f6e6c7920617574686f72697a65642070726f6475636572732063616e20636160008201527f6c6c20746869732066756e6374696f6e00000000000000000000000000000000602082015250565b6000610f6c603083610eff565b9150610f7782610f10565b604082019050919050565b60006020820190508181036000830152610f9b81610f5f565b9050919050565b7f4e487b7100000000000000000000000000000000000000000000000000000000600052601160045260246000fd5b6000610fdc82610daf565b9150610fe783610daf565b9250828202610ff581610daf565b9150828204841483151761100c5761100b610fa2565b5b5092915050565b7f496e636f72726563742073746f72616765206665650000000000000000000000600082015250565b6000611049601583610eff565b915061105482611013565b602082019050919050565b600060208201905081810360008301526110788161103c565b9050919050565b600061108a82610daf565b915061109583610daf565b92508282019050808211156110ad576110ac610fa2565b5b92915050565b600080fd5b6000601f19601f8301169050919050565b7f4e487b7100000000000000000000000000000000000000000000000000000000600052604160045260246000fd5b611101826110b8565b810181811067ffffffffffffffff821117156111205761111f6110c9565b5b80604052505050565b6000611133610cda565b905061113f82826110f8565b919050565b600080fd5b60008151905061115881610d20565b92915050565b600080fd5b600080fd5b600067ffffffffffffffff821115611183576111826110c9565b5b61118c826110b8565b9050602081019050919050565b60005b838110156111b757808201518184015260208101905061119c565b60008484015250505050565b60006111d66111d184611168565b611129565b9050828152602081018484840111156111f2576111f1611163565b5b6111fd848285611199565b509392505050565b600082601f83011261121a5761121961115e565b5b815161122a8482602086016111c3565b91505092915050565b60008151905061124281610db9565b92915050565b60006060828403121561125e5761125d6110b3565b5b6112686060611129565b9050600061127884828501611149565b600083015250602082015167ffffffffffffffff81111561129c5761129b611144565b5b6112a884828501611205565b60208301525060406112bc84828501611233565b60408301525092915050565b6000602082840312156112de576112dd610ce4565b5b600082015167ffffffffffffffff8111156112fc576112fb610ce9565b5b61130884828501611248565b91505092915050565b7f496e636f726563742070726f64756374207175616e7469747900000000000000600082015250565b6000611347601983610eff565b915061135282611311565b602082019050919050565b600060208201905081810360008301526113768161133a565b9050919050565b7f45786365656473206d6178696d756d2073746f7261676520766f6c756d650000600082015250565b60006113b3601e83610eff565b91506113be8261137d565b602082019050919050565b600060208201905081810360008301526113e2816113a6565b9050919050565b600081905092915050565b50565b60006114046000836113e9565b915061140f826113f4565b600082019050919050565b6000611425826113f7565b9150819050919050565b7f436f756c646e27742073656e6420746865206368616e6765206261636b20746f60008201527f20746865206f776e657200000000000000000000000000000000000000000000602082015250565b600061148b602a83610eff565b91506114968261142f565b604082019050919050565b600060208201905081810360008301526114ba8161147e565b9050919050565b60006114cc82610daf565b91506114d783610daf565b92508282039050818111156114ef576114ee610fa2565b5b92915050565b7f436f756c646e27742073656e6420746865206368616e6765206261636b20746f60008201527f207468652070726f647563657200000000000000000000000000000000000000602082015250565b6000611551602d83610eff565b915061155c826114f5565b604082019050919050565b6000602082019050818103600083015261158081611544565b9050919050565b7f4f6e6c7920746865206f776e65722063616e2063616c6c20746869732066756e60008201527f6374696f6e000000000000000000000000000000000000000000000000000000602082015250565b60006115e3602583610eff565b91506115ee82611587565b604082019050919050565b60006020820190508181036000830152611612816115d6565b9050919050565b7f4d6178696d756d2073746f7261676520766f6c756d652063616e27742062652060008201527f736d616c6c6572207468616e2074686520616c7265616479206465706f73697460208201527f656420766f6c756d650000000000000000000000000000000000000000000000604082015250565b600061169b604983610eff565b91506116a682611619565b606082019050919050565b600060208201905081810360008301526116ca8161168e565b9050919050565b7f4f6e6c7920617574686f72697a65642070726f647563657273206f722073746f60008201527f72652063616e2063616c6c20746869732066756e6374696f6e00000000000000602082015250565b600061172d603983610eff565b9150611738826116d1565b604082019050919050565b6000602082019050818103600083015261175c81611720565b9050919050565b7f4e6f7420656e6f75676820766f6c756d6520617661696c61626c6520666f722060008201527f7769746864726177616c00000000000000000000000000000000000000000000602082015250565b60006117bf602a83610eff565b91506117ca82611763565b604082019050919050565b600060208201905081810360008301526117ee816117b2565b905091905056fea2646970667358221220287282de1a72851433571a00990ff82291af5ae5d2010c42c03f88d433f9b80164736f6c63430008120033",
			"opcodes": "PUSH1 0x80 PUSH1 0x40 MSTORE CALLVALUE DUP1 ISZERO PUSH3 0x11 JUMPI PUSH1 0x0 DUP1 REVERT JUMPDEST POP PUSH1 0x40 MLOAD PUSH3 0x1A0B CODESIZE SUB DUP1 PUSH3 0x1A0B DUP4 CODECOPY DUP2 DUP2 ADD PUSH1 0x40 MSTORE DUP2 ADD SWAP1 PUSH3 0x37 SWAP2 SWAP1 PUSH3 0x174 JUMP JUMPDEST CALLER PUSH1 0x0 DUP1 PUSH2 0x100 EXP DUP2 SLOAD DUP2 PUSH20 0xFFFFFFFFFFFFFFFFFFFFFFFFFFFFFFFFFFFFFFFF MUL NOT AND SWAP1 DUP4 PUSH20 0xFFFFFFFFFFFFFFFFFFFFFFFFFFFFFFFFFFFFFFFF AND MUL OR SWAP1 SSTORE POP DUP3 PUSH1 0x2 DUP2 SWAP1 SSTORE POP DUP2 PUSH1 0x3 DUP2 SWAP1 SSTORE POP DUP1 PUSH1 0x1 PUSH1 0x0 PUSH2 0x100 EXP DUP2 SLOAD DUP2 PUSH20 0xFFFFFFFFFFFFFFFFFFFFFFFFFFFFFFFFFFFFFFFF MUL NOT AND SWAP1 DUP4 PUSH20 0xFFFFFFFFFFFFFFFFFFFFFFFFFFFFFFFFFFFFFFFF AND MUL OR SWAP1 SSTORE POP POP POP POP PUSH3 0x1D0 JUMP JUMPDEST PUSH1 0x0 DUP1 REVERT JUMPDEST PUSH1 0x0 DUP2 SWAP1 POP SWAP2 SWAP1 POP JUMP JUMPDEST PUSH3 0xE9 DUP2 PUSH3 0xD4 JUMP JUMPDEST DUP2 EQ PUSH3 0xF5 JUMPI PUSH1 0x0 DUP1 REVERT JUMPDEST POP JUMP JUMPDEST PUSH1 0x0 DUP2 MLOAD SWAP1 POP PUSH3 0x109 DUP2 PUSH3 0xDE JUMP JUMPDEST SWAP3 SWAP2 POP POP JUMP JUMPDEST PUSH1 0x0 PUSH20 0xFFFFFFFFFFFFFFFFFFFFFFFFFFFFFFFFFFFFFFFF DUP3 AND SWAP1 POP SWAP2 SWAP1 POP JUMP JUMPDEST PUSH1 0x0 PUSH3 0x13C DUP3 PUSH3 0x10F JUMP JUMPDEST SWAP1 POP SWAP2 SWAP1 POP JUMP JUMPDEST PUSH3 0x14E DUP2 PUSH3 0x12F JUMP JUMPDEST DUP2 EQ PUSH3 0x15A JUMPI PUSH1 0x0 DUP1 REVERT JUMPDEST POP JUMP JUMPDEST PUSH1 0x0 DUP2 MLOAD SWAP1 POP PUSH3 0x16E DUP2 PUSH3 0x143 JUMP JUMPDEST SWAP3 SWAP2 POP POP JUMP JUMPDEST PUSH1 0x0 DUP1 PUSH1 0x0 PUSH1 0x60 DUP5 DUP7 SUB SLT ISZERO PUSH3 0x190 JUMPI PUSH3 0x18F PUSH3 0xCF JUMP JUMPDEST JUMPDEST PUSH1 0x0 PUSH3 0x1A0 DUP7 DUP3 DUP8 ADD PUSH3 0xF8 JUMP JUMPDEST SWAP4 POP POP PUSH1 0x20 PUSH3 0x1B3 DUP7 DUP3 DUP8 ADD PUSH3 0xF8 JUMP JUMPDEST SWAP3 POP POP PUSH1 0x40 PUSH3 0x1C6 DUP7 DUP3 DUP8 ADD PUSH3 0x15D JUMP JUMPDEST SWAP2 POP POP SWAP3 POP SWAP3 POP SWAP3 JUMP JUMPDEST PUSH2 0x182B DUP1 PUSH3 0x1E0 PUSH1 0x0 CODECOPY PUSH1 0x0 RETURN INVALID PUSH1 0x80 PUSH1 0x40 MSTORE PUSH1 0x4 CALLDATASIZE LT PUSH2 0xC2 JUMPI PUSH1 0x0 CALLDATALOAD PUSH1 0xE0 SHR DUP1 PUSH4 0xB7269D09 GT PUSH2 0x7F JUMPI DUP1 PUSH4 0xE4657EA3 GT PUSH2 0x59 JUMPI DUP1 PUSH4 0xE4657EA3 EQ PUSH2 0x245 JUMPI DUP1 PUSH4 0xED2264F6 EQ PUSH2 0x270 JUMPI DUP1 PUSH4 0xED8E67CE EQ PUSH2 0x2AD JUMPI DUP1 PUSH4 0xF6C96FAA EQ PUSH2 0x2EA JUMPI PUSH2 0xC2 JUMP JUMPDEST DUP1 PUSH4 0xB7269D09 EQ PUSH2 0x1C8 JUMPI DUP1 PUSH4 0xBC94994A EQ PUSH2 0x1F1 JUMPI DUP1 PUSH4 0xBCFFCB0F EQ PUSH2 0x21C JUMPI PUSH2 0xC2 JUMP JUMPDEST DUP1 PUSH4 0x29BE3EA2 EQ PUSH2 0xC7 JUMPI DUP1 PUSH4 0x3E0F1E9E EQ PUSH2 0xF0 JUMPI DUP1 PUSH4 0x50B4A557 EQ PUSH2 0x12D JUMPI DUP1 PUSH4 0x56A7A5D2 EQ PUSH2 0x149 JUMPI DUP1 PUSH4 0x6A655C76 EQ PUSH2 0x172 JUMPI DUP1 PUSH4 0x8DA5CB5B EQ PUSH2 0x19D JUMPI JUMPDEST PUSH1 0x0 DUP1 REVERT JUMPDEST CALLVALUE DUP1 ISZERO PUSH2 0xD3 JUMPI PUSH1 0x0 DUP1 REVERT JUMPDEST POP PUSH2 0xEE PUSH1 0x4 DUP1 CALLDATASIZE SUB DUP2 ADD SWAP1 PUSH2 0xE9 SWAP2 SWAP1 PUSH2 0xD4C JUMP JUMPDEST PUSH2 0x315 JUMP JUMPDEST STOP JUMPDEST CALLVALUE DUP1 ISZERO PUSH2 0xFC JUMPI PUSH1 0x0 DUP1 REVERT JUMPDEST POP PUSH2 0x117 PUSH1 0x4 DUP1 CALLDATASIZE SUB DUP2 ADD SWAP1 PUSH2 0x112 SWAP2 SWAP1 PUSH2 0xD4C JUMP JUMPDEST PUSH2 0x451 JUMP JUMPDEST PUSH1 0x40 MLOAD PUSH2 0x124 SWAP2 SWAP1 PUSH2 0xD94 JUMP JUMPDEST PUSH1 0x40 MLOAD DUP1 SWAP2 SUB SWAP1 RETURN JUMPDEST PUSH2 0x147 PUSH1 0x4 DUP1 CALLDATASIZE SUB DUP2 ADD SWAP1 PUSH2 0x142 SWAP2 SWAP1 PUSH2 0xDE5 JUMP JUMPDEST PUSH2 0x471 JUMP JUMPDEST STOP JUMPDEST CALLVALUE DUP1 ISZERO PUSH2 0x155 JUMPI PUSH1 0x0 DUP1 REVERT JUMPDEST POP PUSH2 0x170 PUSH1 0x4 DUP1 CALLDATASIZE SUB DUP2 ADD SWAP1 PUSH2 0x16B SWAP2 SWAP1 PUSH2 0xE25 JUMP JUMPDEST PUSH2 0x902 JUMP JUMPDEST STOP JUMPDEST CALLVALUE DUP1 ISZERO PUSH2 0x17E JUMPI PUSH1 0x0 DUP1 REVERT JUMPDEST POP PUSH2 0x187 PUSH2 0x9DF JUMP JUMPDEST PUSH1 0x40 MLOAD PUSH2 0x194 SWAP2 SWAP1 PUSH2 0xE61 JUMP JUMPDEST PUSH1 0x40 MLOAD DUP1 SWAP2 SUB SWAP1 RETURN JUMPDEST CALLVALUE DUP1 ISZERO PUSH2 0x1A9 JUMPI PUSH1 0x0 DUP1 REVERT JUMPDEST POP PUSH2 0x1B2 PUSH2 0xA05 JUMP JUMPDEST PUSH1 0x40 MLOAD PUSH2 0x1BF SWAP2 SWAP1 PUSH2 0xE61 JUMP JUMPDEST PUSH1 0x40 MLOAD DUP1 SWAP2 SUB SWAP1 RETURN JUMPDEST CALLVALUE DUP1 ISZERO PUSH2 0x1D4 JUMPI PUSH1 0x0 DUP1 REVERT JUMPDEST POP PUSH2 0x1EF PUSH1 0x4 DUP1 CALLDATASIZE SUB DUP2 ADD SWAP1 PUSH2 0x1EA SWAP2 SWAP1 PUSH2 0xE25 JUMP JUMPDEST PUSH2 0xA29 JUMP JUMPDEST STOP JUMPDEST CALLVALUE DUP1 ISZERO PUSH2 0x1FD JUMPI PUSH1 0x0 DUP1 REVERT JUMPDEST POP PUSH2 0x206 PUSH2 0xAC1 JUMP JUMPDEST PUSH1 0x40 MLOAD PUSH2 0x213 SWAP2 SWAP1 PUSH2 0xE8B JUMP JUMPDEST PUSH1 0x40 MLOAD DUP1 SWAP2 SUB SWAP1 RETURN JUMPDEST CALLVALUE DUP1 ISZERO PUSH2 0x228 JUMPI PUSH1 0x0 DUP1 REVERT JUMPDEST POP PUSH2 0x243 PUSH1 0x4 DUP1 CALLDATASIZE SUB DUP2 ADD SWAP1 PUSH2 0x23E SWAP2 SWAP1 PUSH2 0xDE5 JUMP JUMPDEST PUSH2 0xAC7 JUMP JUMPDEST STOP JUMPDEST CALLVALUE DUP1 ISZERO PUSH2 0x251 JUMPI PUSH1 0x0 DUP1 REVERT JUMPDEST POP PUSH2 0x25A PUSH2 0xC99 JUMP JUMPDEST PUSH1 0x40 MLOAD PUSH2 0x267 SWAP2 SWAP1 PUSH2 0xE8B JUMP JUMPDEST PUSH1 0x40 MLOAD DUP1 SWAP2 SUB SWAP1 RETURN JUMPDEST CALLVALUE DUP1 ISZERO PUSH2 0x27C JUMPI PUSH1 0x0 DUP1 REVERT JUMPDEST POP PUSH2 0x297 PUSH1 0x4 DUP1 CALLDATASIZE SUB DUP2 ADD SWAP1 PUSH2 0x292 SWAP2 SWAP1 PUSH2 0xE25 JUMP JUMPDEST PUSH2 0xC9F JUMP JUMPDEST PUSH1 0x40 MLOAD PUSH2 0x2A4 SWAP2 SWAP1 PUSH2 0xE8B JUMP JUMPDEST PUSH1 0x40 MLOAD DUP1 SWAP2 SUB SWAP1 RETURN JUMPDEST CALLVALUE DUP1 ISZERO PUSH2 0x2B9 JUMPI PUSH1 0x0 DUP1 REVERT JUMPDEST POP PUSH2 0x2D4 PUSH1 0x4 DUP1 CALLDATASIZE SUB DUP2 ADD SWAP1 PUSH2 0x2CF SWAP2 SWAP1 PUSH2 0xE25 JUMP JUMPDEST PUSH2 0xCBC JUMP JUMPDEST PUSH1 0x40 MLOAD PUSH2 0x2E1 SWAP2 SWAP1 PUSH2 0xE8B JUMP JUMPDEST PUSH1 0x40 MLOAD DUP1 SWAP2 SUB SWAP1 RETURN JUMPDEST CALLVALUE DUP1 ISZERO PUSH2 0x2F6 JUMPI PUSH1 0x0 DUP1 REVERT JUMPDEST POP PUSH2 0x2FF PUSH2 0xCD4 JUMP JUMPDEST PUSH1 0x40 MLOAD PUSH2 0x30C SWAP2 SWAP1 PUSH2 0xE8B JUMP JUMPDEST PUSH1 0x40 MLOAD DUP1 SWAP2 SUB SWAP1 RETURN JUMPDEST PUSH1 0x0 PUSH1 0x1 PUSH1 0x0 SWAP1 SLOAD SWAP1 PUSH2 0x100 EXP SWAP1 DIV PUSH20 0xFFFFFFFFFFFFFFFFFFFFFFFFFFFFFFFFFFFFFFFF AND SWAP1 POP DUP1 PUSH20 0xFFFFFFFFFFFFFFFFFFFFFFFFFFFFFFFFFFFFFFFF AND PUSH4 0x605F9998 CALLER PUSH1 0x40 MLOAD DUP3 PUSH4 0xFFFFFFFF AND PUSH1 0xE0 SHL DUP2 MSTORE PUSH1 0x4 ADD PUSH2 0x375 SWAP2 SWAP1 PUSH2 0xE61 JUMP JUMPDEST PUSH1 0x20 PUSH1 0x40 MLOAD DUP1 DUP4 SUB DUP2 DUP7 GAS STATICCALL ISZERO DUP1 ISZERO PUSH2 0x392 JUMPI RETURNDATASIZE PUSH1 0x0 DUP1 RETURNDATACOPY RETURNDATASIZE PUSH1 0x0 REVERT JUMPDEST POP POP POP POP PUSH1 0x40 MLOAD RETURNDATASIZE PUSH1 0x1F NOT PUSH1 0x1F DUP3 ADD AND DUP3 ADD DUP1 PUSH1 0x40 MSTORE POP DUP2 ADD SWAP1 PUSH2 0x3B6 SWAP2 SWAP1 PUSH2 0xED2 JUMP JUMPDEST PUSH2 0x3F5 JUMPI PUSH1 0x40 MLOAD PUSH32 0x8C379A000000000000000000000000000000000000000000000000000000000 DUP2 MSTORE PUSH1 0x4 ADD PUSH2 0x3EC SWAP1 PUSH2 0xF82 JUMP JUMPDEST PUSH1 0x40 MLOAD DUP1 SWAP2 SUB SWAP1 REVERT JUMPDEST PUSH1 0x1 PUSH1 0x5 PUSH1 0x0 DUP5 PUSH20 0xFFFFFFFFFFFFFFFFFFFFFFFFFFFFFFFFFFFFFFFF AND PUSH20 0xFFFFFFFFFFFFFFFFFFFFFFFFFFFFFFFFFFFFFFFF AND DUP2 MSTORE PUSH1 0x20 ADD SWAP1 DUP2 MSTORE PUSH1 0x20 ADD PUSH1 0x0 KECCAK256 PUSH1 0x0 PUSH2 0x100 EXP DUP2 SLOAD DUP2 PUSH1 0xFF MUL NOT AND SWAP1 DUP4 ISZERO ISZERO MUL OR SWAP1 SSTORE POP POP POP JUMP JUMPDEST PUSH1 0x5 PUSH1 0x20 MSTORE DUP1 PUSH1 0x0 MSTORE PUSH1 0x40 PUSH1 0x0 KECCAK256 PUSH1 0x0 SWAP2 POP SLOAD SWAP1 PUSH2 0x100 EXP SWAP1 DIV PUSH1 0xFF AND DUP2 JUMP JUMPDEST PUSH1 0x0 PUSH1 0x1 PUSH1 0x0 SWAP1 SLOAD SWAP1 PUSH2 0x100 EXP SWAP1 DIV PUSH20 0xFFFFFFFFFFFFFFFFFFFFFFFFFFFFFFFFFFFFFFFF AND SWAP1 POP DUP1 PUSH20 0xFFFFFFFFFFFFFFFFFFFFFFFFFFFFFFFFFFFFFFFF AND PUSH4 0x605F9998 CALLER PUSH1 0x40 MLOAD DUP3 PUSH4 0xFFFFFFFF AND PUSH1 0xE0 SHL DUP2 MSTORE PUSH1 0x4 ADD PUSH2 0x4D1 SWAP2 SWAP1 PUSH2 0xE61 JUMP JUMPDEST PUSH1 0x20 PUSH1 0x40 MLOAD DUP1 DUP4 SUB DUP2 DUP7 GAS STATICCALL ISZERO DUP1 ISZERO PUSH2 0x4EE JUMPI RETURNDATASIZE PUSH1 0x0 DUP1 RETURNDATACOPY RETURNDATASIZE PUSH1 0x0 REVERT JUMPDEST POP POP POP POP PUSH1 0x40 MLOAD RETURNDATASIZE PUSH1 0x1F NOT PUSH1 0x1F DUP3 ADD AND DUP3 ADD DUP1 PUSH1 0x40 MSTORE POP DUP2 ADD SWAP1 PUSH2 0x512 SWAP2 SWAP1 PUSH2 0xED2 JUMP JUMPDEST PUSH2 0x551 JUMPI PUSH1 0x40 MLOAD PUSH32 0x8C379A000000000000000000000000000000000000000000000000000000000 DUP2 MSTORE PUSH1 0x4 ADD PUSH2 0x548 SWAP1 PUSH2 0xF82 JUMP JUMPDEST PUSH1 0x40 MLOAD DUP1 SWAP2 SUB SWAP1 REVERT JUMPDEST DUP2 PUSH1 0x2 SLOAD PUSH2 0x55F SWAP2 SWAP1 PUSH2 0xFD1 JUMP JUMPDEST CALLVALUE LT ISZERO PUSH2 0x5A1 JUMPI PUSH1 0x40 MLOAD PUSH32 0x8C379A000000000000000000000000000000000000000000000000000000000 DUP2 MSTORE PUSH1 0x4 ADD PUSH2 0x598 SWAP1 PUSH2 0x105F JUMP JUMPDEST PUSH1 0x40 MLOAD DUP1 SWAP2 SUB SWAP1 REVERT JUMPDEST PUSH1 0x0 PUSH1 0x1 PUSH1 0x0 SWAP1 SLOAD SWAP1 PUSH2 0x100 EXP SWAP1 DIV PUSH20 0xFFFFFFFFFFFFFFFFFFFFFFFFFFFFFFFFFFFFFFFF AND SWAP1 POP PUSH1 0x6 PUSH1 0x0 DUP6 DUP2 MSTORE PUSH1 0x20 ADD SWAP1 DUP2 MSTORE PUSH1 0x20 ADD PUSH1 0x0 KECCAK256 SLOAD DUP4 PUSH2 0x5E7 SWAP2 SWAP1 PUSH2 0x107F JUMP JUMPDEST DUP2 PUSH20 0xFFFFFFFFFFFFFFFFFFFFFFFFFFFFFFFFFFFFFFFF AND PUSH4 0x79A85E6C DUP7 PUSH1 0x40 MLOAD DUP3 PUSH4 0xFFFFFFFF AND PUSH1 0xE0 SHL DUP2 MSTORE PUSH1 0x4 ADD PUSH2 0x620 SWAP2 SWAP1 PUSH2 0xE8B JUMP JUMPDEST PUSH1 0x0 PUSH1 0x40 MLOAD DUP1 DUP4 SUB DUP2 DUP7 GAS STATICCALL ISZERO DUP1 ISZERO PUSH2 0x63D JUMPI RETURNDATASIZE PUSH1 0x0 DUP1 RETURNDATACOPY RETURNDATASIZE PUSH1 0x0 REVERT JUMPDEST POP POP POP POP PUSH1 0x40 MLOAD RETURNDATASIZE PUSH1 0x0 DUP3 RETURNDATACOPY RETURNDATASIZE PUSH1 0x1F NOT PUSH1 0x1F DUP3 ADD AND DUP3 ADD DUP1 PUSH1 0x40 MSTORE POP DUP2 ADD SWAP1 PUSH2 0x666 SWAP2 SWAP1 PUSH2 0x12C8 JUMP JUMPDEST PUSH1 0x40 ADD MLOAD LT ISZERO PUSH2 0x6AB JUMPI PUSH1 0x40 MLOAD PUSH32 0x8C379A000000000000000000000000000000000000000000000000000000000 DUP2 MSTORE PUSH1 0x4 ADD PUSH2 0x6A2 SWAP1 PUSH2 0x135D JUMP JUMPDEST PUSH1 0x40 MLOAD DUP1 SWAP2 SUB SWAP1 REVERT JUMPDEST PUSH1 0x4 SLOAD DUP4 PUSH2 0x6B9 SWAP2 SWAP1 PUSH2 0x107F JUMP JUMPDEST PUSH1 0x3 SLOAD LT ISZERO PUSH2 0x6FD JUMPI PUSH1 0x40 MLOAD PUSH32 0x8C379A000000000000000000000000000000000000000000000000000000000 DUP2 MSTORE PUSH1 0x4 ADD PUSH2 0x6F4 SWAP1 PUSH2 0x13C9 JUMP JUMPDEST PUSH1 0x40 MLOAD DUP1 SWAP2 SUB SWAP1 REVERT JUMPDEST DUP3 PUSH1 0x6 PUSH1 0x0 DUP7 DUP2 MSTORE PUSH1 0x20 ADD SWAP1 DUP2 MSTORE PUSH1 0x20 ADD PUSH1 0x0 KECCAK256 PUSH1 0x0 DUP3 DUP3 SLOAD PUSH2 0x720 SWAP2 SWAP1 PUSH2 0x107F JUMP JUMPDEST SWAP3 POP POP DUP2 SWAP1 SSTORE POP DUP3 PUSH1 0x4 PUSH1 0x0 DUP3 DUP3 SLOAD PUSH2 0x739 SWAP2 SWAP1 PUSH2 0x107F JUMP JUMPDEST SWAP3 POP POP DUP2 SWAP1 SSTORE POP PUSH1 0x0 DUP1 PUSH1 0x0 SWAP1 SLOAD SWAP1 PUSH2 0x100 EXP SWAP1 DIV PUSH20 0xFFFFFFFFFFFFFFFFFFFFFFFFFFFFFFFFFFFFFFFF AND PUSH20 0xFFFFFFFFFFFFFFFFFFFFFFFFFFFFFFFFFFFFFFFF AND DUP5 PUSH1 0x2 SLOAD PUSH2 0x788 SWAP2 SWAP1 PUSH2 0xFD1 JUMP JUMPDEST PUSH1 0x40 MLOAD PUSH2 0x794 SWAP1 PUSH2 0x141A JUMP JUMPDEST PUSH1 0x0 PUSH1 0x40 MLOAD DUP1 DUP4 SUB DUP2 DUP6 DUP8 GAS CALL SWAP3 POP POP POP RETURNDATASIZE DUP1 PUSH1 0x0 DUP2 EQ PUSH2 0x7D1 JUMPI PUSH1 0x40 MLOAD SWAP2 POP PUSH1 0x1F NOT PUSH1 0x3F RETURNDATASIZE ADD AND DUP3 ADD PUSH1 0x40 MSTORE RETURNDATASIZE DUP3 MSTORE RETURNDATASIZE PUSH1 0x0 PUSH1 0x20 DUP5 ADD RETURNDATACOPY PUSH2 0x7D6 JUMP JUMPDEST PUSH1 0x60 SWAP2 POP JUMPDEST POP POP SWAP1 POP DUP1 PUSH2 0x81A JUMPI PUSH1 0x40 MLOAD PUSH32 0x8C379A000000000000000000000000000000000000000000000000000000000 DUP2 MSTORE PUSH1 0x4 ADD PUSH2 0x811 SWAP1 PUSH2 0x14A1 JUMP JUMPDEST PUSH1 0x40 MLOAD DUP1 SWAP2 SUB SWAP1 REVERT JUMPDEST DUP4 PUSH1 0x2 SLOAD PUSH2 0x828 SWAP2 SWAP1 PUSH2 0xFD1 JUMP JUMPDEST CALLVALUE SUB PUSH2 0x835 JUMPI POP POP PUSH2 0x8FD JUMP JUMPDEST PUSH1 0x0 CALLER PUSH20 0xFFFFFFFFFFFFFFFFFFFFFFFFFFFFFFFFFFFFFFFF AND DUP6 PUSH1 0x2 SLOAD PUSH2 0x85C SWAP2 SWAP1 PUSH2 0xFD1 JUMP JUMPDEST CALLVALUE PUSH2 0x867 SWAP2 SWAP1 PUSH2 0x14C1 JUMP JUMPDEST PUSH1 0x40 MLOAD PUSH2 0x873 SWAP1 PUSH2 0x141A JUMP JUMPDEST PUSH1 0x0 PUSH1 0x40 MLOAD DUP1 DUP4 SUB DUP2 DUP6 DUP8 GAS CALL SWAP3 POP POP POP RETURNDATASIZE DUP1 PUSH1 0x0 DUP2 EQ PUSH2 0x8B0 JUMPI PUSH1 0x40 MLOAD SWAP2 POP PUSH1 0x1F NOT PUSH1 0x3F RETURNDATASIZE ADD AND DUP3 ADD PUSH1 0x40 MSTORE RETURNDATASIZE DUP3 MSTORE RETURNDATASIZE PUSH1 0x0 PUSH1 0x20 DUP5 ADD RETURNDATACOPY PUSH2 0x8B5 JUMP JUMPDEST PUSH1 0x60 SWAP2 POP JUMPDEST POP POP SWAP1 POP DUP1 PUSH2 0x8F9 JUMPI PUSH1 0x40 MLOAD PUSH32 0x8C379A000000000000000000000000000000000000000000000000000000000 DUP2 MSTORE PUSH1 0x4 ADD PUSH2 0x8F0 SWAP1 PUSH2 0x1567 JUMP JUMPDEST PUSH1 0x40 MLOAD DUP1 SWAP2 SUB SWAP1 REVERT JUMPDEST POP POP POP JUMPDEST POP POP POP JUMP JUMPDEST PUSH1 0x0 DUP1 SLOAD SWAP1 PUSH2 0x100 EXP SWAP1 DIV PUSH20 0xFFFFFFFFFFFFFFFFFFFFFFFFFFFFFFFFFFFFFFFF AND PUSH20 0xFFFFFFFFFFFFFFFFFFFFFFFFFFFFFFFFFFFFFFFF AND CALLER PUSH20 0xFFFFFFFFFFFFFFFFFFFFFFFFFFFFFFFFFFFFFFFF AND EQ PUSH2 0x990 JUMPI PUSH1 0x40 MLOAD PUSH32 0x8C379A000000000000000000000000000000000000000000000000000000000 DUP2 MSTORE PUSH1 0x4 ADD PUSH2 0x987 SWAP1 PUSH2 0x15F9 JUMP JUMPDEST PUSH1 0x40 MLOAD DUP1 SWAP2 SUB SWAP1 REVERT JUMPDEST DUP1 PUSH1 0x4 SLOAD GT ISZERO PUSH2 0x9D5 JUMPI PUSH1 0x40 MLOAD PUSH32 0x8C379A000000000000000000000000000000000000000000000000000000000 DUP2 MSTORE PUSH1 0x4 ADD PUSH2 0x9CC SWAP1 PUSH2 0x16B1 JUMP JUMPDEST PUSH1 0x40 MLOAD DUP1 SWAP2 SUB SWAP1 REVERT JUMPDEST DUP1 PUSH1 0x3 DUP2 SWAP1 SSTORE POP POP JUMP JUMPDEST PUSH1 0x1 PUSH1 0x0 SWAP1 SLOAD SWAP1 PUSH2 0x100 EXP SWAP1 DIV PUSH20 0xFFFFFFFFFFFFFFFFFFFFFFFFFFFFFFFFFFFFFFFF AND DUP2 JUMP JUMPDEST PUSH1 0x0 DUP1 SLOAD SWAP1 PUSH2 0x100 EXP SWAP1 DIV PUSH20 0xFFFFFFFFFFFFFFFFFFFFFFFFFFFFFFFFFFFFFFFF AND DUP2 JUMP JUMPDEST PUSH1 0x0 DUP1 SLOAD SWAP1 PUSH2 0x100 EXP SWAP1 DIV PUSH20 0xFFFFFFFFFFFFFFFFFFFFFFFFFFFFFFFFFFFFFFFF AND PUSH20 0xFFFFFFFFFFFFFFFFFFFFFFFFFFFFFFFFFFFFFFFF AND CALLER PUSH20 0xFFFFFFFFFFFFFFFFFFFFFFFFFFFFFFFFFFFFFFFF AND EQ PUSH2 0xAB7 JUMPI PUSH1 0x40 MLOAD PUSH32 0x8C379A000000000000000000000000000000000000000000000000000000000 DUP2 MSTORE PUSH1 0x4 ADD PUSH2 0xAAE SWAP1 PUSH2 0x15F9 JUMP JUMPDEST PUSH1 0x40 MLOAD DUP1 SWAP2 SUB SWAP1 REVERT JUMPDEST DUP1 PUSH1 0x2 DUP2 SWAP1 SSTORE POP POP JUMP JUMPDEST PUSH1 0x3 SLOAD DUP2 JUMP JUMPDEST PUSH1 0x0 PUSH1 0x1 PUSH1 0x0 SWAP1 SLOAD SWAP1 PUSH2 0x100 EXP SWAP1 DIV PUSH20 0xFFFFFFFFFFFFFFFFFFFFFFFFFFFFFFFFFFFFFFFF AND SWAP1 POP DUP1 PUSH20 0xFFFFFFFFFFFFFFFFFFFFFFFFFFFFFFFFFFFFFFFF AND PUSH4 0x605F9998 CALLER PUSH1 0x40 MLOAD DUP3 PUSH4 0xFFFFFFFF AND PUSH1 0xE0 SHL DUP2 MSTORE PUSH1 0x4 ADD PUSH2 0xB27 SWAP2 SWAP1 PUSH2 0xE61 JUMP JUMPDEST PUSH1 0x20 PUSH1 0x40 MLOAD DUP1 DUP4 SUB DUP2 DUP7 GAS STATICCALL ISZERO DUP1 ISZERO PUSH2 0xB44 JUMPI RETURNDATASIZE PUSH1 0x0 DUP1 RETURNDATACOPY RETURNDATASIZE PUSH1 0x0 REVERT JUMPDEST POP POP POP POP PUSH1 0x40 MLOAD RETURNDATASIZE PUSH1 0x1F NOT PUSH1 0x1F DUP3 ADD AND DUP3 ADD DUP1 PUSH1 0x40 MSTORE POP DUP2 ADD SWAP1 PUSH2 0xB68 SWAP2 SWAP1 PUSH2 0xED2 JUMP JUMPDEST DUP1 PUSH2 0xBBC JUMPI POP PUSH1 0x5 PUSH1 0x0 CALLER PUSH20 0xFFFFFFFFFFFFFFFFFFFFFFFFFFFFFFFFFFFFFFFF AND PUSH20 0xFFFFFFFFFFFFFFFFFFFFFFFFFFFFFFFFFFFFFFFF AND DUP2 MSTORE PUSH1 0x20 ADD SWAP1 DUP2 MSTORE PUSH1 0x20 ADD PUSH1 0x0 KECCAK256 PUSH1 0x0 SWAP1 SLOAD SWAP1 PUSH2 0x100 EXP SWAP1 DIV PUSH1 0xFF AND JUMPDEST PUSH2 0xBFB JUMPI PUSH1 0x40 MLOAD PUSH32 0x8C379A000000000000000000000000000000000000000000000000000000000 DUP2 MSTORE PUSH1 0x4 ADD PUSH2 0xBF2 SWAP1 PUSH2 0x1743 JUMP JUMPDEST PUSH1 0x40 MLOAD DUP1 SWAP2 SUB SWAP1 REVERT JUMPDEST DUP2 PUSH1 0x6 PUSH1 0x0 DUP6 DUP2 MSTORE PUSH1 0x20 ADD SWAP1 DUP2 MSTORE PUSH1 0x20 ADD PUSH1 0x0 KECCAK256 SLOAD LT ISZERO PUSH2 0xC51 JUMPI PUSH1 0x40 MLOAD PUSH32 0x8C379A000000000000000000000000000000000000000000000000000000000 DUP2 MSTORE PUSH1 0x4 ADD PUSH2 0xC48 SWAP1 PUSH2 0x17D5 JUMP JUMPDEST PUSH1 0x40 MLOAD DUP1 SWAP2 SUB SWAP1 REVERT JUMPDEST DUP2 PUSH1 0x6 PUSH1 0x0 DUP6 DUP2 MSTORE PUSH1 0x20 ADD SWAP1 DUP2 MSTORE PUSH1 0x20 ADD PUSH1 0x0 KECCAK256 PUSH1 0x0 DUP3 DUP3 SLOAD PUSH2 0xC74 SWAP2 SWAP1 PUSH2 0x14C1 JUMP JUMPDEST SWAP3 POP POP DUP2 SWAP1 SSTORE POP DUP2 PUSH1 0x4 PUSH1 0x0 DUP3 DUP3 SLOAD PUSH2 0xC8D SWAP2 SWAP1 PUSH2 0x14C1 JUMP JUMPDEST SWAP3 POP POP DUP2 SWAP1 SSTORE POP POP POP POP JUMP JUMPDEST PUSH1 0x4 SLOAD DUP2 JUMP JUMPDEST PUSH1 0x0 PUSH1 0x6 PUSH1 0x0 DUP4 DUP2 MSTORE PUSH1 0x20 ADD SWAP1 DUP2 MSTORE PUSH1 0x20 ADD PUSH1 0x0 KECCAK256 SLOAD SWAP1 POP SWAP2 SWAP1 POP JUMP JUMPDEST PUSH1 0x6 PUSH1 0x20 MSTORE DUP1 PUSH1 0x0 MSTORE PUSH1 0x40 PUSH1 0x0 KECCAK256 PUSH1 0x0 SWAP2 POP SWAP1 POP SLOAD DUP2 JUMP JUMPDEST PUSH1 0x2 SLOAD DUP2 JUMP JUMPDEST PUSH1 0x0 PUSH1 0x40 MLOAD SWAP1 POP SWAP1 JUMP JUMPDEST PUSH1 0x0 DUP1 REVERT JUMPDEST PUSH1 0x0 DUP1 REVERT JUMPDEST PUSH1 0x0 PUSH20 0xFFFFFFFFFFFFFFFFFFFFFFFFFFFFFFFFFFFFFFFF DUP3 AND SWAP1 POP SWAP2 SWAP1 POP JUMP JUMPDEST PUSH1 0x0 PUSH2 0xD19 DUP3 PUSH2 0xCEE JUMP JUMPDEST SWAP1 POP SWAP2 SWAP1 POP JUMP JUMPDEST PUSH2 0xD29 DUP2 PUSH2 0xD0E JUMP JUMPDEST DUP2 EQ PUSH2 0xD34 JUMPI PUSH1 0x0 DUP1 REVERT JUMPDEST POP JUMP JUMPDEST PUSH1 0x0 DUP2 CALLDATALOAD SWAP1 POP PUSH2 0xD46 DUP2 PUSH2 0xD20 JUMP JUMPDEST SWAP3 SWAP2 POP POP JUMP JUMPDEST PUSH1 0x0 PUSH1 0x20 DUP3 DUP5 SUB SLT ISZERO PUSH2 0xD62 JUMPI PUSH2 0xD61 PUSH2 0xCE4 JUMP JUMPDEST JUMPDEST PUSH1 0x0 PUSH2 0xD70 DUP5 DUP3 DUP6 ADD PUSH2 0xD37 JUMP JUMPDEST SWAP2 POP POP SWAP3 SWAP2 POP POP JUMP JUMPDEST PUSH1 0x0 DUP2 ISZERO ISZERO SWAP1 POP SWAP2 SWAP1 POP JUMP JUMPDEST PUSH2 0xD8E DUP2 PUSH2 0xD79 JUMP JUMPDEST DUP3 MSTORE POP POP JUMP JUMPDEST PUSH1 0x0 PUSH1 0x20 DUP3 ADD SWAP1 POP PUSH2 0xDA9 PUSH1 0x0 DUP4 ADD DUP5 PUSH2 0xD85 JUMP JUMPDEST SWAP3 SWAP2 POP POP JUMP JUMPDEST PUSH1 0x0 DUP2 SWAP1 POP SWAP2 SWAP1 POP JUMP JUMPDEST PUSH2 0xDC2 DUP2 PUSH2 0xDAF JUMP JUMPDEST DUP2 EQ PUSH2 0xDCD JUMPI PUSH1 0x0 DUP1 REVERT JUMPDEST POP JUMP JUMPDEST PUSH1 0x0 DUP2 CALLDATALOAD SWAP1 POP PUSH2 0xDDF DUP2 PUSH2 0xDB9 JUMP JUMPDEST SWAP3 SWAP2 POP POP JUMP JUMPDEST PUSH1 0x0 DUP1 PUSH1 0x40 DUP4 DUP6 SUB SLT ISZERO PUSH2 0xDFC JUMPI PUSH2 0xDFB PUSH2 0xCE4 JUMP JUMPDEST JUMPDEST PUSH1 0x0 PUSH2 0xE0A DUP6 DUP3 DUP7 ADD PUSH2 0xDD0 JUMP JUMPDEST SWAP3 POP POP PUSH1 0x20 PUSH2 0xE1B DUP6 DUP3 DUP7 ADD PUSH2 0xDD0 JUMP JUMPDEST SWAP2 POP POP SWAP3 POP SWAP3 SWAP1 POP JUMP JUMPDEST PUSH1 0x0 PUSH1 0x20 DUP3 DUP5 SUB SLT ISZERO PUSH2 0xE3B JUMPI PUSH2 0xE3A PUSH2 0xCE4 JUMP JUMPDEST JUMPDEST PUSH1 0x0 PUSH2 0xE49 DUP5 DUP3 DUP6 ADD PUSH2 0xDD0 JUMP JUMPDEST SWAP2 POP POP SWAP3 SWAP2 POP POP JUMP JUMPDEST PUSH2 0xE5B DUP2 PUSH2 0xD0E JUMP JUMPDEST DUP3 MSTORE POP POP JUMP JUMPDEST PUSH1 0x0 PUSH1 0x20 DUP3 ADD SWAP1 POP PUSH2 0xE76 PUSH1 0x0 DUP4 ADD DUP5 PUSH2 0xE52 JUMP JUMPDEST SWAP3 SWAP2 POP POP JUMP JUMPDEST PUSH2 0xE85 DUP2 PUSH2 0xDAF JUMP JUMPDEST DUP3 MSTORE POP POP JUMP JUMPDEST PUSH1 0x0 PUSH1 0x20 DUP3 ADD SWAP1 POP PUSH2 0xEA0 PUSH1 0x0 DUP4 ADD DUP5 PUSH2 0xE7C JUMP JUMPDEST SWAP3 SWAP2 POP POP JUMP JUMPDEST PUSH2 0xEAF DUP2 PUSH2 0xD79 JUMP JUMPDEST DUP2 EQ PUSH2 0xEBA JUMPI PUSH1 0x0 DUP1 REVERT JUMPDEST POP JUMP JUMPDEST PUSH1 0x0 DUP2 MLOAD SWAP1 POP PUSH2 0xECC DUP2 PUSH2 0xEA6 JUMP JUMPDEST SWAP3 SWAP2 POP POP JUMP JUMPDEST PUSH1 0x0 PUSH1 0x20 DUP3 DUP5 SUB SLT ISZERO PUSH2 0xEE8 JUMPI PUSH2 0xEE7 PUSH2 0xCE4 JUMP JUMPDEST JUMPDEST PUSH1 0x0 PUSH2 0xEF6 DUP5 DUP3 DUP6 ADD PUSH2 0xEBD JUMP JUMPDEST SWAP2 POP POP SWAP3 SWAP2 POP POP JUMP JUMPDEST PUSH1 0x0 DUP3 DUP3 MSTORE PUSH1 0x20 DUP3 ADD SWAP1 POP SWAP3 SWAP2 POP POP JUMP JUMPDEST PUSH32 0x4F6E6C7920617574686F72697A65642070726F6475636572732063616E206361 PUSH1 0x0 DUP3 ADD MSTORE PUSH32 0x6C6C20746869732066756E6374696F6E00000000000000000000000000000000 PUSH1 0x20 DUP3 ADD MSTORE POP JUMP JUMPDEST PUSH1 0x0 PUSH2 0xF6C PUSH1 0x30 DUP4 PUSH2 0xEFF JUMP JUMPDEST SWAP2 POP PUSH2 0xF77 DUP3 PUSH2 0xF10 JUMP JUMPDEST PUSH1 0x40 DUP3 ADD SWAP1 POP SWAP2 SWAP1 POP JUMP JUMPDEST PUSH1 0x0 PUSH1 0x20 DUP3 ADD SWAP1 POP DUP2 DUP2 SUB PUSH1 0x0 DUP4 ADD MSTORE PUSH2 0xF9B DUP2 PUSH2 0xF5F JUMP JUMPDEST SWAP1 POP SWAP2 SWAP1 POP JUMP JUMPDEST PUSH32 0x4E487B7100000000000000000000000000000000000000000000000000000000 PUSH1 0x0 MSTORE PUSH1 0x11 PUSH1 0x4 MSTORE PUSH1 0x24 PUSH1 0x0 REVERT JUMPDEST PUSH1 0x0 PUSH2 0xFDC DUP3 PUSH2 0xDAF JUMP JUMPDEST SWAP2 POP PUSH2 0xFE7 DUP4 PUSH2 0xDAF JUMP JUMPDEST SWAP3 POP DUP3 DUP3 MUL PUSH2 0xFF5 DUP2 PUSH2 0xDAF JUMP JUMPDEST SWAP2 POP DUP3 DUP3 DIV DUP5 EQ DUP4 ISZERO OR PUSH2 0x100C JUMPI PUSH2 0x100B PUSH2 0xFA2 JUMP JUMPDEST JUMPDEST POP SWAP3 SWAP2 POP POP JUMP JUMPDEST PUSH32 0x496E636F72726563742073746F72616765206665650000000000000000000000 PUSH1 0x0 DUP3 ADD MSTORE POP JUMP JUMPDEST PUSH1 0x0 PUSH2 0x1049 PUSH1 0x15 DUP4 PUSH2 0xEFF JUMP JUMPDEST SWAP2 POP PUSH2 0x1054 DUP3 PUSH2 0x1013 JUMP JUMPDEST PUSH1 0x20 DUP3 ADD SWAP1 POP SWAP2 SWAP1 POP JUMP JUMPDEST PUSH1 0x0 PUSH1 0x20 DUP3 ADD SWAP1 POP DUP2 DUP2 SUB PUSH1 0x0 DUP4 ADD MSTORE PUSH2 0x1078 DUP2 PUSH2 0x103C JUMP JUMPDEST SWAP1 POP SWAP2 SWAP1 POP JUMP JUMPDEST PUSH1 0x0 PUSH2 0x108A DUP3 PUSH2 0xDAF JUMP JUMPDEST SWAP2 POP PUSH2 0x1095 DUP4 PUSH2 0xDAF JUMP JUMPDEST SWAP3 POP DUP3 DUP3 ADD SWAP1 POP DUP1 DUP3 GT ISZERO PUSH2 0x10AD JUMPI PUSH2 0x10AC PUSH2 0xFA2 JUMP JUMPDEST JUMPDEST SWAP3 SWAP2 POP POP JUMP JUMPDEST PUSH1 0x0 DUP1 REVERT JUMPDEST PUSH1 0x0 PUSH1 0x1F NOT PUSH1 0x1F DUP4 ADD AND SWAP1 POP SWAP2 SWAP1 POP JUMP JUMPDEST PUSH32 0x4E487B7100000000000000000000000000000000000000000000000000000000 PUSH1 0x0 MSTORE PUSH1 0x41 PUSH1 0x4 MSTORE PUSH1 0x24 PUSH1 0x0 REVERT JUMPDEST PUSH2 0x1101 DUP3 PUSH2 0x10B8 JUMP JUMPDEST DUP2 ADD DUP2 DUP2 LT PUSH8 0xFFFFFFFFFFFFFFFF DUP3 GT OR ISZERO PUSH2 0x1120 JUMPI PUSH2 0x111F PUSH2 0x10C9 JUMP JUMPDEST JUMPDEST DUP1 PUSH1 0x40 MSTORE POP POP POP JUMP JUMPDEST PUSH1 0x0 PUSH2 0x1133 PUSH2 0xCDA JUMP JUMPDEST SWAP1 POP PUSH2 0x113F DUP3 DUP3 PUSH2 0x10F8 JUMP JUMPDEST SWAP2 SWAP1 POP JUMP JUMPDEST PUSH1 0x0 DUP1 REVERT JUMPDEST PUSH1 0x0 DUP2 MLOAD SWAP1 POP PUSH2 0x1158 DUP2 PUSH2 0xD20 JUMP JUMPDEST SWAP3 SWAP2 POP POP JUMP JUMPDEST PUSH1 0x0 DUP1 REVERT JUMPDEST PUSH1 0x0 DUP1 REVERT JUMPDEST PUSH1 0x0 PUSH8 0xFFFFFFFFFFFFFFFF DUP3 GT ISZERO PUSH2 0x1183 JUMPI PUSH2 0x1182 PUSH2 0x10C9 JUMP JUMPDEST JUMPDEST PUSH2 0x118C DUP3 PUSH2 0x10B8 JUMP JUMPDEST SWAP1 POP PUSH1 0x20 DUP2 ADD SWAP1 POP SWAP2 SWAP1 POP JUMP JUMPDEST PUSH1 0x0 JUMPDEST DUP4 DUP2 LT ISZERO PUSH2 0x11B7 JUMPI DUP1 DUP3 ADD MLOAD DUP2 DUP5 ADD MSTORE PUSH1 0x20 DUP2 ADD SWAP1 POP PUSH2 0x119C JUMP JUMPDEST PUSH1 0x0 DUP5 DUP5 ADD MSTORE POP POP POP POP JUMP JUMPDEST PUSH1 0x0 PUSH2 0x11D6 PUSH2 0x11D1 DUP5 PUSH2 0x1168 JUMP JUMPDEST PUSH2 0x1129 JUMP JUMPDEST SWAP1 POP DUP3 DUP2 MSTORE PUSH1 0x20 DUP2 ADD DUP5 DUP5 DUP5 ADD GT ISZERO PUSH2 0x11F2 JUMPI PUSH2 0x11F1 PUSH2 0x1163 JUMP JUMPDEST JUMPDEST PUSH2 0x11FD DUP5 DUP3 DUP6 PUSH2 0x1199 JUMP JUMPDEST POP SWAP4 SWAP3 POP POP POP JUMP JUMPDEST PUSH1 0x0 DUP3 PUSH1 0x1F DUP4 ADD SLT PUSH2 0x121A JUMPI PUSH2 0x1219 PUSH2 0x115E JUMP JUMPDEST JUMPDEST DUP2 MLOAD PUSH2 0x122A DUP5 DUP3 PUSH1 0x20 DUP7 ADD PUSH2 0x11C3 JUMP JUMPDEST SWAP2 POP POP SWAP3 SWAP2 POP POP JUMP JUMPDEST PUSH1 0x0 DUP2 MLOAD SWAP1 POP PUSH2 0x1242 DUP2 PUSH2 0xDB9 JUMP JUMPDEST SWAP3 SWAP2 POP POP JUMP JUMPDEST PUSH1 0x0 PUSH1 0x60 DUP3 DUP5 SUB SLT ISZERO PUSH2 0x125E JUMPI PUSH2 0x125D PUSH2 0x10B3 JUMP JUMPDEST JUMPDEST PUSH2 0x1268 PUSH1 0x60 PUSH2 0x1129 JUMP JUMPDEST SWAP1 POP PUSH1 0x0 PUSH2 0x1278 DUP5 DUP3 DUP6 ADD PUSH2 0x1149 JUMP JUMPDEST PUSH1 0x0 DUP4 ADD MSTORE POP PUSH1 0x20 DUP3 ADD MLOAD PUSH8 0xFFFFFFFFFFFFFFFF DUP2 GT ISZERO PUSH2 0x129C JUMPI PUSH2 0x129B PUSH2 0x1144 JUMP JUMPDEST JUMPDEST PUSH2 0x12A8 DUP5 DUP3 DUP6 ADD PUSH2 0x1205 JUMP JUMPDEST PUSH1 0x20 DUP4 ADD MSTORE POP PUSH1 0x40 PUSH2 0x12BC DUP5 DUP3 DUP6 ADD PUSH2 0x1233 JUMP JUMPDEST PUSH1 0x40 DUP4 ADD MSTORE POP SWAP3 SWAP2 POP POP JUMP JUMPDEST PUSH1 0x0 PUSH1 0x20 DUP3 DUP5 SUB SLT ISZERO PUSH2 0x12DE JUMPI PUSH2 0x12DD PUSH2 0xCE4 JUMP JUMPDEST JUMPDEST PUSH1 0x0 DUP3 ADD MLOAD PUSH8 0xFFFFFFFFFFFFFFFF DUP2 GT ISZERO PUSH2 0x12FC JUMPI PUSH2 0x12FB PUSH2 0xCE9 JUMP JUMPDEST JUMPDEST PUSH2 0x1308 DUP5 DUP3 DUP6 ADD PUSH2 0x1248 JUMP JUMPDEST SWAP2 POP POP SWAP3 SWAP2 POP POP JUMP JUMPDEST PUSH32 0x496E636F726563742070726F64756374207175616E7469747900000000000000 PUSH1 0x0 DUP3 ADD MSTORE POP JUMP JUMPDEST PUSH1 0x0 PUSH2 0x1347 PUSH1 0x19 DUP4 PUSH2 0xEFF JUMP JUMPDEST SWAP2 POP PUSH2 0x1352 DUP3 PUSH2 0x1311 JUMP JUMPDEST PUSH1 0x20 DUP3 ADD SWAP1 POP SWAP2 SWAP1 POP JUMP JUMPDEST PUSH1 0x0 PUSH1 0x20 DUP3 ADD SWAP1 POP DUP2 DUP2 SUB PUSH1 0x0 DUP4 ADD MSTORE PUSH2 0x1376 DUP2 PUSH2 0x133A JUMP JUMPDEST SWAP1 POP SWAP2 SWAP1 POP JUMP JUMPDEST PUSH32 0x45786365656473206D6178696D756D2073746F7261676520766F6C756D650000 PUSH1 0x0 DUP3 ADD MSTORE POP JUMP JUMPDEST PUSH1 0x0 PUSH2 0x13B3 PUSH1 0x1E DUP4 PUSH2 0xEFF JUMP JUMPDEST SWAP2 POP PUSH2 0x13BE DUP3 PUSH2 0x137D JUMP JUMPDEST PUSH1 0x20 DUP3 ADD SWAP1 POP SWAP2 SWAP1 POP JUMP JUMPDEST PUSH1 0x0 PUSH1 0x20 DUP3 ADD SWAP1 POP DUP2 DUP2 SUB PUSH1 0x0 DUP4 ADD MSTORE PUSH2 0x13E2 DUP2 PUSH2 0x13A6 JUMP JUMPDEST SWAP1 POP SWAP2 SWAP1 POP JUMP JUMPDEST PUSH1 0x0 DUP2 SWAP1 POP SWAP3 SWAP2 POP POP JUMP JUMPDEST POP JUMP JUMPDEST PUSH1 0x0 PUSH2 0x1404 PUSH1 0x0 DUP4 PUSH2 0x13E9 JUMP JUMPDEST SWAP2 POP PUSH2 0x140F DUP3 PUSH2 0x13F4 JUMP JUMPDEST PUSH1 0x0 DUP3 ADD SWAP1 POP SWAP2 SWAP1 POP JUMP JUMPDEST PUSH1 0x0 PUSH2 0x1425 DUP3 PUSH2 0x13F7 JUMP JUMPDEST SWAP2 POP DUP2 SWAP1 POP SWAP2 SWAP1 POP JUMP JUMPDEST PUSH32 0x436F756C646E27742073656E6420746865206368616E6765206261636B20746F PUSH1 0x0 DUP3 ADD MSTORE PUSH32 0x20746865206F776E657200000000000000000000000000000000000000000000 PUSH1 0x20 DUP3 ADD MSTORE POP JUMP JUMPDEST PUSH1 0x0 PUSH2 0x148B PUSH1 0x2A DUP4 PUSH2 0xEFF JUMP JUMPDEST SWAP2 POP PUSH2 0x1496 DUP3 PUSH2 0x142F JUMP JUMPDEST PUSH1 0x40 DUP3 ADD SWAP1 POP SWAP2 SWAP1 POP JUMP JUMPDEST PUSH1 0x0 PUSH1 0x20 DUP3 ADD SWAP1 POP DUP2 DUP2 SUB PUSH1 0x0 DUP4 ADD MSTORE PUSH2 0x14BA DUP2 PUSH2 0x147E JUMP JUMPDEST SWAP1 POP SWAP2 SWAP1 POP JUMP JUMPDEST PUSH1 0x0 PUSH2 0x14CC DUP3 PUSH2 0xDAF JUMP JUMPDEST SWAP2 POP PUSH2 0x14D7 DUP4 PUSH2 0xDAF JUMP JUMPDEST SWAP3 POP DUP3 DUP3 SUB SWAP1 POP DUP2 DUP2 GT ISZERO PUSH2 0x14EF JUMPI PUSH2 0x14EE PUSH2 0xFA2 JUMP JUMPDEST JUMPDEST SWAP3 SWAP2 POP POP JUMP JUMPDEST PUSH32 0x436F756C646E27742073656E6420746865206368616E6765206261636B20746F PUSH1 0x0 DUP3 ADD MSTORE PUSH32 0x207468652070726F647563657200000000000000000000000000000000000000 PUSH1 0x20 DUP3 ADD MSTORE POP JUMP JUMPDEST PUSH1 0x0 PUSH2 0x1551 PUSH1 0x2D DUP4 PUSH2 0xEFF JUMP JUMPDEST SWAP2 POP PUSH2 0x155C DUP3 PUSH2 0x14F5 JUMP JUMPDEST PUSH1 0x40 DUP3 ADD SWAP1 POP SWAP2 SWAP1 POP JUMP JUMPDEST PUSH1 0x0 PUSH1 0x20 DUP3 ADD SWAP1 POP DUP2 DUP2 SUB PUSH1 0x0 DUP4 ADD MSTORE PUSH2 0x1580 DUP2 PUSH2 0x1544 JUMP JUMPDEST SWAP1 POP SWAP2 SWAP1 POP JUMP JUMPDEST PUSH32 0x4F6E6C7920746865206F776E65722063616E2063616C6C20746869732066756E PUSH1 0x0 DUP3 ADD MSTORE PUSH32 0x6374696F6E000000000000000000000000000000000000000000000000000000 PUSH1 0x20 DUP3 ADD MSTORE POP JUMP JUMPDEST PUSH1 0x0 PUSH2 0x15E3 PUSH1 0x25 DUP4 PUSH2 0xEFF JUMP JUMPDEST SWAP2 POP PUSH2 0x15EE DUP3 PUSH2 0x1587 JUMP JUMPDEST PUSH1 0x40 DUP3 ADD SWAP1 POP SWAP2 SWAP1 POP JUMP JUMPDEST PUSH1 0x0 PUSH1 0x20 DUP3 ADD SWAP1 POP DUP2 DUP2 SUB PUSH1 0x0 DUP4 ADD MSTORE PUSH2 0x1612 DUP2 PUSH2 0x15D6 JUMP JUMPDEST SWAP1 POP SWAP2 SWAP1 POP JUMP JUMPDEST PUSH32 0x4D6178696D756D2073746F7261676520766F6C756D652063616E277420626520 PUSH1 0x0 DUP3 ADD MSTORE PUSH32 0x736D616C6C6572207468616E2074686520616C7265616479206465706F736974 PUSH1 0x20 DUP3 ADD MSTORE PUSH32 0x656420766F6C756D650000000000000000000000000000000000000000000000 PUSH1 0x40 DUP3 ADD MSTORE POP JUMP JUMPDEST PUSH1 0x0 PUSH2 0x169B PUSH1 0x49 DUP4 PUSH2 0xEFF JUMP JUMPDEST SWAP2 POP PUSH2 0x16A6 DUP3 PUSH2 0x1619 JUMP JUMPDEST PUSH1 0x60 DUP3 ADD SWAP1 POP SWAP2 SWAP1 POP JUMP JUMPDEST PUSH1 0x0 PUSH1 0x20 DUP3 ADD SWAP1 POP DUP2 DUP2 SUB PUSH1 0x0 DUP4 ADD MSTORE PUSH2 0x16CA DUP2 PUSH2 0x168E JUMP JUMPDEST SWAP1 POP SWAP2 SWAP1 POP JUMP JUMPDEST PUSH32 0x4F6E6C7920617574686F72697A65642070726F647563657273206F722073746F PUSH1 0x0 DUP3 ADD MSTORE PUSH32 0x72652063616E2063616C6C20746869732066756E6374696F6E00000000000000 PUSH1 0x20 DUP3 ADD MSTORE POP JUMP JUMPDEST PUSH1 0x0 PUSH2 0x172D PUSH1 0x39 DUP4 PUSH2 0xEFF JUMP JUMPDEST SWAP2 POP PUSH2 0x1738 DUP3 PUSH2 0x16D1 JUMP JUMPDEST PUSH1 0x40 DUP3 ADD SWAP1 POP SWAP2 SWAP1 POP JUMP JUMPDEST PUSH1 0x0 PUSH1 0x20 DUP3 ADD SWAP1 POP DUP2 DUP2 SUB PUSH1 0x0 DUP4 ADD MSTORE PUSH2 0x175C DUP2 PUSH2 0x1720 JUMP JUMPDEST SWAP1 POP SWAP2 SWAP1 POP JUMP JUMPDEST PUSH32 0x4E6F7420656E6F75676820766F6C756D6520617661696C61626C6520666F7220 PUSH1 0x0 DUP3 ADD MSTORE PUSH32 0x7769746864726177616C00000000000000000000000000000000000000000000 PUSH1 0x20 DUP3 ADD MSTORE POP JUMP JUMPDEST PUSH1 0x0 PUSH2 0x17BF PUSH1 0x2A DUP4 PUSH2 0xEFF JUMP JUMPDEST SWAP2 POP PUSH2 0x17CA DUP3 PUSH2 0x1763 JUMP JUMPDEST PUSH1 0x40 DUP3 ADD SWAP1 POP SWAP2 SWAP1 POP JUMP JUMPDEST PUSH1 0x0 PUSH1 0x20 DUP3 ADD SWAP1 POP DUP2 DUP2 SUB PUSH1 0x0 DUP4 ADD MSTORE PUSH2 0x17EE DUP2 PUSH2 0x17B2 JUMP JUMPDEST SWAP1 POP SWAP2 SWAP1 POP JUMP INVALID LOG2 PUSH5 0x6970667358 0x22 SLT KECCAK256 0x28 PUSH19 0x82DE1A72851433571A00990FF82291AF5AE5D2 ADD 0xC TIMESTAMP 0xC0 EXTCODEHASH DUP9 0xD4 CALLER 0xF9 0xB8 ADD PUSH5 0x736F6C6343 STOP ADDMOD SLT STOP CALLER "
		},
		"gasEstimates": {
			"creation": {
				"codeDepositCost": "1237400",
				"executionCost": "infinite",
				"totalCost": "infinite"
			},
			"external": {
				"authorizedStore(address)": "2868",
				"depositProduct(uint256)": "infinite",
				"getAvailableQuantity(uint256)": "infinite",
				"identificationOwner()": "2603",
				"maxStorageVolume()": "2474",
				"owner()": "2622",
				"producerWithdrawal(uint256,uint256)": "infinite",
				"quantityOnDeposit()": "2451",
				"registerProductStorage(uint256,uint256)": "infinite",
				"registerStore(address)": "infinite",
				"setMaxStorageVolume(uint256)": "26880",
				"setStorageFeePerVolumeUnit(uint256)": "24710",
				"storageFeePerVolumeUnit()": "2517"
			}
		},
		"methodIdentifiers": {
			"authorizedStore(address)": "3e0f1e9e",
			"depositProduct(uint256)": "ed8e67ce",
			"getAvailableQuantity(uint256)": "ed2264f6",
			"identificationOwner()": "6a655c76",
			"maxStorageVolume()": "bc94994a",
			"owner()": "8da5cb5b",
			"producerWithdrawal(uint256,uint256)": "bcffcb0f",
			"quantityOnDeposit()": "e4657ea3",
			"registerProductStorage(uint256,uint256)": "50b4a557",
			"registerStore(address)": "29be3ea2",
			"setMaxStorageVolume(uint256)": "56a7a5d2",
			"setStorageFeePerVolumeUnit(uint256)": "b7269d09",
			"storageFeePerVolumeUnit()": "f6c96faa"
		}
	},
	"abi": [
		{
			"inputs": [
				{
					"internalType": "uint256",
					"name": "_storageFeePerVolumeUnit",
					"type": "uint256"
				},
				{
					"internalType": "uint256",
					"name": "_maxStorageVolume",
					"type": "uint256"
				},
				{
					"internalType": "address",
					"name": "_identificationOwner",
					"type": "address"
				}
			],
			"stateMutability": "nonpayable",
			"type": "constructor"
		},
		{
			"inputs": [
				{
					"internalType": "address",
					"name": "",
					"type": "address"
				}
			],
			"name": "authorizedStore",
			"outputs": [
				{
					"internalType": "bool",
					"name": "",
					"type": "bool"
				}
			],
			"stateMutability": "view",
			"type": "function"
		},
		{
			"inputs": [
				{
					"internalType": "uint256",
					"name": "",
					"type": "uint256"
				}
			],
			"name": "depositProduct",
			"outputs": [
				{
					"internalType": "uint256",
					"name": "",
					"type": "uint256"
				}
			],
			"stateMutability": "view",
			"type": "function"
		},
		{
			"inputs": [
				{
					"internalType": "uint256",
					"name": "_productId",
					"type": "uint256"
				}
			],
			"name": "getAvailableQuantity",
			"outputs": [
				{
					"internalType": "uint256",
					"name": "",
					"type": "uint256"
				}
			],
			"stateMutability": "view",
			"type": "function"
		},
		{
			"inputs": [],
			"name": "identificationOwner",
			"outputs": [
				{
					"internalType": "address",
					"name": "",
					"type": "address"
				}
			],
			"stateMutability": "view",
			"type": "function"
		},
		{
			"inputs": [],
			"name": "maxStorageVolume",
			"outputs": [
				{
					"internalType": "uint256",
					"name": "",
					"type": "uint256"
				}
			],
			"stateMutability": "view",
			"type": "function"
		},
		{
			"inputs": [],
			"name": "owner",
			"outputs": [
				{
					"internalType": "address",
					"name": "",
					"type": "address"
				}
			],
			"stateMutability": "view",
			"type": "function"
		},
		{
			"inputs": [
				{
					"internalType": "uint256",
					"name": "_productId",
					"type": "uint256"
				},
				{
					"internalType": "uint256",
					"name": "_volume",
					"type": "uint256"
				}
			],
			"name": "producerWithdrawal",
			"outputs": [],
			"stateMutability": "nonpayable",
			"type": "function"
		},
		{
			"inputs": [],
			"name": "quantityOnDeposit",
			"outputs": [
				{
					"internalType": "uint256",
					"name": "",
					"type": "uint256"
				}
			],
			"stateMutability": "view",
			"type": "function"
		},
		{
			"inputs": [
				{
					"internalType": "uint256",
					"name": "_productId",
					"type": "uint256"
				},
				{
					"internalType": "uint256",
					"name": "_quantity",
					"type": "uint256"
				}
			],
			"name": "registerProductStorage",
			"outputs": [],
			"stateMutability": "payable",
			"type": "function"
		},
		{
			"inputs": [
				{
					"internalType": "address",
					"name": "_addresStore",
					"type": "address"
				}
			],
			"name": "registerStore",
			"outputs": [],
			"stateMutability": "nonpayable",
			"type": "function"
		},
		{
			"inputs": [
				{
					"internalType": "uint256",
					"name": "_volume",
					"type": "uint256"
				}
			],
			"name": "setMaxStorageVolume",
			"outputs": [],
			"stateMutability": "nonpayable",
			"type": "function"
		},
		{
			"inputs": [
				{
					"internalType": "uint256",
					"name": "_storageFeePerVolumeUnit",
					"type": "uint256"
				}
			],
			"name": "setStorageFeePerVolumeUnit",
			"outputs": [],
			"stateMutability": "nonpayable",
			"type": "function"
		},
		{
			"inputs": [],
			"name": "storageFeePerVolumeUnit",
			"outputs": [
				{
					"internalType": "uint256",
					"name": "",
					"type": "uint256"
				}
			],
			"stateMutability": "view",
			"type": "function"
		}
	]
}