{
	"data": {
		"bytecode": {
			"linkReferences": {},
			"object": "608060405234801562000010575f80fd5b5060405162000cc938038062000cc9833981810160405281019062000036919062000174565b3360025f6101000a81548173ffffffffffffffffffffffffffffffffffffffff021916908373ffffffffffffffffffffffffffffffffffffffff160217905550815f806101000a81548173ffffffffffffffffffffffffffffffffffffffff021916908373ffffffffffffffffffffffffffffffffffffffff160217905550806001819055505050620001b9565b5f80fd5b5f73ffffffffffffffffffffffffffffffffffffffff82169050919050565b5f620000f382620000c8565b9050919050565b5f6200010682620000e7565b9050919050565b6200011881620000fa565b811462000123575f80fd5b50565b5f8151905062000136816200010d565b92915050565b5f819050919050565b62000150816200013c565b81146200015b575f80fd5b50565b5f815190506200016e8162000145565b92915050565b5f80604083850312156200018d576200018c620000c4565b5b5f6200019c8582860162000126565b9250506020620001af858286016200015e565b9150509250929050565b610b0280620001c75f395ff3fe608060405260043610610054575f3560e01c80633610724e14610058578063380d831b14610074578063518ab2a81461008a57806355a373d6146100b45780637ff9b596146100de578063cdc57fd314610108575b5f80fd5b610072600480360381019061006d9190610671565b610130565b005b34801561007f575f80fd5b50610088610344565b005b348015610095575f80fd5b5061009e610572565b6040516100ab91906106ab565b60405180910390f35b3480156100bf575f80fd5b506100c8610578565b6040516100d5919061073e565b60405180910390f35b3480156100e9575f80fd5b506100f261059b565b6040516100ff91906106ab565b60405180910390f35b348015610113575f80fd5b5061012e60048036038101906101299190610671565b6105a1565b005b6001548161013e9190610784565b341015610149575f80fd5b5f8054906101000a900473ffffffffffffffffffffffffffffffffffffffff1673ffffffffffffffffffffffffffffffffffffffff166323b872dd60025f9054906101000a900473ffffffffffffffffffffffffffffffffffffffff1633846040518463ffffffff1660e01b81526004016101c6939291906107e5565b6020604051808303815f875af11580156101e2573d5f803e3d5ffd5b505050506040513d601f19601f82011682018060405250810190610206919061084f565b61020e575f80fd5b803373ffffffffffffffffffffffffffffffffffffffff167f5e5e995ce3133561afceaa51a9a154d5db228cd7525d34df5185582c18d3df0960405160405180910390a38060035f828254610263919061087a565b92505081905550600154816102789190610784565b340315610341575f3373ffffffffffffffffffffffffffffffffffffffff16600154836102a59190610784565b346102b091906108ad565b6040516102bc9061090d565b5f6040518083038185875af1925050503d805f81146102f6576040519150601f19603f3d011682016040523d82523d5f602084013e6102fb565b606091505b505090508061033f576040517f08c379a0000000000000000000000000000000000000000000000000000000008152600401610336906109a1565b60405180910390fd5b505b50565b60025f9054906101000a900473ffffffffffffffffffffffffffffffffffffffff1673ffffffffffffffffffffffffffffffffffffffff163373ffffffffffffffffffffffffffffffffffffffff16146103d3576040517f08c379a00000000000000000000000000000000000000000000000000000000081526004016103ca90610a2f565b60405180910390fd5b5f8054906101000a900473ffffffffffffffffffffffffffffffffffffffff1673ffffffffffffffffffffffffffffffffffffffff1663a9059cbb60025f9054906101000a900473ffffffffffffffffffffffffffffffffffffffff165f8054906101000a900473ffffffffffffffffffffffffffffffffffffffff1673ffffffffffffffffffffffffffffffffffffffff166370a08231306040518263ffffffff1660e01b81526004016104889190610a4d565b602060405180830381865afa1580156104a3573d5f803e3d5ffd5b505050506040513d601f19601f820116820180604052508101906104c79190610a7a565b6040518363ffffffff1660e01b81526004016104e4929190610aa5565b6020604051808303815f875af1158015610500573d5f803e3d5ffd5b505050506040513d601f19601f82011682018060405250810190610524919061084f565b61052c575f80fd5b3373ffffffffffffffffffffffffffffffffffffffff166108fc4790811502906040515f60405180830381858888f1935050505015801561056f573d5f803e3d5ffd5b50565b60035481565b5f8054906101000a900473ffffffffffffffffffffffffffffffffffffffff1681565b60015481565b60025f9054906101000a900473ffffffffffffffffffffffffffffffffffffffff1673ffffffffffffffffffffffffffffffffffffffff163373ffffffffffffffffffffffffffffffffffffffff1614610630576040517f08c379a000000000000000000000000000000000000000000000000000000000815260040161062790610a2f565b60405180910390fd5b8060018190555050565b5f80fd5b5f819050919050565b6106508161063e565b811461065a575f80fd5b50565b5f8135905061066b81610647565b92915050565b5f602082840312156106865761068561063a565b5b5f6106938482850161065d565b91505092915050565b6106a58161063e565b82525050565b5f6020820190506106be5f83018461069c565b92915050565b5f73ffffffffffffffffffffffffffffffffffffffff82169050919050565b5f819050919050565b5f6107066107016106fc846106c4565b6106e3565b6106c4565b9050919050565b5f610717826106ec565b9050919050565b5f6107288261070d565b9050919050565b6107388161071e565b82525050565b5f6020820190506107515f83018461072f565b92915050565b7f4e487b71000000000000000000000000000000000000000000000000000000005f52601160045260245ffd5b5f61078e8261063e565b91506107998361063e565b92508282026107a78161063e565b915082820484148315176107be576107bd610757565b5b5092915050565b5f6107cf826106c4565b9050919050565b6107df816107c5565b82525050565b5f6060820190506107f85f8301866107d6565b61080560208301856107d6565b610812604083018461069c565b949350505050565b5f8115159050919050565b61082e8161081a565b8114610838575f80fd5b50565b5f8151905061084981610825565b92915050565b5f602082840312156108645761086361063a565b5b5f6108718482850161083b565b91505092915050565b5f6108848261063e565b915061088f8361063e565b92508282019050808211156108a7576108a6610757565b5b92915050565b5f6108b78261063e565b91506108c28361063e565b92508282039050818111156108da576108d9610757565b5b92915050565b5f81905092915050565b50565b5f6108f85f836108e0565b9150610903826108ea565b5f82019050919050565b5f610917826108ed565b9150819050919050565b5f82825260208201905092915050565b7f436f756c646e27742073656e6420746865206368616e6765206261636b20746f5f8201527f2074686520627579657200000000000000000000000000000000000000000000602082015250565b5f61098b602a83610921565b915061099682610931565b604082019050919050565b5f6020820190508181035f8301526109b88161097f565b9050919050565b7f4f6e6c7920746865206f776e65722063616e2063616c6c20746869732066756e5f8201527f6374696f6e000000000000000000000000000000000000000000000000000000602082015250565b5f610a19602583610921565b9150610a24826109bf565b604082019050919050565b5f6020820190508181035f830152610a4681610a0d565b9050919050565b5f602082019050610a605f8301846107d6565b92915050565b5f81519050610a7481610647565b92915050565b5f60208284031215610a8f57610a8e61063a565b5b5f610a9c84828501610a66565b91505092915050565b5f604082019050610ab85f8301856107d6565b610ac5602083018461069c565b939250505056fea26469706673582212207f1203e1b9e5153b2d339b053b3892fbf45efe3623e461504d1a28f61369c09b64736f6c63430008150033",
			"opcodes": "PUSH1 0x80 PUSH1 0x40 MSTORE CALLVALUE DUP1 ISZERO PUSH3 0x10 JUMPI PUSH0 DUP1 REVERT JUMPDEST POP PUSH1 0x40 MLOAD PUSH3 0xCC9 CODESIZE SUB DUP1 PUSH3 0xCC9 DUP4 CODECOPY DUP2 DUP2 ADD PUSH1 0x40 MSTORE DUP2 ADD SWAP1 PUSH3 0x36 SWAP2 SWAP1 PUSH3 0x174 JUMP JUMPDEST CALLER PUSH1 0x2 PUSH0 PUSH2 0x100 EXP DUP2 SLOAD DUP2 PUSH20 0xFFFFFFFFFFFFFFFFFFFFFFFFFFFFFFFFFFFFFFFF MUL NOT AND SWAP1 DUP4 PUSH20 0xFFFFFFFFFFFFFFFFFFFFFFFFFFFFFFFFFFFFFFFF AND MUL OR SWAP1 SSTORE POP DUP2 PUSH0 DUP1 PUSH2 0x100 EXP DUP2 SLOAD DUP2 PUSH20 0xFFFFFFFFFFFFFFFFFFFFFFFFFFFFFFFFFFFFFFFF MUL NOT AND SWAP1 DUP4 PUSH20 0xFFFFFFFFFFFFFFFFFFFFFFFFFFFFFFFFFFFFFFFF AND MUL OR SWAP1 SSTORE POP DUP1 PUSH1 0x1 DUP2 SWAP1 SSTORE POP POP POP PUSH3 0x1B9 JUMP JUMPDEST PUSH0 DUP1 REVERT JUMPDEST PUSH0 PUSH20 0xFFFFFFFFFFFFFFFFFFFFFFFFFFFFFFFFFFFFFFFF DUP3 AND SWAP1 POP SWAP2 SWAP1 POP JUMP JUMPDEST PUSH0 PUSH3 0xF3 DUP3 PUSH3 0xC8 JUMP JUMPDEST SWAP1 POP SWAP2 SWAP1 POP JUMP JUMPDEST PUSH0 PUSH3 0x106 DUP3 PUSH3 0xE7 JUMP JUMPDEST SWAP1 POP SWAP2 SWAP1 POP JUMP JUMPDEST PUSH3 0x118 DUP2 PUSH3 0xFA JUMP JUMPDEST DUP2 EQ PUSH3 0x123 JUMPI PUSH0 DUP1 REVERT JUMPDEST POP JUMP JUMPDEST PUSH0 DUP2 MLOAD SWAP1 POP PUSH3 0x136 DUP2 PUSH3 0x10D JUMP JUMPDEST SWAP3 SWAP2 POP POP JUMP JUMPDEST PUSH0 DUP2 SWAP1 POP SWAP2 SWAP1 POP JUMP JUMPDEST PUSH3 0x150 DUP2 PUSH3 0x13C JUMP JUMPDEST DUP2 EQ PUSH3 0x15B JUMPI PUSH0 DUP1 REVERT JUMPDEST POP JUMP JUMPDEST PUSH0 DUP2 MLOAD SWAP1 POP PUSH3 0x16E DUP2 PUSH3 0x145 JUMP JUMPDEST SWAP3 SWAP2 POP POP JUMP JUMPDEST PUSH0 DUP1 PUSH1 0x40 DUP4 DUP6 SUB SLT ISZERO PUSH3 0x18D JUMPI PUSH3 0x18C PUSH3 0xC4 JUMP JUMPDEST JUMPDEST PUSH0 PUSH3 0x19C DUP6 DUP3 DUP7 ADD PUSH3 0x126 JUMP JUMPDEST SWAP3 POP POP PUSH1 0x20 PUSH3 0x1AF DUP6 DUP3 DUP7 ADD PUSH3 0x15E JUMP JUMPDEST SWAP2 POP POP SWAP3 POP SWAP3 SWAP1 POP JUMP JUMPDEST PUSH2 0xB02 DUP1 PUSH3 0x1C7 PUSH0 CODECOPY PUSH0 RETURN INVALID PUSH1 0x80 PUSH1 0x40 MSTORE PUSH1 0x4 CALLDATASIZE LT PUSH2 0x54 JUMPI PUSH0 CALLDATALOAD PUSH1 0xE0 SHR DUP1 PUSH4 0x3610724E EQ PUSH2 0x58 JUMPI DUP1 PUSH4 0x380D831B EQ PUSH2 0x74 JUMPI DUP1 PUSH4 0x518AB2A8 EQ PUSH2 0x8A JUMPI DUP1 PUSH4 0x55A373D6 EQ PUSH2 0xB4 JUMPI DUP1 PUSH4 0x7FF9B596 EQ PUSH2 0xDE JUMPI DUP1 PUSH4 0xCDC57FD3 EQ PUSH2 0x108 JUMPI JUMPDEST PUSH0 DUP1 REVERT JUMPDEST PUSH2 0x72 PUSH1 0x4 DUP1 CALLDATASIZE SUB DUP2 ADD SWAP1 PUSH2 0x6D SWAP2 SWAP1 PUSH2 0x671 JUMP JUMPDEST PUSH2 0x130 JUMP JUMPDEST STOP JUMPDEST CALLVALUE DUP1 ISZERO PUSH2 0x7F JUMPI PUSH0 DUP1 REVERT JUMPDEST POP PUSH2 0x88 PUSH2 0x344 JUMP JUMPDEST STOP JUMPDEST CALLVALUE DUP1 ISZERO PUSH2 0x95 JUMPI PUSH0 DUP1 REVERT JUMPDEST POP PUSH2 0x9E PUSH2 0x572 JUMP JUMPDEST PUSH1 0x40 MLOAD PUSH2 0xAB SWAP2 SWAP1 PUSH2 0x6AB JUMP JUMPDEST PUSH1 0x40 MLOAD DUP1 SWAP2 SUB SWAP1 RETURN JUMPDEST CALLVALUE DUP1 ISZERO PUSH2 0xBF JUMPI PUSH0 DUP1 REVERT JUMPDEST POP PUSH2 0xC8 PUSH2 0x578 JUMP JUMPDEST PUSH1 0x40 MLOAD PUSH2 0xD5 SWAP2 SWAP1 PUSH2 0x73E JUMP JUMPDEST PUSH1 0x40 MLOAD DUP1 SWAP2 SUB SWAP1 RETURN JUMPDEST CALLVALUE DUP1 ISZERO PUSH2 0xE9 JUMPI PUSH0 DUP1 REVERT JUMPDEST POP PUSH2 0xF2 PUSH2 0x59B JUMP JUMPDEST PUSH1 0x40 MLOAD PUSH2 0xFF SWAP2 SWAP1 PUSH2 0x6AB JUMP JUMPDEST PUSH1 0x40 MLOAD DUP1 SWAP2 SUB SWAP1 RETURN JUMPDEST CALLVALUE DUP1 ISZERO PUSH2 0x113 JUMPI PUSH0 DUP1 REVERT JUMPDEST POP PUSH2 0x12E PUSH1 0x4 DUP1 CALLDATASIZE SUB DUP2 ADD SWAP1 PUSH2 0x129 SWAP2 SWAP1 PUSH2 0x671 JUMP JUMPDEST PUSH2 0x5A1 JUMP JUMPDEST STOP JUMPDEST PUSH1 0x1 SLOAD DUP2 PUSH2 0x13E SWAP2 SWAP1 PUSH2 0x784 JUMP JUMPDEST CALLVALUE LT ISZERO PUSH2 0x149 JUMPI PUSH0 DUP1 REVERT JUMPDEST PUSH0 DUP1 SLOAD SWAP1 PUSH2 0x100 EXP SWAP1 DIV PUSH20 0xFFFFFFFFFFFFFFFFFFFFFFFFFFFFFFFFFFFFFFFF AND PUSH20 0xFFFFFFFFFFFFFFFFFFFFFFFFFFFFFFFFFFFFFFFF AND PUSH4 0x23B872DD PUSH1 0x2 PUSH0 SWAP1 SLOAD SWAP1 PUSH2 0x100 EXP SWAP1 DIV PUSH20 0xFFFFFFFFFFFFFFFFFFFFFFFFFFFFFFFFFFFFFFFF AND CALLER DUP5 PUSH1 0x40 MLOAD DUP5 PUSH4 0xFFFFFFFF AND PUSH1 0xE0 SHL DUP2 MSTORE PUSH1 0x4 ADD PUSH2 0x1C6 SWAP4 SWAP3 SWAP2 SWAP1 PUSH2 0x7E5 JUMP JUMPDEST PUSH1 0x20 PUSH1 0x40 MLOAD DUP1 DUP4 SUB DUP2 PUSH0 DUP8 GAS CALL ISZERO DUP1 ISZERO PUSH2 0x1E2 JUMPI RETURNDATASIZE PUSH0 DUP1 RETURNDATACOPY RETURNDATASIZE PUSH0 REVERT JUMPDEST POP POP POP POP PUSH1 0x40 MLOAD RETURNDATASIZE PUSH1 0x1F NOT PUSH1 0x1F DUP3 ADD AND DUP3 ADD DUP1 PUSH1 0x40 MSTORE POP DUP2 ADD SWAP1 PUSH2 0x206 SWAP2 SWAP1 PUSH2 0x84F JUMP JUMPDEST PUSH2 0x20E JUMPI PUSH0 DUP1 REVERT JUMPDEST DUP1 CALLER PUSH20 0xFFFFFFFFFFFFFFFFFFFFFFFFFFFFFFFFFFFFFFFF AND PUSH32 0x5E5E995CE3133561AFCEAA51A9A154D5DB228CD7525D34DF5185582C18D3DF09 PUSH1 0x40 MLOAD PUSH1 0x40 MLOAD DUP1 SWAP2 SUB SWAP1 LOG3 DUP1 PUSH1 0x3 PUSH0 DUP3 DUP3 SLOAD PUSH2 0x263 SWAP2 SWAP1 PUSH2 0x87A JUMP JUMPDEST SWAP3 POP POP DUP2 SWAP1 SSTORE POP PUSH1 0x1 SLOAD DUP2 PUSH2 0x278 SWAP2 SWAP1 PUSH2 0x784 JUMP JUMPDEST CALLVALUE SUB ISZERO PUSH2 0x341 JUMPI PUSH0 CALLER PUSH20 0xFFFFFFFFFFFFFFFFFFFFFFFFFFFFFFFFFFFFFFFF AND PUSH1 0x1 SLOAD DUP4 PUSH2 0x2A5 SWAP2 SWAP1 PUSH2 0x784 JUMP JUMPDEST CALLVALUE PUSH2 0x2B0 SWAP2 SWAP1 PUSH2 0x8AD JUMP JUMPDEST PUSH1 0x40 MLOAD PUSH2 0x2BC SWAP1 PUSH2 0x90D JUMP JUMPDEST PUSH0 PUSH1 0x40 MLOAD DUP1 DUP4 SUB DUP2 DUP6 DUP8 GAS CALL SWAP3 POP POP POP RETURNDATASIZE DUP1 PUSH0 DUP2 EQ PUSH2 0x2F6 JUMPI PUSH1 0x40 MLOAD SWAP2 POP PUSH1 0x1F NOT PUSH1 0x3F RETURNDATASIZE ADD AND DUP3 ADD PUSH1 0x40 MSTORE RETURNDATASIZE DUP3 MSTORE RETURNDATASIZE PUSH0 PUSH1 0x20 DUP5 ADD RETURNDATACOPY PUSH2 0x2FB JUMP JUMPDEST PUSH1 0x60 SWAP2 POP JUMPDEST POP POP SWAP1 POP DUP1 PUSH2 0x33F JUMPI PUSH1 0x40 MLOAD PUSH32 0x8C379A000000000000000000000000000000000000000000000000000000000 DUP2 MSTORE PUSH1 0x4 ADD PUSH2 0x336 SWAP1 PUSH2 0x9A1 JUMP JUMPDEST PUSH1 0x40 MLOAD DUP1 SWAP2 SUB SWAP1 REVERT JUMPDEST POP JUMPDEST POP JUMP JUMPDEST PUSH1 0x2 PUSH0 SWAP1 SLOAD SWAP1 PUSH2 0x100 EXP SWAP1 DIV PUSH20 0xFFFFFFFFFFFFFFFFFFFFFFFFFFFFFFFFFFFFFFFF AND PUSH20 0xFFFFFFFFFFFFFFFFFFFFFFFFFFFFFFFFFFFFFFFF AND CALLER PUSH20 0xFFFFFFFFFFFFFFFFFFFFFFFFFFFFFFFFFFFFFFFF AND EQ PUSH2 0x3D3 JUMPI PUSH1 0x40 MLOAD PUSH32 0x8C379A000000000000000000000000000000000000000000000000000000000 DUP2 MSTORE PUSH1 0x4 ADD PUSH2 0x3CA SWAP1 PUSH2 0xA2F JUMP JUMPDEST PUSH1 0x40 MLOAD DUP1 SWAP2 SUB SWAP1 REVERT JUMPDEST PUSH0 DUP1 SLOAD SWAP1 PUSH2 0x100 EXP SWAP1 DIV PUSH20 0xFFFFFFFFFFFFFFFFFFFFFFFFFFFFFFFFFFFFFFFF AND PUSH20 0xFFFFFFFFFFFFFFFFFFFFFFFFFFFFFFFFFFFFFFFF AND PUSH4 0xA9059CBB PUSH1 0x2 PUSH0 SWAP1 SLOAD SWAP1 PUSH2 0x100 EXP SWAP1 DIV PUSH20 0xFFFFFFFFFFFFFFFFFFFFFFFFFFFFFFFFFFFFFFFF AND PUSH0 DUP1 SLOAD SWAP1 PUSH2 0x100 EXP SWAP1 DIV PUSH20 0xFFFFFFFFFFFFFFFFFFFFFFFFFFFFFFFFFFFFFFFF AND PUSH20 0xFFFFFFFFFFFFFFFFFFFFFFFFFFFFFFFFFFFFFFFF AND PUSH4 0x70A08231 ADDRESS PUSH1 0x40 MLOAD DUP3 PUSH4 0xFFFFFFFF AND PUSH1 0xE0 SHL DUP2 MSTORE PUSH1 0x4 ADD PUSH2 0x488 SWAP2 SWAP1 PUSH2 0xA4D JUMP JUMPDEST PUSH1 0x20 PUSH1 0x40 MLOAD DUP1 DUP4 SUB DUP2 DUP7 GAS STATICCALL ISZERO DUP1 ISZERO PUSH2 0x4A3 JUMPI RETURNDATASIZE PUSH0 DUP1 RETURNDATACOPY RETURNDATASIZE PUSH0 REVERT JUMPDEST POP POP POP POP PUSH1 0x40 MLOAD RETURNDATASIZE PUSH1 0x1F NOT PUSH1 0x1F DUP3 ADD AND DUP3 ADD DUP1 PUSH1 0x40 MSTORE POP DUP2 ADD SWAP1 PUSH2 0x4C7 SWAP2 SWAP1 PUSH2 0xA7A JUMP JUMPDEST PUSH1 0x40 MLOAD DUP4 PUSH4 0xFFFFFFFF AND PUSH1 0xE0 SHL DUP2 MSTORE PUSH1 0x4 ADD PUSH2 0x4E4 SWAP3 SWAP2 SWAP1 PUSH2 0xAA5 JUMP JUMPDEST PUSH1 0x20 PUSH1 0x40 MLOAD DUP1 DUP4 SUB DUP2 PUSH0 DUP8 GAS CALL ISZERO DUP1 ISZERO PUSH2 0x500 JUMPI RETURNDATASIZE PUSH0 DUP1 RETURNDATACOPY RETURNDATASIZE PUSH0 REVERT JUMPDEST POP POP POP POP PUSH1 0x40 MLOAD RETURNDATASIZE PUSH1 0x1F NOT PUSH1 0x1F DUP3 ADD AND DUP3 ADD DUP1 PUSH1 0x40 MSTORE POP DUP2 ADD SWAP1 PUSH2 0x524 SWAP2 SWAP1 PUSH2 0x84F JUMP JUMPDEST PUSH2 0x52C JUMPI PUSH0 DUP1 REVERT JUMPDEST CALLER PUSH20 0xFFFFFFFFFFFFFFFFFFFFFFFFFFFFFFFFFFFFFFFF AND PUSH2 0x8FC SELFBALANCE SWAP1 DUP2 ISZERO MUL SWAP1 PUSH1 0x40 MLOAD PUSH0 PUSH1 0x40 MLOAD DUP1 DUP4 SUB DUP2 DUP6 DUP9 DUP9 CALL SWAP4 POP POP POP POP ISZERO DUP1 ISZERO PUSH2 0x56F JUMPI RETURNDATASIZE PUSH0 DUP1 RETURNDATACOPY RETURNDATASIZE PUSH0 REVERT JUMPDEST POP JUMP JUMPDEST PUSH1 0x3 SLOAD DUP2 JUMP JUMPDEST PUSH0 DUP1 SLOAD SWAP1 PUSH2 0x100 EXP SWAP1 DIV PUSH20 0xFFFFFFFFFFFFFFFFFFFFFFFFFFFFFFFFFFFFFFFF AND DUP2 JUMP JUMPDEST PUSH1 0x1 SLOAD DUP2 JUMP JUMPDEST PUSH1 0x2 PUSH0 SWAP1 SLOAD SWAP1 PUSH2 0x100 EXP SWAP1 DIV PUSH20 0xFFFFFFFFFFFFFFFFFFFFFFFFFFFFFFFFFFFFFFFF AND PUSH20 0xFFFFFFFFFFFFFFFFFFFFFFFFFFFFFFFFFFFFFFFF AND CALLER PUSH20 0xFFFFFFFFFFFFFFFFFFFFFFFFFFFFFFFFFFFFFFFF AND EQ PUSH2 0x630 JUMPI PUSH1 0x40 MLOAD PUSH32 0x8C379A000000000000000000000000000000000000000000000000000000000 DUP2 MSTORE PUSH1 0x4 ADD PUSH2 0x627 SWAP1 PUSH2 0xA2F JUMP JUMPDEST PUSH1 0x40 MLOAD DUP1 SWAP2 SUB SWAP1 REVERT JUMPDEST DUP1 PUSH1 0x1 DUP2 SWAP1 SSTORE POP POP JUMP JUMPDEST PUSH0 DUP1 REVERT JUMPDEST PUSH0 DUP2 SWAP1 POP SWAP2 SWAP1 POP JUMP JUMPDEST PUSH2 0x650 DUP2 PUSH2 0x63E JUMP JUMPDEST DUP2 EQ PUSH2 0x65A JUMPI PUSH0 DUP1 REVERT JUMPDEST POP JUMP JUMPDEST PUSH0 DUP2 CALLDATALOAD SWAP1 POP PUSH2 0x66B DUP2 PUSH2 0x647 JUMP JUMPDEST SWAP3 SWAP2 POP POP JUMP JUMPDEST PUSH0 PUSH1 0x20 DUP3 DUP5 SUB SLT ISZERO PUSH2 0x686 JUMPI PUSH2 0x685 PUSH2 0x63A JUMP JUMPDEST JUMPDEST PUSH0 PUSH2 0x693 DUP5 DUP3 DUP6 ADD PUSH2 0x65D JUMP JUMPDEST SWAP2 POP POP SWAP3 SWAP2 POP POP JUMP JUMPDEST PUSH2 0x6A5 DUP2 PUSH2 0x63E JUMP JUMPDEST DUP3 MSTORE POP POP JUMP JUMPDEST PUSH0 PUSH1 0x20 DUP3 ADD SWAP1 POP PUSH2 0x6BE PUSH0 DUP4 ADD DUP5 PUSH2 0x69C JUMP JUMPDEST SWAP3 SWAP2 POP POP JUMP JUMPDEST PUSH0 PUSH20 0xFFFFFFFFFFFFFFFFFFFFFFFFFFFFFFFFFFFFFFFF DUP3 AND SWAP1 POP SWAP2 SWAP1 POP JUMP JUMPDEST PUSH0 DUP2 SWAP1 POP SWAP2 SWAP1 POP JUMP JUMPDEST PUSH0 PUSH2 0x706 PUSH2 0x701 PUSH2 0x6FC DUP5 PUSH2 0x6C4 JUMP JUMPDEST PUSH2 0x6E3 JUMP JUMPDEST PUSH2 0x6C4 JUMP JUMPDEST SWAP1 POP SWAP2 SWAP1 POP JUMP JUMPDEST PUSH0 PUSH2 0x717 DUP3 PUSH2 0x6EC JUMP JUMPDEST SWAP1 POP SWAP2 SWAP1 POP JUMP JUMPDEST PUSH0 PUSH2 0x728 DUP3 PUSH2 0x70D JUMP JUMPDEST SWAP1 POP SWAP2 SWAP1 POP JUMP JUMPDEST PUSH2 0x738 DUP2 PUSH2 0x71E JUMP JUMPDEST DUP3 MSTORE POP POP JUMP JUMPDEST PUSH0 PUSH1 0x20 DUP3 ADD SWAP1 POP PUSH2 0x751 PUSH0 DUP4 ADD DUP5 PUSH2 0x72F JUMP JUMPDEST SWAP3 SWAP2 POP POP JUMP JUMPDEST PUSH32 0x4E487B7100000000000000000000000000000000000000000000000000000000 PUSH0 MSTORE PUSH1 0x11 PUSH1 0x4 MSTORE PUSH1 0x24 PUSH0 REVERT JUMPDEST PUSH0 PUSH2 0x78E DUP3 PUSH2 0x63E JUMP JUMPDEST SWAP2 POP PUSH2 0x799 DUP4 PUSH2 0x63E JUMP JUMPDEST SWAP3 POP DUP3 DUP3 MUL PUSH2 0x7A7 DUP2 PUSH2 0x63E JUMP JUMPDEST SWAP2 POP DUP3 DUP3 DIV DUP5 EQ DUP4 ISZERO OR PUSH2 0x7BE JUMPI PUSH2 0x7BD PUSH2 0x757 JUMP JUMPDEST JUMPDEST POP SWAP3 SWAP2 POP POP JUMP JUMPDEST PUSH0 PUSH2 0x7CF DUP3 PUSH2 0x6C4 JUMP JUMPDEST SWAP1 POP SWAP2 SWAP1 POP JUMP JUMPDEST PUSH2 0x7DF DUP2 PUSH2 0x7C5 JUMP JUMPDEST DUP3 MSTORE POP POP JUMP JUMPDEST PUSH0 PUSH1 0x60 DUP3 ADD SWAP1 POP PUSH2 0x7F8 PUSH0 DUP4 ADD DUP7 PUSH2 0x7D6 JUMP JUMPDEST PUSH2 0x805 PUSH1 0x20 DUP4 ADD DUP6 PUSH2 0x7D6 JUMP JUMPDEST PUSH2 0x812 PUSH1 0x40 DUP4 ADD DUP5 PUSH2 0x69C JUMP JUMPDEST SWAP5 SWAP4 POP POP POP POP JUMP JUMPDEST PUSH0 DUP2 ISZERO ISZERO SWAP1 POP SWAP2 SWAP1 POP JUMP JUMPDEST PUSH2 0x82E DUP2 PUSH2 0x81A JUMP JUMPDEST DUP2 EQ PUSH2 0x838 JUMPI PUSH0 DUP1 REVERT JUMPDEST POP JUMP JUMPDEST PUSH0 DUP2 MLOAD SWAP1 POP PUSH2 0x849 DUP2 PUSH2 0x825 JUMP JUMPDEST SWAP3 SWAP2 POP POP JUMP JUMPDEST PUSH0 PUSH1 0x20 DUP3 DUP5 SUB SLT ISZERO PUSH2 0x864 JUMPI PUSH2 0x863 PUSH2 0x63A JUMP JUMPDEST JUMPDEST PUSH0 PUSH2 0x871 DUP5 DUP3 DUP6 ADD PUSH2 0x83B JUMP JUMPDEST SWAP2 POP POP SWAP3 SWAP2 POP POP JUMP JUMPDEST PUSH0 PUSH2 0x884 DUP3 PUSH2 0x63E JUMP JUMPDEST SWAP2 POP PUSH2 0x88F DUP4 PUSH2 0x63E JUMP JUMPDEST SWAP3 POP DUP3 DUP3 ADD SWAP1 POP DUP1 DUP3 GT ISZERO PUSH2 0x8A7 JUMPI PUSH2 0x8A6 PUSH2 0x757 JUMP JUMPDEST JUMPDEST SWAP3 SWAP2 POP POP JUMP JUMPDEST PUSH0 PUSH2 0x8B7 DUP3 PUSH2 0x63E JUMP JUMPDEST SWAP2 POP PUSH2 0x8C2 DUP4 PUSH2 0x63E JUMP JUMPDEST SWAP3 POP DUP3 DUP3 SUB SWAP1 POP DUP2 DUP2 GT ISZERO PUSH2 0x8DA JUMPI PUSH2 0x8D9 PUSH2 0x757 JUMP JUMPDEST JUMPDEST SWAP3 SWAP2 POP POP JUMP JUMPDEST PUSH0 DUP2 SWAP1 POP SWAP3 SWAP2 POP POP JUMP JUMPDEST POP JUMP JUMPDEST PUSH0 PUSH2 0x8F8 PUSH0 DUP4 PUSH2 0x8E0 JUMP JUMPDEST SWAP2 POP PUSH2 0x903 DUP3 PUSH2 0x8EA JUMP JUMPDEST PUSH0 DUP3 ADD SWAP1 POP SWAP2 SWAP1 POP JUMP JUMPDEST PUSH0 PUSH2 0x917 DUP3 PUSH2 0x8ED JUMP JUMPDEST SWAP2 POP DUP2 SWAP1 POP SWAP2 SWAP1 POP JUMP JUMPDEST PUSH0 DUP3 DUP3 MSTORE PUSH1 0x20 DUP3 ADD SWAP1 POP SWAP3 SWAP2 POP POP JUMP JUMPDEST PUSH32 0x436F756C646E27742073656E6420746865206368616E6765206261636B20746F PUSH0 DUP3 ADD MSTORE PUSH32 0x2074686520627579657200000000000000000000000000000000000000000000 PUSH1 0x20 DUP3 ADD MSTORE POP JUMP JUMPDEST PUSH0 PUSH2 0x98B PUSH1 0x2A DUP4 PUSH2 0x921 JUMP JUMPDEST SWAP2 POP PUSH2 0x996 DUP3 PUSH2 0x931 JUMP JUMPDEST PUSH1 0x40 DUP3 ADD SWAP1 POP SWAP2 SWAP1 POP JUMP JUMPDEST PUSH0 PUSH1 0x20 DUP3 ADD SWAP1 POP DUP2 DUP2 SUB PUSH0 DUP4 ADD MSTORE PUSH2 0x9B8 DUP2 PUSH2 0x97F JUMP JUMPDEST SWAP1 POP SWAP2 SWAP1 POP JUMP JUMPDEST PUSH32 0x4F6E6C7920746865206F776E65722063616E2063616C6C20746869732066756E PUSH0 DUP3 ADD MSTORE PUSH32 0x6374696F6E000000000000000000000000000000000000000000000000000000 PUSH1 0x20 DUP3 ADD MSTORE POP JUMP JUMPDEST PUSH0 PUSH2 0xA19 PUSH1 0x25 DUP4 PUSH2 0x921 JUMP JUMPDEST SWAP2 POP PUSH2 0xA24 DUP3 PUSH2 0x9BF JUMP JUMPDEST PUSH1 0x40 DUP3 ADD SWAP1 POP SWAP2 SWAP1 POP JUMP JUMPDEST PUSH0 PUSH1 0x20 DUP3 ADD SWAP1 POP DUP2 DUP2 SUB PUSH0 DUP4 ADD MSTORE PUSH2 0xA46 DUP2 PUSH2 0xA0D JUMP JUMPDEST SWAP1 POP SWAP2 SWAP1 POP JUMP JUMPDEST PUSH0 PUSH1 0x20 DUP3 ADD SWAP1 POP PUSH2 0xA60 PUSH0 DUP4 ADD DUP5 PUSH2 0x7D6 JUMP JUMPDEST SWAP3 SWAP2 POP POP JUMP JUMPDEST PUSH0 DUP2 MLOAD SWAP1 POP PUSH2 0xA74 DUP2 PUSH2 0x647 JUMP JUMPDEST SWAP3 SWAP2 POP POP JUMP JUMPDEST PUSH0 PUSH1 0x20 DUP3 DUP5 SUB SLT ISZERO PUSH2 0xA8F JUMPI PUSH2 0xA8E PUSH2 0x63A JUMP JUMPDEST JUMPDEST PUSH0 PUSH2 0xA9C DUP5 DUP3 DUP6 ADD PUSH2 0xA66 JUMP JUMPDEST SWAP2 POP POP SWAP3 SWAP2 POP POP JUMP JUMPDEST PUSH0 PUSH1 0x40 DUP3 ADD SWAP1 POP PUSH2 0xAB8 PUSH0 DUP4 ADD DUP6 PUSH2 0x7D6 JUMP JUMPDEST PUSH2 0xAC5 PUSH1 0x20 DUP4 ADD DUP5 PUSH2 0x69C JUMP JUMPDEST SWAP4 SWAP3 POP POP POP JUMP INVALID LOG2 PUSH5 0x6970667358 0x22 SLT KECCAK256 PUSH32 0x1203E1B9E5153B2D339B053B3892FBF45EFE3623E461504D1A28F61369C09B64 PUSH20 0x6F6C634300081500330000000000000000000000 "
		},
		"gasEstimates": {
			"creation": {
				"codeDepositCost": "563600",
				"executionCost": "infinite",
				"totalCost": "infinite"
			},
			"external": {
				"buyTokens(uint256)": "infinite",
				"endSale()": "infinite",
				"modifyTokenPrice(uint256)": "24772",
				"tokenContract()": "infinite",
				"tokenPrice()": "2491",
				"tokensSold()": "2447"
			}
		},
		"methodIdentifiers": {
			"buyTokens(uint256)": "3610724e",
			"endSale()": "380d831b",
			"modifyTokenPrice(uint256)": "cdc57fd3",
			"tokenContract()": "55a373d6",
			"tokenPrice()": "7ff9b596",
			"tokensSold()": "518ab2a8"
		}
	},
	"abi": [
		{
			"inputs": [
				{
					"internalType": "contract SampleToken",
					"name": "_tokenContract",
					"type": "address"
				},
				{
					"internalType": "uint256",
					"name": "_tokenPrice",
					"type": "uint256"
				}
			],
			"stateMutability": "nonpayable",
			"type": "constructor"
		},
		{
			"anonymous": false,
			"inputs": [
				{
					"indexed": true,
					"internalType": "address",
					"name": "_buyer",
					"type": "address"
				},
				{
					"indexed": true,
					"internalType": "uint256",
					"name": "_amount",
					"type": "uint256"
				}
			],
			"name": "Sell",
			"type": "event"
		},
		{
			"inputs": [
				{
					"internalType": "uint256",
					"name": "_numberOfTokens",
					"type": "uint256"
				}
			],
			"name": "buyTokens",
			"outputs": [],
			"stateMutability": "payable",
			"type": "function"
		},
		{
			"inputs": [],
			"name": "endSale",
			"outputs": [],
			"stateMutability": "nonpayable",
			"type": "function"
		},
		{
			"inputs": [
				{
					"internalType": "uint256",
					"name": "_tokenPrice",
					"type": "uint256"
				}
			],
			"name": "modifyTokenPrice",
			"outputs": [],
			"stateMutability": "nonpayable",
			"type": "function"
		},
		{
			"inputs": [],
			"name": "tokenContract",
			"outputs": [
				{
					"internalType": "contract SampleToken",
					"name": "",
					"type": "address"
				}
			],
			"stateMutability": "view",
			"type": "function"
		},
		{
			"inputs": [],
			"name": "tokenPrice",
			"outputs": [
				{
					"internalType": "uint256",
					"name": "",
					"type": "uint256"
				}
			],
			"stateMutability": "view",
			"type": "function"
		},
		{
			"inputs": [],
			"name": "tokensSold",
			"outputs": [
				{
					"internalType": "uint256",
					"name": "",
					"type": "uint256"
				}
			],
			"stateMutability": "view",
			"type": "function"
		}
	]
}